:020000040800F2
:1000000088040020012A0008791900087B190008DB
:100010007F190008831900088719000800000000F4
:100020000000000000000000000000008B19000824
:100030008D190008000000008F19000891190008B0
:100040001B2A00081B2A00081B2A00081B2A00087C
:100050001B2A00081B2A00081B2A00081B2A00086C
:100060001B2A00081B2A00081B2A00081B2A00085C
:100070001B2A00081B2A00081B2A00081B2A00084C
:100080001B2A00081B2A00081B2A00081B2A00083C
:100090001B2A00081B2A00081B2A00081B2A00082C
:1000A0001B2A00081B2A00081B2A00081B2A00081C
:1000B0001B2A00081B2A00081B2A00081B2A00080C
:1000C0001B2A00081B2A00081B2A00081B2A0008FC
:1000D0001B2A00081B2A0008AF1900081B2A000869
:1000E000991900081B2A00081B2A0008DFF80CD009
:1000F00002F09CFF004800477916000888040020A1
:100100000CB50020019000906B48006840F48030EE
:100110006949086000BF6848006800F4003000903A
:100120000198401C0190009818B90198B0F5A06F93
:10013000F1D16148006810F4003F02D00120009026
:1001400001E0002000900098012842D15B4800683F
:1001500040F01000594908600846006820F003008C
:1001600008600846006840F0020008605248406895
:10017000514948600846406848600846406840F475
:10018000806048600846406820F47C10486008465B
:10019000406840F4E81048600846006840F080700D
:1001A000086000BF4448006810F0007FFAD0424861
:1001B000406820F00300404948600846406840F02D
:1001C0000200486000BF3C48406800F00C0008286E
:1001D000F9D10CBD10B5FFF793FF10BD10B536482F
:1001E000006840F00100344908600846406834491E
:1001F00008403149486008460068324908402E49A5
:1002000008600846006820F48020086008464068BE
:1002100020F4FE0048604FF41F008860FFF7DAFF0B
:100220004FF000602849086010BD10B50021002083
:100230000022214B5B6803F00C0121B1042906D098
:10024000082928D107E0214B214C236027E01F4BD0
:100250001F4C236023E0184B5B6803F47010164BAF
:100260005B6803F48032022303EB904022B9194B00
:100270004343174C23600DE00F4B5B6813F4003FC2
:1002800004D0144B4343124C236003E00F4B434311
:100290000F4C236003E00D4B0D4C236000BF00BFEB
:1002A000054B5B68C3F303130B4CE15C084B1B6805
:1002B000CB40074C236010BD0010024000200240DC
:1002C0000000FFF8FFFFF6FE08ED00E000127A00E4
:1002D0000000002000093D000400002031490143D6
:1002E000314A1160704770B5002100230F22C47895
:1002F0000CB32D4C246804F4E064C4F5E064210AD6
:10030000C1F10403CA40447804FA03F1847814402C
:1003100021430901254C0678A155047804F01F05F6
:100320000124AC4005786D114FF0E02606EB850501
:10033000C5F8004109E0047804F01F050124AC4031
:100340001B4D0678761145F8264070BD194A0A40C3
:100350000243154B1B1F1A60704739B1124A121D18
:1003600012680243104B1B1D1A6006E00E4A121D54
:10037000126882430C4B1B1D1A607047042808D179
:100380004FF0E021096941F004014FF0E0221161D2
:1003900007E04FF0E021096921F004014FF0E0226D
:1003A000116170470000FA050CED00E000E400E088
:1003B00080E100E080FFFF1F10B50446CA48844278
:1003C00008D10121042000F027FB0021042000F0C7
:1003D00023FB46E0C548844208D10121082000F0F3
:1003E0001BFB0021082000F017FB3AE0C0488442C4
:1003F00008D10121102000F00FFB0021102000F097
:100400000BFB2EE0BB48844208D10121202000F0E4
:1004100003FB0021202000F0FFFA22E0B6488442CE
:1004200008D10121402000F0F7FA0021402000F01F
:10043000F3FA16E0B148844208D10121802000F08F
:10044000EBFA0021802000F0E7FA0AE0AC48844291
:1004500007D10121801500F0DFFA0021A01500F07E
:10046000DBFA10BD10B50121084600F0D5FA0021D5
:10047000012000F0D1FA10BD2DE9F041024600251F
:100480000026002000230024002791F803C00CF070
:100490000F0591F803C01CF0100F03D091F802C0B3
:1004A0004CEA050591F800C0BCF1000F31D014688A
:1004B00000202BE04FF0010C0CFA00F3B1F800C063
:1004C0000CEA03069E4220D183004FF00F0C0CFA79
:1004D00003F7BC4305FA03FC4CEA040491F803C09B
:1004E000BCF1280F06D14FF0010C0CFA00FCC2F849
:1004F00014C00AE091F803C0BCF1480F05D14FF0D9
:10050000010C0CFA00FCC2F810C0401C0828D1D322
:100510001460B1F800C0BCF1FF0F34DD5468002056
:100520002EE000F1080C4FF0010808FA0CF3B1F8C6
:1005300000C00CEA03069E4221D183004FF00F0C4D
:100540000CFA03F7BC4305FA03FC4CEA040491F8E7
:1005500003C0BCF1280F05D100F1080C08FA0CF813
:10056000C2F8148091F803C0BCF1480F07D100F124
:10057000080C4FF0010808FA0CF8C2F81080401C73
:100580000828CED35460BDE8F0814FF6FF7101809A
:10059000022181700421C1707047024600209368D7
:1005A0000B4201D0012000E000207047014688681E
:1005B00080B2704702460020D3680B4201D0012070
:1005C00000E0002070470146C86880B270470161B2
:1005D0007047416170470AB1016100E041617047B5
:1005E000C16070474FF480320A4382618161826149
:1005F00082698269704702460020424B18684FF6B4
:100600008073184040EA021008433E4B1860704760
:100610003D49C8617047F0B50A4600230024002117
:10062000002500F00046B6F1004F02D1354EF169C9
:1006300001E0344E7168C0F3034583B200F4401604
:10064000B6F5401F08D121F070612E4E766826F075
:1006500070662C4F7E6012E000F48016B6F5801FA5
:1006600006D1032606FA05F4A14341F0706106E0C5
:10067000460D360103FA06F6B14341F0706122B12E
:10068000460D360103FA06F6314300F00046B6F196
:10069000004F02D11B4EF16101E01A4E7160F0BDB6
:1006A00030B500228B071C0F0F2303FA04F2154B01
:1006B00008338C1053F824309343124C08348D10B7
:1006C00044F8253023468C1053F824308C07240F2F
:1006D00000FA04F423430B4C08348D1044F8253001
:1006E00030BD0A490860704700080140000C014015
:1006F000001001400014014000180140001C01409E
:10070000002001400000014000002042DC002042A7
:10071000DD48006840F00100DB4908600846406899
:10072000DA490840D849486008460068D849084076
:10073000D54908600846006820F480200860084613
:10074000406820F4FE0048604FF41F008860704746
:10075000CD49096821F48031CB4A116011460968FE
:1007600021F480211160B0F5803F03D0B0F5802FD7
:100770000ED106E0C449096841F48031C24A1160D3
:1007800007E0C149096841F4A021BF4A116000E0B7
:1007900000BF00BF704710B50146002200230020B3
:1007A0004A11012A02D1B84C236806E0022A02D17C
:1007B000B54C236A01E0B44C636A01F01F020124C6
:1007C00094401C4201D0012000E0002010BD38B54B
:1007D000002000900024002500BF3120FFF7DBFF40
:1007E00005460098401C00900098B0F5A06F01D01D
:1007F000002DF2D03120FFF7CEFF08B1012400E038
:100800000024204638BD014600209F4A106820F091
:10081000F80040EAC100106070479E4908607047C8
:1008200002460020984B586820F47C1042EA0103ED
:100830001843954B586070479649086670470146C3
:100840000020914A506820F0030008435060704730
:100850008D48406800F00C007047014600208A4A2D
:10086000506820F0F00008435060704701460020B7
:10087000854A506820F4E0600843506070470146A4
:100880000020814A506820F4605040EAC100506066
:10089000704729B17C4A527A02437B4B5A7204E07A
:1008A000794A527A8243784B5A7270477A49086083
:1008B000704701460020744A506820F440400843C5
:1008C000506070470021754A11706F4A82F82010FD
:1008D000012802D0042808D103E001216F4A1170D9
:1008E00004E005216D4A117000E000BF00BF7047B1
:1008F0006B49086070476449096A0143624A1162A2
:100900007047674944390860704730B500210022BC
:10091000002400235C4D6D6805F00C0121B1042911
:1009200005D0082923D105E05E4D056022E05D4D2C
:1009300005601FE0544D6D6805F47012524D6D68EE
:1009400005F48034022505EB92421CB9564D5543FF
:1009500005600BE04C4D6D6815F4003F03D0524D1F
:100960005543056002E04F4D5543056002E04D4D93
:10097000056000BF00BF444D6D6805F0F001090936
:100980004A4D6B5C0568DD4045603F4D6D6805F480
:10099000E061090A454D6B5C4568DD4085603A4D74
:1009A0006D6805F46051C90A404D6B5C4568DD40D7
:1009B000C560354D6D6805F44041890B3C4D6B5C5D
:1009C000C568B5FBF3F5056130BD29B12E4A526902
:1009D00002432D4B5A6104E02B4A526982432A4B51
:1009E0005A61704729B1284A92690243264B9A619D
:1009F00004E0254A92698243234B9A61704729B1EA
:100A0000214AD2690243204BDA6104E01E4AD269CE
:100A100082431D4BDA61704729B11B4AD2680243F9
:100A2000194BDA6004E0184AD2688243164BDA6048
:100A3000704729B1144A12690243134B1A6104E04A
:100A4000114A12698243104B1A61704714494039A8
:100A5000086070470F49C86470470B49C8717047F8
:100A60000948406A40F08070074948627047014673
:100A70000020054A92680A4201D0012000E00020CF
:100A80007047014988727047001002400000FFF86B
:100A9000FFFFF6FE00004242D80042422010024012
:100AA0008004424200127A0000093D001400002038
:100AB00024000020002044490860091D0860091D29
:100AC0000860091D086041483F49143108607047BB
:100AD00000213D498279002A3AD00A46126803680B
:100AE0009A430B461A600A1D126803689A430B1D4D
:100AF0001A60027911440A6803681A430A60324A8C
:100B00000832126803689A432F4B08331A601A1D83
:100B1000126803689A432C4B0C331A604279102AEE
:100B20000ED11A1F126803681A43274B08331A6044
:100B30001A1D126803681A43234B0C331A600DE028
:100B40002149427911440A6803681A430A6005E0A2
:100B5000027911440A6803689A430A6070470021C9
:100B6000016001710C2141710021817170471649AA
:100B7000103109680143144A103211607047014670
:100B80000020114A143212680A4201D0012000E00C
:100B9000002070470C49143108607047014600205E
:100BA0000022094B1B6803EA0102074B14331B6840
:100BB0000B4202D00AB1012000E000207047024938
:100BC000143108607047000000040140FFFF0F006F
:100BD00010B50446FB48844209D101218803FFF780
:100BE0001BFF00214FF48040FFF716FF32E0F6486C
:100BF000844209D101214804FFF71BFF00214FF473
:100C00000030FFF716FF25E0F048844209D10121AA
:100C10008804FFF70EFF00214FF48020FFF709FF43
:100C200018E0EB48844209D10121C804FFF701FF15
:100C300000214FF40020FFF7FCFE0BE0E548844262
:100C400008D101210805FFF7F4FE00214FF48010C0
:100C5000FFF7EFFE10BD2DE9F04786B005460E46C2
:100C60000024A24600BFA1460027B08900B100BF02
:100C70002F462C8A4CF6FF700440F08804432C82E7
:100C8000AC894EF6F3100440B0883189084371896D
:100C900008430443AC81AC8A4FF6FF400440B0895E
:100CA0000443AC8201A8FFF730FEC648874202D158
:100CB000DDF810A001E0DDF80CA0A88910F4004FC9
:100CC00008D00AEBCA0000EB0A1031684900B0FBFB
:100CD000F1F807E00AEBCA0000EB0A10316889005E
:100CE000B0FBF1F86420B8FBF0F0040120096421A6
:100CF00001FB1089A88910F4004F08D0322000EBC6
:100D0000C900B0FBF1F000F00700044308E0322016
:100D100000EB09106421B0FBF1F000F00F00044378
:100D20002C8106B0BDE8F0874FF416510160002118
:100D30008180C18001810C21418100218181704726
:100D400010B502460020108A4FF2FF0318400B88AE
:100D50004C8823438C882343CC8823431843108238
:100D600010BD0021018041808180C180704721B188
:100D7000828942F40052828104E082894DF6FF7339
:100D80001A4082817047F0B50346002400260025F2
:100D90000020A1F510676A3F00D100BF1846C1F3DB
:100DA000421401F01F06012707FA06F5012C01D1B4
:100DB0000C3004E0022C01D1103000E014301AB1E4
:100DC00007682F43076002E00768AF430760F0BD84
:100DD0001AB1838A0B43838202E0838A8B43838226
:100DE0007047028A4FF6F0731A400282028A0A4361
:100DF0000282704782894FF2FF731A408281828992
:100E00000A438281704721B1828942F002028281C5
:100E100004E082894FF6FD731A4082817047028A8E
:100E20004FF6DF731A400282028A0A430282704739
:100E300021B1028A42F48042028204E0028A4BF627
:100E4000FF731A4002827047C1F308028280704724
:100E500001468888C0F308007047818941F001018C
:100E600081817047028BD2B20283028B42EA012257
:100E700002837047028B02F47F420283028B0A4393
:100E80000283704721B1828A42F02002828204E00C
:100E9000828A4FF6DF731A408282704721B1828ABC
:100EA00042F01002828204E0828A4FF6EF731A4009
:100EB0008282704721B1828A42F00802828204E075
:100EC000828A4FF6F7731A408282704721B1828975
:100ED00042F40042828103E08289C2F30E028281E1
:100EE000704721B1828A42F40062828204E0828AE1
:100EF0004FF2FF731A4082827047828A4FF6FB736B
:100F00001A408282828A0A438282704721B1828A91
:100F100042F00202828204E0828A4FF6FD731A4098
:100F20008282704702460020B1F5007F00D100BFE9
:100F300013880B4201D0012000E00020704701F42B
:100F40000072B2F5007F00D100BFCA430280704733
:100F500070B502460024002300250020A1F510668C
:100F60006A3E00D100BFC1F3421501F01F03012604
:100F700006FA03F3012D02D19689334006E0022DD3
:100F800002D1168A334001E0968A33400C120126C2
:100F900006FA04F41688344013B10CB1012000E0C5
:100FA000002070BD10B500220023A1F510646A3C3A
:100FB00000D100BF0A1201249440A3B2DC43048094
:100FC00010BD0000003801400044004000480040CF
:100FD000004C00400050004010B50446FA488442DE
:100FE00008D101214015FFF717FD00216015FFF71B
:100FF00013FD17E0F548844208D101210015FFF7E1
:101000000BFD00212015FFF707FD0BE0F04884429F
:1010100008D10121C803FFF7FFFC00214FF4004075
:10102000FFF7FAFC10BD30B50246002000235068DF
:10103000E84C20400D790C6844EA052420435060B8
:101040009068E54C2040D1E902542C434D7944EAA4
:10105000450420439060D06A20F470000C7C641E2C
:10106000E4B2234340EA0350D06230BD0021016066
:10107000017141718160C16001210174704721B12A
:10108000826842F00102826003E0826822F001027D
:101090008260704721B1826842F48072826003E00E
:1010A000826822F480728260704710B50023CBB250
:1010B0001AB144681C43446002E044689C434460A5
:1010C00010BD816841F00801816070470146002031
:1010D0008A6812F0080F01D0012000E0002070475C
:1010E000816841F0040181607047014600208A68F0
:1010F00012F0040F01D0012000E00020704721B160
:10110000826842F4A002826003E0826822F4A002B6
:1011100082607047014600208A6812F4800F01D077
:10112000012000E00020704710B50A46002100238E
:10113000416821F46041531E41EA4331416010BDD2
:1011400021B1426842F40062426003E0426822F446
:10115000006242607047F0B504460D460020002151
:10116000092D11DDE068A5F10A0606EB4607072602
:1011700006FA07F18843A5F10A0606EB460603FACC
:1011800006F10843E0600CE0206905EB45070726FF
:1011900006FA07F1884305EB450603FA06F1084312
:1011A0002061072A0FDA606B561E06EB86071F26A2
:1011B00006FA07F18843561E06EB860605FA06F185
:1011C0000843606322E00D2A0FDA206BD61F06EB7E
:1011D00086071F2606FA07F18843D61F06EB860608
:1011E00005FA06F10843206310E0E06AA2F10D065B
:1011F00006EB86071F2606FA07F18843A2F10D06C3
:1012000006EB860605FA06F10843E062F0BD21B15F
:10121000826842F48012826003E0826822F48012C5
:10122000826070470146C86C80B2704766484C3097
:101230000068704721B1426842F48062426003E076
:10124000426822F480624260704721B1426842F4F1
:101250008052426003E0426822F48052426070474C
:101260000A460021816821F4E04111438160704702
:1012700021B1826842F40042826003E0826822F475
:1012800000428260704721B1826842F4021282609B
:1012900003E0826822F40212826070470146002057
:1012A0008A6812F4001F01D0012000E0002070477E
:1012B000F0B504461546002000220026092911DD5C
:1012C000E068A1F10A0707EB470C072707FA0CF2C1
:1012D0009043A1F10A0707EB470703FA07F210430F
:1012E000E0600CE0206901EB410C072707FA0CF2E3
:1012F000904301EB410703FA07F210432061A06B12
:10130000C0F30156EF1C06F1010CA7EB0C0707EB2D
:10131000870C1F2707FA0CF29043EF1C06F1010C13
:10132000A7EB0C0707EB870701FA07F21043A0634E
:10133000F0BD10B50A4600210023816B21F4401155
:10134000531E41EA0351816310BD08B50023009389
:101350000090009B0B440093009B1A6008BD08B5E9
:10136000024600200090009201F12800009B1844E2
:1013700000900098006880B208BD0A4600214168CC
:10138000164B1940114341607047416282627047B9
:101390000A460021416821F01F0111434160704756
:1013A00040B109490831096841F40001064A083290
:1013B000116007E004490831096821F40001024A7C
:1013C00008321160704700000024014000280140ED
:1013D000003C0140FFFEF0FFFDF7F1FFFFFD3FFF86
:1013E0000246002013680B4201D0012000E00020DB
:1013F0007047CA430260704770B502460020002360
:1014000000240B125568CEB205EA060415681D4289
:1014100002D00CB1012000E0002070BD00220A12B1
:10142000D34303607047000001684FF6FE7211401D
:1014300001600021016041608160C1608C49884287
:1014400008D18B490839496841F00F01884A083AA8
:1014500051608AE086491431884208D184490839AC
:10146000496841F0F001824A083A51607DE08049C4
:101470002831884208D17E490839496841F47061B1
:101480007B4A083A516070E079493C31884208D182
:1014900077490839496841F47041754A083A516002
:1014A00063E073495031884208D17149083949686D
:1014B00041F470216E4A083A516056E06C4964313B
:1014C000884208D16A490839496841F47001684A7C
:1014D000083A516049E066497831884208D1644948
:1014E0000839496841F07061614A083A51603CE04E
:1014F0006049884206D1011F096841F00F01021FAF
:10150000116032E05B491431884208D15949091F02
:10151000096841F0F001574A121F116025E0554952
:101520002831884208D15349091F096841F4706184
:10153000504A121F116018E04E493C31884208D1D0
:101540004C49091F096841F470414A4A121F116051
:101550000BE048495031884207D14649091F0968C4
:1015600041F47021434A121F1160704710B50022E8
:10157000026847F6F0739A430C6A8B6823430C6940
:1015800023434C6923438C692343CC6923434C6A2E
:1015900023438C6A23431A430260CB6843600B6881
:1015A00083604B68C36010BD0021016041608160B1
:1015B000C160016141618161C16101624162816219
:1015C000704721B1026842F00102026004E0026843
:1015D0004FF6FE731A40026070471AB103680B435E
:1015E000036002E003688B4303607047416070470B
:1015F0000146486880B2704701460020002211F081
:10160000805F03D01B4B083B1A6802E0184B083B75
:101610001A680A4201D0012000E00020704710F053
:10162000805F03D01349091F086002E010490839A0
:101630004860704701460020002211F0805F03D00F
:101640000C4B083B1A6802E0094B083B1A680A4237
:1016500001D0012000E00020704710F0805F03D02F
:101660000449091F086002E00149083948607047D1
:10167000080002400804024000F092FA00F0FCF971
:1016800001F0F6F89A4801789A48007801F000F9DC
:1016900000F0CEFD00F0C1FF97A001F00BFD01F0BE
:1016A0006EF99949086082E09848007A00284DD088
:1016B00000209649087200F08FFD9448C078934945
:1016C000897840EA01209249086090484179007980
:1016D00041EA00208F49086000208F4908602DE012
:1016E0008B4800688C490978C84010F0010F20D061
:1016F00000208A49086018E0864800688749097810
:10170000C84010F0010F0BD080494978C1F10400A6
:1017100082490A68521C80490968491C00F07DFC16
:101720007E480068401C7D4908607C4800680B28A2
:10173000E2D379480068401C774908607648006821
:101740000B28CDD34FF4FA7000F05EFA4FF400513D
:101750007348FEF722FF012804D100F03DFD71A07F
:1017600001F0A8FC00206D4908600EE07048008878
:101770007049096808446F490860012000F044FA84
:1017800066480068401C6549086064480068032892
:10179000ECD36848006840F6A241884204D900F0C2
:1017A0001BFD65A001F086FC0020624908607BE714
:1017B0002DE9F0470020584908602AE05C49564A64
:1017C000126831F8120001F0DFF981464FF08B41C9
:1017D00001F028F9044601F0DCF9074600225A4BD3
:1017E00001F060F9054601F0E7F958490860642006
:1017F00000F00AFA5548006801F0CBF90446224689
:101800000B4653A001F056FC43480068401C424977
:101810000860414800680B28D0D34FA001F04AFC73
:10182000BDE8F08710B549F611714C48FEF7CFFEC0
:101830004FF63C714A48FEF7CAFE4FF6C071494860
:10184000FEF7C5FE4FF6F0714748FEF7C0FE40F2C6
:10185000FF713348FEF7BBFE4FF4FA7000F0D4F985
:1018600049F611713D48FEF7B4FE4FF63C713C4815
:10187000FEF7AFFE4FF6C0713A48FEF7AAFE4FF6EC
:10188000F0713948FEF7A5FE40F2FF712448FEF7DB
:10189000A0FE4FF47A7000F0B7F910BD10B53348D0
:1018A0000078334908704021304800F0CAFF3149C0
:1018B0000870642000F0A8F92D4800782B490978B9
:1018C000884213D04221002000F0A0FF294908706F
:1018D0004FF4FA7000F098F94221FF2000F096FFD3
:1018E000244908704FF4FA7000F08EF910BD000022
:1018F00031000020300000200D0AB4AEBFDAB2E2A1
:10190000CAD40D0A0D0A000038000020640000202F
:10191000400000203C000020280000202C00002077
:10192000001801404D65646963696E655F6F6B0007
:101930006E000020440000204D65646963696E6597
:101940005F77726F6E67000000000440480000205F
:101950002D2D3E25665600000D200A00000801408E
:10196000000C014000100140001401404D00002017
:101970004C0000204E000020704700BFFEE700BF73
:10198000FEE700BFFEE700BFFEE770477047704705
:1019900010B500F04BF910BD10B54FF40040FFF743
:1019A000FDF818B14FF40040FFF709F910BD7CB500
:1019B00000252C4C00262CA103C9CDE9000140F2E2
:1019C00025512B48FFF7C4FA00284AD02848001DAB
:1019D0000088C5B22748007838B9AA2D3CD12570B7
:1019E000012024490870A57136E0224800780128BA
:1019F00007D1657002201F490870A0792844A071A2
:101A00002AE01C48007802280ED1E179481CE071D8
:101A1000A01C4554A0792844A071E07904281BD16A
:101A200003201449087017E012480078032813D1E6
:101A3000A079A8420CD1002606E01DF806100C483B
:101A4000FFF702FA701CC6B2072EF6DB01202072E7
:101A5000002008490870E07140F225510448FFF762
:101A6000A1FA7CBD64000020AABB000000000000B9
:101A7000004400404F00002008B501217C20FEF703
:101A8000B1FF01210846FEF7ADFF01213E48FEF7F8
:101A9000C2FD49F61170ADF8000014208DF8030066
:101AA00003208DF8020069463848FEF7E5FC4FF642
:101AB0003C70ADF8000014208DF8030003208DF871
:101AC000020069463248FEF7D7FC4FF6C070ADF809
:101AD000000014208DF8030003208DF802006946F1
:101AE0002C48FEF7C9FC4FF6F070ADF8000014204A
:101AF0008DF8030003208DF8020069462648FEF7A2
:101B0000BBFC40F2FF70ADF8000014208DF803001C
:101B100003208DF8020069462048FEF7ADFC18202E
:101B2000ADF8000014208DF8030003208DF80200AA
:101B300069461748FEF7A0FC4FF40040ADF80000DE
:101B400014208DF8030003208DF8020069460F4829
:101B5000FEF792FC49F611710C48FEF738FD4FF67E
:101B60003C710B48FEF733FD4FF6C0710948FEF794
:101B70002EFD4FF6F0710848FEF729FD40F2FF7187
:101B80000648FEF724FD08BD0002300000080140B1
:101B9000000C0140001001400014014000180140F9
:101BA00030B5274800684FF47A72B0FBF2F1B1F11A
:101BB000807F01D301201BE021F07F40401E4FF0C9
:101BC000E022506150170F22002806DA13011D4C45
:101BD00000F00F052D1F635502E013011A4C23542A
:101BE00000BF00204FF0E02290610720106100202C
:101BF00008B100BFFEE74FF0E020006920F00100CF
:101C00004FF0E021086130BD01B51049009808602F
:101C10004FF0E020006940F001004FF0E021086142
:101C200000BF0A4800680028FBD108BD07480068CB
:101C300020B106480068401E044908607047000053
:101C40000000002018ED00E000E400E0500000205B
:101C500010B504460C2C78D2DFE804F08906101A7F
:101C600025303A45505B66784FF48071FD48FEF7A9
:101C7000AEFC1021FC48FEF7AAFC79E04FF480612D
:101C8000F848FEF7A4FC8021F848FEF7A0FC6FE0BE
:101C90004FF48051F348FEF79AFC4FF48071F348FB
:101CA000FEF795FC64E04FF48041EE48FEF78FFCB0
:101CB0004FF40071ED48FEF78AFC59E04021EC48F2
:101CC000FEF785FC4FF48061E848FEF780FC4FE0AA
:101CD0004FF48071E648FEF77AFC4FF48061E548E6
:101CE000FEF775FC44E04FF48071DF48FEF76FFCAF
:101CF0004FF40061DF48FEF76AFC39E04FF4806181
:101D0000D948FEF764FC4FF40051DA48FEF75FFC57
:101D10002EE04FF48051D448FEF759FC4FF40041B7
:101D2000D448FEF754FC23E04FF48051D148FEF72D
:101D30004EFCD148007800F07F00CF490870422166
:101D4000CD48007800F062FD12E010E04FF48041D1
:101D5000C848FEF73CFCC848007800F0BF00C64900
:101D600008704221C448007800F050FD00E000BF38
:101D700000BF10BD70B505460C4615B1012D6ED1E2
:101D800059E00C2C54D2DFE804F053060C12181E54
:101D900023292F353B474FF48071B248FEF719FCD9
:101DA00047E04FF48061AF48FEF713FC41E04FF489
:101DB0008051AC48FEF70DFC3BE04FF48041A94850
:101DC000FEF707FC35E04021A948FEF702FC30E0B1
:101DD0004FF48071A648FEF7FCFB2AE04FF48071B7
:101DE000A148FEF7F6FB24E04FF480619E48FEF721
:101DF000F0FB1EE04FF480519B48FEF7EAFB18E031
:101E00009D48007800F0BF009B49087042219A4825
:101E1000007800F0FBFC0CE09748007800F07F00B1
:101E20009549087042219448007800F0EFFC00E0EA
:101E300000BF00BF4EE00C2C48D2DFE804F047069C
:101E40000B11171D23292F353B4110218648FEF722
:101E5000C0FB3CE080218548FEF7BBFB37E038E063
:101E60004FF480718148FEF7B4FB30E04FF400710D
:101E70007E48FEF7AEFB2AE04FF480617B48FEF718
:101E8000A8FB24E04FF480617A48FEF7A2FB1EE035
:101E90004FF400617748FEF79CFB18E04FF40051C7
:101EA0007448FEF796FB12E04FF400417148FEF7CC
:101EB00090FB0CE04FF480516E48FEF78AFB06E081
:101EC0004FF480416B48FEF784FB00E000BF00BF89
:101ED00000E000BF00BF70BD70B505460C4615B1EF
:101EE000012D72D14DE00C2C48D2DFE804F04706FA
:101EF0000C12181E242A2F353B414FF480515C48A8
:101F0000FEF767FB3BE04FF480615948FEF761FB49
:101F100035E04FF400415448FEF75BFB2FE04FF4EF
:101F200000615148FEF755FB29E04FF400714E481F
:101F3000FEF74FFB23E04FF400714D48FEF749FBDD
:101F40001DE080214A48FEF744FB18E04FF40041B1
:101F50004448FEF73EFB12E04FF400514148FEF7C3
:101F600038FB0CE04FF400613E48FEF732FB06E020
:101F70004FF400713B48FEF72CFB00E000BF00BFB0
:101F800049E00C2C43D2DFE804F042060C11161B8A
:101F900021262C31373D4FF400613548FEF719FBFF
:101FA00036E010212F48FEF714FB31E008212F48BE
:101FB000FEF70FFB2CE004212C48FEF70AFB27E07C
:101FC00020212A48FEF705FB22E023E010212748C4
:101FD000FEF7FFFA1CE04FF400512548FEF7F9FA2E
:101FE00016E040212148FEF7F4FA11E04FF40041D9
:101FF0001F48FEF7EEFA0BE04FF480411C48FEF755
:10200000E8FA05E001211848FEF7E3FA00E000BF16
:1020100000BF00E000BF00BF70BD70B505460E46B2
:10202000144600201549086036E031462846FFF77F
:1020300053FF21462846FFF79DFE6420FFF7E4FD8D
:10204000601E0F4931F8100040F2046188421DDD26
:102050002046FFF7FDFD4FF4FA70FFF7D5FD074866
:1020600001680FE000140140000801400018014021
:1020700000100140000C01403100002054000020FD
:102080006E00002062A001F015F800E008E063484F
:102090000068401C61490860604800680528C4D396
:1020A00000BF70BD10B5044621460020FFF714FFA5
:1020B00001205A49086009E0584801680020FFF7EC
:1020C00059FE56480068401C54490860534800684F
:1020D0000B28F1D910BD10B504460C2C79D2DFE8DD
:1020E00004F07806111B252F39434D57626D4FF4CC
:1020F00080514B48FEF76BFA4FF400614848FEF7F9
:1021000066FA67E04FF480614548FEF760FA1021F7
:102110004448FEF75CFA5DE04FF400414248FEF7A8
:1021200056FA08214148FEF752FA53E04FF4006195
:102130003D48FEF74CFA04213C48FEF748FA49E0D6
:102140004FF400713848FEF742FA20213748FEF775
:102150003EFA3FE04FF400713148FEF738FA1021A3
:102160003248FEF734FA35E080212D48FEF72FFA89
:102170004FF400512A48FEF72AFA2BE04FF40041B1
:102180002848FEF724FA40212848FEF720FA21E0EB
:102190004FF400512348FEF71AFA4FF4004120484B
:1021A000FEF715FA16E04FF400611E48FEF70FFA2D
:1021B0004FF480411A48FEF70AFA0BE04FF4007121
:1021C0001848FEF704FA01211748FEF700FA01E06B
:1021D000FFE700BF00BF10BD10B501200F49086028
:1021E0000CE00E480068FFF776FF0C480068FFF728
:1021F0002FFD0A480068401C08490860074800682D
:102200000B28EED94FF4FA70FFF7FEFC10BD00006A
:102210007374617274202564000000005400002073
:102220000010014000140140000801400018014066
:1022300000B587B001210420FEF7D4FB012148043A
:10224000FEF7DDFB0420ADF8180018208DF81B0008
:1022500003208DF81A0006A98048FEF70DF9082022
:10226000ADF8180004208DF81B0006A97B48FEF786
:1022700003F94FF4E13002900020ADF80C00ADF806
:102280000E00ADF81000ADF814000C20ADF81200EF
:1022900002A97348FEF7DFFC4FF4C060FEF71EF89A
:1022A00026208DF8040001208DF8050000208DF80F
:1022B000060001208DF8070001A8FEF714F801229E
:1022C00040F225516648FEF75EFD01216448FEF7A5
:1022D0004EFD07B000BD70B504460D46E1B2604842
:1022E000FEF7B2FD00BF5E48008810F0800FFAD004
:1022F000204670BDF0B503460D4616460027294618
:102300000A2E03D0002008702846F0BD33B93020D3
:1023100001F8010B002008702846F6E7002B03DACD
:102320002D2001F8010B5B4242F210720DE093FB8D
:10233000F2F404B937B104F1300001F8010B04FBE9
:10234000123301270A2092FBF0F2002AEFDC002072
:1023500008702846D9E70FB470B586B006460CA8B9
:10236000019073E00B9800785C281CD10B98401CFE
:102370000B9000786E2809D072280FD10D213046BD
:10238000FEF762FD0B98401C0B900BE00A213046D3
:10239000FEF75AFD0B98401C0B9003E00B98401C75
:1023A0000B9000BF4BE00B980078252840D10B988C
:1023B000401C0B900078642818D0732833D1019802
:1023C00010C801900BE021783046FEF73DFD00BFBC
:1023D00040213046FEF7A6FD0028F9D0641C207885
:1023E0000028F0D10B98401C0B9020E0019820C8E9
:1023F00001900A2202A92846FFF77CFF02AC0BE0FD
:1024000021783046FEF720FD00BF40213046FEF720
:1024100089FD0028F9D0641C20780028F0D10B98A1
:10242000401C0B9003E00B98401C0B9000BF06E093
:102430000B9810F8011B0B903046FEF705FD00BF0E
:1024400040213046FEF76EFD0028F9D00B98007849
:10245000002887D106B070BC5DF814FB000801406D
:102460000044004008B5E020ADF8000000208DF8E1
:10247000030069466C48FDF7FFFF0320ADF800003C
:1024800000208DF8030069466848FDF7F5FF3F20FE
:10249000ADF8000000208DF8030069466448FDF7A0
:1024A000EBFF08BD00B591B001210846FEF78DFA9B
:1024B00001214802FEF796FA5E48FEF7B5FF5E4836
:1024C00006905E480790002008900B20099000209D
:1024D0000A9080200B9040000C9080000D902020EE
:1024E0000E9000020F900020109006A95148FFF7AF
:1024F0003DF801214F48FFF764F84F484C38FEF78C
:102500006BFD0020019001208DF808008DF8090076
:102510004FF460200390002004900B208DF81400ED
:1025200001A945484C38FEF77EFD4FF40040FEF708
:10253000C0F90523012219463F484C38FEF70BFE2F
:102540000523022206213C484C38FEF704FE0523F1
:102550000322072138484C38FEF7FDFD05230422ED
:10256000082135484C38FEF7F6FD05231A460921A7
:1025700031484C38FEF7EFFD052306220A212E488C
:102580004C38FEF7E8FD052307220B212A484C387A
:10259000FEF7E1FD052308220C2127484C38FEF701
:1025A000DAFD052309220D2123484C38FEF7D3FD1F
:1025B00005230A220E2120484C38FEF7CCFD0523C6
:1025C0000B220F211C484C38FEF7C5FD01211A488B
:1025D0004C38FEF75FFD012117484C38FEF74FFDE0
:1025E00015484C38FEF76DFD00BF13484C38FEF718
:1025F0006DFD0028F9D110484C38FEF771FD00BF81
:102600000D484C38FEF771FD0028F9D101210A4828
:102610004C38FEF774FD11B000BD10B5FFF722FF76
:10262000FFF740FF10BD000000080140000C014012
:1026300000100140080002404C2401406E000020C0
:10264000962001E0411EC8B20028FBD1704700B5BA
:1026500040209549086080200860FFF7F1FF92480C
:1026600008380068002000B100BD40208E49091DD7
:102670000860FFF7E5FF8C480838006810F0400F4D
:1026800001D00020F0E740208749091D0860FFF7CE
:10269000D7FF0120E8E700B580208349091D0860C5
:1026A000FFF7CEFF40208049091D0860FFF7C8FFF3
:1026B00080207D490860FFF7C3FF40207A49086009
:1026C000FFF7BEFF00BD00B580207749091D0860F7
:1026D000FFF7B6FF40207449091D0860FFF7B0FFFF
:1026E000802071490860FFF7ABFF80206E49091D0B
:1026F0000860FFF7A5FF00BD00B580206A49091DED
:102700000860FFF79DFF402067490860FFF798FFCA
:10271000802065490860FFF793FF80206249091D0A
:102720000860FFF78DFF00BD00B580205E49091DE0
:102730000860FFF785FF40205B490860FFF780FFD6
:10274000802059490860FFF77BFF57480838006828
:1027500010F0400F05D080205349091D086000206B
:1027600000BD80205049091D08600120F8E700B530
:102770000246082319E080204B49091D0860FFF735
:102780005FFF12F0800F03D040204749086003E04C
:1027900040204549091D08605006020EFFF750FF12
:1027A000802041490860FFF74BFF1800A3F10101A9
:1027B000CBB2E0D180203C49091D086000BD00B5C6
:1027C0000823002240203849086014E05006020E19
:1027D00080203549091D0860FFF732FF802032490B
:1027E0000860FFF72DFF30480838006810F0400FF0
:1027F00001D042F001021800A3F10101CBB2E5D1F2
:1028000080202949091D0860104600BD30B50546E5
:102810000C46FFF71CFF08B9002030BD2046FFF72B
:10282000A6FFFFF781FF18B9FFF735FF0020F4E797
:102830002846FFF79CFFFFF777FFFFF72CFF0120EB
:10284000EBE730B504460D46FFF701FF08B900205D
:1028500030BD45F00100FFF78AFFFFF765FFFFF786
:10286000AEFF2070FFF748FFFFF715FF0120EFE7ED
:1028700008B5C020ADF8000003208DF80200142038
:102880008DF80300694608481038FDF7F5FD08BDCE
:1028900030B505460C4640212846FFF7B7FF4221D8
:1028A0002046FFF7B3FF30BD100C014010B50446C1
:1028B0000C2C47D2DFE804F046060B10151A1F2433
:1028C0002A30353A40214848FDF781FE3BE020217F
:1028D0004548FDF77CFE36E008214448FDF777FEC9
:1028E00031E080214048FDF772FE2CE020213F4876
:1028F000FDF76DFE27E010213C48FDF768FE22E061
:102900004FF400713948FDF762FE1CE04FF480710E
:102910003648FDF75CFE16E002213548FDF757FE0C
:1029200011E001213248FDF752FE0CE031480078F9
:1029300040F020002F49087042212E480078FFF710
:1029400065FF00E000BF00BF10BD10B54FF44E7131
:102950002648FDF73EFEE0212348FDF73AFE03211D
:102960002348FDF736FE2348007800F0DF002149B8
:10297000087042211F480078FFF748FF10BD10B5CE
:1029800001201D49086026E0FFF7DFFF1A480068B4
:10299000FFF78CFF6420FFF737F94FF4005114481C
:1029A000FDF7FBFD48B11448017801208840134928
:1029B000096808431149086008E00F4801780120C0
:1029C00088400E49096881430C4801600A48006844
:1029D000401C09490860084800680B28D4D90748FA
:1029E000008880B210BD000000140140000C0140BE
:1029F0000018014031000020580000205C00002039
:102A00000648804706480047FEE7FEE7FEE7FEE788
:102A1000FEE7FEE7FEE7FEE7FEE7FEE7DD01000872
:102A2000ED00000830B480EA010202F0004530F009
:102A3000004221F0004015D0A0B1C0F3C753C2F34B
:102A4000C754C2F31601C0F31600E41A41F40001A2
:102A500040F400027D34914201D3641C00E049003F
:102A6000002C02DA30BC002070474FF40000002335
:102A7000914201D3891A034340084FEA4101F7D13B
:102A800051B1914202D14FF0004105E002D24FF026
:102A9000010101E06FF0010103EBC450284430BC98
:102AA00000F0EDB82DE9FE4F81EA030404F0004484
:102AB00021F0004100944FF0000B23F0004350EA56
:102AC000010402D052EA030404D10020014603B0FD
:102AD000BDE8F08FC3F30A54C1F30A552C44A4F2A5
:102AE000F3340194A0FB0254C1F3130141F48011AB
:102AF000C3F3130343F4801301FB024400FB034EB2
:102B0000840A970A44EA815447EA8357A4FB07687A
:102B100002958D0A05FB07854FEA932C04FB0C54A4
:102B20002705029D4FEA065847EA1637B5EB080518
:102B30006EEB070C870E920E47EA811742EA83126A
:102B4000A7FB0201B6EB0B0164EB00042B0D43EA7B
:102B50000C335E1844EB1C50DA465146E7FB020189
:102B6000C5F313044FEA0B3343EA14534FEA04321C
:102B7000019C43EA0603A4F10C040294009CCDE9F5
:102B800000B400F0BFF8A2E796230022114600F03F
:102B90007FB800F0004230F000400AD0C10D01F5CE
:102BA0006071C0F3160042EA0151C20840071143A8
:102BB000704700200146704701F0004330B421F017
:102BC000004150EA010206D00A0DA2F56072C1F37D
:102BD0001301002A02DC30BC00207047440F44EA95
:102BE000C104C100E01830BC00EBC25000F047B88F
:102BF00030B50B46014600202022012409E021FACD
:102C000002F59D4205D303FA02F5491B04FA02F5C9
:102C10002844151EA2F10102F1DC30BD2DE9F05F60
:102C20000546002092469B4688460646814640243B
:102C30001BE0284641464746224600F018FA534614
:102C40005A46C01A914110D311461846224600F048
:102C5000FFF92D1A67EB01084F462246012000219B
:102C600000F0F6F917EB00094E41201EA4F1010413
:102C7000DFDC484631462A464346BDE8F09F00293E
:102C8000A8BF7047401C490008BF20F001007047F2
:102C900010B4B0FA80FC00FA0CF050EA010404BF52
:102CA00010BC704749B1CCF1200421FA04F411FAA8
:102CB0000CF118BF012121430843A3EB0C01CB1DEC
:102CC0000106000A002BBEBF002010BC704700EBBD
:102CD000C35010440029A4BF10BC7047401C4900D9
:102CE00008BF20F0010010BC704710B5002B08DAB7
:102CF000401C41F1000192185B411A4301D120F0C0
:102D0000010010BD2DE9F04D92469B4611B1B1FA7C
:102D100081F202E0B0FA80F22032904600F098F999
:102D200004460F4640EA0A0041EA0B0153465A4660
:102D3000084303D120463946BDE8F08D114653EAD9
:102D4000010015D0C8F14002504600F090F9054648
:102D50000E4650465946424600F07AF9084301D0E3
:102D6000012000E00020054346EAE0762C4337438B
:102D70000A984FEA4453A0EB08004FEAD4240A30E3
:102D80004FF0000244EA47544FEAD72502D500200D
:102D90000146D1E7010510196941DDE9084500192F
:102DA0006941BDE8F04DA0E72DE9FE4F804681EA7C
:102DB0000300C00F0C46009021F0004123F00045B5
:102DC000B8EB0200A94105D24046214690461C4678
:102DD0000B46024623F00040104304D140462146F2
:102DE00003B0BDE8F08F270DC7F30A00C3F30A5103
:102DF0000290401A0190402866DAC3F3130040F4B1
:102E0000801B0098924620B10023D2EB030A63EBAB
:102E10000B0B01985946C0F14002504600F018F9DA
:102E200006460D4650465946019A00F030F910EB1F
:102E300008006141002487EA115284EAE7731A43CB
:102E40003BD0009A3AB3019A012A4FEA075210DCAC
:102E5000001B61EB02014FF0004202EA0752CDE98C
:102E60000042001C41F5801132462B46FFF74AFF15
:102E7000B6E7001B61EB0201001C41F5801300184E
:102E80005B412018A2F5001747EB030140EAD5701B
:102E9000B6196D4111E06D084FEA360645EAC07576
:102EA0004FEA0752001B61EB0201001C41F5801143
:102EB00049084FEA30000019514132462B4603B011
:102EC000BDE8F04FFFF711BF00980122400000233A
:102ED000D0EB020263EBE073009821464FEAE07406
:102EE000B8EB000061EB0401E9E783F000435BE726
:102EF00081F0004158E72DE9F04D81EA030404F028
:102F0000004B21F0004514464FF0000A23F0004129
:102F100050EA050220D054EA01021DD0C5F30A5739
:102F20000246C5F31303C1F31300C1F30A5640F47C
:102F3000801543F48013A7EB0608101BD64608F251
:102F4000FD3873EB050002D308F1010801E0921887
:102F50005B41B8F1000F03DA00200146BDE8F08DB7
:102F600000204FF48011064684460EE0171B73EBD9
:102F7000050705D3121B63EB050306434CEA010C5E
:102F800049084FEA300092185B4150EA0107EDD141
:102F900052EA030012D082EA040083EA05010843E2
:102FA00003D100224FF0004308E0101BAB4102D2D6
:102FB0000122002302E06FF0010253101AEB060019
:102FC0004CEB085110EB0A0041EB0B01BDE8F04D52
:102FD000FFF78BBEC1F30A52C1F3130140F2FF3376
:102FE00041F480119A4202DA00200146704740F213
:102FF00033439A42A2F2334202DC524200F037B825
:1030000000F026B830B5002904DB4FF00044404200
:1030100064EB0101002B04DB4FF00044524264EBEF
:103020000303994208BF904230BD0000064C074D93
:1030300006E0E06840F0010394E807009847103488
:10304000AC42F6D3FDF756F898390008B8390008B5
:10305000202A04DB203A00FA02F100207047914058
:10306000C2F1200320FA03F3194390407047202A4D
:1030700004DB203A21FA02F00021704721FA02F322
:10308000D040C2F120029140084319467047202ADF
:1030900006DBCB17203A41FA02F043EAE07306E080
:1030A00041FA02F3D040C2F1200291400843194690
:1030B000704700000FB4054B10B503A9044A0298ED
:1030C00000F0C6F810BC5DF814FB0000D722000821
:1030D0006000002002E008C8121F08C1002AFAD1CF
:1030E00070477047002001E001C1121F002AFBD188
:1030F000704700002DE9FF5FDDE90220010DDDF8DA
:1031000038B0024310D10F9801244CA2012808D0F6
:10311000002100980F9BC0E90021C0E90243BDE8EF
:10312000FF9F6FEA0B01F4E7A1F2FF3144F6105064
:1031300041430D140F9801280ED0A5EB0B00401C45
:103140004FF000043E4EDFF8FC90B0F1000AA046BC
:1031500005DACAF1000717E0CBF10000F0E70746F7
:1031600012E0F80707D02246334640464946FFF7AB
:1031700099FC804689462246334610461946FFF799
:1031800091FC04460E467F10002FEAD1DDE90201D2
:10319000BAF1000F42464B4602DAFFF783FC01E02A
:1031A000FFF7A9FE04460E460022274BFFF72AFF31
:1031B00003D84FF0FF30014607E00022234B2046A2
:1031C0003146FFF7F1FDFFF705FF102409E0002C61
:1031D0000ADB0A220023FFF721FD019B30321A553A
:1031E000641E50EA0102F2D1641C019AC4F1110379
:1031F00014440F9A012A09D00122084301D15B45EA
:103200000FDD4FF0000205F101050DE0084303D189
:10321000A3EB0B056D1E09E000204FF0110B0F9082
:1032200088E701DA00226D1E002A83D000980F99EA
:10323000C0E90231C0E9004571E70000300000003C
:10324000000024400000F03F0000F0430000E03F99
:103250002DE9FF4F95B09B4689460646002512E2B0
:10326000252878D10024761CF94A274601210594A7
:103270003378203B01FA03F0104202D00443761C5D
:10328000F6E730782A2811D06FF02F033078A0F1BC
:103290003002092A16D8059A44F0020402EB820291
:1032A00003EB42021044761C0590EFE759F8042B1B
:1032B0000592002A03DA504244F40054059044F089
:1032C0000204761C30782E2816D116F8010F44F02F
:1032D00004042A280DD06FF02F023078A0F13003BB
:1032E000092B09D807EB870302EB4303C718761CA9
:1032F000F3E759F8047B761C30786C280FD006DC95
:103300004C2817D068280DD06A2814D104E07428FE
:1033100010D07A280FD10DE044F400140AE044F4F0
:10332000801401E044F440147278824202D1761C89
:1033300004F58014761C307866280BD013DC5828EE
:1033400077D009DC002875D04528F6D04628F4D07F
:1033500047281AD19FE118E0632835D0642879D036
:10336000652812D197E1702873D008DC6728F1D066
:1033700069286FD06E280DD06F2806D1B5E073286C
:103380002CD0752875D0782874D05A461799904754
:103390006D1C76E1C4F30250022809D003280DD039
:1033A000D9F8001004280DD00D6009F1040968E176
:1033B000D9F80010EA17C1E90052F6E7D9F8001071
:1033C0000D80F2E70D70F0E719F8041B8DF800107E
:1033D00000208DF80100EA46012003E059F804AB13
:1033E0004FF0FF3061074FF0000102D40DE008F10B
:1033F00001018846B9420FDA8045F8DB1AF8081057
:103400000029F4D108E008F1010188468142FADB85
:103410001AF808100029F6D105985B46A0EB0807BA
:1034200021463846179A00F09EFA284400EB08051A
:1034300007E04DE02BE10DE01AF8010B5A46179911
:103440009047B8F10108F7D25B4621463846179AF3
:1034500014E142E00A220092C4F302524FF0000A43
:10346000022A08D059F804CB032A4FEAEC710AD09B
:103470000DE029E02AE009F1070121F00702F2E856
:1034800002C1914609E00FFA8CFC4FEAEC71042A64
:1034900003D14FFA8CFC4FEAEC71002907DA0A4697
:1034A0000021DCF1000C61EB02012D2202E022057B
:1034B00004D52B228DF80420012203E0E20701D07D
:1034C0002022F7E7904653E00A2102E010220DE0A7
:1034D00010214FF0000A00910BE010224FF0000A7B
:1034E00044F004040827009203E008224FF0000A89
:1034F0000092C4F30252022A05D059F804CB0021ED
:10350000032A08D009E009F1070121F00702F2E8D7
:1035100002C1914605E01FFA8CFC042A01D10CF08F
:10352000FF0C4FF00008220722D5702827D0009BFF
:1035300083F0100353EA0A0309D15CEA010206D0C2
:1035400030228DF804208DF8050002229046009B61
:1035500083F0080353EA0A030AD15CEA010201D1AD
:10356000620705D530228DF804204FF001087F1E38
:10357000582809D037A003900EA8029013E04022EB
:103580008DF804200122E1E737A0F4E753466046B6
:10359000009AFFF743FB84460398825C0298A0F1EF
:1035A0000100029002705CEA0100EFD1029806A9C6
:1035B000A1EB000000F1200A600702D524F480345A
:1035C00000E00127574502DDA7EB0A0000E00020DC
:1035D00000EB0A01009005984144A0EB0100059022
:1035E000E00306D45B462146179A059800F0BBF924
:1035F0000544002706E001A85A46C05D1799904788
:103600006D1C7F1C4745F6DBE0030CD55B4621466D
:10361000179A059800F0A7F9054404E030205A46AF
:10362000179990476D1C0099481E00900029F5DC01
:1036300008E0029802995A460078491C02911799AD
:1036400090476D1CBAF10001AAF1010AF1DC6BE1AF
:103650000928010030313233343536373839616268
:10366000636465660000000030313233343536372C
:1036700038394142434445460000000000F060F9FB
:10368000054406F10106307800287FF4E9AD19B051
:103690002846BDE8F08F620700D4062709F107022B
:1036A00022F0070CFCE80223E14603F000485FEA41
:1036B000080C02D00FF27C2C0DE05FEA045C02D50E
:1036C0000FF2742C07E05FEAC47C02D00FF26C2C7E
:1036D00001E0AFF2700C4FF0FF3823F00043CDF85B
:1036E00050C065280CD006DC452809D046281DD0DE
:1036F00047283ED13EE0662818D0672839D139E006
:103700000021112F01DB112000E0781CCDE9000120
:1037100006A90EA8FFF7EEFCDDE90F010E9A039152
:103720000021009207F1010A04914EE04FF00040A1
:103730000097CDE9011006A90EA8FFF7DBFCDDE933
:103740000F0203920E9B11990022DDF80CA000934A
:10375000049219B907F1010100EB010AB7EB0A0065
:1037600004D4C0F1FF3007F1010A0490AAEB07006E
:10377000019046E0012F00DA01270021112F01DD21
:10378000112000E03846CDE9000106A90EA8FFF798
:10379000B1FCDDE90F010E9A039100210491009222
:1037A000BA4621070CD40399514500DA8A46BAF18A
:1037B000010F05DD009AAAF10101515C302908D002
:1037C000B84202DA10F1040F06DA0121CDE9011046
:1037D00017E0AAF10101E9E7002805DC049901449A
:1037E0000491AAEB000102E0411C514500DD8A462C
:1037F0000499A0EB010000F1010001904FF000409E
:103800000290200704D40198504501DBCDF80480D4
:1038100000208DF84F0002980DF14F07B0F1004FD6
:1038200025D02B200E9002984FF0020800280CDAC9
:10383000404202902D200E9007E00A210298FFF7E7
:10384000D7F93031029007F8011DB8F10001A8F155
:103850000108F2DC02980028EFD1791E0E9808705A
:10386000307800F0200040F0450007F8020D12A863
:10387000A0EB070000F107081498007800B10120C0
:1038800000EB0A01019801EBE07105984144A0EBBF
:103890000100A0F101000590E00306D45B4621463B
:1038A000179A059800F05FF805441498007820B145
:1038B0005A461799904705F10105E00323D55B4669
:1038C0002146179A059800F04EF805441BE004982D
:1038D000002807DBDDE90301884203DD0098405C36
:1038E000179901E0179930205A46904704986D1CAB
:1038F000401C04900198401E019004D12E205A468D
:10390000179990476D1CBAF10001AAF1010ADEDC9B
:1039100005E017F8010B5A46179990476D1CB8F14E
:103920000001A8F10108F4DC5B462146179A0598CE
:10393000A4E600002D0000002B0000002000000085
:103940002DE9F041044600251E461746880405D49B
:1039500006E039462020B04705F10105641EF8D580
:103960002846BDE8F0812DE9F041044600251E46B9
:103970009046C80301D5302700E02027880405D5EC
:1039800006E041463846B04705F10105641EF8D50A
:103990002846BDE8F0810000B8390008000000208A
:1039A00064000000D43000081C3A000864000020C5
:1039B00024040000E430000800A24A0400000000D3
:1039C00000000000010203040607080900000000CF
:1039D00001020304010203040607080902040608A1
:1039E0000000000000000000FFEF000000000000E9
:1039F00000000000000000000000000000000000C7
:103A000000000000000000000000000000000000B6
:0C3A1000000000000000000000000000AA
:04000005080000ED02
:00000001FF
