:020000040800F2
:1000000008050020DD470008792300087B2300084D
:100010007F230008832300088723000800000000D6
:100020000000000000000000000000008B2300081A
:100030008D230008000000008F2300089123000892
:10004000F7470008F7470008F7470008F747000898
:10005000F7470008F7470008F7470008F747000888
:10006000F7470008F7470008F7470008F747000878
:10007000F7470008F7470008F7470008F747000868
:10008000F7470008F7470008F7470008F747000858
:10009000F7470008F7470008F7470008F747000848
:1000A000F7470008F7470008F7470008F747000838
:1000B0009B230008BB230008F7470008F747000808
:1000C000F7470008F7470008F7470008F747000818
:1000D000F7470008F7470008DB230008F747000848
:1000E00099230008F7470008F7470008DFF80CD00D
:1000F00004F018FD004800471537000808050020E7
:100100000CB50020019000906B48006840F48030EE
:100110006949086000BF6848006800F4003000903A
:100120000198401C0190009818B90198B0F5A06F93
:10013000F1D16148006810F4003F02D00120009026
:1001400001E0002000900098012842D15B4800683F
:1001500040F01000594908600846006820F003008C
:1001600008600846006840F0020008605248406895
:10017000514948600846406848600846406840F475
:10018000806048600846406820F47C10486008465B
:10019000406840F4E81048600846006840F080700D
:1001A000086000BF4448006810F0007FFAD0424861
:1001B000406820F00300404948600846406840F02D
:1001C0000200486000BF3C48406800F00C0008286E
:1001D000F9D10CBD10B5FFF793FF10BD10B536482F
:1001E000006840F00100344908600846406834491E
:1001F00008403149486008460068324908402E49A5
:1002000008600846006820F48020086008464068BE
:1002100020F4FE0048604FF41F008860FFF7DAFF0B
:100220004FF000602849086010BD10B50021002083
:100230000022214B5B6803F00C0121B1042906D098
:10024000082928D107E0214B214C236027E01F4BD0
:100250001F4C236023E0184B5B6803F47010164BAF
:100260005B6803F48032022303EB904022B9194B00
:100270004343174C23600DE00F4B5B6813F4003FC2
:1002800004D0144B4343124C236003E00F4B434311
:100290000F4C236003E00D4B0D4C236000BF00BFEB
:1002A000054B5B68C3F303130B4CE15C084B1B6805
:1002B000CB40074C236010BD0010024000200240DC
:1002C0000000FFF8FFFFF6FE08ED00E000127A00E4
:1002D0000000002000093D000400002031490143D6
:1002E000314A1160704770B5002100230F22C47895
:1002F0000CB32D4C246804F4E064C4F5E064210AD6
:10030000C1F10403CA40447804FA03F1847814402C
:1003100021430901254C0678A155047804F01F05F6
:100320000124AC4005786D114FF0E02606EB850501
:10033000C5F8004109E0047804F01F050124AC4031
:100340001B4D0678761145F8264070BD194A0A40C3
:100350000243154B1B1F1A60704739B1124A121D18
:1003600012680243104B1B1D1A6006E00E4A121D54
:10037000126882430C4B1B1D1A607047042808D179
:100380004FF0E021096941F004014FF0E0221161D2
:1003900007E04FF0E021096921F004014FF0E0226D
:1003A000116170470000FA050CED00E000E400E088
:1003B00080E100E080FFFF1F10B50446CA48844278
:1003C00008D10121042000F027FB0021042000F0C7
:1003D00023FB46E0C548844208D10121082000F0F3
:1003E0001BFB0021082000F017FB3AE0C0488442C4
:1003F00008D10121102000F00FFB0021102000F097
:100400000BFB2EE0BB48844208D10121202000F0E4
:1004100003FB0021202000F0FFFA22E0B6488442CE
:1004200008D10121402000F0F7FA0021402000F01F
:10043000F3FA16E0B148844208D10121802000F08F
:10044000EBFA0021802000F0E7FA0AE0AC48844291
:1004500007D10121801500F0DFFA0021A01500F07E
:10046000DBFA10BD10B50121084600F0D5FA0021D5
:10047000012000F0D1FA10BD2DE9F041024600251F
:100480000026002000230024002791F803C00CF070
:100490000F0591F803C01CF0100F03D091F802C0B3
:1004A0004CEA050591F800C0BCF1000F31D014688A
:1004B00000202BE04FF0010C0CFA00F3B1F800C063
:1004C0000CEA03069E4220D183004FF00F0C0CFA79
:1004D00003F7BC4305FA03FC4CEA040491F803C09B
:1004E000BCF1280F06D14FF0010C0CFA00FCC2F849
:1004F00014C00AE091F803C0BCF1480F05D14FF0D9
:10050000010C0CFA00FCC2F810C0401C0828D1D322
:100510001460B1F800C0BCF1FF0F34DD5468002056
:100520002EE000F1080C4FF0010808FA0CF3B1F8C6
:1005300000C00CEA03069E4221D183004FF00F0C4D
:100540000CFA03F7BC4305FA03FC4CEA040491F8E7
:1005500003C0BCF1280F05D100F1080C08FA0CF813
:10056000C2F8148091F803C0BCF1480F07D100F124
:10057000080C4FF0010808FA0CF8C2F81080401C73
:100580000828CED35460BDE8F0814FF6FF7101809A
:10059000022181700421C1707047024600209368D7
:1005A0000B4201D0012000E000207047014688681E
:1005B00080B2704702460020D3680B4201D0012070
:1005C00000E0002070470146C86880B270470161B2
:1005D0007047416170470AB1016100E041617047B5
:1005E000C16070474FF480320A4382618161826149
:1005F00082698269704702460020424B18684FF6B4
:100600008073184040EA021008433E4B1860704760
:100610003D49C8617047F0B50A4600230024002117
:10062000002500F00046B6F1004F02D1354EF169C9
:1006300001E0344E7168C0F3034583B200F4401604
:10064000B6F5401F08D121F070612E4E766826F075
:1006500070662C4F7E6012E000F48016B6F5801FA5
:1006600006D1032606FA05F4A14341F0706106E0C5
:10067000460D360103FA06F6B14341F0706122B12E
:10068000460D360103FA06F6314300F00046B6F196
:10069000004F02D11B4EF16101E01A4E7160F0BDB6
:1006A00030B500228B071C0F0F2303FA04F2154B01
:1006B00008338C1053F824309343124C08348D10B7
:1006C00044F8253023468C1053F824308C07240F2F
:1006D00000FA04F423430B4C08348D1044F8253001
:1006E00030BD0A490860704700080140000C014015
:1006F000001001400014014000180140001C01409E
:10070000002001400000014000002042DC002042A7
:10071000DD48006840F00100DB4908600846406899
:10072000DA490840D849486008460068D849084076
:10073000D54908600846006820F480200860084613
:10074000406820F4FE0048604FF41F008860704746
:10075000CD49096821F48031CB4A116011460968FE
:1007600021F480211160B0F5803F03D0B0F5802FD7
:100770000ED106E0C449096841F48031C24A1160D3
:1007800007E0C149096841F4A021BF4A116000E0B7
:1007900000BF00BF704710B50146002200230020B3
:1007A0004A11012A02D1B84C236806E0022A02D17C
:1007B000B54C236A01E0B44C636A01F01F020124C6
:1007C00094401C4201D0012000E0002010BD38B54B
:1007D000002000900024002500BF3120FFF7DBFF40
:1007E00005460098401C00900098B0F5A06F01D01D
:1007F000002DF2D03120FFF7CEFF08B1012400E038
:100800000024204638BD014600209F4A106820F091
:10081000F80040EAC100106070479E4908607047C8
:1008200002460020984B586820F47C1042EA0103ED
:100830001843954B586070479649086670470146C3
:100840000020914A506820F0030008435060704730
:100850008D48406800F00C007047014600208A4A2D
:10086000506820F0F00008435060704701460020B7
:10087000854A506820F4E0600843506070470146A4
:100880000020814A506820F4605040EAC100506066
:10089000704729B17C4A527A02437B4B5A7204E07A
:1008A000794A527A8243784B5A7270477A49086083
:1008B000704701460020744A506820F440400843C5
:1008C000506070470021754A11706F4A82F82010FD
:1008D000012802D0042808D103E001216F4A1170D9
:1008E00004E005216D4A117000E000BF00BF7047B1
:1008F0006B49086070476449096A0143624A1162A2
:100900007047674944390860704730B500210022BC
:10091000002400235C4D6D6805F00C0121B1042911
:1009200005D0082923D105E05E4D056022E05D4D2C
:1009300005601FE0544D6D6805F47012524D6D68EE
:1009400005F48034022505EB92421CB9564D5543FF
:1009500005600BE04C4D6D6815F4003F03D0524D1F
:100960005543056002E04F4D5543056002E04D4D93
:10097000056000BF00BF444D6D6805F0F001090936
:100980004A4D6B5C0568DD4045603F4D6D6805F480
:10099000E061090A454D6B5C4568DD4085603A4D74
:1009A0006D6805F46051C90A404D6B5C4568DD40D7
:1009B000C560354D6D6805F44041890B3C4D6B5C5D
:1009C000C568B5FBF3F5056130BD29B12E4A526902
:1009D00002432D4B5A6104E02B4A526982432A4B51
:1009E0005A61704729B1284A92690243264B9A619D
:1009F00004E0254A92698243234B9A61704729B1EA
:100A0000214AD2690243204BDA6104E01E4AD269CE
:100A100082431D4BDA61704729B11B4AD2680243F9
:100A2000194BDA6004E0184AD2688243164BDA6048
:100A3000704729B1144A12690243134B1A6104E04A
:100A4000114A12698243104B1A61704714494039A8
:100A5000086070470F49C86470470B49C8717047F8
:100A60000948406A40F08070074948627047014673
:100A70000020054A92680A4201D0012000E00020CF
:100A80007047014988727047001002400000FFF86B
:100A9000FFFFF6FE00004242D80042422010024012
:100AA0008004424200127A0000093D001400002038
:100AB0002400002010B50446FB48844209D10121DE
:100AC0008803FFF7A9FF00214FF48040FFF7A4FF40
:100AD00032E0F648844209D101214804FFF7A9FF1A
:100AE00000214FF40030FFF7A4FF25E0F0488442D6
:100AF00009D101218804FFF79CFF00214FF48020D9
:100B0000FFF797FF18E0EB48844209D10121C804A0
:100B1000FFF78FFF00214FF40020FFF78AFF0BE063
:100B2000E548844208D101210805FFF782FF002132
:100B30004FF48010FFF77DFF10BD2DE9F04786B020
:100B400005460E460024A24600BFA1460027B089F4
:100B500000B100BF2F462C8A4CF6FF700440F0888D
:100B600004432C82AC894EF6F3100440B0883189DE
:100B70000843718908430443AC81AC8A4FF6FF40B7
:100B80000440B0890443AC8201A8FFF7BEFEC6480A
:100B9000874202D1DDF810A001E0DDF80CA0A889A1
:100BA00010F4004F08D00AEBCA0000EB0A103168BD
:100BB0004900B0FBF1F807E00AEBCA0000EB0A10AD
:100BC00031688900B0FBF1F86420B8FBF0F0040153
:100BD0002009642101FB1089A88910F4004F08D076
:100BE000322000EBC900B0FBF1F000F00700044335
:100BF00008E0322000EB09106421B0FBF1F000F0B6
:100C00000F0004432C8106B0BDE8F0874FF4165165
:100C1000016000218180C18001810C21418100217E
:100C20008181704710B502460020108A4FF2FF0301
:100C300018400B884C8823438C882343CC8823435B
:100C40001843108210BD0021018041808180C18045
:100C5000704721B1828942F40052828104E0828986
:100C60004DF6FF731A4082817047F0B503460024A9
:100C7000002600250020A1F510676A3F00D100BFC3
:100C80001846C1F3421401F01F06012707FA06F5C2
:100C9000012C01D10C3004E0022C01D1103000E015
:100CA00014301AB107682F43076002E00768AF43AA
:100CB0000760F0BD1AB1838A0B43838202E0838A06
:100CC0008B4383827047028A4FF6F0731A40028288
:100CD000028A0A430282704782894FF2FF731A40E8
:100CE000828182890A438281704721B1828942F0E0
:100CF0000202828104E082894FF6FD731A408281EC
:100D00007047028A4FF6DF731A400282028A0A4352
:100D10000282704721B1028A42F48042028204E0DA
:100D2000028A4BF6FF731A4002827047C1F3080231
:100D30008280704701468888C0F308007047818927
:100D400041F0010181817047028BD2B20283028B94
:100D500042EA012202837047028B02F47F4202833F
:100D6000028B0A430283704721B1828A42F020023B
:100D7000828204E0828A4FF6DF731A4082827047D3
:100D800021B1828A42F01002828204E0828A4FF608
:100D9000EF731A408282704721B1828A42F00802C2
:100DA000828204E0828A4FF6F7731A40828270478B
:100DB00021B1828942F40042828103E08289C2F338
:100DC0000E028281704721B1828A42F400628282DF
:100DD00004E0828A4FF2FF731A4082827047828A4F
:100DE0004FF6FB731A408282828A0A4382827047DE
:100DF00021B1828A42F00202828204E0828A4FF6A6
:100E0000FD731A408282704702460020B1F5007FD0
:100E100000D100BF13880B4201D0012000E0002068
:100E2000704701F40072B2F5007F00D100BFCA43E1
:100E30000280704770B50246002400230025002080
:100E4000A1F510666A3E00D100BFC1F3421501F062
:100E50001F03012606FA03F3012D02D196893340C0
:100E600006E0022D02D1168A334001E0968A334013
:100E70000C12012606FA04F41688344013B10CB1A2
:100E8000012000E0002070BD10B500220023A1F574
:100E900010646A3C00D100BF0A1201249440A3B23E
:100EA000DC43048010BD00000038014000440040D5
:100EB00000480040004C00400050004010B504467F
:100EC000FE48844208D10121C014FFF7A5FD00218E
:100ED000E014FFF7A1FDC4E0B4F1804F08D1012177
:100EE0000846FFF7A6FD00210120FFF7A2FDB8E0AC
:100EF000F348844208D101210220FFF79AFD002126
:100F00000220FFF796FDACE0EE48844208D10121B3
:100F10000420FFF78EFD00210420FFF78AFDA0E0EA
:100F2000E948844208D101210820FFF782FD002111
:100F30000820FFF77EFD94E0E448844208D10121B7
:100F40001020FFF776FD00211020FFF772FD88E0EA
:100F5000DF48844208D101212020FFF76AFD0021EB
:100F60002020FFF766FD7CE0DA48844208D10121A9
:100F70004014FFF751FD00216014FFF74DFD70E0B4
:100F8000D548844209D10121C804FFF745FD00215D
:100F90004FF40020FFF740FD63E0D048844209D1C0
:100FA00001210805FFF738FD00214FF48010FFF7FD
:100FB00033FD56E0CA48844209D101214805FFF7B4
:100FC0002BFD00214FF40010FFF726FD49E0C54836
:100FD000844208D101214020FFF72BFD0021402051
:100FE000FFF727FD3DE0C048844208D10121802061
:100FF000FFF71FFD00218020FFF71BFD31E0BB48FC
:10100000844208D101218015FFF713FD0021A015AE
:10101000FFF70FFD25E0B648844209D101210804FD
:10102000FFF7FAFC00214FF48030FFF7F5FC18E0E1
:10103000B048844209D101214804FFF7EDFC0021AA
:101040004FF40030FFF7E8FC0BE0AB48844208D1D6
:1010500001218804FFF7E0FC00214FF48020FFF716
:10106000DBFC10BD00220288944B98420ED0994BB5
:1010700098420BD0B0F1804F08D0914B984205D0E8
:10108000904B984202D0904B984204D14FF68F7308
:101090001A404B881A438D4B984207D08C4B98428C
:1010A00004D04FF6FF431A40CB881A4302808B8846
:1010B00083850B880385814B98420BD0854B9842E2
:1010C00008D08B4B984205D08A4B984202D08A4B6D
:1010D000984201D10B7A038601238382704770B551
:1010E000002400220023058C4FF6FE76354005844F
:1010F000028C8388048B4FF68F752C40B51E2C40D4
:101100000D882C43751E2A400D892A434D882A4399
:101110006A4DA8420BD06F4DA84208D0744DA8422A
:1011200005D0744DA84202D0734DA84213D14FF69A
:10113000F7752A404D892A434FF6FB752A408D8862
:101140002A434FF6FF652B404FF6FF552B408D8904
:101150002B43CD892B4383800483CD8885860284ED
:1011600070BD70B5002400220023058C4FF6EF7689
:1011700035400584028C8388048B48F6FF752C402B
:101180004FF6FF452C400D884FF6FF7606EA052501
:101190002C434FF6DF752A400D8906EA05152A43D0
:1011A0004D8806EA05152A43444DA84202D0494D10
:1011B000A8421DD14FF67F752A404D894FF6FF7624
:1011C00006EA05152A434FF6BF752A408D8806EAC0
:1011D00005152A434FF6FF352B404FF2FF752B4084
:1011E0008D8906EA85052B43CD8906EA85052B43C3
:1011F00083800483CD880587028470BD70B5002488
:1012000000220023058C4FF6FF6635400584028CD2
:101210008388848B4FF68F752C404FF6FC752C40DD
:101220000D882C434FF6FF552A400D894FF6FF7667
:1012300006EA05252A434D8806EA05252A431F4D5F
:10124000A84202D0234DA8421DD14FF2FF752A407B
:101250004D894FF6FF7606EA05252A434FF6FF35FE
:101260002A408D8806EA05252A434EF6FF752B4055
:101270004DF6FF752B408D8906EA05152B43CD8968
:1012800006EA05152B4383808483CD8885870284F5
:1012900070BD70B5002200230024058C4EF6FF7649
:1012A00035400584038C8488828B48F6FF752A407C
:1012B0004FF6FF452A400D8820E00000002C014039
:1012C0000004004000080040000C004000100040F6
:1012D0000014004000340140004C01400050014027
:1012E0000054014000180040001C00400020004055
:1012F0000040014000440140004801404FF6FF76A5
:1013000006EA05252A434DF6FF752B400D8906EAAE
:1013100005352B434D8806EA05352B43FA4DA84287
:1013200002D0FA4DA84208D14BF6FF752C408D89AA
:101330004FF6FF7606EA85152C4384808283CD889C
:10134000A0F84050038470BD828B4FF2FF331A40E7
:101350008283828B4FF6FF7303EA01231A43828351
:101360007047F0B50C461546002200210026078C78
:101370004EF6FF7C07EA0C070784828B018C4FF640
:10138000FF7707EA043640F6FF473A404FF6FF770B
:1013900007EA05273A434FF6FF7707EA03373A4350
:1013A000D94FB8420ED0D94FB8420BD0B0F1804FD0
:1013B00008D0D74FB84205D0D64FB84202D0D64F4A
:1013C000B84206D14DF6FF77394046F4805739438D
:1013D00005E047F6FF57394044F48057394382838C
:1013E0000184F0BD828B4FF6F3731A408283828BA7
:1013F0000A4382837047F0B50C461546002200214F
:101400000026078C4FF6FF6C07EA0C070784828BD7
:10141000018C4FF6FF7707EA04264FF60C773A4027
:101420004FF6FF7707EA03172F433A43B64FB84208
:101430000ED0B64FB8420BD0B0F1804F08D0B44FA9
:10144000B84205D0B34FB84202D0B34FB84206D12C
:101450004FF6FF57394046F48077394305E04FF2A5
:10146000FF57394044F48077394382830184F0BDCB
:10147000028B4FF2FF331A400283028B4FF6FF7349
:1014800003EA01231A4302837047F0B50C46154660
:10149000002200210026078C4FF6EF7C07EA0C079C
:1014A0000784028B018C4FF6FF7707EA041640F69B
:1014B000FF473A404FF6FF7707EA03373A434FF6C4
:1014C000FF7707EA05273A438F4FB8420ED08F4F78
:1014D000B8420BD0B0F1804F08D08D4FB84205D044
:1014E0008C4FB84202D08C4FB84206D14FF6DF770E
:1014F000394046F01007394305E04FF65F77394031
:1015000044F01007394302830184F0BD028B4FF68B
:10151000F3731A400283028B0A4302837047F0B5CB
:101520000C46154600220021068C4FF6FE773E4001
:101530000684028B018C4FF60C7632407E1C06EA44
:1015400003162E433243704EB0420ED06F4EB0425F
:101550000BD0B0F1804F08D06D4EB04205D06D4E2B
:10156000B04202D06C4EB04206D14FF6FD7631400B
:1015700044F00106314305E04FF6F576314044F082
:101580000106314302830184F0BD70B505460C4667
:101590005D4885420ED05D4885420BD0B5F1804F45
:1015A00008D05B48854205D05A48854202D05A4847
:1015B000854200D100E000BF208850B92389A2886D
:1015C00061882846FFF7ABFFE1882846FFF79EFFBA
:1015D00025E0208804280AD12389A288618828462A
:1015E000FFF753FFE1882846FFF742FF17E0208806
:1015F00008280AD12389A28861882846FFF7FBFEC4
:10160000E1882846FFF7EEFE09E02389A288618879
:101610002846FFF7A6FEE1882846FFF795FE70BD35
:101620002DE9F04105460C4600260127608808B9DF
:10163000022600E00026A088012801D1022700E050
:1016400001272088A0B92389A28861882846FFF74E
:1016500066FFE1882846FFF759FF23893A4631465D
:101660002846FFF712FFE1882846FFF701FF13E045
:101670002389A28861882846FFF707FFE18828466A
:10168000FFF7F6FE23893A4631462846FFF747FF23
:10169000E1882846FFF73AFFBDE8F0810A884B88C9
:1016A0001A438B881A43CB881A430B891A434B89F8
:1016B0001A438B891A43A0F8442070474FF6FF71F4
:1016C000818000210180C18041800172704700212A
:1016D000018041808180C180018141818181C181FE
:1016E0007047002101804180012181800021C1805B
:1016F000018170470021018041808180C18001818A
:101700004181818170470000002C0140003401407C
:101710000004004000080040000C004021B1028895
:1017200042F00102028004E002884FF6FE731A4084
:101730000280704731B1B0F8442042F40042A0F872
:10174000442005E0B0F84420C2F30E02A0F8442083
:1017500070471AB183890B43838102E083898B43ED
:10176000838170478182704741EA0203A0F84830C4
:1017700070471AB183890B43838102E083898B43CD
:101780008381704701894FF6F872114001817047DB
:101790000A46002101894FF68F73194011430181D8
:1017A000704730B504460D4629462046FFF7F0FF46
:1017B000208940F00700208130BD2DE9F04104462A
:1017C0000D4616461F46602D06D13B460122314686
:1017D0002046FFF75AFE05E03B46012231462046EF
:1017E000FFF79DFE29462046FFF7D2FF208940F0F3
:1017F00007002081BDE8F08130B50C460021018949
:10180000C9B24FF6FF7505EA032515432543294361
:10181000018130BD2DE9F04105460E461746984638
:10182000002443463A4631462846FFF7E5FF2C8917
:101830004FF6F870044044F007044FF68F700440F0
:1018400044F070042C81BDE8F081F0B504460D46EB
:1018500016461F463B46324629462046FFF7CCFF38
:10186000208940F480402081F0BD0185828270474C
:101870000A46002101884FF68F73194011430180F9
:101880007047F0B50C4615461E4600210022002385
:101890000189028B038C4FF6F877394021434FF6CC
:1018A000FC473A4040F201173A434FF6DD773B40A0
:1018B0004FF6FF7707EA06172F433B430181028368
:1018C0000384F0BD0A460021018B4FF68F73194047
:1018D0001143018370470A460021018B48F6FF73CC
:1018E00019404FF6FF7303EA02231943018370473F
:1018F0000A460021818B4FF68F7319401143818373
:1019000070470A460021818B48F6FF7319404FF655
:10191000FF7303EA022319438183704721B10288D0
:1019200042F08002028004E002884FF67F731A4082
:101930000280704721B1828842F00402828004E074
:1019400082884FF6FB731A408280704721B18288EB
:1019500042F00802828004E082884FF6F7731A4052
:101960008280704721B1828842F00102828004E0C7
:1019700082884FF6FE731A40828070470A46002123
:10198000018B4FF6F77319401143018370470A46E4
:101990000021018B4FF2FF7319404FF6FF7303EAEA
:1019A00002231943018370470A460021818B4FF6B9
:1019B000F77319401143818370470A460021818BD8
:1019C0004FF2FF7319404FF6FF7303EA02231943E6
:1019D000818370470A460021018B4FF6FB73194043
:1019E0001143018370470A460021018B4FF6FF33F4
:1019F00019404FF6FF7303EA02231943018370472E
:101A00000A460021818B4FF6FB73194011438183F5
:101A100070470A460021818B4FF6FF3319404FF67D
:101A2000FF7303EA02231943818370470A460021AA
:101A3000018B4FF67F7319401143018370470A46AB
:101A40000021018BC1F30E014FF6FF7303EA02235D
:101A50001943018370470A460021818B4FF67F733B
:101A600019401143818370470A460021818BC1F3DD
:101A70000E014FF6FF7303EA022319438183704777
:101A80000A460021018C4FF6FD7319401143018471
:101A900070470A460021018C4FF6F7731940114335
:101AA000018470470A460021018C4FF6DF7319400C
:101AB0004FF6FF7303EA02131943018470470A4685
:101AC0000021018C4FF67F7319404FF6FF7303EA34
:101AD00002131943018470470A460021018C4FF616
:101AE000FF5319404FF6FF7303EA022319430184A1
:101AF00070470A460021018C4FF2FF7319404FF6E0
:101B0000FF7303EA02231943018470470A46002148
:101B1000018C4DF6FF7319404FF6FF7303EA023351
:101B200019430184704730B5002301248C40A3B2CF
:101B3000048C9C430484048C02FA01F5ADB22C435E
:101B4000048430BD30B5002304248C40A3B2048C3F
:101B50009C430484048C02FA01F5ADB22C43048446
:101B600030BD70B50346002000241846183001250A
:101B70008D40ACB21D8CA5431D8409B1082909D143
:101B800000EB6100056825F07005056005681543E8
:101B900005600EE00D1FC5F34E052844056825F4C9
:101BA000E045056005684FF6FF7606EA02263543F4
:101BB000056070BD21B1028842F00202028004E09B
:101BC00002884FF6FD731A400280704721B10288E7
:101BD00042F00402028004E002884FF6FB731A40D0
:101BE0000280704721B1828842F08002828004E046
:101BF00082884FF67F731A408280704702884FF6C2
:101C0000F7731A40028002880A4302807047828874
:101C10004FF68F731A40828082880A438280704711
:101C200002894FF6F8731A40028102890A43028141
:101C3000704702894FF67F731A40028102890A4376
:101C40000281704781847047818570478186704723
:101C50000187704781877047A0F84010704702885D
:101C60004FF6FF431A40028002880A430280704701
:101C70000146888E70470146088F70470146888F5D
:101C800070470146B1F8400070470146888C7047A4
:101C90000146088D704702460020138A0B4201D08E
:101CA000012000E000207047CA430282704730B52F
:101CB0000246002000230024158A05EA01039589C5
:101CC00005EA010413B10CB1012000E0002030BD91
:101CD000CA4302827047000010B50446FA488442A5
:101CE00008D101214015FEF797FE00216015FEF78F
:101CF00093FE17E0F548844208D101210015FEF754
:101D00008BFE00212015FEF787FE0BE0F048844291
:101D100008D10121C803FEF77FFE00214FF40040E7
:101D2000FEF77AFE10BD30B5024600200023506851
:101D3000E84C20400D790C6844EA052420435060AB
:101D40009068E54C2040D1E902542C434D7944EA97
:101D5000450420439060D06A20F470000C7C641E1F
:101D6000E4B2234340EA0350D06230BD0021016059
:101D7000017141718160C16001210174704721B11D
:101D8000826842F00102826003E0826822F0010270
:101D90008260704721B1826842F48072826003E001
:101DA000826822F480728260704710B50023CBB243
:101DB0001AB144681C43446002E044689C43446098
:101DC00010BD816841F00801816070470146002024
:101DD0008A6812F0080F01D0012000E0002070474F
:101DE000816841F0040181607047014600208A68E3
:101DF00012F0040F01D0012000E00020704721B153
:101E0000826842F4A002826003E0826822F4A002A9
:101E100082607047014600208A6812F4800F01D06A
:101E2000012000E00020704710B50A460021002381
:101E3000416821F46041531E41EA4331416010BDC5
:101E400021B1426842F40062426003E0426822F439
:101E5000006242607047F0B504460D460020002144
:101E6000092D11DDE068A5F10A0606EB46070726F5
:101E700006FA07F18843A5F10A0606EB460603FABF
:101E800006F10843E0600CE0206905EB45070726F2
:101E900006FA07F1884305EB450603FA06F1084305
:101EA0002061072A0FDA606B561E06EB86071F2695
:101EB00006FA07F18843561E06EB860605FA06F178
:101EC0000843606322E00D2A0FDA206BD61F06EB71
:101ED00086071F2606FA07F18843D61F06EB8606FB
:101EE00005FA06F10843206310E0E06AA2F10D064E
:101EF00006EB86071F2606FA07F18843A2F10D06B6
:101F000006EB860605FA06F10843E062F0BD21B152
:101F1000826842F48012826003E0826822F48012B8
:101F2000826070470146C86C80B2704766484C308A
:101F30000068704721B1426842F48062426003E069
:101F4000426822F480624260704721B1426842F4E4
:101F50008052426003E0426822F48052426070473F
:101F60000A460021816821F4E041114381607047F5
:101F700021B1826842F40042826003E0826822F468
:101F800000428260704721B1826842F4021282608E
:101F900003E0826822F4021282607047014600204A
:101FA0008A6812F4001F01D0012000E00020704771
:101FB000F0B504461546002000220026092911DD4F
:101FC000E068A1F10A0707EB470C072707FA0CF2B4
:101FD0009043A1F10A0707EB470703FA07F2104302
:101FE000E0600CE0206901EB410C072707FA0CF2D6
:101FF000904301EB410703FA07F210432061A06B05
:10200000C0F30156EF1C06F1010CA7EB0C0707EB20
:10201000870C1F2707FA0CF29043EF1C06F1010C06
:10202000A7EB0C0707EB870701FA07F21043A06341
:10203000F0BD10B50A4600210023816B21F4401148
:10204000531E41EA0351816310BD08B5002300937C
:102050000090009B0B440093009B1A6008BD08B5DC
:10206000024600200090009201F12800009B1844D5
:1020700000900098006880B208BD0A4600214168BF
:10208000164B1940114341607047416282627047AC
:102090000A460021416821F01F0111434160704749
:1020A00040B109490831096841F40001064A083283
:1020B000116007E004490831096821F40001024A6F
:1020C00008321160704700000024014000280140E0
:1020D000003C0140FFFEF0FFFDF7F1FFFFFD3FFF79
:1020E0000246002013680B4201D0012000E00020CE
:1020F0007047CA430260704770B502460020002353
:1021000000240B125568CEB205EA060415681D427C
:1021100002D00CB1012000E0002070BD00220A12A4
:10212000D34303607047000001684FF6FE72114010
:1021300001600021016041608160C1608C4988427A
:1021400008D18B490839496841F00F01884A083A9B
:1021500051608AE086491431884208D1844908399F
:10216000496841F0F001824A083A51607DE08049B7
:102170002831884208D17E490839496841F47061A4
:102180007B4A083A516070E079493C31884208D175
:1021900077490839496841F47041754A083A5160F5
:1021A00063E073495031884208D171490839496860
:1021B00041F470216E4A083A516056E06C4964312E
:1021C000884208D16A490839496841F47001684A6F
:1021D000083A516049E066497831884208D164493B
:1021E0000839496841F07061614A083A51603CE041
:1021F0006049884206D1011F096841F00F01021FA2
:10220000116032E05B491431884208D15949091FF5
:10221000096841F0F001574A121F116025E0554945
:102220002831884208D15349091F096841F4706177
:10223000504A121F116018E04E493C31884208D1C3
:102240004C49091F096841F470414A4A121F116044
:102250000BE048495031884207D14649091F0968B7
:1022600041F47021434A121F1160704710B50022DB
:10227000026847F6F0739A430C6A8B6823430C6933
:1022800023434C6923438C692343CC6923434C6A21
:1022900023438C6A23431A430260CB6843600B6874
:1022A00083604B68C36010BD0021016041608160A4
:1022B000C160016141618161C1610162416281620C
:1022C000704721B1026842F00102026004E0026836
:1022D0004FF6FE731A40026070471AB103680B4351
:1022E000036002E003688B430360704741607047FE
:1022F0000146486880B2704701460020002211F074
:10230000805F03D01B4B083B1A6802E0184B083B68
:102310001A680A4201D0012000E00020704710F046
:10232000805F03D01349091F086002E01049083993
:102330004860704701460020002211F0805F03D002
:102340000C4B083B1A6802E0094B083B1A680A422A
:1023500001D0012000E00020704710F0805F03D022
:102360000449091F086002E00149083948607047C4
:102370000800024008040240704700BFFEE700BFAB
:10238000FEE700BFFEE700BFFEE7704770477047FB
:1023900010B500F0A5F910BD704710B501218807F0
:1023A000FFF785FC40B101218807FFF791FC304819
:1023B0000068401C2E49086010BD10B501212D4851
:1023C000FFF775FC40B101212A48FFF781FC2A483C
:1023D0000068401C2849086010BD70B50025274CD6
:1023E00040F225512648FEF725FD00283FD024481D
:1023F000001D0088C5B22348007838B9AA2D31D114
:10240000257001201F490870A5712BE01D48007838
:10241000012807D1657002201A490870A079284464
:10242000A0711FE01748007802280ED1E179481CFE
:10243000E071A01C4554A0792844A071E0790428DB
:1024400010D103200F4908700CE00E4800780328D3
:1024500008D1A079A84201D10120207200200949A9
:102460000870E07140F225510548FEF70DFD70BD82
:10247000D400002000040040D8000020FA00002012
:10248000004400402800002008B501217C20FEF710
:10249000A9FA01210846FEF7A5FA01216748FEF7CF
:1024A000BAF849F61170ADF8000014208DF8030059
:1024B00003208DF8020069466148FDF7DDFF4FF605
:1024C0003C70ADF8000014208DF8030003208DF857
:1024D000020069465B48FDF7CFFF4FF6C070ADF8CC
:1024E000000014208DF8030003208DF802006946D7
:1024F0005548FDF7C1FF4FF6F070ADF8000014200D
:102500008DF8030003208DF8020069464F48FDF75F
:10251000B3FF40F2FF70ADF8000014208DF8030007
:1025200003208DF8020069464948FDF7A5FF1820F1
:10253000ADF8000014208DF8030003208DF8020090
:1025400069464048FDF798FF4FF40040ADF80000A1
:1025500014208DF8030003208DF8020069463848E6
:10256000FDF78AFF49F611713548FEF730F84FF64E
:102570003C713448FEF72BF84FF6C0713248FEF735
:1025800026F84FF6F0713148FEF721F840F2FF715E
:102590002F48FEF71CF80C20ADF8000048208DF8FD
:1025A000030003208DF8020069462848FDF764FF08
:1025B0004FF4C040ADF8000048208DF80300032020
:1025C0008DF8020069462248FDF756FF4FF4C050CF
:1025D000ADF8000010208DF8030003208DF80200F4
:1025E00069461B48FDF748FF0220ADF800001020A7
:1025F0008DF8030003208DF8020069461048FDF7AE
:102600003BFF4FF4C0511248FDF7E3FF02210C4895
:10261000FDF7DFFF4FF40040ADF8000010208DF80B
:10262000030003208DF8020069460948FDF724FFE6
:102630004FF400410648FDF7CCFF08BD0002300012
:1026400000080140000C014000100140001401404E
:102650000018014030B5274800684FF47A72B0FB8B
:10266000F2F1B1F1807F01D301201BE021F07F4026
:10267000401E4FF0E022506150170F22002806DA6A
:1026800013011D4C00F00F052D1F635502E01301CF
:102690001A4C235400BF00204FF0E0229061072025
:1026A0001061002008B100BFFEE74FF0E020006994
:1026B00020F001004FF0E021086130BD01B5104964
:1026C000009808604FF0E020006940F001004FF0F2
:1026D000E021086100BF0A4800680028FBD108BD5E
:1026E0000748006820B106480068401E0449086099
:1026F000704700000000002018ED00E000E400E05A
:102700002C00002010B504460C2C74D2DFE804F035
:102710008406111B252F38424D5762744FF4807187
:10272000F748FDF754FF4FF40061F648FDF74FFFFF
:1027300073E04FF48061F248FDF749FF1021F04843
:10274000FDF745FF69E04FF48051ED48FDF73FFF8D
:102750000821ED48FDF73BFF5FE04FF48041E8487A
:10276000FDF735FF0421E848FDF731FF55E0402132
:10277000E448FDF72CFF2021E348FDF728FF4CE05B
:102780004FF48071DF48FDF722FF1021DE48FDF78E
:102790001EFF42E04FF48071DC48FDF718FF4FF454
:1027A0000051D848FDF713FF37E04FF48061D74858
:1027B000FDF70DFF4021D448FDF709FF2DE04FF450
:1027C0008051D248FDF703FF4FF40041CD48FDF79B
:1027D000FEFE22E0CE48007840F04000CC49087070
:1027E0004221CB48007800F083FE4FF48041C54879
:1027F000FDF7EDFE11E00FE0C548007840F08000E5
:10280000C34908704221C248007800F071FE0121DE
:10281000BE48FDF7DCFE00E000BF00BF10BD70B594
:1028200005460C2D7ED2DFE805F07D06101A253016
:102830003B46505B66724FF48051B248FDF7C7FECD
:102840001021B248FDF7C3FE6DE04FF48061AD4842
:10285000FDF7BDFE8021AC48FDF7B9FE63E04FF403
:102860000041AA48FDF7B3FE4FF48071A648FDF77A
:10287000AEFE58E04FF40061A448FDF7A8FE4FF407
:102880000071A148FDF7A3FE4DE04FF400719F4891
:10289000FDF79DFE4FF480619B48FDF798FE42E0F6
:1028A0004FF400719748FDF792FE4FF4806199480C
:1028B000FDF78DFE37E080219248FDF788FE4FF44A
:1028C00000619448FDF783FE2DE04FF400418C48F1
:1028D000FDF77DFE4FF400518E48FDF778FE22E0B3
:1028E0004FF400518648FDF772FE4FF400418948CD
:1028F000FDF76DFE17E04FF400618148FDF767FEBC
:102900004FF480518348FDF762FE0CE00AE04FF47B
:1029100000717B48FDF75BFE4FF480417D48FDF779
:1029200056FE00E000BF00BF7848FDF74CFE48F6B9
:1029300010210840884201DA012600E0002675488F
:10294000FDF741FE00F46C40B0F56C4F01DA012058
:1029500000E0002006436B48FDF735FE00F4B4505C
:10296000B0F5B45F01DA012000E0002006436448BE
:10297000FDF729FE00F42240B0F5224F01DA0120D4
:1029800000E0002006436048FDF71DFE00F4F06003
:10299000B0F5F06F01DA012000E00020064308D115
:1029A000012404E02046FFF7ADFE601CC4B2092CF0
:1029B000F8DD70BD70B505460C4615B1012D6ED120
:1029C0004DE00C2C48D2DFE804F047060C12181E2C
:1029D000242A2F353B414FF480514A48FDF7F9FD39
:1029E0003BE04FF480614748FDF7F3FD35E04FF4DD
:1029F00000414648FDF7EDFD2FE04FF400614348EC
:102A0000FDF7E7FD29E04FF400714048FDF7E1FDD7
:102A100023E04FF400713B48FDF7DBFD1DE0802112
:102A20003848FDF7D6FD18E04FF400413448FDF773
:102A3000D0FD12E04FF400513148FDF7CAFD0CE023
:102A40004FF400612E48FDF7C4FD06E04FF400711D
:102A50002B48FDF7BEFD00E000BF00BF4EE00C2C90
:102A600048D2DFE804F047060B10161D23292F3546
:102A70003B4110212548FDF7ACFD3CE08021224878
:102A8000FDF7A7FD37E04FF480711F48FDF7A1FD6A
:102A900031E04FF400711C48FDF79BFD2BE02CE06A
:102AA0004FF480611848FDF794FD24E04FF48061F5
:102AB0001848FDF78EFD1EE04FF400611548FDF744
:102AC00088FD18E04FF400511248FDF782FD12E036
:102AD0004FF400410F48FDF77CFD0CE04FF48051AE
:102AE0000C48FDF776FD06E04FF480410948FDF7FC
:102AF00070FD00E000BF00BF00E000BF00BF70BD80
:102B0000001401400010014000180140000801407D
:102B100039000020000C014070B505460C4615B187
:102B2000012D6FD159E00C2C54D2DFE804F053068C
:102B30000C12181E23292F353B474FF48071CC48C7
:102B4000FDF747FD47E04FF48061C948FDF741FDBF
:102B500041E04FF48051C648FDF73BFD3BE04FF4A8
:102B60008041C348FDF735FD35E04021C148FDF700
:102B700030FD30E04FF48071BE48FDF72AFD2AE0B9
:102B80004FF48071BC48FDF724FD24E04FF48061D0
:102B9000B948FDF71EFD1EE04FF48051B648FDF721
:102BA00018FD18E0B548007800F0BF00B349087080
:102BB0004221B248007800F09BFC0CE0AF4800785E
:102BC00000F07F00AD4908704221AC48007800F069
:102BD0008FFC00E000BF00BF49E00C2C43D2DFE8CF
:102BE00004F042060C12171C21262C31373D4FF4FD
:102BF0000061A048FDF7EDFC36E010219C48FDF790
:102C0000E8FC31E032E008219D48FDF7E2FC2BE0D2
:102C100004219B48FDF7DDFC26E020219848FDF7C4
:102C2000D8FC21E010219648FDF7D3FC1CE04FF4BE
:102C300000519048FDF7CDFC16E040219048FDF78B
:102C4000C8FC11E04FF400418A48FDF7C2FC0BE0DC
:102C50004FF480418748FDF7BCFC05E00121864820
:102C6000FDF7B7FC00E000BF00BF00E000BF00BF01
:102C700070BD2DE9F04180460E4614461F460025E2
:102C8000092E10D10B2C0ED131464046FFF744FFE0
:102C900021464046FFF78EFE4FF4FA70FFF70EFD17
:102CA0002846BDE8F08100251DE031464046FFF78B
:102CB00033FF21464046FFF77DFE9620FFF7FEFCDE
:102CC000601E704931F8100040F20461884207DD4F
:102CD0002046FFF7A4FD4FF4FA70FFF7EFFC00E089
:102CE00003E0681CC5B2BD42DFDB00BF2846D8E761
:102CF00070B50546002629460020FFF70DFF012488
:102D000017E021460020FFF755FEC820FFF7D6FC4C
:102D1000601E5C4931F8100040F20461884206DD13
:102D20002046FFF77CFD4FF4FA70FFF7C7FC601CEC
:102D3000C4B2092CE5DD002405E0524830F8140047
:102D40000644601CC4B2092CF7DB31464EA001F0EA
:102D50001BFF70BD10B5012407E02046FFF7D2FC31
:102D60002046FFF75CFD601CC4B2092CF5DD0A208B
:102D7000FFF7C8FC0B20FFF7C5FC0B20FFF74FFD4A
:102D80004FF4FA70FFF79AFC10BD70B500243A4872
:102D9000FDF719FC48F610210840884201DA0125A8
:102DA00000E000253F48FDF70EFC00F46C40B0F554
:102DB0006C4F01DA012000E0002005432D48FDF7AB
:102DC00002FC00F4B450B0F5B45F01DA012000E079
:102DD000002005432648FDF7F6FB00F42240B0F53D
:102DE000224F01DA012000E0002005432448FDF7CE
:102DF000EAFB00F4F060B0F5F06F01DA012000E0CA
:102E0000002005431C48FDF7DEFB41F2015108405C
:102E1000B0F5A85F01DC012000E000200543154863
:102E2000FDF7D1FB4EF640110840884201DA01203F
:102E300000E0002005430E48FDF7C5FB45F21051A8
:102E40000840884201DA012000E0002005430C48D8
:102E5000FDF7B9FB00F07C007C2801DA012000E0DE
:102E60000020054301D1002400E00124204670BD6C
:102E7000001401400010014000080140390000200A
:102E800000180140E40000200D0A746F74616C208A
:102E900063757272656E74206973202564200D0A53
:102EA00000000000000C014000B587B001210420A3
:102EB000FDF798FD01214804FDF7A1FD0420ADF8C0
:102EC000180018208DF81B0003208DF81A0006A9A1
:102ED0009A48FDF7D1FA0820ADF8180004208DF8C3
:102EE0001B0006A99548FDF7C7FA4FF4E1300290A0
:102EF0000020ADF80C00ADF80E00ADF81000ADF8F4
:102F000014000C20ADF8120002A98D48FDF715FE43
:102F10004FF4C060FDF7E2F926208DF80400002090
:102F20008DF805008DF8060001208DF8070001A836
:102F3000FDF7D9F9012240F225518148FDF795FEB0
:102F400001217F48FDF785FE07B000BD70B504463E
:102F50000D46E1B27A48FDF7E9FE00BF78480088E7
:102F600010F0800FFAD0204670BDF0B503460D4634
:102F70001646002729460A2E03D00020087028464E
:102F8000F0BD33B9302001F8010B0020087028464D
:102F9000F6E7002B03DA2D2001F8010B5B4242F229
:102FA00010720DE093FBF2F404B937B104F1300074
:102FB00001F8010B04FB123301270A2092FBF0F207
:102FC000002AEFDC002008702846D9E70FB470B55E
:102FD00086B006460CA801904FF400415948FDF711
:102FE000F6FA0120FFF76AFB73E00B9800785C2883
:102FF0001CD10B98401C0B9000786E2809D07228C9
:103000000FD10D213046FDF791FE0B98401C0B901F
:103010000BE00A213046FDF789FE0B98401C0B900F
:1030200003E00B98401C0B9000BF4BE00B9800781E
:10303000252840D10B98401C0B900078642818D0AC
:10304000732833D1019810C801900BE021783046E5
:10305000FDF76CFE00BF40213046FDF7D5FE00288D
:10306000F9D0641C20780028F0D10B98401C0B90FC
:1030700020E0019820C801900A2202A92846FFF703
:1030800074FF02AC0BE021783046FDF74FFE00BF25
:1030900040213046FDF7B8FE0028F9D0641C2078A6
:1030A0000028F0D10B98401C0B9003E00B98401CBB
:1030B0000B9000BF06E00B9810F8011B0B903046F8
:1030C000FDF734FE00BF40213046FDF79DFE00288D
:1030D000F9D00B980078002887D14FF400411948A7
:1030E000FDF777FA0120FFF7E9FA06B070BC5DF84A
:1030F00014FB70B504464FF400411248FDF767FA1F
:103100000120FFF7DBFA00250CE014F8011B0C4846
:10311000FDF70CFE00BF0A48008810F0800FFAD0BF
:10312000681CC5B2072DF0DB4FF400410548FDF7E0
:1031300050FA0120FFF7C2FA70BD000000080140FC
:10314000004400400018014008B5E020ADF8000040
:1031500000208DF8030069466C48FDF78DF90320C7
:10316000ADF8000000208DF8030069466848FDF7BF
:1031700083F93F20ADF8000000208DF80300694678
:103180006448FDF779F908BD00B591B00121084602
:10319000FDF71BFC01214802FDF724FC5E48FEF709
:1031A000C3FF5E4806905E480790002008900B2001
:1031B000099000200A9080200B9040000C90800025
:1031C0000D9020200E9000020F900020109006A974
:1031D0005148FFF74BF801214F48FFF772F84F486D
:1031E0004C38FEF779FD0020019001208DF8080091
:1031F0008DF809004FF460200390002004900B200C
:103200008DF8140001A945484C38FEF78CFD4FF4A9
:103210000040FDF74EFB0523012219463F484C387C
:10322000FEF719FE0523022206213C484C38FEF722
:1032300012FE05230322072138484C38FEF70BFE07
:1032400005230422082135484C38FEF704FE0523E7
:103250001A46092131484C38FEF7FDFD05230622A8
:103260000A212E484C38FEF7F6FD052307220B21D4
:103270002A484C38FEF7EFFD052308220C21274889
:103280004C38FEF7E8FD052309220D2123484C3870
:10329000FEF7E1FD05230A220E2120484C38FEF7F7
:1032A000DAFD05230B220F211C484C38FEF7D3FD15
:1032B00001211A484C38FEF76DFD012117484C38A2
:1032C000FEF75DFD15484C38FEF77BFD00BF134847
:1032D0004C38FEF77BFD0028F9D110484C38FEF73A
:1032E0007FFD00BF0D484C38FEF77FFD0028F9D167
:1032F00001210A484C38FEF782FD11B000BD10B51F
:10330000FFF722FFFFF740FF10BD0000000801405B
:10331000000C014000100140080002404C24014014
:10332000E4000020962001E0411EC8B20028FBD135
:10333000704700B540209549086080200860FFF77D
:10334000F1FF924808380068002000B100BD40201D
:103350008E49091D0860FFF7E5FF8C4808380068B2
:1033600010F0400F01D00020F0E740208749091DF0
:103370000860FFF7D7FF0120E8E700B58020834908
:10338000091D0860FFF7CEFF40208049091D086035
:10339000FFF7C8FF80207D490860FFF7C3FF40208A
:1033A0007A490860FFF7BEFF00BD00B5802077496D
:1033B000091D0860FFF7B6FF40207449091D086029
:1033C000FFF7B0FF802071490860FFF7ABFF802056
:1033D0006E49091D0860FFF7A5FF00BD00B58020FC
:1033E0006A49091D0860FFF79DFF40206749086092
:1033F000FFF798FF802065490860FFF793FF802062
:103400006249091D0860FFF78DFF00BD00B58020EF
:103410005E49091D0860FFF785FF40205B49086091
:10342000FFF780FF802059490860FFF77BFF57486E
:103430000838006810F0400F05D080205349091D5E
:103440000860002000BD80205049091D086001204F
:10345000F8E700B50246082319E080204B49091D12
:103460000860FFF75FFF12F0800F03D0402047494C
:10347000086003E040204549091D08605006020E1F
:10348000FFF750FF802041490860FFF74BFF18000D
:10349000A3F10101CBB2E0D180203C49091D0860B5
:1034A00000BD00B50823002240203849086014E020
:1034B0005006020E80203549091D0860FFF732FFD3
:1034C000802032490860FFF72DFF30480838006837
:1034D00010F0400F01D042F001021800A3F10101E9
:1034E000CBB2E5D180202949091D0860104600BDF6
:1034F00030B505460C46FFF71CFF08B9002030BD6B
:103500002046FFF7A6FFFFF781FF18B9FFF735FF49
:103510000020F4E72846FFF79CFFFFF777FFFFF74F
:103520002CFF0120EBE730B504460D46FFF701FF05
:1035300008B9002030BD45F00100FFF78AFFFFF712
:1035400065FFFFF7AEFF2070FFF748FFFFF715FF9D
:103550000120EFE708B5C020ADF8000003208DF88A
:10356000020014208DF80300694608481038FCF763
:1035700083FF08BD30B505460C4640212846FFF7BD
:10358000B7FF42212046FFF7B3FF30BD100C0140CA
:1035900010B504460C2C47D2DFE804F046060B10A9
:1035A000151A1F242A30353A40214D48FDF70FF8EF
:1035B0003BE020214A48FDF70AF836E00821494857
:1035C000FDF705F831E080214548FDF700F82CE0D3
:1035D00020214448FCF7FBFF27E010214148FCF77D
:1035E000F6FF22E04FF400713E48FCF7F0FF1CE0CC
:1035F0004FF480713B48FCF7EAFF16E002213A489D
:10360000FCF7E5FF11E001213748FCF7E0FF0CE093
:103610003648007840F02000344908704221334891
:103620000078FFF765FF00E000BF00BF10BD10B5D8
:10363000002405E0611CC8B2FFF7AAFF601CC4B2F9
:103640000B2CF7DB10BD10B54FF44E712548FCF77D
:10365000C0FFE0212248FCF7BCFF03212248FCF711
:10366000B8FF2248007800F0DF00204908704221AE
:103670001E480078FFF73CFF10BD70B500250124FF
:1036800019E0FFF7E0FF2046FFF782FF3220FFF747
:1036900015F84FF400511448FCF77FFF28B1601E65
:1036A000012101FA00F0054303E0601E0121814081
:1036B0008D43601CC4B20A2CE3DDFFF7B8FFFFF7AF
:1036C000C2FF3220FEF7FAFF4FF400510648FCF724
:1036D00064FF08B945F48065FFF7A9FFA8B270BD83
:1036E00000140140000C0140001801403900002086
:1036F0000021FE4A11705170002005E00022FB49B4
:10370000891C0A54411CC8B20428F7DB0021F74A7F
:103710009171704708B5FEF79DFFFEF7B5FEFFF704
:1037200019FFF3480178F3480078FFF723FFFFF70C
:10373000BBFBFFF7E4FD00F0D7FF00F0E5FF01F071
:103740000FF801F01EF84021EB48FFF7ECFE28B31C
:103750000020EA49086017E0E8480078001D0121D0
:1037600001FA00F0E44909780840E4490978490081
:10377000491C0841E24909780843E1490870DF48DB
:103780000068401CDD490860DC4800680428E3D379
:10379000DB480278DBA1E048FFF718FCD848007846
:1037A0000A2876D10120DD4908706EE00120DC494D
:1037B000087061E0FFF7CEFA0223D9480278D748B3
:1037C00001780020FFF755FAD649087008460078BE
:1037D0000090D3480378D1480278D3A1CE48FFF7B0
:1037E000F5FBD0480078022803DA0220DA49087095
:1037F00002E00020D84908704FF4FA70FEF75EFF2F
:103800002DE00020D54908600FE0C5480078401E33
:10381000D34931F81000D34909680844D1490860F8
:10382000CE480068401CCD490860CC480068032899
:10383000EBD3CC480068B0F5676F0AD9B848007878
:10384000FEF7EDFF0020C4490870C7A1B248FFF79A
:10385000BDFB0020C34908600120FEF72FFFBE48D2
:1038600000780228CDD04FF4FA70FEF727FFAC485D
:103870000078401CAA490870A94800780A2899DBFA
:10388000A6480078401CA5490870A44800780A287A
:103890008CDB9B480078052876D101209F49087071
:1038A0006EE001209E49087061E0FFF753FA07239C
:1038B0009B480278994801780120FFF7DAF9994985
:1038C000087008460078009095480378934802787D
:1038D000A9A19148FFF77AFB92480078072803DAFC
:1038E00001209D49087002E000209B4908704FF4B8
:1038F000FA70FEF7E3FE2DE00020984908600FE023
:1039000087480078401E964931F8100095490968AB
:1039100008449449086091480068401C8F49086039
:103920008E4800680328EBD38E480068B0F5676FB7
:103930000AD97B480078FEF772FF0020864908709C
:1039400089A17548FFF742FB0020864908600120E5
:10395000FEF7B4FE804800780128CDD04FF4FA700D
:10396000FEF7ACFE6E480078401C6D4908706C484C
:1039700000780A2899DB69480078401C674908707C
:10398000664800780A288CDB8648FFF7B2FBFBE329
:10399000854800780A2875D2DFE800F07405223DDA
:1039A0004875A5A4A3A242218048FFF7BCFD7F482B
:1039B000007810F008007D49087010D13220FEF721
:1039C0007DFE42217948FFF7AEFD7848007810F07F
:1039D00008007649087002D10220734908706FE12F
:1039E00004217348FCF7D9FD88B9FFF7CEF988B9EF
:1039F0007048FFF77EFBFFF7ADF907230B22092183
:103A00000120FFF736F903206749087002E004201F
:103A10006549087054E104216548FCF7BEFD20B1FA
:103A2000FFF798F904206049087049E1624800787E
:103A3000C8B942216148FFF776FD6048007810F070
:103A400004005E4908701CD005205749087000200A
:103A50005B49086001210220FCF7D1FF0121594890
:103A6000FDF75CFE0DE004204F490870002054492A
:103A7000086000215348FDF751FE00210220FCF7A9
:103A8000BEFF1DE11BE14C48007838BB4C48006884
:103A9000B0F5FA7F23D30020494908600021494846
:103AA000FDF73CFE00210220FCF7A9FF422143481C
:103AB000FFF739FD4148007810F004003F490870D5
:103AC00012D006203849087000203D4908600121C5
:103AD0000220FCF794FF01213A4875E07EE08BE07C
:103AE000ECE0CFE0AFE088E074E00000FA000020F6
:103AF00039000020380000203A000020300000206B
:103B00003B00002052756E4D6F646520697320255F
:103B1000642E0D0A0000000000440040CD0000208B
:103B2000CC000020CE0000200D0A20526F77202507
:103B3000642C20436F6C2025642C205374617274B4
:103B400054696D65732025642C204261636B776135
:103B500072640D0A00000000CB0000203400002039
:103B6000E4000020B80000204D6F746F7220537481
:103B70006F707065640D0A000D0A20526F77202562
:103B8000642C20436F6C2025642C20537461727464
:103B900054696D65732025642C20466F72776172BD
:103BA000640D0A0046000020CA0000203D000020ED
:103BB000001401409A000020450000203E00002033
:103BC000D800002000040040FDF7A8FDF748FFF7EB
:103BD00090FA11E00420F64908700DE00420F44941
:103BE00008700020F34908600021F348FDF796FDB6
:103BF00000210220FCF703FF62E0F048007898B94A
:103C0000EC480068B0F5FA7F1CD30720E84908703B
:103C10000021E948FDF782FD00210220FCF7EFFEBC
:103C20000020E44908600DE00420E149087000200C
:103C3000E04908600021E048FDF770FD0021022006
:103C4000FCF7DDFE3CE0DD480078B8B90821DC482F
:103C5000FCF7A3FC70B1FFF798F890B9FFF77AF87A
:103C600007230B2209210020FFF703F80820D04981
:103C7000087006E00120CE49087002E00420CC491B
:103C800008701DE0CD48007890B90421CC48FCF7BD
:103C900084FC90B90821CA48FCF77FFC68B964200D
:103CA000FEF70CFDFFF756F80120C149087004E04B
:103CB0000120BF490870FFF74DF801E000E000BFA8
:103CC00000BFC048007A00287DD00020BD4908729E
:103CD000BD48FFF70EFABB484078142874D2DFE8DD
:103CE00000F073EF730A78F4EDECEBEAE9E8E7E64D
:103CF000E5E4E3E2E1E0FFF748F8E8BBB148C0786B
:103D0000B049897840EA0120B0490860AD4841795E
:103D1000007941EA0020AE4908600020AD49086002
:103D200048E0AA480068AB490978C84010F0010F84
:103D30003BD00020A849086033E0A5480068A649A8
:103D40000978C84010F0010F26D0A2480078401C26
:103D5000A2498870A0480078401CC870FEF7FAFF9E
:103D600007239D480268521C9A480168491C01209B
:103D7000FEF77FFF994900E027E008719548007839
:103D8000B73095490978084494490979084493491A
:103D900088710846FFF7ADF98F480068401C8E49CE
:103DA00008608D4800680B28C7D38A480068401C0B
:103DB00088490860874800680B28B2D34FF4FA702E
:103DC000FEF77CFC04E053E24EE28548FFF791F9F0
:103DD0004BE2FEF7DAFFE8BB7A48C0787949897888
:103DE00040EA01207949086076484179007941EA42
:103DF00000207749086000207649086048E0734851
:103E0000006874490978C84010F0010F3BD00020C9
:103E10007149086033E06E4800686F490978C8400E
:103E200010F0010F26D06B480078401C6B49887059
:103E300069480078401CC870FEF78CFF072366486D
:103E40000268521C63480168491C0020FEF711FFFC
:103E5000624900E035E008715E480078B7305E499D
:103E6000097808445D49097908445C498871084625
:103E7000FFF73FF958480068401C5749086056480A
:103E800000680B28C7D353480068401C514908609C
:103E9000504800680B28B2D34FF4C870FEF70EFCF0
:103EA00012E0BFE1DCE1D7E1A7E18DE140E114E1FF
:103EB00008E1BCE0B1E051E0A6E06EE047E004E0DC
:103EC000BEE04748FFF715F9CFE1FEF743FF45484D
:103ED000FCF779FB48F610210840884201DA0124FA
:103EE00000E000244048FCF76EFB00F46C40B0F5A5
:103EF0006C4F01DA012000E0002004433B48FCF74E
:103F000062FB00F4B450B0F5B45F01DA012000E0C8
:103F1000002004432A48FCF756FB00F42240B0F589
:103F2000224F01DA012000E0002004433048FCF772
:103F30004AFB00F4F060B0F5F06F01DA012000E018
:103F40000020044302D12B48FFF7D3F88DE1FEF7A0
:103F500001FF1C498878FEF7CBFE86E1FFF78DFB59
:103F600025490860084600782449C870224800881E
:103F7000000A887008468078B230C97808441F4922
:103F800088710846FFF7B5F800201B4908601B49F7
:103F9000C8708870B220887167E1FFF754FB012078
:103FA000174908701748FFF7A4F85EE1A100002048
:103FB000CA000020D8000020000400404500002076
:103FC00000140140FA00002046000020B400002048
:103FD000B0000020300000203400002093000020BA
:103FE000A800002000080140000C01400010014022
:103FF0000018014085000020400000207E000020C5
:10400000C000002070000020FFF711FB0020F749DE
:104010000870F748FFF76DF827E1FEF79BFE0A21CD
:104020000020FEF7C7FCF348FFF763F81DE1FEF739
:1040300091FE0A20FEF7F3FBEF48FFF75AF814E170
:104040004021EE48FFF76FFA88B3EC48007800F0A3
:104050000F00EB4988700020EA49086017E0E94842
:104060000078001D012101FA00F0E44909780840B8
:10407000E44909784900491C0841E149C9780843E5
:10408000DF49C870DF480068401CDE490860DD4831
:1040900000680428E3D3DA488078AB30D849C9787F
:1040A0000844D74988710846FFF723F809E0FFE77D
:1040B000FF20D3498870C870A92088710846FFF78F
:1040C00018F8D2E04221D048FFF72DFACE48027806
:1040D000CEA1D548FEF77AFFC7E04FF40051D34890
:1040E000FCF75BFA04462246D1A1CF48FEF76EFFEB
:1040F0000421D348FCF751FA04462246D1A1CA480C
:10410000FEF764FF4FF48041C848FCF746FA0446C6
:104110002246D0A1C448FEF759FF0821C848FCF741
:104120003CFA04462246CFA1BF48FEF74FFF9CE071
:10413000D0488078012811D1C102BC48FCF749FA67
:104140004FF48051B948FCF742FA0221CA48FCF703
:104150003EFACAA1B448FEF739FF34E0C54880787A
:10416000022812D1C102B148FCF733FA4FF40061C2
:10417000AE48FCF72CFA0221BF48FCF728FAC8A188
:10418000A948FEF723FF1EE028E1BA4880780328FB
:104190000CD1C102A548FCF71AFA0221B648FCF777
:1041A00016FAC8A1A048FEF711FF0CE04FF4C05169
:1041B0009E48FCF70EFA0221AF48FCF70AFACAA1A2
:1041C0009948FEF703FF50E008219D48FCF7E5F908
:1041D00090B1D2480078012803D0D048007809284F
:1041E0000AD1FEF7B7FD07230B2209210020FEF7B5
:1041F00040FD0120CA49087037E004219048FCF7CF
:10420000CCF970B9C548007801280AD1FEF7A2FDA3
:1042100007230B2209210120FEF72BFD0120C149B4
:10422000087022E000207749086010E0BE48754918
:10423000096830F8113073480268521CBBA17A48F3
:10424000FEF7C4FE6F480068401C6E4908606D4868
:1042500000680B28EAD308E00120BF49087004E099
:104260000020BD49087000E000BF00BFFFF740FA22
:104270005E48007858B14FF400516C48FCF78DF956
:10428000012804D1FEF766FDB448FEF732FF002096
:104290005C49086039E00020B14908600EE0A2489E
:1042A0005849096830F81100AE4909680844AD4919
:1042B0000860AB480068401CA9490860A84800682D
:1042C0000328ECD3A7480068B0F5676F15D94D48AF
:1042D0000068401CFEF7A3FA4A480078401CA24937
:1042E000887048480078B53088710846FEF701FFAD
:1042F00000209D498870B420887100209949086089
:1043000040480068401C3F4908603E4800680A2851
:10431000C1D30020924908600BE08348808A91490C
:10432000096808448F4908608D480068401C8C4922
:1043300008608B4800680328EFD37848007803288A
:1043400004D141F20C208949086003E042F2107068
:10435000864908608348006884490968884212D900
:104360000B2081498870BF2088710846FEF7C1FE86
:1043700000207D498870B420887101206749087049
:104380000B20FEF74CFA002076490860644800785C
:10439000A0B108212A48FCF700F978B9042128487F
:1043A000FCF7FBF850B96420FEF788F9FEF7D2FC61
:1043B00000205B490870012058490870594800786E
:1043C00060B104211E48FCF7E8F838B1FEF7C2FCE2
:1043D000002054490870092050490870FFF7D8BAE6
:1043E0002DE9F047002007490860EDE0C0000020FB
:1043F0007700002062000020690000203A000020C1
:104400004D000020300000203D00002020493243B4
:10441000206164647265737365642030783432207F
:1044200069732025640D0A00004400400018014013
:1044300020535F53454E312069732025640D0A00D7
:104440000014014020535F53454E322069732025EC
:10445000640D0A0020535F53454E332069732025B5
:10446000640D0A0020535F53454E342069732025A4
:10447000640D0A00FA0000200008014020456E612A
:10448000626C65204C3239382C2054435F53313DE7
:10449000312C2054435F53323D30200D0A00000080
:1044A00020456E61626C65204C3239382C205443B3
:1044B0005F53313D302C2054435F53323D31200D4A
:1044C0000A00000020456E61626C65204C3239386C
:1044D0002C2054435F53313D312C2054435F5332E1
:1044E0003D31200D0A00000044697361626C652053
:1044F0004C32393820616E6420416C6C20636F6EE1
:1045000074726F6C20706F7274206973207365749D
:10451000207A65726F200D0A00000000CA0000209A
:10452000C8000020C9000020E40000200D0A20740B
:1045300068652063757272656E74206F6620436FC4
:104540006C756D6E2025642069732025642F3436C8
:104550003230412E0D0A0000450000205B00002093
:1045600034000020B80000208C000020BC00002097
:104570004D494E4A126831F8120000F0F3F98146B5
:104580004FF08B4100F03CF9044600F0F0F907468B
:104590000022474B00F074F9054600F0FBF945494D
:1045A00008606420FEF78AF84248006800F0DFF9EE
:1045B000044622460B4640A14148FEF707FD3B4812
:1045C0000068401C39490860384800680B28CFD380
:1045D0003CA13B48FEF7FAFCBDE8F08710B549F670
:1045E00011713948FBF7F3FF4FF63C713748FBF781
:1045F000EEFF4FF6C0713648FBF7E9FF4FF6F0715A
:104600003448FBF7E4FF40F2FF713348FBF7DFFF6C
:104610004FF4FA70FEF752F849F611712A48FBF789
:10462000D8FF4FF63C712948FBF7D3FF4FF6C07116
:104630002748FBF7CEFF4FF6F0712648FBF7C9FF7E
:1046400040F2FF712448FBF7C4FF4FF47A70FEF785
:1046500035F810BD10B52148007821490870402177
:104660001E48FEF760FF1F4908706420FEF726F819
:104670001B48007819490978884213D0422100204C
:10468000FEF736FF174908704FF4FA70FEF716F878
:104690004221FF20FEF72CFF124908704FF4FA70F8
:1046A000FEF70CF810BD0000E400002030000020F0
:1046B00000000440D00000202D2D3E25665600004D
:1046C000004400400D200A0000080140000C014099
:1046D000001001400014014000180140DD000020DE
:1046E000DC000020DE00002008B51C208DF8000052
:1046F00000208DF8010001208DF802008DF80300E4
:104700006846FBF7F0FD08BD0EB501210846FCF731
:1047100076F94FF08040FCF7D1FB42F21070ADF813
:1047200004004720ADF800000020ADF80600ADF809
:10473000020069464FF08040FCF794FC0121880795
:10474000FDF7B2FA012211469007FDF702F80121A8
:104750008807FCF7E3FF00210120FCF750F90EBDAC
:1047600008B51D208DF8000000208DF80100022002
:104770008DF8020001208DF803006846FBF7B3FDB9
:1047800008BD0EB501210220FCF739F91248FCF7EB
:1047900095FB42F21070ADF804004720ADF8000020
:1047A0000020ADF80600ADF8020069460A48FCF7A3
:1047B00059FC01210848FDF777FA01221146064805
:1047C000FCF7C7FF01210448FCF7A8FF00210220E5
:1047D000FCF715F90EBD00000004004006488047B4
:1047E00006480047FEE7FEE7FEE7FEE7FEE7FEE7D6
:1047F000FEE7FEE7FEE7FEE7DD010008ED0000084A
:1048000030B480EA010202F0004530F0004221F0AD
:10481000004015D0A0B1C0F3C753C2F3C754C2F3D0
:104820001601C0F31600E41A41F4000140F400023E
:104830007D34914201D3641C00E04900002C02DA6F
:1048400030BC002070474FF400000023914201D398
:10485000891A034340084FEA4101F7D151B191420F
:1048600002D14FF0004105E002D24FF0010101E01A
:104870006FF0010103EBC450284430BC00F0BCB819
:104880002DE9FE4F81EA030404F0004421F00041C9
:1048900000944FF0000B23F0004350EA010402D0D3
:1048A00052EA030404D10020014603B0BDE8F08FB2
:1048B000C3F30A54C1F30A552C44A4F2F33401940F
:1048C000A0FB0254C1F3130141F48011C3F313039D
:1048D00043F4801301FB024400FB034E840A970A51
:1048E00044EA815447EA8357A4FB076802958D0A7E
:1048F00005FB07854FEA932C04FB0C542705029D0A
:104900004FEA065847EA1637B5EB08056EEB070C79
:10491000870E920E47EA811742EA8312A7FB020133
:10492000B6EB0B0164EB00042B0D43EA0C335E186D
:1049300044EB1C50DA465146E7FB0201C5F3130471
:104940004FEA0B3343EA14534FEA0432019C43EA23
:104950000603A4F10C040294009CCDE900B400F01D
:104960008EF8A2E796230022114600F04EB800F020
:10497000004230F000400AD0C10D01F56071C0F373
:10498000160042EA0151C208400711437047002057
:104990000146704701F0004330B421F0004150EA75
:1049A000010206D00A0DA2F56072C1F31301002ABC
:1049B00002DC30BC00207047440F44EAC104C1004F
:1049C000E01830BC00EBC25000F016B830B50B4612
:1049D000014600202022012409E021FA02F59D422F
:1049E00005D303FA02F5491B04FA02F52844151E03
:1049F000A2F10102F1DC30BD0029A8BF7047401CC4
:104A0000490008BF20F00100704710B4B0FA80FCE4
:104A100000FA0CF050EA010404BF10BC704749B121
:104A2000CCF1200421FA04F411FA0CF118BF012191
:104A300021430843A3EB0C01CB1D0106000A002B08
:104A4000BEBF002010BC704700EBC35010440029CB
:104A5000A4BF10BC7047401C490008BF20F00100F3
:104A600010BC704710B5002B08DA401C41F1000162
:104A700092185B411A4301D120F0010010BD2DE9CD
:104A8000F04D92469B4611B1B1FA81F202E0B0FAC4
:104A900080F22032904600F057F804460F4640EA74
:104AA0000A0041EA0B0153465A46084303D1204607
:104AB0003946BDE8F08D114653EA010015D0C8F122
:104AC0004002504600F04FF805460E465046594603
:104AD000424600F039F8084301D0012000E00020F0
:104AE000054346EAE0762C4337430A984FEA44539D
:104AF000A0EB08004FEAD4240A304FF0000244EA49
:104B000047544FEAD72502D500200146D1E70105D9
:104B100010196941DDE9084500196941BDE8F04D0A
:104B2000A0E70000064C074D06E0E06840F00103F6
:104B300094E8070098471034AC42F6D3FBF7DAFA52
:104B40001C4D00083C4D0008202A04DB203A00FAE6
:104B500002F1002070479140C2F1200320FA03F3D4
:104B6000194390407047202A04DB203A21FA02F0D2
:104B70000021704721FA02F3D040C2F12002914097
:104B800008431946704700000FB4054B10B503A940
:104B9000044A029800F018F810BC5DF814FB0000FD
:104BA0004D2F0008E000002002E008C8121F08C1D5
:104BB000002AFAD170477047002001E001C1121F9E
:104BC000002AFBD1704700002DE9FF4F89B09B46BA
:104BD0000446002597E0252833D10027641C4E4960
:104BE000B84601222378203B02FA03F0084202D0A3
:104BF0000743641CF6E720782E2819D114F8010F1A
:104C000047F004072A280ED06FF02F022078A0F179
:104C1000300109290CD808EB880102EB410100EBB7
:104C20000108641CF2E70A98641C50F8048B0A908F
:104C3000207800286BD0642808D0692806D0752811
:104C400020D05A460B9990476D1C5BE00A994FF0B3
:104C50000A0901C90A91002804DAC0F100004FF0E6
:104C60002D0102E0390504D52B218DF820100121FA
:104C700003E0F90704D02021F7E78A4608AE0EE0EA
:104C80000021FAE70A994FF00A0901C90A91F7E7EA
:104C90004946FFF79BFE01F1300106F8011D00288F
:104CA000F6D1ADEB060000F12009780701D44FF0F2
:104CB0000108C84502DDA8EB090000E0002080469D
:104CC000002706E008A85A46C05D0B9990476D1C66
:104CD0007F1C5745F6DB04E030205A460B9990477D
:104CE0006D1CB8F10001A8F10108F5DC05E016F82B
:104CF000010B5A460B9990476D1CB9F10001A9F1BF
:104D00000109F4DC641C207800287FF464AF0DB046
:104D10002846BDE8F08F0000092801003C4D00083E
:104D200000000020E4000000A84B0008204E00080E
:104D3000E400002024040000B84B000800A24A044C
:104D4000000000000000000001020304060708093B
:104D50000000000001020304010203040607080921
:104D6000020406080000000000000000000000002F
:104D700000000000FFEF0000000000000000000045
:104D80000100AABB0000000065AA0100000000AB02
:104D9000AA0200000000ACAA0300000000ADAA04B3
:104DA00000000000AEAA0500000000AFAA06000047
:104DB0000000B0AA0700000000B1AA08000000002F
:104DC000B2AA0900000000B3AA0A00000000B4AAB9
:104DD0000B00000000B5AA0C00000000B6AA0D00F0
:104DE000000000B7AA0E00000000B700000000009D
:104DF00000000000000000000000000000000000B3
:104E0000E8030000000001000000000000000000B6
:104E10000000000000000000000000000000000092
:04000005080000ED02
:00000001FF
