:020000040800F2
:10000000F804002019450008792300087B23000824
:100010007F230008832300088723000800000000D6
:100020000000000000000000000000008B2300081A
:100030008D230008000000008F2300089123000892
:1000400033450008334500083345000833450008B0
:1000500033450008334500083345000833450008A0
:100060003345000833450008334500083345000890
:100070003345000833450008334500083345000880
:100080003345000833450008334500083345000870
:100090003345000833450008334500083345000860
:1000A0003345000833450008334500083345000850
:1000B0009B230008BB230008334500083345000894
:1000C0003345000833450008334500083345000830
:1000D0003345000833450008DB230008334500089A
:1000E000992300083345000833450008DFF80CD099
:1000F00004F0B6FB00480047DD350008F804002096
:100100000CB50020019000906B48006840F48030EE
:100110006949086000BF6848006800F4003000903A
:100120000198401C0190009818B90198B0F5A06F93
:10013000F1D16148006810F4003F02D00120009026
:1001400001E0002000900098012842D15B4800683F
:1001500040F01000594908600846006820F003008C
:1001600008600846006840F0020008605248406895
:10017000514948600846406848600846406840F475
:10018000806048600846406820F47C10486008465B
:10019000406840F4E81048600846006840F080700D
:1001A000086000BF4448006810F0007FFAD0424861
:1001B000406820F00300404948600846406840F02D
:1001C0000200486000BF3C48406800F00C0008286E
:1001D000F9D10CBD10B5FFF793FF10BD10B536482F
:1001E000006840F00100344908600846406834491E
:1001F00008403149486008460068324908402E49A5
:1002000008600846006820F48020086008464068BE
:1002100020F4FE0048604FF41F008860FFF7DAFF0B
:100220004FF000602849086010BD10B50021002083
:100230000022214B5B6803F00C0121B1042906D098
:10024000082928D107E0214B214C236027E01F4BD0
:100250001F4C236023E0184B5B6803F47010164BAF
:100260005B6803F48032022303EB904022B9194B00
:100270004343174C23600DE00F4B5B6813F4003FC2
:1002800004D0144B4343124C236003E00F4B434311
:100290000F4C236003E00D4B0D4C236000BF00BFEB
:1002A000054B5B68C3F303130B4CE15C084B1B6805
:1002B000CB40074C236010BD0010024000200240DC
:1002C0000000FFF8FFFFF6FE08ED00E000127A00E4
:1002D0000000002000093D000400002031490143D6
:1002E000314A1160704770B5002100230F22C47895
:1002F0000CB32D4C246804F4E064C4F5E064210AD6
:10030000C1F10403CA40447804FA03F1847814402C
:1003100021430901254C0678A155047804F01F05F6
:100320000124AC4005786D114FF0E02606EB850501
:10033000C5F8004109E0047804F01F050124AC4031
:100340001B4D0678761145F8264070BD194A0A40C3
:100350000243154B1B1F1A60704739B1124A121D18
:1003600012680243104B1B1D1A6006E00E4A121D54
:10037000126882430C4B1B1D1A607047042808D179
:100380004FF0E021096941F004014FF0E0221161D2
:1003900007E04FF0E021096921F004014FF0E0226D
:1003A000116170470000FA050CED00E000E400E088
:1003B00080E100E080FFFF1F10B50446CA48844278
:1003C00008D10121042000F027FB0021042000F0C7
:1003D00023FB46E0C548844208D10121082000F0F3
:1003E0001BFB0021082000F017FB3AE0C0488442C4
:1003F00008D10121102000F00FFB0021102000F097
:100400000BFB2EE0BB48844208D10121202000F0E4
:1004100003FB0021202000F0FFFA22E0B6488442CE
:1004200008D10121402000F0F7FA0021402000F01F
:10043000F3FA16E0B148844208D10121802000F08F
:10044000EBFA0021802000F0E7FA0AE0AC48844291
:1004500007D10121801500F0DFFA0021A01500F07E
:10046000DBFA10BD10B50121084600F0D5FA0021D5
:10047000012000F0D1FA10BD2DE9F041024600251F
:100480000026002000230024002791F803C00CF070
:100490000F0591F803C01CF0100F03D091F802C0B3
:1004A0004CEA050591F800C0BCF1000F31D014688A
:1004B00000202BE04FF0010C0CFA00F3B1F800C063
:1004C0000CEA03069E4220D183004FF00F0C0CFA79
:1004D00003F7BC4305FA03FC4CEA040491F803C09B
:1004E000BCF1280F06D14FF0010C0CFA00FCC2F849
:1004F00014C00AE091F803C0BCF1480F05D14FF0D9
:10050000010C0CFA00FCC2F810C0401C0828D1D322
:100510001460B1F800C0BCF1FF0F34DD5468002056
:100520002EE000F1080C4FF0010808FA0CF3B1F8C6
:1005300000C00CEA03069E4221D183004FF00F0C4D
:100540000CFA03F7BC4305FA03FC4CEA040491F8E7
:1005500003C0BCF1280F05D100F1080C08FA0CF813
:10056000C2F8148091F803C0BCF1480F07D100F124
:10057000080C4FF0010808FA0CF8C2F81080401C73
:100580000828CED35460BDE8F0814FF6FF7101809A
:10059000022181700421C1707047024600209368D7
:1005A0000B4201D0012000E000207047014688681E
:1005B00080B2704702460020D3680B4201D0012070
:1005C00000E0002070470146C86880B270470161B2
:1005D0007047416170470AB1016100E041617047B5
:1005E000C16070474FF480320A4382618161826149
:1005F00082698269704702460020424B18684FF6B4
:100600008073184040EA021008433E4B1860704760
:100610003D49C8617047F0B50A4600230024002117
:10062000002500F00046B6F1004F02D1354EF169C9
:1006300001E0344E7168C0F3034583B200F4401604
:10064000B6F5401F08D121F070612E4E766826F075
:1006500070662C4F7E6012E000F48016B6F5801FA5
:1006600006D1032606FA05F4A14341F0706106E0C5
:10067000460D360103FA06F6B14341F0706122B12E
:10068000460D360103FA06F6314300F00046B6F196
:10069000004F02D11B4EF16101E01A4E7160F0BDB6
:1006A00030B500228B071C0F0F2303FA04F2154B01
:1006B00008338C1053F824309343124C08348D10B7
:1006C00044F8253023468C1053F824308C07240F2F
:1006D00000FA04F423430B4C08348D1044F8253001
:1006E00030BD0A490860704700080140000C014015
:1006F000001001400014014000180140001C01409E
:10070000002001400000014000002042DC002042A7
:10071000DD48006840F00100DB4908600846406899
:10072000DA490840D849486008460068D849084076
:10073000D54908600846006820F480200860084613
:10074000406820F4FE0048604FF41F008860704746
:10075000CD49096821F48031CB4A116011460968FE
:1007600021F480211160B0F5803F03D0B0F5802FD7
:100770000ED106E0C449096841F48031C24A1160D3
:1007800007E0C149096841F4A021BF4A116000E0B7
:1007900000BF00BF704710B50146002200230020B3
:1007A0004A11012A02D1B84C236806E0022A02D17C
:1007B000B54C236A01E0B44C636A01F01F020124C6
:1007C00094401C4201D0012000E0002010BD38B54B
:1007D000002000900024002500BF3120FFF7DBFF40
:1007E00005460098401C00900098B0F5A06F01D01D
:1007F000002DF2D03120FFF7CEFF08B1012400E038
:100800000024204638BD014600209F4A106820F091
:10081000F80040EAC100106070479E4908607047C8
:1008200002460020984B586820F47C1042EA0103ED
:100830001843954B586070479649086670470146C3
:100840000020914A506820F0030008435060704730
:100850008D48406800F00C007047014600208A4A2D
:10086000506820F0F00008435060704701460020B7
:10087000854A506820F4E0600843506070470146A4
:100880000020814A506820F4605040EAC100506066
:10089000704729B17C4A527A02437B4B5A7204E07A
:1008A000794A527A8243784B5A7270477A49086083
:1008B000704701460020744A506820F440400843C5
:1008C000506070470021754A11706F4A82F82010FD
:1008D000012802D0042808D103E001216F4A1170D9
:1008E00004E005216D4A117000E000BF00BF7047B1
:1008F0006B49086070476449096A0143624A1162A2
:100900007047674944390860704730B500210022BC
:10091000002400235C4D6D6805F00C0121B1042911
:1009200005D0082923D105E05E4D056022E05D4D2C
:1009300005601FE0544D6D6805F47012524D6D68EE
:1009400005F48034022505EB92421CB9564D5543FF
:1009500005600BE04C4D6D6815F4003F03D0524D1F
:100960005543056002E04F4D5543056002E04D4D93
:10097000056000BF00BF444D6D6805F0F001090936
:100980004A4D6B5C0568DD4045603F4D6D6805F480
:10099000E061090A454D6B5C4568DD4085603A4D74
:1009A0006D6805F46051C90A404D6B5C4568DD40D7
:1009B000C560354D6D6805F44041890B3C4D6B5C5D
:1009C000C568B5FBF3F5056130BD29B12E4A526902
:1009D00002432D4B5A6104E02B4A526982432A4B51
:1009E0005A61704729B1284A92690243264B9A619D
:1009F00004E0254A92698243234B9A61704729B1EA
:100A0000214AD2690243204BDA6104E01E4AD269CE
:100A100082431D4BDA61704729B11B4AD2680243F9
:100A2000194BDA6004E0184AD2688243164BDA6048
:100A3000704729B1144A12690243134B1A6104E04A
:100A4000114A12698243104B1A61704714494039A8
:100A5000086070470F49C86470470B49C8717047F8
:100A60000948406A40F08070074948627047014673
:100A70000020054A92680A4201D0012000E00020CF
:100A80007047014988727047001002400000FFF86B
:100A9000FFFFF6FE00004242D80042422010024012
:100AA0008004424200127A0000093D001400002038
:100AB0002400002010B50446FB48844209D10121DE
:100AC0008803FFF7A9FF00214FF48040FFF7A4FF40
:100AD00032E0F648844209D101214804FFF7A9FF1A
:100AE00000214FF40030FFF7A4FF25E0F0488442D6
:100AF00009D101218804FFF79CFF00214FF48020D9
:100B0000FFF797FF18E0EB48844209D10121C804A0
:100B1000FFF78FFF00214FF40020FFF78AFF0BE063
:100B2000E548844208D101210805FFF782FF002132
:100B30004FF48010FFF77DFF10BD2DE9F04786B020
:100B400005460E460024A24600BFA1460027B089F4
:100B500000B100BF2F462C8A4CF6FF700440F0888D
:100B600004432C82AC894EF6F3100440B0883189DE
:100B70000843718908430443AC81AC8A4FF6FF40B7
:100B80000440B0890443AC8201A8FFF7BEFEC6480A
:100B9000874202D1DDF810A001E0DDF80CA0A889A1
:100BA00010F4004F08D00AEBCA0000EB0A103168BD
:100BB0004900B0FBF1F807E00AEBCA0000EB0A10AD
:100BC00031688900B0FBF1F86420B8FBF0F0040153
:100BD0002009642101FB1089A88910F4004F08D076
:100BE000322000EBC900B0FBF1F000F00700044335
:100BF00008E0322000EB09106421B0FBF1F000F0B6
:100C00000F0004432C8106B0BDE8F0874FF4165165
:100C1000016000218180C18001810C21418100217E
:100C20008181704710B502460020108A4FF2FF0301
:100C300018400B884C8823438C882343CC8823435B
:100C40001843108210BD0021018041808180C18045
:100C5000704721B1828942F40052828104E0828986
:100C60004DF6FF731A4082817047F0B503460024A9
:100C7000002600250020A1F510676A3F00D100BFC3
:100C80001846C1F3421401F01F06012707FA06F5C2
:100C9000012C01D10C3004E0022C01D1103000E015
:100CA00014301AB107682F43076002E00768AF43AA
:100CB0000760F0BD1AB1838A0B43838202E0838A06
:100CC0008B4383827047028A4FF6F0731A40028288
:100CD000028A0A430282704782894FF2FF731A40E8
:100CE000828182890A438281704721B1828942F0E0
:100CF0000202828104E082894FF6FD731A408281EC
:100D00007047028A4FF6DF731A400282028A0A4352
:100D10000282704721B1028A42F48042028204E0DA
:100D2000028A4BF6FF731A4002827047C1F3080231
:100D30008280704701468888C0F308007047818927
:100D400041F0010181817047028BD2B20283028B94
:100D500042EA012202837047028B02F47F4202833F
:100D6000028B0A430283704721B1828A42F020023B
:100D7000828204E0828A4FF6DF731A4082827047D3
:100D800021B1828A42F01002828204E0828A4FF608
:100D9000EF731A408282704721B1828A42F00802C2
:100DA000828204E0828A4FF6F7731A40828270478B
:100DB00021B1828942F40042828103E08289C2F338
:100DC0000E028281704721B1828A42F400628282DF
:100DD00004E0828A4FF2FF731A4082827047828A4F
:100DE0004FF6FB731A408282828A0A4382827047DE
:100DF00021B1828A42F00202828204E0828A4FF6A6
:100E0000FD731A408282704702460020B1F5007FD0
:100E100000D100BF13880B4201D0012000E0002068
:100E2000704701F40072B2F5007F00D100BFCA43E1
:100E30000280704770B50246002400230025002080
:100E4000A1F510666A3E00D100BFC1F3421501F062
:100E50001F03012606FA03F3012D02D196893340C0
:100E600006E0022D02D1168A334001E0968A334013
:100E70000C12012606FA04F41688344013B10CB1A2
:100E8000012000E0002070BD10B500220023A1F574
:100E900010646A3C00D100BF0A1201249440A3B23E
:100EA000DC43048010BD00000038014000440040D5
:100EB00000480040004C00400050004010B504467F
:100EC000FE48844208D10121C014FFF7A5FD00218E
:100ED000E014FFF7A1FDC4E0B4F1804F08D1012177
:100EE0000846FFF7A6FD00210120FFF7A2FDB8E0AC
:100EF000F348844208D101210220FFF79AFD002126
:100F00000220FFF796FDACE0EE48844208D10121B3
:100F10000420FFF78EFD00210420FFF78AFDA0E0EA
:100F2000E948844208D101210820FFF782FD002111
:100F30000820FFF77EFD94E0E448844208D10121B7
:100F40001020FFF776FD00211020FFF772FD88E0EA
:100F5000DF48844208D101212020FFF76AFD0021EB
:100F60002020FFF766FD7CE0DA48844208D10121A9
:100F70004014FFF751FD00216014FFF74DFD70E0B4
:100F8000D548844209D10121C804FFF745FD00215D
:100F90004FF40020FFF740FD63E0D048844209D1C0
:100FA00001210805FFF738FD00214FF48010FFF7FD
:100FB00033FD56E0CA48844209D101214805FFF7B4
:100FC0002BFD00214FF40010FFF726FD49E0C54836
:100FD000844208D101214020FFF72BFD0021402051
:100FE000FFF727FD3DE0C048844208D10121802061
:100FF000FFF71FFD00218020FFF71BFD31E0BB48FC
:10100000844208D101218015FFF713FD0021A015AE
:10101000FFF70FFD25E0B648844209D101210804FD
:10102000FFF7FAFC00214FF48030FFF7F5FC18E0E1
:10103000B048844209D101214804FFF7EDFC0021AA
:101040004FF40030FFF7E8FC0BE0AB48844208D1D6
:1010500001218804FFF7E0FC00214FF48020FFF716
:10106000DBFC10BD00220288944B98420ED0994BB5
:1010700098420BD0B0F1804F08D0914B984205D0E8
:10108000904B984202D0904B984204D14FF68F7308
:101090001A404B881A438D4B984207D08C4B98428C
:1010A00004D04FF6FF431A40CB881A4302808B8846
:1010B00083850B880385814B98420BD0854B9842E2
:1010C00008D08B4B984205D08A4B984202D08A4B6D
:1010D000984201D10B7A038601238382704770B551
:1010E000002400220023058C4FF6FE76354005844F
:1010F000028C8388048B4FF68F752C40B51E2C40D4
:101100000D882C43751E2A400D892A434D882A4399
:101110006A4DA8420BD06F4DA84208D0744DA8422A
:1011200005D0744DA84202D0734DA84213D14FF69A
:10113000F7752A404D892A434FF6FB752A408D8862
:101140002A434FF6FF652B404FF6FF552B408D8904
:101150002B43CD892B4383800483CD8885860284ED
:1011600070BD70B5002400220023058C4FF6EF7689
:1011700035400584028C8388048B48F6FF752C402B
:101180004FF6FF452C400D884FF6FF7606EA052501
:101190002C434FF6DF752A400D8906EA05152A43D0
:1011A0004D8806EA05152A43444DA84202D0494D10
:1011B000A8421DD14FF67F752A404D894FF6FF7624
:1011C00006EA05152A434FF6BF752A408D8806EAC0
:1011D00005152A434FF6FF352B404FF2FF752B4084
:1011E0008D8906EA85052B43CD8906EA85052B43C3
:1011F00083800483CD880587028470BD70B5002488
:1012000000220023058C4FF6FF6635400584028CD2
:101210008388848B4FF68F752C404FF6FC752C40DD
:101220000D882C434FF6FF552A400D894FF6FF7667
:1012300006EA05252A434D8806EA05252A431F4D5F
:10124000A84202D0234DA8421DD14FF2FF752A407B
:101250004D894FF6FF7606EA05252A434FF6FF35FE
:101260002A408D8806EA05252A434EF6FF752B4055
:101270004DF6FF752B408D8906EA05152B43CD8968
:1012800006EA05152B4383808483CD8885870284F5
:1012900070BD70B5002200230024058C4EF6FF7649
:1012A00035400584038C8488828B48F6FF752A407C
:1012B0004FF6FF452A400D8820E00000002C014039
:1012C0000004004000080040000C004000100040F6
:1012D0000014004000340140004C01400050014027
:1012E0000054014000180040001C00400020004055
:1012F0000040014000440140004801404FF6FF76A5
:1013000006EA05252A434DF6FF752B400D8906EAAE
:1013100005352B434D8806EA05352B43FA4DA84287
:1013200002D0FA4DA84208D14BF6FF752C408D89AA
:101330004FF6FF7606EA85152C4384808283CD889C
:10134000A0F84050038470BD828B4FF2FF331A40E7
:101350008283828B4FF6FF7303EA01231A43828351
:101360007047F0B50C461546002200210026078C78
:101370004EF6FF7C07EA0C070784828B018C4FF640
:10138000FF7707EA043640F6FF473A404FF6FF770B
:1013900007EA05273A434FF6FF7707EA03373A4350
:1013A000D94FB8420ED0D94FB8420BD0B0F1804FD0
:1013B00008D0D74FB84205D0D64FB84202D0D64F4A
:1013C000B84206D14DF6FF77394046F4805739438D
:1013D00005E047F6FF57394044F48057394382838C
:1013E0000184F0BD828B4FF6F3731A408283828BA7
:1013F0000A4382837047F0B50C461546002200214F
:101400000026078C4FF6FF6C07EA0C070784828BD7
:10141000018C4FF6FF7707EA04264FF60C773A4027
:101420004FF6FF7707EA03172F433A43B64FB84208
:101430000ED0B64FB8420BD0B0F1804F08D0B44FA9
:10144000B84205D0B34FB84202D0B34FB84206D12C
:101450004FF6FF57394046F48077394305E04FF2A5
:10146000FF57394044F48077394382830184F0BDCB
:10147000028B4FF2FF331A400283028B4FF6FF7349
:1014800003EA01231A4302837047F0B50C46154660
:10149000002200210026078C4FF6EF7C07EA0C079C
:1014A0000784028B018C4FF6FF7707EA041640F69B
:1014B000FF473A404FF6FF7707EA03373A434FF6C4
:1014C000FF7707EA05273A438F4FB8420ED08F4F78
:1014D000B8420BD0B0F1804F08D08D4FB84205D044
:1014E0008C4FB84202D08C4FB84206D14FF6DF770E
:1014F000394046F01007394305E04FF65F77394031
:1015000044F01007394302830184F0BD028B4FF68B
:10151000F3731A400283028B0A4302837047F0B5CB
:101520000C46154600220021068C4FF6FE773E4001
:101530000684028B018C4FF60C7632407E1C06EA44
:1015400003162E433243704EB0420ED06F4EB0425F
:101550000BD0B0F1804F08D06D4EB04205D06D4E2B
:10156000B04202D06C4EB04206D14FF6FD7631400B
:1015700044F00106314305E04FF6F576314044F082
:101580000106314302830184F0BD70B505460C4667
:101590005D4885420ED05D4885420BD0B5F1804F45
:1015A00008D05B48854205D05A48854202D05A4847
:1015B000854200D100E000BF208850B92389A2886D
:1015C00061882846FFF7ABFFE1882846FFF79EFFBA
:1015D00025E0208804280AD12389A288618828462A
:1015E000FFF753FFE1882846FFF742FF17E0208806
:1015F00008280AD12389A28861882846FFF7FBFEC4
:10160000E1882846FFF7EEFE09E02389A288618879
:101610002846FFF7A6FEE1882846FFF795FE70BD35
:101620002DE9F04105460C4600260127608808B9DF
:10163000022600E00026A088012801D1022700E050
:1016400001272088A0B92389A28861882846FFF74E
:1016500066FFE1882846FFF759FF23893A4631465D
:101660002846FFF712FFE1882846FFF701FF13E045
:101670002389A28861882846FFF707FFE18828466A
:10168000FFF7F6FE23893A4631462846FFF747FF23
:10169000E1882846FFF73AFFBDE8F0810A884B88C9
:1016A0001A438B881A43CB881A430B891A434B89F8
:1016B0001A438B891A43A0F8442070474FF6FF71F4
:1016C000818000210180C18041800172704700212A
:1016D000018041808180C180018141818181C181FE
:1016E0007047002101804180012181800021C1805B
:1016F000018170470021018041808180C18001818A
:101700004181818170470000002C0140003401407C
:101710000004004000080040000C004021B1028895
:1017200042F00102028004E002884FF6FE731A4084
:101730000280704731B1B0F8442042F40042A0F872
:10174000442005E0B0F84420C2F30E02A0F8442083
:1017500070471AB183890B43838102E083898B43ED
:10176000838170478182704741EA0203A0F84830C4
:1017700070471AB183890B43838102E083898B43CD
:101780008381704701894FF6F872114001817047DB
:101790000A46002101894FF68F73194011430181D8
:1017A000704730B504460D4629462046FFF7F0FF46
:1017B000208940F00700208130BD2DE9F04104462A
:1017C0000D4616461F46602D06D13B460122314686
:1017D0002046FFF75AFE05E03B46012231462046EF
:1017E000FFF79DFE29462046FFF7D2FF208940F0F3
:1017F00007002081BDE8F08130B50C460021018949
:10180000C9B24FF6FF7505EA032515432543294361
:10181000018130BD2DE9F04105460E461746984638
:10182000002443463A4631462846FFF7E5FF2C8917
:101830004FF6F870044044F007044FF68F700440F0
:1018400044F070042C81BDE8F081F0B504460D46EB
:1018500016461F463B46324629462046FFF7CCFF38
:10186000208940F480402081F0BD0185828270474C
:101870000A46002101884FF68F73194011430180F9
:101880007047F0B50C4615461E4600210022002385
:101890000189028B038C4FF6F877394021434FF6CC
:1018A000FC473A4040F201173A434FF6DD773B40A0
:1018B0004FF6FF7707EA06172F433B430181028368
:1018C0000384F0BD0A460021018B4FF68F73194047
:1018D0001143018370470A460021018B48F6FF73CC
:1018E00019404FF6FF7303EA02231943018370473F
:1018F0000A460021818B4FF68F7319401143818373
:1019000070470A460021818B48F6FF7319404FF655
:10191000FF7303EA022319438183704721B10288D0
:1019200042F08002028004E002884FF67F731A4082
:101930000280704721B1828842F00402828004E074
:1019400082884FF6FB731A408280704721B18288EB
:1019500042F00802828004E082884FF6F7731A4052
:101960008280704721B1828842F00102828004E0C7
:1019700082884FF6FE731A40828070470A46002123
:10198000018B4FF6F77319401143018370470A46E4
:101990000021018B4FF2FF7319404FF6FF7303EAEA
:1019A00002231943018370470A460021818B4FF6B9
:1019B000F77319401143818370470A460021818BD8
:1019C0004FF2FF7319404FF6FF7303EA02231943E6
:1019D000818370470A460021018B4FF6FB73194043
:1019E0001143018370470A460021018B4FF6FF33F4
:1019F00019404FF6FF7303EA02231943018370472E
:101A00000A460021818B4FF6FB73194011438183F5
:101A100070470A460021818B4FF6FF3319404FF67D
:101A2000FF7303EA02231943818370470A460021AA
:101A3000018B4FF67F7319401143018370470A46AB
:101A40000021018BC1F30E014FF6FF7303EA02235D
:101A50001943018370470A460021818B4FF67F733B
:101A600019401143818370470A460021818BC1F3DD
:101A70000E014FF6FF7303EA022319438183704777
:101A80000A460021018C4FF6FD7319401143018471
:101A900070470A460021018C4FF6F7731940114335
:101AA000018470470A460021018C4FF6DF7319400C
:101AB0004FF6FF7303EA02131943018470470A4685
:101AC0000021018C4FF67F7319404FF6FF7303EA34
:101AD00002131943018470470A460021018C4FF616
:101AE000FF5319404FF6FF7303EA022319430184A1
:101AF00070470A460021018C4FF2FF7319404FF6E0
:101B0000FF7303EA02231943018470470A46002148
:101B1000018C4DF6FF7319404FF6FF7303EA023351
:101B200019430184704730B5002301248C40A3B2CF
:101B3000048C9C430484048C02FA01F5ADB22C435E
:101B4000048430BD30B5002304248C40A3B2048C3F
:101B50009C430484048C02FA01F5ADB22C43048446
:101B600030BD70B50346002000241846183001250A
:101B70008D40ACB21D8CA5431D8409B1082909D143
:101B800000EB6100056825F07005056005681543E8
:101B900005600EE00D1FC5F34E052844056825F4C9
:101BA000E045056005684FF6FF7606EA02263543F4
:101BB000056070BD21B1028842F00202028004E09B
:101BC00002884FF6FD731A400280704721B10288E7
:101BD00042F00402028004E002884FF6FB731A40D0
:101BE0000280704721B1828842F08002828004E046
:101BF00082884FF67F731A408280704702884FF6C2
:101C0000F7731A40028002880A4302807047828874
:101C10004FF68F731A40828082880A438280704711
:101C200002894FF6F8731A40028102890A43028141
:101C3000704702894FF67F731A40028102890A4376
:101C40000281704781847047818570478186704723
:101C50000187704781877047A0F84010704702885D
:101C60004FF6FF431A40028002880A430280704701
:101C70000146888E70470146088F70470146888F5D
:101C800070470146B1F8400070470146888C7047A4
:101C90000146088D704702460020138A0B4201D08E
:101CA000012000E000207047CA430282704730B52F
:101CB0000246002000230024158A05EA01039589C5
:101CC00005EA010413B10CB1012000E0002030BD91
:101CD000CA4302827047000010B50446FA488442A5
:101CE00008D101214015FEF797FE00216015FEF78F
:101CF00093FE17E0F548844208D101210015FEF754
:101D00008BFE00212015FEF787FE0BE0F048844291
:101D100008D10121C803FEF77FFE00214FF40040E7
:101D2000FEF77AFE10BD30B5024600200023506851
:101D3000E84C20400D790C6844EA052420435060AB
:101D40009068E54C2040D1E902542C434D7944EA97
:101D5000450420439060D06A20F470000C7C641E1F
:101D6000E4B2234340EA0350D06230BD0021016059
:101D7000017141718160C16001210174704721B11D
:101D8000826842F00102826003E0826822F0010270
:101D90008260704721B1826842F48072826003E001
:101DA000826822F480728260704710B50023CBB243
:101DB0001AB144681C43446002E044689C43446098
:101DC00010BD816841F00801816070470146002024
:101DD0008A6812F0080F01D0012000E0002070474F
:101DE000816841F0040181607047014600208A68E3
:101DF00012F0040F01D0012000E00020704721B153
:101E0000826842F4A002826003E0826822F4A002A9
:101E100082607047014600208A6812F4800F01D06A
:101E2000012000E00020704710B50A460021002381
:101E3000416821F46041531E41EA4331416010BDC5
:101E400021B1426842F40062426003E0426822F439
:101E5000006242607047F0B504460D460020002144
:101E6000092D11DDE068A5F10A0606EB46070726F5
:101E700006FA07F18843A5F10A0606EB460603FABF
:101E800006F10843E0600CE0206905EB45070726F2
:101E900006FA07F1884305EB450603FA06F1084305
:101EA0002061072A0FDA606B561E06EB86071F2695
:101EB00006FA07F18843561E06EB860605FA06F178
:101EC0000843606322E00D2A0FDA206BD61F06EB71
:101ED00086071F2606FA07F18843D61F06EB8606FB
:101EE00005FA06F10843206310E0E06AA2F10D064E
:101EF00006EB86071F2606FA07F18843A2F10D06B6
:101F000006EB860605FA06F10843E062F0BD21B152
:101F1000826842F48012826003E0826822F48012B8
:101F2000826070470146C86C80B2704766484C308A
:101F30000068704721B1426842F48062426003E069
:101F4000426822F480624260704721B1426842F4E4
:101F50008052426003E0426822F48052426070473F
:101F60000A460021816821F4E041114381607047F5
:101F700021B1826842F40042826003E0826822F468
:101F800000428260704721B1826842F4021282608E
:101F900003E0826822F4021282607047014600204A
:101FA0008A6812F4001F01D0012000E00020704771
:101FB000F0B504461546002000220026092911DD4F
:101FC000E068A1F10A0707EB470C072707FA0CF2B4
:101FD0009043A1F10A0707EB470703FA07F2104302
:101FE000E0600CE0206901EB410C072707FA0CF2D6
:101FF000904301EB410703FA07F210432061A06B05
:10200000C0F30156EF1C06F1010CA7EB0C0707EB20
:10201000870C1F2707FA0CF29043EF1C06F1010C06
:10202000A7EB0C0707EB870701FA07F21043A06341
:10203000F0BD10B50A4600210023816B21F4401148
:10204000531E41EA0351816310BD08B5002300937C
:102050000090009B0B440093009B1A6008BD08B5DC
:10206000024600200090009201F12800009B1844D5
:1020700000900098006880B208BD0A4600214168BF
:10208000164B1940114341607047416282627047AC
:102090000A460021416821F01F0111434160704749
:1020A00040B109490831096841F40001064A083283
:1020B000116007E004490831096821F40001024A6F
:1020C00008321160704700000024014000280140E0
:1020D000003C0140FFFEF0FFFDF7F1FFFFFD3FFF79
:1020E0000246002013680B4201D0012000E00020CE
:1020F0007047CA430260704770B502460020002353
:1021000000240B125568CEB205EA060415681D427C
:1021100002D00CB1012000E0002070BD00220A12A4
:10212000D34303607047000001684FF6FE72114010
:1021300001600021016041608160C1608C4988427A
:1021400008D18B490839496841F00F01884A083A9B
:1021500051608AE086491431884208D1844908399F
:10216000496841F0F001824A083A51607DE08049B7
:102170002831884208D17E490839496841F47061A4
:102180007B4A083A516070E079493C31884208D175
:1021900077490839496841F47041754A083A5160F5
:1021A00063E073495031884208D171490839496860
:1021B00041F470216E4A083A516056E06C4964312E
:1021C000884208D16A490839496841F47001684A6F
:1021D000083A516049E066497831884208D164493B
:1021E0000839496841F07061614A083A51603CE041
:1021F0006049884206D1011F096841F00F01021FA2
:10220000116032E05B491431884208D15949091FF5
:10221000096841F0F001574A121F116025E0554945
:102220002831884208D15349091F096841F4706177
:10223000504A121F116018E04E493C31884208D1C3
:102240004C49091F096841F470414A4A121F116044
:102250000BE048495031884207D14649091F0968B7
:1022600041F47021434A121F1160704710B50022DB
:10227000026847F6F0739A430C6A8B6823430C6933
:1022800023434C6923438C692343CC6923434C6A21
:1022900023438C6A23431A430260CB6843600B6874
:1022A00083604B68C36010BD0021016041608160A4
:1022B000C160016141618161C1610162416281620C
:1022C000704721B1026842F00102026004E0026836
:1022D0004FF6FE731A40026070471AB103680B4351
:1022E000036002E003688B430360704741607047FE
:1022F0000146486880B2704701460020002211F074
:10230000805F03D01B4B083B1A6802E0184B083B68
:102310001A680A4201D0012000E00020704710F046
:10232000805F03D01349091F086002E01049083993
:102330004860704701460020002211F0805F03D002
:102340000C4B083B1A6802E0094B083B1A680A422A
:1023500001D0012000E00020704710F0805F03D022
:102360000449091F086002E00149083948607047C4
:102370000800024008040240704700BFFEE700BFAB
:10238000FEE700BFFEE700BFFEE7704770477047FB
:1023900010B500F093F910BD704710B50121880702
:1023A000FFF785FC40B101218807FFF791FC304819
:1023B0000068401C2E49086010BD10B501212D4851
:1023C000FFF775FC40B101212A48FFF781FC2A483C
:1023D0000068401C2849086010BD70B50025274CD6
:1023E00040F225512648FEF725FD00283FD024481D
:1023F000001D0088C5B22348007838B9AA2D31D114
:10240000257001201F490870A5712BE01D48007838
:10241000012807D1657002201A490870A079284464
:10242000A0711FE01748007802280ED1E179481CFE
:10243000E071A01C4554A0792844A071E0790428DB
:1024400010D103200F4908700CE00E4800780328D3
:1024500008D1A079A84201D10120207200200949A9
:102460000870E07140F225510548FEF70DFD70BD82
:10247000C800002000040040CC000020EE00002036
:10248000004400402800002008B501217C20FEF710
:10249000A9FA01210846FEF7A5FA01215E48FEF7D8
:1024A000BAF849F61170ADF8000014208DF8030059
:1024B00003208DF8020069465848FDF7DDFF4FF60E
:1024C0003C70ADF8000014208DF8030003208DF857
:1024D000020069465248FDF7CFFF4FF6C070ADF8D5
:1024E000000014208DF8030003208DF802006946D7
:1024F0004C48FDF7C1FF4FF6F070ADF80000142016
:102500008DF8030003208DF8020069464648FDF768
:10251000B3FF40F2FF70ADF8000014208DF8030007
:1025200003208DF8020069464048FDF7A5FF1820FA
:10253000ADF8000014208DF8030003208DF8020090
:1025400069463748FDF798FF4FF40040ADF80000AA
:1025500014208DF8030003208DF8020069462F48EF
:10256000FDF78AFF49F611712C48FEF730F84FF657
:102570003C712B48FEF72BF84FF6C0712948FEF747
:1025800026F84FF6F0712848FEF721F840F2FF7167
:102590002648FEF71CF80C20ADF8000028208DF826
:1025A000030003208DF8020069461F48FDF764FF11
:1025B0004FF4C040ADF8000048208DF80300032020
:1025C0008DF8020069461948FDF756FF4FF4C050D8
:1025D000ADF8000010208DF8030003208DF80200F4
:1025E00069461248FDF748FF0220ADF800001020B0
:1025F0008DF8030003208DF8020069460748FDF7B7
:102600003BFF4FF4C0510948FDF7E3FF02210348A7
:10261000FDF7DFFF08BD00000002300000080140A8
:10262000000C01400010014000140140001801405E
:1026300030B5274800684FF47A72B0FBF2F1B1F17F
:10264000807F01D301201BE021F07F40401E4FF02E
:10265000E022506150170F22002806DA13011D4CAA
:1026600000F00F052D1F635502E013011A4C23548F
:1026700000BF00204FF0E022906107201061002091
:1026800008B100BFFEE74FF0E020006920F0010034
:102690004FF0E021086130BD01B510490098086095
:1026A0004FF0E020006940F001004FF0E0210861A8
:1026B00000BF0A4800680028FBD108BD0748006831
:1026C00020B106480068401E0449086070470000B9
:1026D0000000002018ED00E000E400E02C000020E5
:1026E00010B504460C2C74D2DFE804F08406111BEC
:1026F000252F38424D5762744FF48071F748FDF72B
:1027000066FF4FF40061F648FDF761FF73E04FF498
:102710008061F248FDF75BFF1021F048FDF757FF9D
:1027200069E04FF48051ED48FDF751FF0821ED4875
:10273000FDF74DFF5FE04FF48041E848FDF747FFAC
:102740000421E848FDF743FF55E04021E448FDF748
:102750003EFF2021E348FDF73AFF4CE04FF4807143
:10276000DF48FDF734FF1021DE48FDF730FF42E07F
:102770004FF48071DC48FDF72AFF4FF40051D84830
:10278000FDF725FF37E04FF48061D748FDF71FFFC5
:102790004021D448FDF71BFF2DE04FF48051D24873
:1027A000FDF715FF4FF40041CD48FDF710FF22E083
:1027B000CE48007840F04000CC4908704221CB4818
:1027C000007800F0F9FD4FF48041C548FDF7FFFEA9
:1027D00011E00FE0C548007840F08000C349087060
:1027E0004221C248007800F0E7FD0121BE48FDF714
:1027F000EEFE00E000BF00BF10BD70B505460C2D19
:102800007ED2DFE805F07D06101A25303B46505B8E
:1028100066724FF48051B248FDF7D9FE1021B248DC
:10282000FDF7D5FE6DE04FF48061AD48FDF7CFFEBA
:102830008021AC48FDF7CBFE63E04FF40041AA488D
:10284000FDF7C5FE4FF48071A648FDF7C0FE58E0C5
:102850004FF40061A448FDF7BAFE4FF40071A1489F
:10286000FDF7B5FE4DE04FF400719F48FDF7AFFE58
:102870004FF480619B48FDF7AAFE42E04FF40071DF
:102880009748FDF7A4FE4FF480619948FDF79FFE3D
:1028900037E080219248FDF79AFE4FF4006194489A
:1028A000FDF795FE2DE04FF400418C48FDF78FFEBB
:1028B0004FF400518E48FDF78AFE22E04FF400519C
:1028C0008648FDF784FE4FF400418948FDF77FFEFE
:1028D00017E04FF400618148FDF779FE4FF4805115
:1028E0008348FDF774FE0CE00AE04FF400717B486A
:1028F000FDF76DFE4FF480417D48FDF768FE00E076
:1029000000BF00BF7848FDF75EFE48F61021084082
:10291000884201DA012600E000267548FDF753FEE3
:1029200000F42C40B0F52C4F01DA012000E000202B
:1029300006436B48FDF747FE00F4B450B0F5B45FB2
:1029400001DA012000E0002006436448FDF73BFE69
:1029500000F42040B0F5204F01DA012000E0002013
:1029600006436048FDF72FFE00F4F060B0F5F06F0D
:1029700001DA012000E00020064308D1012404E030
:102980002046FFF7ADFE601CC4B2092CF8DD70BD17
:1029900070B505460C4615B1012D6ED14DE00C2CDD
:1029A00048D2DFE804F047060C12181E242A2F35FF
:1029B0003B414FF480514A48FDF70BFE3BE04FF49A
:1029C00080614748FDF705FE35E04FF40041464879
:1029D000FDF7FFFD2FE04FF400614348FDF7F9FDDF
:1029E00029E04FF400714048FDF7F3FD23E04FF478
:1029F00000713B48FDF7EDFD1DE080213848FDF7F3
:102A0000E8FD18E04FF400413448FDF7E2FD12E024
:102A10004FF400513148FDF7DCFD0CE04FF400614C
:102A20002E48FDF7D6FD06E04FF400712B48FDF768
:102A3000D0FD00E000BF00BF4EE00C2C48D2DFE824
:102A400004F047060B10161D23292F353B4110219A
:102A50002548FDF7BEFD3CE080212248FDF7B9FD89
:102A600037E04FF480711F48FDF7B3FD31E04FF4BC
:102A700000711C48FDF7ADFD2BE02CE04FF48061A8
:102A80001848FDF7A6FD24E04FF480611848FDF7D3
:102A9000A0FD1EE04FF400611548FDF79AFD18E017
:102AA0004FF400511248FDF794FD12E04FF400413D
:102AB0000F48FDF78EFD0CE04FF480510C48FDF7F8
:102AC00088FD06E04FF480410948FDF782FD00E0F3
:102AD00000BF00BF00E000BF00BF70BD0014014098
:102AE000001001400018014000080140390000209A
:102AF000000C014070B505460C4615B1012D6FD193
:102B000059E00C2C54D2DFE804F053060C12181EC6
:102B100023292F353B474FF480719248FDF759FD2B
:102B200047E04FF480618F48FDF753FD41E04FF4DB
:102B300080518C48FDF74DFD3BE04FF480418948C2
:102B4000FDF747FD35E040218748FDF742FD30E0C5
:102B50004FF480718448FDF73CFD2AE04FF480710A
:102B60008248FDF736FD24E04FF480617F48FDF791
:102B700030FD1EE04FF480517C48FDF72AFD18E03F
:102B80007B48007800F0BF007949087042217848FE
:102B9000007800F011FC0CE07548007800F07F0030
:102BA0007349087042217248007800F005FC00E08B
:102BB00000BF00BF49E00C2C43D2DFE804F042061E
:102BC0000C12171C21262C31373D4FF4006166484A
:102BD000FDF7FFFC36E010216248FDF7FAFC31E01A
:102BE00032E008216348FDF7F4FC2BE00421614842
:102BF000FDF7EFFC26E020215E48FDF7EAFC21E02E
:102C000010215C48FDF7E5FC1CE04FF400515648EC
:102C1000FDF7DFFC16E040215648FDF7DAFC11E035
:102C20004FF400415048FDF7D4FC0BE04FF48041D5
:102C30004D48FDF7CEFC05E001214C48FDF7C9FCED
:102C400000E000BF00BF00E000BF00BF70BD2DE985
:102C5000F04180460E4614461F460025092E10D12D
:102C60000B2C0ED131464046FFF744FF214640462B
:102C7000FFF78EFE4FF47A70FFF70EFD2846BDE891
:102C8000F081002524E031464046FFF733FF21461E
:102C90004046FFF77DFE9620FFF7FEFC601E36499A
:102CA00031F8100040F2046188420EDD601E324AA5
:102CB00032F8101031A001F005FE2046FFF79DFD0F
:102CC0004FF4FA70FFF7E8FC00E003E0681CC5B2BF
:102CD000BD42D8DB00BF2846D1E770B505460026C7
:102CE00029460020FFF706FF012417E021460020B7
:102CF000FFF74EFEC820FFF7CFFC601E1E4931F8DB
:102D0000100040F20461884206DD2046FFF775FDA1
:102D10004FF4FA70FFF7C0FC601CC4B2092CE5DD6B
:102D2000002405E0144830F814000644601CC4B2C6
:102D3000092CF7DB314618A001F0C4FD70BD10B5B9
:102D4000012407E02046FFF7CBFC2046FFF755FDA6
:102D5000601CC4B20B2CF5DD4FF4FA70FFF79CFC3D
:102D600010BD0000001401400010014000080140A7
:102D70003900002000180140D80000200D0A2073FF
:102D8000746172742063757272656E742069732049
:102D90002564200D0A0000000D0A746F74616C2018
:102DA00063757272656E74206973202564200D0A44
:102DB0000000000000B587B001210420FDF712FEDD
:102DC00001214804FDF71BFE0420ADF8180018206F
:102DD0008DF81B0003208DF81A0006A98A48FDF71C
:102DE0004BFB0820ADF8180004208DF81B0006A945
:102DF0008548FDF741FB4FF4E13002900020ADF82B
:102E00000C00ADF80E00ADF81000ADF814000C2069
:102E1000ADF8120002A97D48FDF78FFE4FF4C060A7
:102E2000FDF75CFA26208DF8040000208DF80500DF
:102E30008DF8060001208DF8070001A8FDF753FA70
:102E4000012240F225517148FDF70FFF01216F4823
:102E5000FDF7FFFE07B000BD70B504460D46E1B2B8
:102E60006A48FDF763FF00BF6848008810F0800FD4
:102E7000FAD0204670BDF0B503460D461646002731
:102E800029460A2E03D0002008702846F0BD33B929
:102E9000302001F8010B002008702846F6E7002BCF
:102EA00003DA2D2001F8010B5B4242F210720DE0B3
:102EB00093FBF2F404B937B104F1300001F8010BCF
:102EC00004FB123301270A2092FBF0F2002AEFDC08
:102ED000002008702846D9E70FB470B586B00646C2
:102EE0000CA8019073E00B9800785C281CD10B981B
:102EF000401C0B9000786E2809D072280FD10D214C
:102F00003046FDF713FF0B98401C0B900BE00A2195
:102F10003046FDF70BFF0B98401C0B9003E00B981D
:102F2000401C0B9000BF4BE00B980078252840D147
:102F30000B98401C0B900078642818D0732833D16C
:102F4000019810C801900BE021783046FDF7EEFEA5
:102F500000BF40213046FDF757FF0028F9D0641C20
:102F600020780028F0D10B98401C0B9020E00198AD
:102F700020C801900A2202A92846FFF77CFF02AC74
:102F80000BE021783046FDF7D1FE00BF40213046EE
:102F9000FDF73AFF0028F9D0641C20780028F0D112
:102FA0000B98401C0B9003E00B98401C0B9000BF4B
:102FB00006E00B9810F8011B0B903046FDF7B6FEAB
:102FC00000BF40213046FDF71FFF0028F9D00B98C5
:102FD0000078002887D106B070BC5DF814FB70B58E
:102FE000044600250CE014F8011B0848FDF79EFE7E
:102FF00000BF0648008810F0800FFAD0681CC5B2E8
:10300000072DF0DB70BD00000008014000440040C7
:1030100008B5E020ADF8000000208DF803006946F7
:103020006C48FDF729FA0320ADF8000000208DF868
:10303000030069466848FDF71FFA3F20ADF800001D
:1030400000208DF8030069466448FDF715FA08BDB5
:1030500000B591B001210846FDF7B7FC01214802F7
:10306000FDF7C0FC5E48FFF75FF85E4806905E48DB
:103070000790002008900B20099000200A908020E3
:103080000B9040000C9080000D9020200E900002CC
:103090000F900020109006A95148FFF7E7F8012192
:1030A0004F48FFF70EF94F484C38FEF715FE002049
:1030B000019001208DF808008DF809004FF4602080
:1030C0000390002004900B208DF8140001A94548BE
:1030D0004C38FEF728FE4FF40040FDF7EAFB0523CD
:1030E000012219463F484C38FEF7B5FE052302225F
:1030F00006213C484C38FEF7AEFE0523032207218B
:1031000038484C38FEF7A7FE05230422082135482D
:103110004C38FEF7A0FE05231A46092131484C38E9
:10312000FEF799FE052306220A212E484C38FEF7A9
:1031300092FE052307220B212A484C38FEF78BFE0E
:10314000052308220C2127484C38FEF784FE05236E
:1031500009220D2123484C38FEF77DFE05230A2263
:103160000E2120484C38FEF776FE05230B220F2156
:103170001C484C38FEF76FFE01211A484C38FEF708
:1031800009FE012117484C38FEF7F9FD15484C3867
:10319000FEF717FE00BF13484C38FEF717FE002855
:1031A000F9D110484C38FEF71BFE00BF0D484C38D3
:1031B000FEF71BFE0028F9D101210A484C38FEF722
:1031C0001EFE11B000BD10B5FFF722FFFFF740FF54
:1031D00010BD000000080140000C0140001001403B
:1031E000080002404C240140D8000020962001E055
:1031F000411EC8B20028FBD1704700B54020954958
:10320000086080200860FFF7F1FF924808380068E6
:10321000002000B100BD40208E49091D0860FFF765
:10322000E5FF8C480838006810F0400F01D00020FE
:10323000F0E740208749091D0860FFF7D7FF01200C
:10324000E8E700B580208349091D0860FFF7CEFF3D
:1032500040208049091D0860FFF7C8FF80207D4994
:103260000860FFF7C3FF40207A490860FFF7BEFF00
:1032700000BD00B580207749091D0860FFF7B6FF43
:1032800040207449091D0860FFF7B0FF8020714994
:103290000860FFF7ABFF80206E49091D0860FFF74B
:1032A000A5FF00BD00B580206A49091D0860FFF731
:1032B0009DFF402067490860FFF798FF802065491F
:1032C0000860FFF793FF80206249091D0860FFF73F
:1032D0008DFF00BD00B580205E49091D0860FFF725
:1032E00085FF40205B490860FFF780FF8020594937
:1032F0000860FFF77BFF57480838006810F0400F60
:1033000005D080205349091D0860002000BD8020A1
:103310005049091D08600120F8E700B5024608235E
:1033200019E080204B49091D0860FFF75FFF12F08C
:10333000800F03D040204749086003E04020454902
:10334000091D08605006020EFFF750FF802041491A
:103350000860FFF74BFF1800A3F10101CBB2E0D1E9
:1033600080203C49091D086000BD00B508230022EB
:1033700040203849086014E05006020E802035498C
:10338000091D0860FFF732FF802032490860FFF70F
:103390002DFF30480838006810F0400F01D042F08F
:1033A00001021800A3F10101CBB2E5D18020294927
:1033B000091D0860104600BD30B505460C46FFF7F4
:1033C0001CFF08B9002030BD2046FFF7A6FFFFF71D
:1033D00081FF18B9FFF735FF0020F4E72846FFF713
:1033E0009CFFFFF777FFFFF72CFF0120EBE730B5DD
:1033F00004460D46FFF701FF08B9002030BD45F037
:103400000100FFF78AFFFFF765FFFFF7AEFF2070AF
:10341000FFF748FFFFF715FF0120EFE708B5C020D1
:10342000ADF8000003208DF8020014208DF8030091
:10343000694608481038FDF71FF808BD30B5054645
:103440000C4640212846FFF7B7FF42212046FFF7F0
:10345000B3FF30BD100C014010B504460C2C47D210
:10346000DFE804F046060B10151A1F242A30353AFF
:1034700040214D48FDF7ABF83BE020214A48FDF7DD
:10348000A6F836E008214948FDF7A1F831E080218F
:103490004548FDF79CF82CE020214448FDF797F8BB
:1034A00027E010214148FDF792F822E04FF4007127
:1034B0003E48FDF78CF81CE04FF480713B48FDF767
:1034C00086F816E002213A48FDF781F811E0012163
:1034D0003748FDF77CF80CE03648007840F02000D3
:1034E00034490870422133480078FFF765FF00E057
:1034F00000BF00BF10BD10B5002405E0611CC8B2BC
:10350000FFF7AAFF601CC4B20B2CF7DB10BD10B58F
:103510004FF44E712548FDF75CF8E0212248FDF795
:1035200058F803212248FDF754F82248007800F0AB
:10353000DF002049087042211E480078FFF73CFF59
:1035400010BD70B50025012419E0FFF7E0FF20460B
:10355000FFF782FF3220FFF79FF84FF40051144825
:10356000FDF71BF828B1601E012101FA00F00543A8
:1035700003E0601E012181408D43601CC4B20A2C0F
:10358000E3DDFFF7B8FFFFF7C2FF3220FFF784F853
:103590004FF400510648FDF700F808B945F480657E
:1035A000FFF7A9FFA8B270BD00140140000C014054
:1035B00000180140390000200021F74A11705170B5
:1035C000002005E00022F449891C0A54411CC8B2BD
:1035D0000428F7DB0021F04A9171704708B5FFF726
:1035E00027F8FEF751FFFFF719FFEC480178EC4888
:1035F0000078FFF723FFFFF7DDFBFFF7E4FD00F0A6
:1036000011FF00F01FFF00F049FF00F058FF4021BC
:10361000E448FFF7ECFE28B30020E349086017E018
:10362000E1480078001D012101FA00F0DD49097828
:103630000840DD4909784900491C0841DB490978FF
:103640000843DA490870D8480068401CD649086029
:10365000D54800680428E3D3D4480278D4A1D948D7
:10366000FFF73AFCD14800780A2876D10120D649E4
:1036700008706EE00120D549087061E0FFF75FFB3C
:103680000223D2480278D04801780020FFF7DFFA01
:10369000CF490870084600780090CC480378CA48A3
:1036A0000278CCA1C748FFF717FCC9480078022868
:1036B00003DA0220D349087002E00020D1490870E3
:1036C0004FF4FA70FEF7E8FF2DE00020CE490860C5
:1036D0000FE0BE480078401ECC4931F81000CC49BC
:1036E00009680844CA490860C7480068401CC649C0
:1036F0000860C54800680328EBD3C5480068B0F5EA
:10370000676F0AD9B1480078FFF777F80020BD4904
:103710000870C0A1AB48FFF7DFFB0020BC49086080
:103720000120FEF7B9FFB74800780228CDD04FF44A
:10373000FA70FEF7B1FFA5480078401CA349087055
:10374000A24800780A2899DB9F480078401C9E49CF
:1037500008709D4800780A288CDB9448007805287A
:1037600074D10120984908706CE0012097490870D5
:103770005FE0072395480278934801780120FFF71E
:1037800066FA934908700846007800908F480378DD
:103790008D480278A3A18B48FFF79EFB8C480078E8
:1037A000072803DA01209749087002E000209549B4
:1037B00008704FF4FA70FEF76FFF2DE00020924979
:1037C00008600FE081480078401E904931F81000F1
:1037D0008F49096808448E4908608B480068401C7E
:1037E00089490860884800680328EBD38848006846
:1037F000B0F5676F0AD975480078FEF7FEFF002024
:103800008049087083A16F48FFF766FB002080495C
:1038100008600120FEF740FF7A4800780128CDD0EB
:103820004FF4FA70FEF738FF68480078401C67498B
:103830000870664800780A289BDB63480078401CC3
:1038400061490870604800780A288EDB80A15D48D5
:10385000FFF742FBF2E3844800780B287ED2DFE8D2
:1038600000F07D06233E474D6798979695004221CC
:103870007E48FFF7BCFD7D48007810F008007B49CA
:10388000087010D13220FEF707FF42217748FFF77A
:10389000AEFD7648007810F008007449087002D137
:1038A0000220714908701EE104217148FCF775FE81
:1038B00088B908216E48FCF770FE60B96D48FFF7C3
:1038C0008EFB07230B2209210120FFF7C0F90320FB
:1038D0006549087002E001206349087003E1042192
:1038E0006348FCF75AFE10B104205F490870FAE003
:1038F000FFF725FA05205C490870F4E042215E4894
:10390000FFF775FD5C48007810F004005A49087014
:103910000DD0062054490870002058490860012144
:103920000220FDF76CF801215548FDF7F7FEDAE0BB
:1039300052480068642828D30020504908600021BC
:103940004F48FDF7EBFE00210220FDF758F8422119
:103950004948FFF74CFD4848007800E0C2E010F00D
:1039600004004549087015D007203F490870002021
:103970004249086001210220FDF741F80121404839
:10398000FDF7CCFE3F48FFF72AFB80E0A4E09AE079
:103990008FE07DE078E00000EE000020390000209C
:1039A000380000203A000020300000203B000020BA
:1039B00052756E4D6F64652069732025642E0D0A63
:1039C0000000000000440040C1000020C0000020B2
:1039D000C20000200D0A20526F772025642C20435E
:1039E0006F6C2025642C20537461727454696D656A
:1039F000732025642C204261636B776172640D0A29
:103A000000000000BF00002034000020D80000208B
:103A1000B00000204D6F746F722053746F7070652A
:103A2000640D0A000D0A20526F772025642C204374
:103A30006F6C2025642C20537461727454696D6519
:103A4000732025642C20466F72776172640D0A0022
:103A5000656E746572696E67206E6F726D616C2041
:103A60006D6F64650D0A0000BE0000203D0000205F
:103A700000140140980000203E000020CC000020EF
:103A8000000400409F0000200520F84908702AE04B
:103A9000F7480068B0F5967F0AD30820F34908700C
:103AA0000021F448FDF73AFE00210220FCF7A7FFB1
:103AB00019E007230B2209210020FFF7C8F809208D
:103AC000EA4908700FE00821EB48FCF766FD10B9E1
:103AD0000A20E649087006E0FFF731F90120E349C2
:103AE000087000E000BF00BFE448007A002877D0EB
:103AF0000020E2490872E248FFF771FADF48407897
:103B000011286ED2DFE800F06DF36D096ED1F2F18D
:103B1000F0EFEEEDECEBEAE9E800FFF710F9D7483B
:103B2000C078D649897840EA0120D6490860D34850
:103B30004179007941EA0020D34908600020D34947
:103B4000086044E0CF480068D0490978C84010F0C8
:103B5000010F37D00020CE4908602FE0CA48006826
:103B6000CB490978C84010F0010F22D0C74800782F
:103B7000401CC8498870C6480078401CC87007239C
:103B8000C3480268521CC1480168491C0120FFF764
:103B90005EF8C0490871BD480078B730BC49097863
:103BA0000844BC4909790844BA4988710846FFF7B6
:103BB00016FAB7480068401CB5490860B448006868
:103BC0000B28CBD3B1480068401CB0490860AF480F
:103BD00000680B28B6D34FF4FA70FEF75DFD13E2D0
:103BE00015E210E2FFF7ABF8A448C078A349897842
:103BF00040EA0120A3490860A0484179007941EAE0
:103C00000020A14908600020A049086044E09D48C8
:103C100000689E490978C84010F0010F37D0002095
:103C20009B4908602FE09848006899490978C84086
:103C300010F0010F22D095480078401C95498870FB
:103C400093480078401CC870072391480268521CB2
:103C50008E480168491C0020FEF7F9FF8D49087164
:103C60008A480078B7308A4909780844894909792F
:103C70000844884988710846FFF7B1F9844800680C
:103C8000401C83490860824800680B28CBD37F48DA
:103C90000068401C7D4908607C4800680B28B6D34A
:103CA0004FF4C870FEF7F8FCAEE1FFF748F87A4829
:103CB000FCF789FC48F610210840884201DA01240B
:103CC00000E000247548FCF77EFC00F42C40B0F5C1
:103CD0002C4F0DDA01200CE08CE181E135E109E1A6
:103CE000B8E06EE065E033E05AE050E02BE06FE0D2
:103CF000002004436A48FCF766FC00F4B450B0F5B9
:103D0000B45F01DA012000E0002004435A48FCF7C8
:103D10005AFC00F42040B0F5204F01DA012000E009
:103D2000002004435F48FCF74EFC00F4F060B0F55F
:103D3000F06F01DA012000E00020044302D15A486C
:103D4000FFF74DF960E14D498878FEF7C6FF5BE16A
:103D5000FFF7F7FB55490860084600785449C870DA
:103D600052480088000A887008468078B230C978C6
:103D700008444F4988710846FFF731F900204B4944
:103D800008604B49C8708870B22088713CE1FFF729
:103D9000BEFB0120474908704748FFF720F933E18F
:103DA000FFF7A9FB0020434908704448FFF717F9C3
:103DB0002AE10A210020FEF7EBFD4148FFF70FF949
:103DC00022E10A20FEF719FD3E48FFF708F91BE142
:103DD00040213D48FFF70BFB88B33B48007800F0DB
:103DE0000F003A49887000202849086017E02748EA
:103DF0000078001D012101FA00F0334909780840DC
:103E0000224909784900491C08413049C9780843CA
:103E10002E49C8701D480068401C1C4908601B489A
:103E200000680428E3D329488078AB302749C97853
:103E30000844264988710846FFF7D1F809E0FFE7F2
:103E4000FF2022498870C870A92088710846FFF7B2
:103E5000C6F8D9E042211E48FFF7C9FA1C4802788B
:103E60001CA12348FFF738F8CEE00000BE00002078
:103E7000CC0000200004004000140140EE000020AF
:103E800044000020AC000020A800002030000020EA
:103E9000340000209100002000080140000C014087
:103EA0000010014000180140830000204000002065
:103EB0007C000020B40000206E000020750000206F
:103EC00060000020670000203A0000204B00002026
:103ED0003D000020204932432061646472657373A1
:103EE000656420307834322069732025640D0A001F
:103EF000004400404FF40051F148FCF74EFB0446EB
:103F00002246F0A1F348FEF7E7FF0421F248FCF750
:103F100044FB04462246F1A1EE48FEF7DDFF4FF4D4
:103F20008041E748FCF739FB04462246EFA1E94807
:103F3000FEF7D2FF0821E848FCF72FFB0446224693
:103F4000EEA1E448FEF7C8FF5EE0F0488078012863
:103F500011D1C102DA48FCF73CFB4FF48051D8483C
:103F6000FCF735FB0221EA48FCF731FBE9A1D9480F
:103F7000FEF7B2FF33E0E5488078022811D1C10294
:103F8000CF48FCF726FB4FF40061CD48FCF71FFB40
:103F90000221DF48FCF71BFBE7A1CE48FEF79CFFA0
:103FA0001DE0DA48807803280CD1C102C448FCF730
:103FB0000EFB0221D648FCF70AFBE8A1C548FEF734
:103FC0008BFF0CE04FF4C051BD48FCF702FB02210F
:103FD000CF48FCF7FEFAEAA1BE48FEF77DFF13E0EA
:103FE0000120F449087007230B2209210020FEF765
:103FF0002EFE09E00120F049087007230B22092159
:10400000FEF725FE00E000BF00BFFFF7D5FAEB4842
:10401000007858B14FF40051A948FCF7BEFA0128C6
:1040200004D1FEF78CFEE648FEF7D9FF0020E549F3
:10403000086046E00020E44908600FE09DE0E348A6
:10404000E049096830F81100E14909680844E0498D
:104050000860DD480068401CDB490860DA480068F9
:104060000328ECD3DA480068B0F5676F15D9D54856
:104070000068401CFEF7C1FBD2480078401CD549BF
:104080008870D0480078B53088710846FEF7A7FFE1
:104090000020D0498870B42088710020CC49086085
:1040A000C949086004E0C8480068401CC649086067
:1040B000C54800689628F6D3C2480068401CC1492C
:1040C0000860C04800680A28B4D30020BE490860D0
:1040D0000BE0BE48808ABE4909680844BC490860B4
:1040E000B9480068401CB8490860B7480068032810
:1040F000EFD3B748006842F24A2188420AD9B4484F
:10410000B5A102687348FEF7E7FEAE480068401CA0
:10411000FEF773FB0020AE490860AB49086004E07D
:10412000A9480068401CA8490860A748006896286C
:10413000F6D3A048007870B108216748FCF72DFA43
:1041400048B904216448FCF728FA20B9FEF7F7FDC6
:104150000020984908709848007870B108215E489E
:10416000FCF71BFA48B104215B48FCF716FA20B1B2
:10417000FEF7E5FD002090490870FFF76CBB2DE9C4
:10418000F04700208F4908602BE090498D4A126863
:1041900031F8120000F084FA81464FF08B4100F0B4
:1041A000CDF9044600F081FA07460022934B00F057
:1041B00005FA054600F08CFA914908606420FEF784
:1041C0006BFA8F48006800F070FA044622460B46EE
:1041D0008CA14048FEF780FE7A480068401C79496F
:1041E0000860784800680B28CFD388A13948FEF7CB
:1041F00073FEBDE8F08710B549F611714448FCF72D
:10420000E6F94FF63C718248FCF7E1F94FF6C071D0
:104210008048FCF7DCF94FF6F0712F48FCF7D7F92E
:1042200040F2FF712648FCF7D2F94FF4FA70FEF71E
:1042300033FA49F611713648FCF7CBF94FF63C7169
:104240007348FCF7C6F94FF6C0717248FCF7C1F924
:104250004FF6F0712048FCF7BCF940F2FF711848A6
:10426000FCF7B7F94FF47A70FEF716FA10BD10B5E7
:10427000694800786949087040216748FFF7B7F836
:10428000674908706420FEF707FA644800786249BD
:104290000978884213D042210020FFF78DF8604949
:1042A00008704FF4FA70FEF7F7F94221FF20FFF78C
:1042B00083F85B4908704FF4FA70FEF7EDF910BD12
:1042C0000018014020535F53454E3120697320256B
:1042D000640D0A00004400400014014020535F5365
:1042E000454E322069732025640D0A0020535F5328
:1042F000454E332069732025640D0A0020535F5317
:10430000454E342069732025640D0A00EE0000201C
:104310000008014020456E61626C65204C323938DE
:104320002C2054435F53313D312C2054435F533292
:104330003D30200D0A00000020456E61626C652052
:104340004C3239382C2054435F53313D302C2054AB
:10435000435F53323D31200D0A00000020456E615D
:10436000626C65204C3239382C2054435F53313D08
:10437000312C2054435F53323D31200D0A000000A0
:1043800044697361626C65204C32393820616E6417
:1043900020416C6C20636F6E74726F6C20706F7252
:1043A0007420697320736574207A65726F200D0A1A
:1043B00000000000BC000020BD000020B400002070
:1043C000590000203000002034000020D8000020D8
:1043D000B00000208A0000200D0A2063757272650B
:1043E0006E74206F66206D6F746F72207368656CD9
:1043F0007465722069732025640D0A000000044072
:10440000C40000202D2D3E25665600000D200A0018
:10441000000C014000100140D1000020D00000201D
:10442000D200002008B51C208DF8000000208DF877
:10443000010001208DF802008DF803006846FBF7AB
:1044400052FF08BD0EB501210846FCF7D8FA4FF01F
:104450008040FCF733FD42F21070ADF804004720B5
:10446000ADF800000020ADF80600ADF80200694686
:104470004FF08040FCF7F6FD01218807FDF714FCA2
:10448000012211469007FDF764F901218807FDF725
:1044900045F900210120FCF7B2FA0EBD08B51D2038
:1044A0008DF8000000208DF8010002208DF8020038
:1044B00001208DF803006846FBF715FF08BD0EB517
:1044C00001210220FCF79BFA1248FCF7F7FC42F2AC
:1044D0001070ADF804004720ADF800000020ADF8E2
:1044E0000600ADF8020069460A48FCF7BBFD012151
:1044F0000848FDF7D9FB012211460648FDF729F9C6
:1045000001210448FDF70AF900210220FCF777FA9F
:104510000EBD0000000400400648804706480047E2
:10452000FEE7FEE7FEE7FEE7FEE7FEE7FEE7FEE763
:10453000FEE7FEE7DD010008ED00000830B480EA88
:10454000010202F0004530F0004221F0004015D099
:10455000A0B1C0F3C753C2F3C754C2F31601C0F3EE
:104560001600E41A41F4000140F400027D34914247
:1045700001D3641C00E04900002C02DA30BC0020AA
:1045800070474FF400000023914201D3891A03437E
:1045900040084FEA4101F7D151B1914202D14FF0A9
:1045A000004105E002D24FF0010101E06FF001018E
:1045B00003EBC450284430BC00F0BCB82DE9FE4FDA
:1045C00081EA030404F0004421F0004100944FF01C
:1045D000000B23F0004350EA010402D052EA030426
:1045E00004D10020014603B0BDE8F08FC3F30A54A4
:1045F000C1F30A552C44A4F2F3340194A0FB0254F5
:10460000C1F3130141F48011C3F3130343F4801386
:1046100001FB024400FB034E840A970A44EA8154DA
:1046200047EA8357A4FB076802958D0A05FB0785B7
:104630004FEA932C04FB0C542705029D4FEA0658C1
:1046400047EA1637B5EB08056EEB070C870E920E9E
:1046500047EA811742EA8312A7FB0201B6EB0B017E
:1046600064EB00042B0D43EA0C335E1844EB1C5042
:10467000DA465146E7FB0201C5F313044FEA0B3358
:1046800043EA14534FEA0432019C43EA0603A4F1BF
:104690000C040294009CCDE900B400F08EF8A2E76F
:1046A00096230022114600F04EB800F0004230F090
:1046B00000400AD0C10D01F56071C0F3160042EA56
:1046C0000151C2084007114370470020014670475E
:1046D00001F0004330B421F0004150EA010206D05D
:1046E0000A0DA2F56072C1F31301002A02DC30BC8E
:1046F00000207047440F44EAC104C100E01830BCF8
:1047000000EBC25000F016B830B50B460146002051
:104710002022012409E021FA02F59D4205D303FA83
:1047200002F5491B04FA02F52844151EA2F1010204
:10473000F1DC30BD0029A8BF7047401C490008BF0C
:1047400020F00100704710B4B0FA80FC00FA0CF0C1
:1047500050EA010404BF10BC704749B1CCF12004F9
:1047600021FA04F411FA0CF118BF01212143084386
:10477000A3EB0C01CB1D0106000A002BBEBF0020DD
:1047800010BC704700EBC35010440029A4BF10BCFC
:104790007047401C490008BF20F0010010BC704762
:1047A00010B5002B08DA401C41F1000192185B4162
:1047B0001A4301D120F0010010BD2DE9F04D9246C1
:1047C0009B4611B1B1FA81F202E0B0FA80F22032D8
:1047D000904600F057F804460F4640EA0A0041EAC6
:1047E0000B0153465A46084303D120463946BDE8DB
:1047F000F08D114653EA010015D0C8F14002504631
:1048000000F04FF805460E4650465946424600F025
:1048100039F8084301D0012000E00020054346EAB2
:10482000E0762C4337430A984FEA4453A0EB080044
:104830004FEAD4240A304FF0000244EA47544FEACA
:10484000D72502D500200146D1E70105101969419D
:10485000DDE9084500196941BDE8F04DA0E7000019
:10486000064C074D06E0E06840F0010394E80700BD
:1048700098471034AC42F6D3FBF73CFC584A00088A
:10488000784A0008202A04DB203A00FA02F10020CE
:1048900070479140C2F1200320FA03F3194390407E
:1048A0007047202A04DB203A21FA02F000217047E9
:1048B00021FA02F3D040C2F1200291400843194688
:1048C000704700000FB4054B10B503A9044A0298C5
:1048D00000F018F810BC5DF814FB0000592E000819
:1048E000D400002002E008C8121F08C1002AFAD133
:1048F00070477047002001E001C1121F002AFBD160
:10490000704700002DE9FF4F89B09B460446002503
:1049100097E0252833D10027641C4E49B846012270
:104920002378203B02FA03F0084202D00743641CBC
:10493000F6E720782E2819D114F8010F47F0040764
:104940002A280ED06FF02F022078A0F1300109291B
:104950000CD808EB880102EB410100EB0108641C54
:10496000F2E70A98641C50F8048B0A90207800281B
:104970006BD0642808D0692806D0752820D05A4604
:104980000B9990476D1C5BE00A994FF00A0901C929
:104990000A91002804DAC0F100004FF02D0102E076
:1049A000390504D52B218DF82010012103E0F907EA
:1049B00004D02021F7E78A4608AE0EE00021FAE78E
:1049C0000A994FF00A0901C90A91F7E74946FFF72A
:1049D0009BFE01F1300106F8011D0028F6D1ADEB78
:1049E000060000F12009780701D44FF00108C845FE
:1049F00002DDA8EB090000E000208046002706E069
:104A000008A85A46C05D0B9990476D1C7F1C5745FE
:104A1000F6DB04E030205A460B9990476D1CB8F144
:104A20000001A8F10108F5DC05E016F8010B5A4673
:104A30000B9990476D1CB9F10001A9F10109F4DC53
:104A4000641C207800287FF464AF0DB02846BDE8D0
:104A5000F08F000009280100784A000800000020BB
:104A6000D8000000E4480008504B0008D80000209F
:104A700020040000F448000800A24A0400000000DE
:104A800000000000010203040607080900000000FE
:104A900001020304010203040607080902040608D0
:104AA0000000000000000000000000000000000006
:104AB000FFEF00000000000000000000AABB0000A3
:104AC000000065AA0100000000ABAA02000000007F
:104AD000ACAA0300000000ADAA0400000000AEAACA
:104AE0000500000000AFAA0600000000B0AA070001
:104AF000000000B1AA0800000000B2AA09000000EE
:104B000000B3AA0A00000000B4AA0B00000000B520
:104B1000AA0C00000000B6AA0D00000000B70000BB
:104B20000000000000000000000000000000000085
:104B3000E803000000000100000000000000000089
:104B40000000000000000000000000000000000065
:04000005080000ED02
:00000001FF
