:020000040800F2
:10000000200D0020794C0008312700083327000814
:10001000372700083B2700083F27000800000000A2
:10002000000000000000000000000000432700085E
:10003000452700080000000047270008492700085E
:10004000934C0008934C0008934C0008934C000814
:10005000934C0008934C0008934C0008934C000804
:10006000934C0008934C0008934C0008934C0008F4
:10007000934C0008934C0008934C0008934C0008E4
:10008000934C0008934C0008934C0008934C0008D4
:10009000934C0008934C0008934C0008934C0008C4
:1000A000934C0008934C0008934C0008934C0008B4
:1000B0005327000873270008934C0008934C00084E
:1000C000934C0008934C0008934C0008934C000894
:1000D000934C0008934C000893270008934C0008A9
:1000E00051270008934C0008934C0008934C0008DB
:1000F000934C0008934C0008934C0008934C000864
:10010000934C0008934C0008934C0008934C000853
:10011000934C0008934C0008934C0008934C000843
:10012000934C0008934C0008934C0008934C000833
:10013000DFF80CD005F02CF800480047253B0008FC
:10014000200D00200CB50020019000906B48006845
:1001500040F480306949086000BF6848006800F4D6
:10016000003000900198401C0190009818B9019847
:10017000B0F5A06FF1D16148006810F4003F02D0E3
:100180000120009001E0002000900098012842D159
:100190005B48006840F01000594908600846006854
:1001A00020F0030008600846006840F00200086084
:1001B00052484068514948600846406848600846CF
:1001C000406840F4806048600846406820F47C1035
:1001D00048600846406840F4E810486008460068F7
:1001E00040F08070086000BF4448006810F0007F55
:1001F000FAD04248406820F0030040494860084671
:10020000406840F00200486000BF3C48406800F091
:100210000C000828F9D10CBD10B5FFF793FF10BDF5
:1002200010B53648006840F00100344908600846BF
:1002300040683449084031494860084600683249FE
:1002400008402E4908600846006820F480200860B5
:100250000846406820F4FE0048604FF41F008860A4
:10026000FFF7DAFF4FF000602849086010BD10B5B5
:10027000002100200022214B5B6803F00C0121B11A
:10028000042906D0082928D107E0214B214C2360FE
:1002900027E01F4B1F4C236023E0184B5B6803F4DF
:1002A0007010164B5B6803F48032022303EB90401E
:1002B00022B9194B4343174C23600DE00F4B5B6889
:1002C00013F4003F04D0144B4343124C236003E06B
:1002D0000F4B43430F4C236003E00D4B0D4C236049
:1002E00000BF00BF054B5B68C3F303130B4CE15C1D
:1002F000084B1B68CB40074C236010BD0010024028
:10030000002002400000FFF8FFFFF6FE08ED00E0CD
:1003100000127A000000002000093D0004000020C7
:1003200031490143314A1160704770B50021002303
:100330000F22C4780CB32D4C246804F4E064C4F597
:10034000E064210AC1F10403CA40447804FA03F1CD
:100350008478144021430901254C0678A15504787E
:1003600004F01F050124AC4005786D114FF0E02624
:1003700006EB8505C5F8004109E0047804F01F0587
:100380000124AC401B4D0678761145F8264070BD1F
:10039000194A0A400243154B1B1F1A60704739B1B6
:1003A000124A121D12680243104B1B1D1A6006E010
:1003B0000E4A121D126882430C4B1B1D1A607047B7
:1003C000042808D14FF0E021096941F004014FF001
:1003D000E022116107E04FF0E021096921F00401FA
:1003E0004FF0E022116170470000FA050CED00E0CB
:1003F00000E400E080E100E080FFFF1F10B504464C
:10040000CA48844208D10121042000F027FB0021C2
:10041000042000F023FB46E0C548844208D10121B6
:10042000082000F01BFB0021082000F017FB3AE039
:10043000C048844208D10121102000F00FFB0021A8
:10044000102000F00BFB2EE0BB48844208D10121B4
:10045000202000F003FB0021202000F0FFFA22E022
:10046000B648844208D10121402000F0F7FA00216B
:10047000402000F0F3FA16E0B148844208D101218F
:10048000802000F0EBFA0021802000F0E7FA0AE07B
:10049000AC48844207D10121801500F0DFFA002129
:1004A000A01500F0DBFA10BD10B50121084600F0E0
:1004B000D5FA0021012000F0D1FA10BD2DE9F0415C
:1004C000024600250026002000230024002791F882
:1004D00003C00CF00F0591F803C01CF0100F03D0FF
:1004E00091F802C04CEA050591F800C0BCF1000F7C
:1004F00031D0146800202BE04FF0010C0CFA00F30F
:10050000B1F800C00CEA03069E4220D183004FF0F0
:100510000F0C0CFA03F7BC4305FA03FC4CEA040485
:1005200091F803C0BCF1280F06D14FF0010C0CFA72
:1005300000FCC2F814C00AE091F803C0BCF1480FF7
:1005400005D14FF0010C0CFA00FCC2F810C0401CA1
:100550000828D1D31460B1F800C0BCF1FF0F34DD1E
:10056000546800202EE000F1080C4FF0010808FA52
:100570000CF3B1F800C00CEA03069E4221D18300BF
:100580004FF00F0C0CFA03F7BC4305FA03FC4CEADE
:10059000040491F803C0BCF1280F05D100F1080C48
:1005A00008FA0CF8C2F8148091F803C0BCF1480FA7
:1005B00007D100F1080C4FF0010808FA0CF8C2F856
:1005C0001080401C0828CED35460BDE8F0814FF65F
:1005D000FF710180022181700421C17070470246C1
:1005E000002093680B4201D0012000E000207047FA
:1005F0000146886880B2704702460020D3680B42EB
:1006000001D0012000E0002070470146C86880B298
:10061000704701617047416170470AB1016100E0B4
:1006200041617047C16070474FF480320A43826174
:100630008161826182698269704702460020424B73
:1006400018684FF68073184040EA021008433E4B8A
:10065000186070473D49C8617047F0B50A460023ED
:1006600000240021002500F00046B6F1004F02D121
:10067000354EF16901E0344E7168C0F3034583B231
:1006800000F44016B6F5401F08D121F070612E4EDF
:10069000766826F070662C4F7E6012E000F48016BB
:1006A000B6F5801F06D1032606FA05F4A14341F0F2
:1006B000706106E0460D360103FA06F6B14341F0DB
:1006C000706122B1460D360103FA06F6314300F09F
:1006D0000046B6F1004F02D11B4EF16101E01A4E07
:1006E0007160F0BD30B500228B071C0F0F2303FA99
:1006F00004F2154B08338C1053F824309343124CFA
:1007000008348D1044F8253023468C1053F82430DB
:100710008C07240F00FA04F423430B4C08348D108B
:1007200044F8253030BD0A49086070470008014090
:10073000000C01400010014000140140001801406D
:10074000001C014000200140000001400000204248
:10075000DC002042DD48006840F00100DB49086011
:1007600008464068DA490840D849486008460068A9
:10077000D8490840D54908600846006820F4802020
:1007800008600846406820F4FE0048604FF41F00EF
:1007900088607047CD49096821F48031CB4A1160E7
:1007A0001146096821F480211160B0F5803F03D023
:1007B000B0F5802F0ED106E0C449096841F48031BC
:1007C000C24A116007E0C149096841F4A021BF4A4B
:1007D000116000E000BF00BF704710B50146002265
:1007E000002300204A11012A02D1B84C236806E0F8
:1007F000022A02D1B54C236A01E0B44C636A01F0CD
:100800001F02012494401C4201D0012000E000207E
:1008100010BD38B5002000900024002500BF312015
:10082000FFF7DBFF05460098401C00900098B0F5EC
:10083000A06F01D0002DF2D03120FFF7CEFF08B11C
:10084000012400E00024204638BD014600209F4AD4
:10085000106820F0F80040EAC100106070479E491F
:100860000860704702460020984B586820F47C10BE
:1008700042EA01031843954B586070479649086651
:10088000704701460020914A506820F00300084359
:10089000506070478D48406800F00C00704701467A
:1008A00000208A4A506820F0F000084350607047EA
:1008B00001460020854A506820F4E06008435060FB
:1008C000704701460020814A506820F4605040EA99
:1008D000C1005060704729B17C4A527A02437B4B79
:1008E0005A7204E0794A527A8243784B5A727047BE
:1008F0007A490860704701460020744A506820F425
:1009000040400843506070470021754A11706F4A9B
:1009100082F82010012802D0042808D103E0012128
:100920006F4A117004E005216D4A117000E000BFAC
:1009300000BF70476B49086070476449096A01430A
:10094000624A11627047674944390860704730B5A0
:1009500000210022002400235C4D6D6805F00C018D
:1009600021B1042905D0082923D105E05E4D056099
:1009700022E05D4D05601FE0544D6D6805F4701276
:10098000524D6D6805F48034022505EB92421CB986
:10099000564D554305600BE04C4D6D6815F4003F16
:1009A00003D0524D5543056002E04F4D554305605D
:1009B00002E04D4D056000BF00BF444D6D6805F07D
:1009C000F00109094A4D6B5C0568DD4045603F4D0B
:1009D0006D6805F4E061090A454D6B5C4568DD40D2
:1009E00085603A4D6D6805F46051C90A404D6B5CF5
:1009F0004568DD40C560354D6D6805F44041890BA3
:100A00003C4D6B5CC568B5FBF3F5056130BD29B1A4
:100A10002E4A526902432D4B5A6104E02B4A526917
:100A200082432A4B5A61704729B1284A926902438E
:100A3000264B9A6104E0254A92698243234B9A61CE
:100A4000704729B1214AD2690243204BDA6104E0A0
:100A50001E4AD26982431D4BDA61704729B11B4A95
:100A6000D2680243194BDA6004E0184AD268824324
:100A7000164BDA60704729B1144A12690243134BCE
:100A80001A6104E0114A12698243104B1A617047DF
:100A900014494039086070470F49C86470470B49D2
:100AA000C87170470948406A40F080700749486241
:100AB000704701460020054A92680A4201D0012091
:100AC00000E0002070470149887270470010024022
:100AD0000000FFF8FFFFF6FE00004242D80042424D
:100AE000201002408004424200127A0000093D00BA
:100AF000140000202400002010B50446FB48844266
:100B000009D101218803FFF7A9FF00214FF480409C
:100B1000FFF7A4FF32E0F648844209D101214804DE
:100B2000FFF7A9FF00214FF40030FFF7A4FF25E0F5
:100B3000F048844209D101218804FFF79CFF00217D
:100B40004FF48020FFF797FF18E0EB48844209D16B
:100B50000121C804FFF78FFF00214FF40020FFF7A9
:100B60008AFF0BE0E548844208D101210805FFF720
:100B700082FF00214FF48010FFF77DFF10BD2DE9AB
:100B8000F04786B005460E460024A24600BFA146A7
:100B90000027B08900B100BF2F462C8A4CF6FF70A9
:100BA0000440F08804432C82AC894EF6F3100440D4
:100BB000B08831890843718908430443AC81AC8A09
:100BC0004FF6FF400440B0890443AC8201A8FFF710
:100BD000BEFEC648874202D1DDF810A001E0DDF874
:100BE0000CA0A88910F4004F08D00AEBCA0000EB53
:100BF0000A1031684900B0FBF1F807E00AEBCA00BF
:100C000000EB0A1031688900B0FBF1F86420B8FBF2
:100C1000F0F004012009642101FB1089A88910F477
:100C2000004F08D0322000EBC900B0FBF1F000F01B
:100C30000700044308E0322000EB09106421B0FBF8
:100C4000F1F000F00F0004432C8106B0BDE8F087FE
:100C50004FF41651016000218180C18001810C2177
:100C6000418100218181704710B502460020108A21
:100C70004FF2FF0318400B884C8823438C88234392
:100C8000CC8823431843108210BD0021018041808D
:100C90008180C180704721B1828942F400528281F3
:100CA00004E082894DF6FF731A4082817047F0B5E7
:100CB00003460024002600250020A1F510676A3FA6
:100CC00000D100BF1846C1F3421401F01F060127EE
:100CD00007FA06F5012C01D10C3004E0022C01D1F9
:100CE000103000E014301AB107682F43076002E0AB
:100CF0000768AF430760F0BD1AB1838A0B43838254
:100D000002E0838A8B4383827047028A4FF6F07336
:100D10001A400282028A0A430282704782894FF295
:100D2000FF731A40828182890A438281704721B110
:100D3000828942F00202828104E082894FF6FD73CB
:100D40001A4082817047028A4FF6DF731A4002828E
:100D5000028A0A430282704721B1028A42F4804229
:100D6000028204E0028A4BF6FF731A400282704747
:100D7000C1F308028280704701468888C0F30800EA
:100D80007047818941F0010181817047028BD2B2A5
:100D90000283028B42EA012202837047028B02F433
:100DA0007F420283028B0A430283704721B1828A09
:100DB00042F02002828204E0828A4FF6DF731A40FA
:100DC0008282704721B1828A42F01002828204E05E
:100DD000828A4FF6EF731A408282704721B1828A6D
:100DE00042F00802828204E0828A4FF6F7731A40CA
:100DF0008282704721B1828942F40042828103E0FD
:100E00008289C2F30E028281704721B1828A42F444
:100E10000062828204E0828A4FF2FF731A4082826B
:100E20007047828A4FF6FB731A408282828A0A4395
:100E30008282704721B1828A42F00202828204E0FB
:100E4000828A4FF6FD731A40828270470246002064
:100E5000B1F5007F00D100BF13880B4201D0012003
:100E600000E00020704701F40072B2F5007F00D16D
:100E700000BFCA430280704770B5024600240023B9
:100E800000250020A1F510666A3E00D100BFC1F325
:100E9000421501F01F03012606FA03F3012D02D1CA
:100EA0009689334006E0022D02D1168A334001E0D4
:100EB000968A33400C12012606FA04F41688344050
:100EC00013B10CB1012000E0002070BD10B500226C
:100ED0000023A1F510646A3C00D100BF0A1201246E
:100EE0009440A3B2DC43048010BD000000380140F0
:100EF0000044004000480040004C004000500040CA
:100F000010B50322FD49FE4801F07EFBFB48007846
:100F1000882857D1F9484078112853D1F74880786C
:100F200007284FD1F548C078012852D1F3480079FD
:100F3000FA2809DAF1480079401CF24908710322C5
:100F4000EF4801F072FB44E03AE0EF48007A0028F5
:100F500032D00020EC49087208464078142802D0AC
:100F6000152825D10CE00322E449E54801F04CFBAB
:100F7000E2480379C278E5A1E64802F02FFA18E0CA
:100F80000020E049C87008710322DD4801F04DFBE4
:100F90000322DA49DA4801F037FBD8480379C278EE
:100FA000DAA1DC4802F01AFA0020DB49087000E000
:100FB00000BF00BF02F0A4FDD748007800B900E0F0
:100FC000C3E706E00020CF4908710322CC4801F0B6
:100FD0002CFB10BD10B50446D048844208D1012135
:100FE000C014FFF73BFD0021E014FFF737FDC4E01C
:100FF000B4F1804F08D101210846FFF73CFD0021E4
:101000000120FFF738FDB8E0C548844208D101212E
:101010000220FFF730FD00210220FFF72CFDACE09D
:10102000C048844208D101210420FFF724FD00219B
:101030000420FFF720FDA0E0BB48844208D1012135
:101040000820FFF718FD00210820FFF714FD94E0A9
:10105000B648844208D101211020FFF70CFD002181
:101060001020FFF708FD88E0B148844208D1012133
:101070002020FFF700FD00212020FFF7FCFC7CE092
:10108000AC48844208D101214014FFF7E7FC00215D
:101090006014FFF7E3FC70E0A748844209D1012106
:1010A000C804FFF7DBFC00214FF40020FFF7D6FC5B
:1010B00063E0A248844209D101210805FFF7CEFC74
:1010C00000214FF48010FFF7C9FC56E09C48844291
:1010D00009D101214805FFF7C1FC00214FF40010A0
:1010E000FFF7BCFC49E09748844208D10121402029
:1010F000FFF7C1FC00214020FFF7BDFC3DE0924816
:10110000844208D101218020FFF7B5FC0021802016
:10111000FFF7B1FC31E08D48844208D101218015F0
:10112000FFF7A9FC0021A015FFF7A5FC25E08848E2
:10113000844209D101210804FFF790FC00214FF4FB
:101140008030FFF78BFC18E08248844209D10121EE
:101150004804FFF783FC00214FF40030FFF77EFCCA
:101160000BE07D48844208D101218804FFF776FC1A
:1011700000214FF48020FFF771FC10BD002202888F
:10118000664B98420ED06B4B98420BD0B0F1804F1B
:1011900008D0634B984205D0624B984202D0624B14
:1011A000984204D14FF68F731A404B881A435F4B15
:1011B000984207D05E4B984204D04FF6FF431A4046
:1011C000CB881A4302808B8883850B880385534B19
:1011D00098420BD0574B984208D05D4B984205D0AF
:1011E0005C4B984202D05C4B984201D10B7A03864B
:1011F00001238382704770B5002400220023058CF0
:101200004FF6FE7635400584028C8388048B4FF6BA
:101210008F752C40B51E2C400D882C43751E2A401E
:101220000D892A434D882A433C4DA8420BD0414D9D
:10123000A84208D0464DA84205D0464DA84202D04B
:10124000454DA84213D14FF6F7752A404D892A43E0
:101250004FF6FB752A408D882A434FF6FF652B40D9
:101260004FF6FF552B408D892B43CD892B4383802F
:101270000483CD888586028470BD70B50024002269
:101280000023058C4FF6EF7635400584028C838869
:10129000048B48F6FF752C404FF6FF452C400D8817
:1012A0004FF6FF7606EA05252C434FF6DF752A40F8
:1012B0000D8906EA05152A434D8806EA05152A43D5
:1012C000164DA84202D01B4DA8424ED14FF67F7555
:1012D0002A404D894FF6FF7606EA05152A434FF658
:1012E000BF752A408D8806EA05152A434FF6FF355B
:1012F0002B404FF2FF752B408D892FE03E000020E0
:101300000000070838000020120900202025642072
:10131000256400000044004044000020002C0140EF
:101320000004004000080040000C00400010004095
:101330000014004000340140004C014000500140C6
:101340000054014000180040001C004000200040F4
:1013500000400140004401400048014006EA850584
:101360002B43CD8906EA85052B4383800483CD88F2
:101370000587028470BD70B5002400220023058C0F
:101380004FF6FF6635400584028C8388848B4FF6C8
:101390008F752C404FF6FC752C400D882C434FF672
:1013A000FF552A400D894FF6FF7606EA05252A43A8
:1013B0004D8806EA05252A43FB4DA84202D0FB4D85
:1013C000A8421DD14FF2FF752A404D894FF6FF7696
:1013D00006EA05252A434FF6FF352A408D8806EA9E
:1013E00005252A434EF6FF752B404DF6FF752B4021
:1013F0008D8906EA05152B43CD8906EA05152B4391
:1014000083808483CD888587028470BD70B5002277
:1014100000230024058C4EF6FF7635400584038CAE
:101420008488828B48F6FF752A404FF6FF452A4094
:101430000D884FF6FF7606EA05252A434DF6FF751F
:101440002B400D8906EA05352B434D8806EA053504
:101450002B43D54DA84202D0D44DA84208D14BF61B
:10146000FF752C408D894FF6FF7606EA85152C43D3
:1014700084808283CD88A0F84050038470BD828B25
:101480004FF2FF331A408283828B4FF6FF7303EAD9
:1014900001231A4382837047F0B50C46154600229B
:1014A00000210026078C4EF6FF7C07EA0C07078414
:1014B000828B018C4FF6FF7707EA043640F6FF4730
:1014C0003A404FF6FF7707EA05273A434FF6FF7792
:1014D00007EA03373A43B44FB8420ED0B34FB8428D
:1014E0000BD0B0F1804F08D0B14FB84205D0B14F0A
:1014F000B84202D0B04FB84206D14DF6FF7739401E
:1015000046F48057394305E047F6FF57394044F425
:101510008057394382830184F0BD828B4FF6F37389
:101520001A408283828B0A4382837047F0B50C464F
:101530001546002200210026078C4FF6FF6C07EAB3
:101540000C070784828B018C4FF6FF7707EA04268D
:101550004FF60C773A404FF6FF7707EA03172F4311
:101560003A43914FB8420ED0904FB8420BD0B0F1F1
:10157000804F08D08E4FB84205D08E4FB84202D06F
:101580008D4FB84206D14FF6FF57394046F4807769
:10159000394305E04FF2FF57394044F4807739432F
:1015A00082830184F0BD028B4FF2FF331A40028325
:1015B000028B4FF6FF7303EA01231A43028370473D
:1015C000F0B50C461546002200210026078C4FF688
:1015D000EF7C07EA0C070784028B018C4FF6FF773C
:1015E00007EA041640F6FF473A404FF6FF7707EA4E
:1015F00003373A434FF6FF7707EA05273A436A4F26
:10160000B8420ED0694FB8420BD0B0F1804F08D02D
:10161000674FB84205D0674FB84202D0664FB84214
:1016200006D14FF6DF77394046F01007394305E021
:101630004FF65F77394044F0100739430283018445
:10164000F0BD028B4FF6F3731A400283028B0A43FC
:1016500002837047F0B50C46154600220021068C27
:101660004FF6FE773E400684028B018C4FF60C76D7
:1016700032407E1C06EA03162E4332434A4EB042E5
:101680000ED04A4EB0420BD0B0F1804F08D0484E39
:10169000B04205D0474EB04202D0474EB04206D1CC
:1016A0004FF6FD76314044F00106314305E04FF638
:1016B000F576314044F00106314302830184F0BDE8
:1016C00070B505460C46384885420ED037488542ED
:1016D0000BD0B5F1804F08D03548854205D035484C
:1016E000854202D03448854200D100E000BF208806
:1016F00050B92389A28861882846FFF7ABFFE188AB
:101700002846FFF79EFF25E0208804280AD1238978
:10171000A28861882846FFF753FFE1882846FFF733
:1017200042FF17E0208808280AD12389A28861880F
:101730002846FFF7FBFEE1882846FFF7EEFE09E0AA
:101740002389A28861882846FFF7A6FEE1882846FB
:10175000FFF795FE70BD2DE9F04105460C460026C9
:101760000127608808B9022600E00026A088012829
:1017700001D1022700E001272088A0B92389A2888F
:1017800061882846FFF766FFE1882846FFF759FF82
:1017900023893A4631462846FFF712FFE18828465A
:1017A000FFF701FF1EE009E0002C0140003401407A
:1017B0000004004000080040000C00402389A2887B
:1017C00061882846FFF7FCFEE1882846FFF7EBFE1C
:1017D00023893A4631462846FFF73CFFE1882846F0
:1017E000FFF72FFFBDE8F0810A884B881A438B88EA
:1017F0001A43CB881A430B891A434B891A438B89A6
:101800001A43A0F8442070474FF6FF7181800021F1
:101810000180C180418001727047002101804180B8
:101820008180C180018141818181C1817047002116
:1018300001804180012181800021C18001817047A8
:101840000021018041808180C180018141818181AD
:10185000704721B1028842F00102028004E0028850
:101860004FF6FE731A400280704731B1B0F8442041
:1018700042F40042A0F8442005E0B0F84420C2F34E
:101880000E02A0F8442070471AB183890B4383816C
:1018900002E083898B43838170478182704741EAEC
:1018A0000203A0F8483070471AB183890B43838143
:1018B00002E083898B438381704701894FF6F87278
:1018C0001140018170470A46002101894FF68F734C
:1018D000194011430181704730B504460D46294631
:1018E0002046FFF7F0FF208940F00700208130BD3F
:1018F0002DE9F04104460D4616461F46602D06D1DF
:101900003B46012231462046FFF75AFE05E03B46A2
:10191000012231462046FFF79DFE29462046FFF76B
:10192000D2FF208940F007002081BDE8F08130B56A
:101930000C4600210189C9B24FF6FF7505EA03255F
:10194000154325432943018130BD2DE9F04105466A
:101950000E4617469846002443463A4631462846E6
:10196000FFF7E5FF2C894FF6F870044044F00704B8
:101970004FF68F70044044F070042C81BDE8F08174
:10198000F0B504460D4616461F463B4632462946EC
:101990002046FFF7CCFF208940F480402081F0BD35
:1019A0000185828270470A46002101884FF68F73B5
:1019B0001940114301807047F0B50C4615461E468C
:1019C0000021002200230189028B038C4FF6F87757
:1019D000394021434FF6FC473A4040F201173A4361
:1019E0004FF6DD773B404FF6FF7707EA06172F43A8
:1019F0003B43018102830384F0BD0A460021018B31
:101A00004FF68F7319401143018370470A46002136
:101A1000018B48F6FF7319404FF6FF7303EA022368
:101A20001943018370470A460021818B4FF68F735B
:101A300019401143818370470A460021818B48F683
:101A4000FF7319404FF6FF7303EA022319438183A2
:101A5000704721B1028842F08002028004E00288CF
:101A60004FF67F731A400280704721B1828842F09E
:101A70000402828004E082884FF6FB731A40828061
:101A8000704721B1828842F00802828004E0828897
:101A90004FF6F7731A408280704721B1828842F076
:101AA0000102828004E082884FF6FE731A40828031
:101AB00070470A460021018B4FF6F7731940114316
:101AC000018370470A460021018B4FF2FF731940D2
:101AD0004FF6FF7303EA02231943018370470A4656
:101AE0000021818B4FF6F7731940114381837047B2
:101AF0000A460021818B4FF2FF7319404FF6FF73A6
:101B000003EA02231943818370470A460021018BAF
:101B10004FF6FB7319401143018370470A460021B9
:101B2000018B4FF6FF3319404FF6FF7303EA022390
:101B30001943018370470A460021818B4FF6FB73DE
:101B400019401143818370470A460021818B4FF66B
:101B5000FF3319404FF6FF7303EA022319438183D1
:101B600070470A460021018B4FF67F7319401143DD
:101B7000018370470A460021018BC1F30E014FF625
:101B8000FF7303EA02231943018370470A460021C9
:101B9000818B4FF67F7319401143818370470A464A
:101BA0000021818BC1F30E014FF6FF7303EA02237C
:101BB0001943818370470A460021018C4FF6FD735B
:101BC00019401143018470470A460021018C4FF6E9
:101BD000F77319401143018470470A460021018CB4
:101BE0004FF6DF7319404FF6FF7303EA02131943F0
:101BF000018470470A460021018C4FF67F7319401B
:101C00004FF6FF7303EA02131943018470470A4633
:101C10000021018C4FF6FF5319404FF6FF7303EA82
:101C200002231943018470470A460021018C4FF2B8
:101C3000FF7319404FF6FF7303EA0223194301842F
:101C400070470A460021018C4DF6FF7319404FF68C
:101C5000FF7303EA023319430184704730B5002350
:101C600001248C40A3B2048C9C430484048C02FAAB
:101C700001F5ADB22C43048430BD30B500230424FB
:101C80008C40A3B2048C9C430484048C02FA01F5BA
:101C9000ADB22C43048430BD70B50346002000244F
:101CA0001846183001258D40ACB21D8CA5431D840B
:101CB00009B1082909D100EB6100056825F070051C
:101CC00005600568154305600EE00D1FC5F34E0560
:101CD0002844056825F4E045056005684FF6FF7661
:101CE00006EA02263543056070BD21B1028842F044
:101CF0000202028004E002884FF6FD731A4002805F
:101D0000704721B1028842F00402028004E0028898
:101D10004FF6FB731A400280704721B1828842F06F
:101D20008002828004E082884FF67F731A408280AE
:101D3000704702884FF6F7731A40028002880A4300
:101D40000280704782884FF68F731A4082808288A3
:101D50000A438280704702894FF6F8731A40028165
:101D600002890A430281704702894FF67F731A4045
:101D7000028102890A43028170478184704781850C
:101D80007047818670470187704781877047A0F848
:101D90004010704702884FF6FF431A4002800288C5
:101DA0000A43028070470146888E70470146088FBB
:101DB00070470146888F70470146B1F84000704770
:101DC0000146888C70470146088D70470246002006
:101DD000138A0B4201D0012000E000207047CA4363
:101DE0000282704730B50246002000230024158A85
:101DF00005EA0103958905EA010413B10CB101203C
:101E000000E0002030BDCA430282704710B504468E
:101E1000FA48844208D101214015FEF71FFE002137
:101E20006015FEF71BFE17E0F548844208D101213A
:101E30000015FEF713FE00212015FEF70FFE0BE044
:101E4000F048844208D10121C803FEF707FE0021B3
:101E50004FF40040FEF702FE10BD30B502460020F0
:101E600000235068E84C20400D790C6844EA0524B2
:101E7000204350609068E54C2040D1E902542C4347
:101E80004D7944EA450420439060D06A20F4700004
:101E90000C7C641EE4B2234340EA0350D06230BDA0
:101EA00000210160017141718160C16001210174F3
:101EB000704721B1826842F00102826003E08268CB
:101EC00022F001028260704721B1826842F4807280
:101ED000826003E0826822F480728260704710B5ED
:101EE0000023CBB21AB144681C43446002E044684A
:101EF0009C43446010BD816841F0080181607047D7
:101F0000014600208A6812F0080F01D0012000E08D
:101F100000207047816841F00401816070470146EC
:101F200000208A6812F0040F01D0012000E0002098
:101F3000704721B1826842F4A002826003E08268A7
:101F400022F4A00282607047014600208A6812F4E1
:101F5000800F01D0012000E00020704710B50A4634
:101F600000210023416821F46041531E41EA4331BE
:101F7000416010BD21B1426842F40062426003E05A
:101F8000426822F4006242607047F0B504460D4694
:101F900000200021092D11DDE068A5F10A0606EBFD
:101FA0004607072606FA07F18843A5F10A0606EB5D
:101FB000460603FA06F10843E0600CE0206905EBF1
:101FC0004507072606FA07F1884305EB450603FA9D
:101FD00006F108432061072A0FDA606B561E06EBF4
:101FE00086071F2606FA07F18843561E06EB86066B
:101FF00005FA06F10843606322E00D2A0FDA206B30
:10200000D61F06EB86071F2606FA07F18843D61F60
:1020100006EB860605FA06F10843206310E0E06A45
:10202000A2F10D0606EB86071F2606FA07F1884384
:10203000A2F10D0606EB860605FA06F10843E062FA
:10204000F0BD21B1826842F48012826003E08268B0
:1020500022F48012826070470146C86C80B27047DB
:1020600066484C300068704721B1426842F4806293
:10207000426003E0426822F480624260704721B10E
:10208000426842F48052426003E0426822F4805287
:10209000426070470A460021816821F4E041114303
:1020A0008160704721B1826842F40042826003E09F
:1020B000826822F400428260704721B1826842F453
:1020C0000212826003E0826822F40212826070478A
:1020D000014600208A6812F4001F01D0012000E0B0
:1020E00000207047F0B50446154600200022002667
:1020F000092911DDE068A1F10A0707EB470C072762
:1021000007FA0CF29043A1F10A0707EB470703FA1D
:1021100007F21043E0600CE0206901EB410C072757
:1021200007FA0CF2904301EB410703FA07F2104360
:102130002061A06BC0F30156EF1C06F1010CA7EB68
:102140000C0707EB870C1F2707FA0CF29043EF1CD4
:1021500006F1010CA7EB0C0707EB870701FA07F262
:102160001043A063F0BD10B50A4600210023816B27
:1021700021F44011531E41EA0351816310BD08B59B
:10218000002300930090009B0B440093009B1A6077
:1021900008BD08B5024600200090009201F1280019
:1021A000009B184400900098006880B208BD0A4661
:1021B00000214168164B194011434160704741624C
:1021C000826270470A460021416821F01F011143D5
:1021D0004160704740B109490831096841F4000184
:1021E000064A0832116007E004490831096821F401
:1021F0000001024A083211607047000000240140CB
:1022000000280140003C0140FFFEF0FFFDF7F1FF18
:10221000FFFD3FFF0246002013680B4201D0012062
:1022200000E000207047CA430260704770B5024664
:102230000020002300240B125568CEB205EA0604E4
:1022400015681D4202D00CB1012000E0002070BDD5
:1022500000220A12D34303607047000001684FF662
:10226000FE72114001600021016041608160C16027
:102270008C49884208D18B490839496841F00F01DF
:10228000884A083A51608AE086491431884208D168
:1022900084490839496841F0F001824A083A51609E
:1022A0007DE080492831884208D17E490839496853
:1022B00041F470617B4A083A516070E079493C31E1
:1022C000884208D177490839496841F47041754A14
:1022D000083A516063E073495031884208D171492E
:1022E0000839496841F470216E4A083A516056E055
:1022F0006C496431884208D16A490839496841F417
:102300007001684A083A516049E06649783188426C
:1023100008D164490839496841F07061614A083A56
:1023200051603CE06049884206D1011F096841F0D4
:102330000F01021F116032E05B491431884208D15D
:102340005949091F096841F0F001574A121F1160ED
:1023500025E055492831884208D15349091F0968A9
:1023600041F47061504A121F116018E04E493C312F
:10237000884208D14C49091F096841F470414A4A12
:10238000121F11600BE048495031884207D146497D
:10239000091F096841F47021434A121F11607047F8
:1023A00010B50022026847F6F0739A430C6A8B68F6
:1023B00023430C6923434C6923438C692343CC6931
:1023C00023434C6A23438C6A23431A430260CB683D
:1023D00043600B6883604B68C36010BD00210160DF
:1023E00041608160C160016141618161C1610162DF
:1023F00041628162704721B1026842F001020260CD
:1024000004E002684FF6FE731A40026070471AB18A
:1024100003680B43036002E003688B43036070476B
:10242000416070470146486880B27047014600200D
:10243000002211F0805F03D01B4B083B1A6802E0BA
:10244000184B083B1A680A4201D0012000E0002026
:10245000704710F0805F03D01349091F086002E045
:10246000104908394860704701460020002211F0E9
:10247000805F03D00C4B083B1A6802E0094B083B15
:102480001A680A4201D0012000E00020704710F0D5
:10249000805F03D00449091F086002E00149083940
:1024A0004860704708000240080402409A490860EA
:1024B00070479949486070479749886070474AF665
:1024C000AA209549086070474CF6CC4092490860B4
:1024D000704701460020904AD2680A4201D001208C
:1024E00000E000207047C82000BF0100A0F10100FB
:1024F000FBD1704789488A4948608A4848607047DC
:102500008748006940F08000854908617047844829
:10251000C16811F0010F01D00120704711F0040FC4
:1025200001D00220F9E711F0100F01D00320F4E7E9
:102530000020F2E710B5034600BFFFF7E8FF0446AE
:10254000012C00D006E00120FFF7CDFF581E83B21A
:10255000002BF2D100BF03B9FF24204610BD30B5D7
:102560000546002445F6FF70FFF7E4FF0446C4B9B2
:102570006B48006940F002006949086108464561FE
:10258000006940F04000086145F6FF70FFF7D2FF98
:102590000446012C05D06248006920F00200604921
:1025A0000861204630BD70B505460E46FF20FFF796
:1025B000C1FF044694B95A48006940F001005849E7
:1025C00008612E80FF20FFF7B5FF0446012C05D0DF
:1025D0005348006920F0010051490861204670BD50
:1025E000014608887047F0B505460E461746002498
:1025F00007E036F814102846FFF7D5FFAD1C601C25
:1026000084B2BC42F5DBF0BD30B503460C4615463E
:10261000002207E01846FFF7E3FF24F812009B1C96
:10262000501C82B2AA42F5DB30BD2DE9F04F804646
:102630008A461746B8F1006F02D33B48804501D364
:10264000BDE8F08FFFF756FFA8F1006B4FEADB25DE
:10265000CBF34909C9F58064A74200DC3C464DE054
:102660004FF0006101EBC5204A143049FFF7CCFF61
:1026700000260BE009EB06002C4931F81000A0F50C
:102680007F41FF3900D003E0701C86B2A642F1DB27
:1026900000BFA6421BDA4FF0006101EBC520FFF737
:1026A0005EFF002608E03AF8160006EB09011F4A13
:1026B00022F81100701C86B2A642F4DB4FF00061D4
:1026C00001EBC5204A141949FFF78DFF04E02246AB
:1026D00051464046FFF787FFA74200D10FE06D1C2F
:1026E0004FF000090AEB440AA044381B87B2B7F543
:1026F000806F02DD4FF4806400E03C46B0E700BF2D
:10270000FFF7FEFE00BF9BE713B50446012201A9B7
:102710002046FFF78AFF1CBD0030004023016745BB
:1027200000200240AB89EFCD00000808FC0000202B
:10273000704700BFFEE700BFFEE700BFFEE700BF37
:10274000FEE770477047704710B500F0A5F910BD5F
:10275000704710B501218807FFF744FB40B1012104
:102760008807FFF750FB30480068401C2E4908607E
:1027700010BD10B501212D48FFF734FB40B10121F8
:102780002A48FFF740FB2A480068401C2849086097
:1027900010BD70B50025274C40F225512648FEF7A4
:1027A0006BFB00283FD02448001D0088C5B2234899
:1027B000007838B9AA2D31D1257001201F49087041
:1027C000A5712BE01D480078012807D16570022013
:1027D0001A490870A0792844A0711FE017480078B2
:1027E00002280ED1E179481CE071A01C4554A07963
:1027F0002844A071E079042810D103200F49087003
:102800000CE00E480078032808D1A079A84201D135
:1028100001202072002009490870E07140F2255122
:102820000548FEF753FB70BDEC000020000400409B
:10283000F000002012090020004400402800002081
:1028400008B501217C20FEF7EFF801210846FEF7CC
:10285000EBF801216748FDF700FF49F61170ADF86C
:10286000000014208DF8030003208DF80200694653
:102870006148FDF723FE4FF63C70ADF800001420D0
:102880008DF8030003208DF8020069465B48FDF7D0
:1028900015FE4FF6C070ADF8000014208DF803004F
:1028A00003208DF8020069465548FDF707FE4FF6F4
:1028B000F070ADF8000014208DF8030003208DF8AF
:1028C000020069464F48FDF7F9FD40F2FF70ADF890
:1028D000000014208DF8030003208DF802006946E3
:1028E0004948FDF7EBFD1820ADF8000014208DF8E5
:1028F000030003208DF8020069464048FDF7DEFD25
:102900004FF40040ADF8000014208DF803000320C0
:102910008DF8020069463848FDF7D0FD49F611717F
:102920003548FDF776FE4FF63C713448FDF771FEF1
:102930004FF6C0713248FDF76CFE4FF6F07131482A
:10294000FDF767FE40F2FF712F48FDF762FE0C2095
:10295000ADF8000048208DF8030003208DF8020038
:1029600069462848FDF7AAFD4FF4C040ADF80000C5
:1029700048208DF8030003208DF8020069462248A4
:10298000FDF79CFD4FF4C050ADF8000010208DF80D
:10299000030003208DF8020069461B48FDF78EFDF9
:1029A0000220ADF8000010208DF8030003208DF800
:1029B000020069461048FDF781FD4FF4C0511248EE
:1029C000FDF729FE02210C48FDF725FE4FF40040DB
:1029D000ADF8000010208DF8030003208DF80200F0
:1029E00069460948FDF76AFD4FF400410648FDF7C6
:1029F00012FE08BD0002300000080140000C01403A
:102A000000100140001401400018014030B5274873
:102A100000684FF47A72B0FBF2F1B1F1807F01D31C
:102A200001201BE021F07F40401E4FF0E02250616A
:102A300050170F22002806DA13011D4C00F00F0575
:102A40002D1F635502E013011A4C235400BF0020D0
:102A50004FF0E022906107201061002008B100BF14
:102A6000FEE74FF0E020006920F001004FF0E02188
:102A7000086130BD01B51049009808604FF0E020B2
:102A8000006940F001004FF0E021086100BF0A48F2
:102A900000680028FBD108BD0748006820B106483F
:102AA0000068401E044908607047000000000020D4
:102AB00018ED00E000E400E02C00002010B5044612
:102AC0000C2C74D2DFE804F08406111B252F384249
:102AD0004D5762744FF48071F748FDF79AFD4FF43B
:102AE0000061F648FDF795FD73E04FF48061F24810
:102AF000FDF78FFD1021F048FDF78BFD69E04FF4E5
:102B00008051ED48FDF785FD0821ED48FDF781FD79
:102B10005FE04FF48041E848FDF77BFD0421E84881
:102B2000FDF777FD55E04021E448FDF772FD2021D7
:102B3000E348FDF76EFD4CE04FF48071DF48FDF790
:102B400068FD1021DE48FDF764FD42E04FF480711E
:102B5000DC48FDF75EFD4FF40051D848FDF759FD04
:102B600037E04FF48061D748FDF753FD4021D4484A
:102B7000FDF74FFD2DE04FF48051D248FDF749FDA0
:102B80004FF40041CD48FDF744FD22E0CE480078E7
:102B900040F04000CC4908704221CB48007800F05A
:102BA000AFFE4FF48041C548FDF733FD11E00FE063
:102BB000C548007840F08000C34908704221C248EF
:102BC000007800F09DFE0121BE48FDF722FD00E0E7
:102BD00000BF00BF10BD70B505460C2D7ED2DFE8EA
:102BE00005F07D06101A25303B46505B66724FF4A7
:102BF0008051B248FDF70DFD1021B248FDF709FDE7
:102C00006DE04FF48061AD48FDF703FD8021AC48D5
:102C1000FDF7FFFC63E04FF40041AA48FDF7F9FC23
:102C20004FF48071A648FDF7F4FC58E04FF40061C2
:102C3000A448FDF7EEFC4FF40071A148FDF7E9FC54
:102C40004DE04FF400719F48FDF7E3FC4FF48061C5
:102C50009B48FDF7DEFC42E04FF400719748FDF71A
:102C6000D8FC4FF480619948FDF7D3FC37E0802110
:102C70009248FDF7CEFC4FF400619448FDF7C9FC83
:102C80002DE04FF400418C48FDF7C3FC4FF4005198
:102C90008E48FDF7BEFC22E04FF400518648FDF758
:102CA000B8FC4FF400418948FDF7B3FC17E04FF43E
:102CB00000618148FDF7ADFC4FF480518348FDF77A
:102CC000A8FC0CE00AE04FF400717B48FDF7A1FC82
:102CD0004FF480417D48FDF79CFC00E000BF00BF41
:102CE0007848FDF792FC48F610210840884201DA46
:102CF000012600E000267548FDF787FC00F46C40D3
:102D0000B0F56C4F01DA012000E0002006436B486B
:102D1000FDF77BFC00F4B450B0F5B45F01DA01209C
:102D200000E0002006436448FDF76FFC00F42240F9
:102D3000B0F5224F01DA012000E000200643604890
:102D4000FDF763FC00F4F060B0F5F06F01DA0120EC
:102D500000E00020064308D1012404E02046FFF7EC
:102D6000ADFE601CC4B2092CF8DD70BD70B505461F
:102D70000C4615B1012D6ED14DE00C2C48D2DFE888
:102D800004F047060C12181E242A2F353B414FF43D
:102D900080514A48FDF73FFC3BE04FF480614748D3
:102DA000FDF739FC35E04FF400414648FDF733FCB0
:102DB0002FE04FF400614348FDF72DFC29E04FF46C
:102DC00000714048FDF727FC23E04FF400713B48B9
:102DD000FDF721FC1DE080213848FDF71CFC18E0C0
:102DE0004FF400413448FDF716FC12E04FF4005157
:102DF0003148FDF710FC0CE04FF400612E48FDF760
:102E00000AFC06E04FF400712B48FDF704FC00E0DB
:102E100000BF00BF4EE00C2C48D2DFE804F04706AC
:102E20000B10161D23292F353B4110212548FDF796
:102E3000F2FB3CE080212248FDF7EDFB37E04FF448
:102E400080711F48FDF7E7FB31E04FF400711C482B
:102E5000FDF7E1FB2BE02CE04FF480611848FDF713
:102E6000DAFB24E04FF480611848FDF7D4FB1EE044
:102E70004FF400611548FDF7CEFB18E04FF4005108
:102E80001248FDF7C8FB12E04FF400410F48FDF770
:102E9000C2FB0CE04FF480510C48FDF7BCFB06E090
:102EA0004FF480410948FDF7B6FB00E000BF00BFCA
:102EB00000E000BF00BF70BD0014014000100140E1
:102EC000001801400008014047000020000C0140AC
:102ED00070B505460C4615B1012D6FD159E00C2C8B
:102EE00054D2DFE804F053060C12181E23292F35A4
:102EF0003B474FF48071DD48FDF78DFB47E04FF411
:102F00008061DA48FDF787FB41E04FF48051D748F4
:102F1000FDF781FB3BE04FF48041D448FDF77BFB9C
:102F200035E04021D248FDF776FB30E04FF4807168
:102F3000CF48FDF770FB2AE04FF48071CD48FDF7D4
:102F40006AFB24E04FF48061CA48FDF764FB1EE091
:102F50004FF48051C748FDF75EFB18E0C648007883
:102F600000F0BF00C44908704221C348007800F057
:102F7000C7FC0CE0C048007800F07F00BE49087034
:102F80004221BD48007800F0BBFC00E000BF00BF5C
:102F900049E00C2C43D2DFE804F042060C12171C67
:102FA00021262C31373D4FF40061B148FDF733FB4A
:102FB00036E01021AD48FDF72EFB31E032E008216C
:102FC000AE48FDF728FB2BE00421AC48FDF723FBBE
:102FD00026E02021A948FDF71EFB21E01021A7488B
:102FE000FDF719FB1CE04FF40051A148FDF713FB5E
:102FF00016E04021A148FDF70EFB11E04FF400411F
:103000009B48FDF708FB0BE04FF480419848FDF723
:1030100002FB05E001219748FDF7FDFA00E000BF43
:1030200000BF00E000BF00BF70BD2DE9FF4F87B0BB
:103030008A4614469B464FF00009BAF1090F11D198
:103040000B2C0FD151460798FFF742FF21460798F6
:10305000FFF78CFE4FF4FA70FFF70CFD48460BB0FB
:10306000BDE8F08F4FF000093BE051460798FFF7AD
:103070002FFF21460798FFF779FE9620FFF7FAFC0D
:103080007F48007801F068FF07467E4A7E4B01F0DA
:10309000ECFE00227D4BCDE9000101F03FFE002255
:1030A0007B4BCDE9020101F0E0FE05460E46611EB4
:1030B000784A32F8110001F04FFF2A463346CDE935
:1030C000040101F069FF07D22046FFF784FD4FF4A9
:1030D000FA70FFF7CFFC00E005E009F1010000F015
:1030E000FF09D945C1DB00BF4846B8E770B50546C2
:1030F000002629460020FFF7EBFE012417E02146B9
:103100000020FFF733FEC820FFF7B4FC601E6149C2
:1031100031F8100040F20461884206DD2046FFF7D6
:103120005AFD4FF4FA70FFF7A5FC601CC4B2092CDD
:10313000E5DD002405E0574830F814000644601C23
:10314000C4B2092CF7DB314653A002F043F870BD3E
:1031500010B5012407E02046FFF7B0FC2046FFF73A
:103160003AFD601CC4B2092CF5DD0A20FFF7A6FC6D
:103170000B20FFF7A3FC0B20FFF72DFD4FF4FA7097
:10318000FFF778FC10BD70B500243A48FDF73DFA12
:1031900048F610210840884201DA012500E00025A8
:1031A0004448FDF732FA00F46C40B0F56C4F01DA98
:1031B000012000E0002005432D48FDF726FA00F429
:1031C000B450B0F5B45F01DA012000E000200543FF
:1031D0002648FDF71AFA00F42240B0F5224F01DA32
:1031E000012000E0002005432448FDF70EFA00F41A
:1031F000F060B0F5F06F01DA012000E00020054337
:103200001C48FDF702FA41F201510840B0F5A85FF1
:1032100001DC012000E0002005431548FDF7F5F929
:103220004EF640110840884201DA012000E00020FB
:1032300005430E48FDF7E9F945F210510840884270
:1032400001DA012000E0002005430C48FDF7DDF91C
:1032500000F07C007C2801DA012000E0002005431A
:1032600001D1002400E00124204670BD001401407B
:1032700000100140000801404700002000180140F4
:10328000450000209A9999999999B93F0000F03F1B
:1032900000109840FC0800200D0A746F74616C20C7
:1032A00063757272656E74206973202564200D0A3F
:1032B00000000000000C014000B587B0012104208F
:1032C000FDF7B2FB01214804FDF7BBFB0420ADF87C
:1032D000180018208DF81B0003208DF81A0006A98D
:1032E0009A48FDF7EBF80820ADF8180004208DF897
:1032F0001B0006A99548FDF7E1F84FF4E130029074
:103300000020ADF80C00ADF80E00ADF81000ADF8DF
:1033100014000C20ADF8120002A98D48FDF72FFC17
:103320004FF4C060FCF7FCFF26208DF8040000205D
:103330008DF805008DF8060001208DF8070001A822
:10334000FCF7F3FF012240F225518148FDF7AFFC65
:1033500001217F48FDF79FFC07B000BD70B5044612
:103360000D46E1B27A48FDF703FD00BF78480088BA
:1033700010F0800FFAD0204670BDF0B503460D4620
:103380001646002729460A2E03D00020087028463A
:10339000F0BD33B9302001F8010B00200870284639
:1033A000F6E7002B03DA2D2001F8010B5B4242F215
:1033B00010720DE093FBF2F404B937B104F1300060
:1033C00001F8010B04FB123301270A2092FBF0F2F3
:1033D000002AEFDC002008702846D9E70FB470B54A
:1033E00086B006460CA801904FF400415948FDF7FD
:1033F00010F90120FFF73EFB73E00B9800785C2882
:103400001CD10B98401C0B9000786E2809D07228B4
:103410000FD10D213046FDF7ABFC0B98401C0B90F3
:103420000BE00A213046FDF7A3FC0B98401C0B90E3
:1034300003E00B98401C0B9000BF4BE00B9800780A
:10344000252840D10B98401C0B900078642818D098
:10345000732833D1019810C801900BE021783046D1
:10346000FDF786FC00BF40213046FDF7EFFC002849
:10347000F9D0641C20780028F0D10B98401C0B90E8
:1034800020E0019820C801900A2202A92846FFF7EF
:1034900074FF02AC0BE021783046FDF769FC00BFF9
:1034A00040213046FDF7D2FC0028F9D0641C20787A
:1034B0000028F0D10B98401C0B9003E00B98401CA7
:1034C0000B9000BF06E00B9810F8011B0B903046E4
:1034D000FDF74EFC00BF40213046FDF7B7FC002849
:1034E000F9D00B980078002887D14FF40041194893
:1034F000FDF791F80120FFF7BDFA06B070BC5DF84A
:1035000014FB70B504464FF400411248FDF781F8F2
:103510000120FFF7AFFA00250CE014F8011B0C485E
:10352000FDF726FC00BF0A48008810F0800FFAD093
:10353000681CC5B2072DF0DB4FF400410548FDF7CC
:103540006AF80120FFF796FA70BD000000080140FC
:10355000004400400018014008B5E020ADF800002C
:1035600000208DF8030069466C48FCF7A7FF032094
:10357000ADF8000000208DF8030069466848FCF7AC
:103580009DFF3F20ADF8000000208DF80300694644
:103590006448FCF793FF08BD00B591B001210846CF
:1035A000FDF735FA01214802FDF73EFA5E48FEF7C5
:1035B00055FE5E4806905E480790002008900B205C
:1035C000099000200A9080200B9040000C90800011
:1035D0000D9020200E9000020F900020109006A960
:1035E0005148FEF7DDFE01214F48FEF704FF4F482A
:1035F0004C38FEF70BFC0020019001208DF80800EC
:103600008DF809004FF460200390002004900B20F7
:103610008DF8140001A945484C38FEF71EFC4FF404
:103620000040FDF768F90523012219463F484C3850
:10363000FEF7ABFC0523022206213C484C38FEF77E
:10364000A4FC05230322072138484C38FEF79DFCD3
:1036500005230422082135484C38FEF796FC052343
:103660001A46092131484C38FEF78FFC0523062203
:103670000A212E484C38FEF788FC052307220B212F
:103680002A484C38FEF781FC052308220C212748E4
:103690004C38FEF77AFC052309220D2123484C38CB
:1036A000FEF773FC05230A220E2120484C38FEF752
:1036B0006CFC05230B220F211C484C38FEF765FCDF
:1036C00001211A484C38FEF7FFFB012117484C38FE
:1036D000FEF7EFFB15484C38FEF70DFC00BF134812
:1036E0004C38FEF70DFC0028F9D110484C38FEF795
:1036F00011FC00BF0D484C38FEF711FC0028F9D131
:1037000001210A484C38FEF714FC11B000BD10B579
:10371000FFF722FFFFF740FF10BD00000008014047
:10372000000C014000100140080002404C24014000
:10373000FC080020962001E0411EC8B20028FBD101
:10374000704700B540209549086080200860FFF769
:10375000F1FF924808380068002000B100BD402009
:103760008E49091D0860FFF7E5FF8C48083800689E
:1037700010F0400F01D00020F0E740208749091DDC
:103780000860FFF7D7FF0120E8E700B580208349F4
:10379000091D0860FFF7CEFF40208049091D086021
:1037A000FFF7C8FF80207D490860FFF7C3FF402076
:1037B0007A490860FFF7BEFF00BD00B58020774959
:1037C000091D0860FFF7B6FF40207449091D086015
:1037D000FFF7B0FF802071490860FFF7ABFF802042
:1037E0006E49091D0860FFF7A5FF00BD00B58020E8
:1037F0006A49091D0860FFF79DFF4020674908607E
:10380000FFF798FF802065490860FFF793FF80204D
:103810006249091D0860FFF78DFF00BD00B58020DB
:103820005E49091D0860FFF785FF40205B4908607D
:10383000FFF780FF802059490860FFF77BFF57485A
:103840000838006810F0400F05D080205349091D4A
:103850000860002000BD80205049091D086001203B
:10386000F8E700B50246082319E080204B49091DFE
:103870000860FFF75FFF12F0800F03D04020474938
:10388000086003E040204549091D08605006020E0B
:10389000FFF750FF802041490860FFF74BFF1800F9
:1038A000A3F10101CBB2E0D180203C49091D0860A1
:1038B00000BD00B50823002240203849086014E00C
:1038C0005006020E80203549091D0860FFF732FFBF
:1038D000802032490860FFF72DFF30480838006823
:1038E00010F0400F01D042F001021800A3F10101D5
:1038F000CBB2E5D180202949091D0860104600BDE2
:1039000030B505460C46FFF71CFF08B9002030BD56
:103910002046FFF7A6FFFFF781FF18B9FFF735FF35
:103920000020F4E72846FFF79CFFFFF777FFFFF73B
:103930002CFF0120EBE730B504460D46FFF701FFF1
:1039400008B9002030BD45F00100FFF78AFFFFF7FE
:1039500065FFFFF7AEFF2070FFF748FFFFF715FF89
:103960000120EFE708B5C020ADF8000003208DF876
:10397000020014208DF80300694608481038FCF74F
:103980009DFD08BD30B505460C4640212846FFF791
:10399000B7FF42212046FFF7B3FF30BD100C0140B6
:1039A00010B504460C2C47D2DFE804F046060B1095
:1039B000151A1F242A30353A40214D48FCF729FEBC
:1039C0003BE020214A48FCF724FE36E00821494824
:1039D000FCF71FFE31E080214548FCF71AFE2CE081
:1039E00020214448FCF715FE27E010214148FCF750
:1039F00010FE22E04FF400713E48FCF70AFE1CE086
:103A00004FF480713B48FCF704FE16E002213A486F
:103A1000FCF7FFFD11E001213748FCF7FAFD0CE04F
:103A20003648007840F0200034490870422133487D
:103A30000078FFF765FF00E000BF00BF10BD10B5C4
:103A4000002405E0611CC8B2FFF7AAFF601CC4B2E5
:103A50000B2CF7DB10BD10B54FF44E712548FCF769
:103A6000DAFDE0212248FCF7D6FD03212248FCF7CD
:103A7000D2FD2248007800F0DF0020490870422182
:103A80001E480078FFF73CFF10BD70B500250124EB
:103A900019E0FFF7E0FF2046FFF782FF3220FEF734
:103AA000E9FF4FF400511448FCF799FD28B1601E5E
:103AB000012101FA00F0054303E0601E012181406D
:103AC0008D43601CC4B20A2CE3DDFFF7B8FFFFF79B
:103AD000C2FF3220FEF7CEFF4FF400510648FCF73C
:103AE0007EFD08B945F48065FFF7A9FFA8B270BD57
:103AF00000140140000C0140001801404700002064
:103B00000021FE4A11705170002005E00022FB499F
:103B1000891C0A54411CC8B20428F7DB0021F74A6B
:103B20009171704708B5FEF771FFFEF789FEFFF748
:103B300019FFF3480178F3480078FFF723FFFFF7F8
:103B4000BBFBFFF7E4FD01F01BF801F029F801F0E1
:103B500053F801F062F84021EB48FFF7ECFE28B380
:103B60000020EA49086017E0E8480078001D0121BC
:103B700001FA00F0E44909780840E449097849006D
:103B8000491C0841E24909780843E1490870DF48C7
:103B90000068401CDD490860DC4800680428E3D365
:103BA000DB480278DBA1E048FFF718FCD848007832
:103BB0000A2876D10120DD4908706EE00120DC4939
:103BC000087061E0FFF7C4FA0223D9480278D748A9
:103BD00001780020FFF729FAD649087008460078D6
:103BE0000090D3480378D1480278D3A1CE48FFF79C
:103BF000F5FBD0480078022803DA0220DA49087081
:103C000002E00020D84908704FF4FA70FEF732FF46
:103C10002DE00020D54908600FE0C5480078401E1F
:103C2000D34931F81000D34909680844D1490860E4
:103C3000CE480068401CCD490860CC480068032885
:103C4000EBD3CC480068B0F5676F0AD9B848007864
:103C5000FEF7C1FF0020C4490870C7A1B248FFF7B2
:103C6000BDFB0020C34908600120FEF703FFBE48EA
:103C700000780228CDD04FF4FA70FEF7FBFEAC4876
:103C80000078401CAA490870A94800780A2899DBE6
:103C9000A6480078401CA5490870A44800780A2866
:103CA0008CDB9B480078052876D101209F4908705D
:103CB0006EE001209E49087061E0FFF749FA072392
:103CC0009B480278994801780120FFF7AEF999499D
:103CD0000870084600780090954803789348027869
:103CE000A9A19148FFF77AFB92480078072803DAE8
:103CF00001209D49087002E000209B4908704FF4A4
:103D0000FA70FEF7B7FE2DE00020984908600FE03A
:103D100087480078401E964931F810009549096897
:103D200008449449086091480068401C8F49086025
:103D30008E4800680328EBD38E480068B0F5676FA3
:103D40000AD97B480078FEF746FF002086490870B4
:103D500089A17548FFF742FB0020864908600120D1
:103D6000FEF788FE804800780128CDD04FF4FA7025
:103D7000FEF780FE6E480078401C6D4908706C4864
:103D800000780A2899DB69480078401C6749087068
:103D9000664800780A288CDB8648FFF7B2FBF4E31C
:103DA000854800780A2875D2DFE800F07405223DC6
:103DB0004875A5A4A3A242218048FFF7BCFD7F4817
:103DC000007810F008007D49087010D13220FEF70D
:103DD00051FE42217948FFF7AEFD7848007810F097
:103DE00008007649087002D10220734908706FE11B
:103DF00004217348FCF7F3FB88B9FFF7C4F988B9CD
:103E00007048FFF77EFBFFF7A3F907230B22092178
:103E10000120FFF70AF903206749087002E0042037
:103E20006549087054E104216548FCF7D8FB20B1CE
:103E3000FFF78EF904206049087049E16248007874
:103E4000C8B942216148FFF776FD6048007810F05C
:103E500004005E4908701CD00520574908700020F6
:103E60005B49086001210220FCF7EBFD0121594864
:103E7000FDF7EFFC0DE004204F4908700020544985
:103E8000086000215348FDF7E4FC00210220FCF704
:103E9000D8FD1DE11BE14C48007838BB4C48006858
:103EA000B0F5FA7F23D30020494908600021494832
:103EB000FDF7CFFC00210220FCF7C3FD422143485F
:103EC000FFF739FD4148007810F004003F490870C1
:103ED00012D006203849087000203D4908600121B1
:103EE0000220FCF7AEFD01213A4875E07EE08BE050
:103EF000ECE0CFE0AFE088E074E0000012090020C1
:103F0000470000204600002048000020300000202C
:103F10004900002052756E4D6F646520697320253D
:103F2000642E0D0A0000000000440040E50000205F
:103F3000E4000020E60000200D0A20526F772025C3
:103F4000642C20436F6C2025642C205374617274A0
:103F500054696D65732025642C204261636B776121
:103F600072640D0A00000000E3000020340000200D
:103F7000FC080020D00000204D6F746F7220537435
:103F80006F707065640D0A000D0A20526F7720254E
:103F9000642C20436F6C2025642C20537461727450
:103FA00054696D65732025642C20466F72776172A9
:103FB000640D0A0056000020E20000204B000020A3
:103FC00000140140AA000020550000204C000020F1
:103FD000F000002000040040FDF73BFCFB48FFF729
:103FE00090FA11E00420FA4908700DE00420F84925
:103FF00008700020F74908600021F748FDF729FC08
:1040000000210220FCF71DFD62E0F448007898B919
:10401000F0480068B0F5FA7F1CD30720EC4908701F
:104020000021ED48FDF715FC00210220FCF709FDF9
:104030000020E84908600DE00420E54908700020F0
:10404000E44908600021E448FDF703FC0021022058
:10405000FCF7F7FC3CE0E1480078B8B90821E048FB
:10406000FCF7BDFA70B1FFF78EF890B9FFF770F862
:1040700007230B2209210020FEF7D7FF0820D4498F
:10408000087006E00120D249087002E00420D049FF
:1040900008701DE0D148007890B90421D048FCF7A1
:1040A0009EFA90B90821CE48FCF799FA68B96420C5
:1040B000FEF7E0FCFFF74CF80120C549087004E06A
:1040C0000120C3490870FFF743F801E000E000BF9A
:1040D00000BFC448007A00287ED00020C149087281
:1040E000C148FFF70EFABF484078172875D2DFE8BD
:1040F00000F074FC741183FBFAF9F8F7F6F5F4F3A9
:10410000F2F1F0EFEEEDECEB0C00B6488078B74939
:104110000870E3E2FFF737F8F0BBB248C078B14966
:10412000897840EA0120B2490860AE4841790079B7
:1041300041EA0020AF4908600020AF49086048E02C
:10414000AB480068AC490978C84010F0010F3BD07B
:104150000020AA49086033E0A6480068A74909780A
:10416000C84010F0010F26D0A3480078401CA44995
:104170008870A2480078401CC870FEF7E9FF07234A
:104180009E480268521C9C480168491C0120FEF7A9
:104190004CFF9B49087100E027E097480078B73052
:1041A00096490978084496490979084494498871E0
:1041B0000846FFF7A6F991480068401C8F4908603F
:1041C0008E4800680B28C7D38B480068401C8A497A
:1041D00008608948006801E083E27EE20B28AFD3E3
:1041E0004FF4FA70FEF746FC02E08648FFF789F9C3
:1041F00000207E49087071E2FEF7C5FFF0BB7948E8
:10420000C0787849897840EA012079490860754882
:104210004179007941EA002076490860002076491A
:10422000086048E07248006873490978C84010F097
:10423000010F3BD000207149086033E06D480068F1
:104240006E490978C84010F0010F26D06A480078FE
:10425000401C6B49887069480078401CC870FEF7A4
:1042600077FF072365480268521C63480168491CB0
:104270000020FEF7DAFE6249087100E036E05E4891
:104280000078B7305D49097808445D4909790844E8
:104290005B4988710846FFF734F958480068401CAC
:1042A00056490860554800680B28C7D35248006833
:1042B000401C51490860504800680B28B2D34FF4A5
:1042C000C870FEF7D7FB14E0F2E1E4E1C1E1DEE102
:1042D000D9E1A9E18FE142E116E10AE1BEE0B3E0F4
:1042E00054E0A8E09EE04AE007E0C0E04548FFF760
:1042F00008F900203D490870F0E1FEF729FF424827
:10430000FCF783F948F610210840884201DA0124BD
:1043100000E000243D48FCF778F900F46C40B0F56B
:104320006C4F01DA012000E0002004433848FCF71C
:104330006CF900F4B450B0F5B45F01DA012000E08C
:10434000002004432648FCF760F900F42240B0F551
:10435000224F01DA012000E0002004432D48FCF741
:1043600054F900F4F060B0F5F06F01DA012000E0DC
:104370000020044302D12848FFF7C3F8AEE1FEF75E
:10438000E7FE18498878FEF7B1FEA7E1FFF77DFB4D
:1043900022490860084600782149C8701F480088F3
:1043A000000A887008468078B230C97808441C49F1
:1043B00088710846FFF7A5F80020184908601849D9
:1043C000C8708870B220887188E10000B1000020B8
:1043D000E2000020F0000020000400405500002012
:1043E0000014014012090020560000204500002062
:1043F000CC000020C8000020300000203400002045
:10440000A3000020B800002000080140000C01407B
:1044100000100140001801409500002050000020CD
:104420008E000020FFF717FB0120FD490870FD48B2
:10443000FFF767F852E1FFF702FB0020F849087028
:10444000F948FFF75EF849E1FEF782FE0A210020F5
:10445000FEF78CFCF548FFF754F83FE1FEF778FED5
:104460000A20FEF7B8FBF248FFF74BF836E140218F
:10447000F048FFF760FA88B3EE48007800F00F00CC
:10448000ED4988700020ED49086017E0EB4800789E
:10449000001D012101FA00F0E64909780840E749CA
:1044A00009784900491C0841E349C9780843E249B1
:1044B000C870E2480068401CE0490860DF480068B6
:1044C0000428E3D3DC488078AB30DB49C978084462
:1044D000D94988710846FFF714F809E0FFE7FF2083
:1044E000D5498870C870A92088710846FFF709F877
:1044F000F4E04221D248FFF71EFAD1480278D1A158
:10450000D748FEF76BFFE9E04FF40051D548FCF7C0
:1045100066F804462246D4A1D148FEF75FFF042185
:10452000D548FCF75CF804462246D4A1CC48FEF7F7
:1045300055FF4FF48041CB48FCF751F80446224622
:10454000D2A1C748FEF74AFF0821CB48FCF747F83D
:1045500004462246D1A1C248FEF740FFBEE0D34840
:104560008078012812D1C102BE48FCF754F84FF4FC
:104570008051BC48FCF74DF80221CD48FCF749F8C2
:10458000CCA1B748FEF72AFF34E02FE2C748807875
:10459000022811D1C102B348FCF73DF84FF4006185
:1045A000B048FCF736F80221C148FCF732F8CAA13E
:1045B000AB48FEF713FF1DE0BC48807803280CD100
:1045C000C102A848FCF725F80221B948FCF721F8F8
:1045D000CAA1A348FEF702FF0CE04FF4C051A14866
:1045E000FCF719F80221B248FCF715F8CCA19C4859
:1045F000FEF7F4FE72E008219F48FBF7F0FF90B150
:10460000D4480078012803D0D248007809280AD17C
:10461000FEF79EFD07230B2209210020FEF705FD72
:104620000120CD49087059E004219348FBF7D7FFDA
:1046300070B9C848007801280AD1FEF789FD072320
:104640000B2209210120FEF7F0FC0120C34908706C
:1046500044E000207949086010E0C14877490968C2
:1046600030F8113075480268521CBEA17C48FEF734
:10467000B5FE72480068401C704908606F480068C9
:104680000B28EAD32AE00120C149087026E0002067
:10469000BF49087022E00322BE49BF48FDF7B4FFBE
:1046A000BC480379C278BDA16D48FEF797FE15E0BE
:1046B0000020BC49C87008710322B748FDF7B5FF58
:1046C0000322B449B448FDF79FFFB2480379C2788A
:1046D000B2A16348FEF782FE00E000BF00BFFFF713
:1046E0000FFA4F48007858B14FF400515D48FBF77E
:1046F00076FF012804D1FEF72BFDAB48FEF701FF42
:1047000000204E49086039E00020A84908600EE00A
:1047100093484A49096830F81100A54909680844D6
:10472000A3490860A1480068401CA04908609F4850
:1047300000680328ECD39E480068B0F5676F15D970
:104740003E480068401CFEF746FA3C480078401C92
:104750009849887039480078B53088710846FEF766
:10476000D0FE002093498870B420887100209049C1
:10477000086032480068401C304908602F480068D3
:104780000A28C1D30020894908600BE07448808A58
:104790008749096808448649086084480068401CC5
:1047A00082490860814800680328EFD3694800788F
:1047B000032804D141F20C207F49086003E042F253
:1047C00010707D4908607A4800687B490968884212
:1047D00011D90B2077498870BF2088710846FEF7F1
:1047E00090FE002073498870B420887101205949D7
:1047F0000870FEF7ADFC00206D490860564800784F
:1048000068B108211C48FBF7EAFE40B904211A48A8
:10481000FBF7E5FE18B96420FEF72CF9CEE0D5E0F1
:10482000D8000020800000208700002072000020B7
:1048300079000020480000205D00002030000020AA
:104840004B00002020493243206164647265737319
:10485000656420307834322069732025640D0A00A5
:10486000004400400018014020535F53454E312062
:1048700069732025640D0A000014014020535F5322
:10488000454E322069732025640D0A0020535F5382
:10489000454E332069732025640D0A0020535F5371
:1048A000454E342069732025640D0A00120900204A
:1048B0000008014020456E61626C65204C32393839
:1048C0002C2054435F53313D312C2054435F5332ED
:1048D0003D30200D0A00000020456E61626C6520AD
:1048E0004C3239382C2054435F53313D302C205406
:1048F000435F53323D31200D0A00000020456E61B8
:10490000626C65204C3239382C2054435F53313D62
:10491000312C2054435F53323D31200D0A000000FA
:1049200044697361626C65204C32393820616E6471
:1049300020416C6C20636F6E74726F6C20706F72AC
:104940007420697320736574207A65726F200D0A74
:1049500000000000E2000020E0000020E100002054
:10496000FC0800200D0A207468652063757272656A
:104970006E74206F6620436F6C756D6E2025642009
:1049800069732025642F34363230412E0D0A000021
:10499000550000203E00002000000708202564206C
:1049A00025640000380000206B0000203400002047
:1049B000D00000209C000020D4000020FEF7C8FB9F
:1049C00000205C49087001205B4908705B48007852
:1049D00060B104215A48FBF702FE38B1FEF7B8FB7C
:1049E000002056490870092053490870FFF7D8B9CC
:1049F0002DE9F0470020534908602BE05249514A05
:104A0000126831F8120000F0A2FA81464FF08B4193
:104A100000F044F9044600F0ACFA074600224B4B84
:104A200000F023FA054600F0CBFA494908606420FB
:104A3000FEF720F84648006800F09BFA044622463C
:104A40000B4644A14548FEF7C9FC3E480068401C9F
:104A50003C4908603B4800680B28CFD340A13F4841
:104A6000FEF7BCFCBDE8F08710B549F611713D4872
:104A7000FBF7CFFD4FF63C713B48FBF7CAFD4FF605
:104A8000C0713A48FBF7C5FD4FF6F0712C48FBF7B3
:104A9000C0FD40F2FF713648FBF7BBFD4FF4FA70E2
:104AA000FDF7E8FF49F611712E48FBF7B4FD4FF60C
:104AB0003C712D48FBF7AFFD4FF6C0712B48FBF75B
:104AC000AAFD4FF6F0711E48FBF7A5FD40F2FF71FD
:104AD0002748FBF7A0FD4FF47A70FDF7CBFF10BD20
:104AE00010B5244800782449087040212148FEF779
:104AF00022FF224908706420FDF7BCFF1E480078A1
:104B00001C490978884213D042210020FEF7F8FEA4
:104B10001A4908704FF4FA70FDF7ACFF4221FF20EC
:104B2000FEF7EEFE154908704FF4FA70FDF7A2FF8C
:104B300010BD0000E0000020E2000020E1000020A5
:104B40000014014030000020FC0800200000044058
:104B5000E80000202D2D3E25665600000044004050
:104B60000D200A0000080140000C01400010014027
:104B700000180140F5000020F4000020F60000209D
:104B800008B51C208DF8000000208DF801000120E0
:104B90008DF802008DF803006846FBF7C6FB08BDE0
:104BA0000EB501210846FBF74CFF4FF08040FCF7A3
:104BB00011FA42F21070ADF804004720ADF8000081
:104BC0000020ADF80600ADF8020069464FF08040C5
:104BD000FCF7D4FA01218807FDF701F901221146FB
:104BE0009007FCF751FE01218807FCF732FE0021F7
:104BF0000120FBF726FF0EBD08B51D208DF8000033
:104C000000208DF8010002208DF8020001208DF8AF
:104C100003006846FBF789FB08BD0EB501210220A1
:104C2000FBF70FFF1348FCF7D5F942F21070ADF80F
:104C300004004720ADF800000020ADF80600ADF8F4
:104C4000020069460B48FCF799FA01210948FDF773
:104C5000C6F8012211460748FCF716FE0121054857
:104C6000FCF7F7FD00210220FBF7EBFEFCF748F90B
:104C70000EBD00000004004006488047064800477B
:104C8000FEE7FEE7FEE7FEE7FEE7FEE7FEE7FEE7FC
:104C9000FEE7FEE7210200083101000830B480EA97
:104CA000010202F0004530F0004221F0004015D032
:104CB000A0B1C0F3C753C2F3C754C2F31601C0F387
:104CC0001600E41A41F4000140F400027D349142E0
:104CD00001D3641C00E04900002C02DA30BC002043
:104CE00070474FF400000023914201D3891A034317
:104CF00040084FEA4101F7D151B1914202D14FF042
:104D0000004105E002D24FF0010101E06FF0010126
:104D100003EBC450284430BC00F0A5B92DE9FE4F88
:104D2000804681EA0300C00F0C46009021F000414C
:104D300023F00045B8EB0200A94105D240462146C8
:104D400090461C460B46024623F00040104304D117
:104D50004046214603B0BDE8F08F270DC7F30A0097
:104D6000C3F30A510290401A0190402866DAC3F357
:104D7000130040F4801B0098924620B10023D2EB30
:104D8000030A63EB0B0B01985946C0F140025046F1
:104D900000F048F906460D4650465946019A00F083
:104DA00050F910EB08006141002487EA115284EAAF
:104DB000E7731A433BD0009A3AB3019A012A4FEAAB
:104DC000075210DC001B61EB02014FF0004202EAC7
:104DD0000752CDE90042001C41F5801132462B46B6
:104DE00000F084F9B6E7001B61EB0201001C41F5FD
:104DF000801300185B412018A2F5001747EB030150
:104E000040EAD570B6196D4111E06D084FEA3606DB
:104E100045EAC0754FEA0752001B61EB0201001C16
:104E200041F5801149084FEA3000001951413246DE
:104E30002B4603B0BDE8F04F00F04BB900980122BB
:104E400040000023D0EB020263EBE07300982146A0
:104E50004FEAE074B8EB000061EB0401E9E783F08E
:104E600000435BE781F0004158E72DE9FE4F81EAFE
:104E7000030404F0004421F0004100944FF0000BC3
:104E800023F0004350EA010402D052EA030404D1A3
:104E90000020014603B0BDE8F08FC3F30A54C1F30C
:104EA0000A552C44A4F2F3340194A0FB0254C1F33C
:104EB000130141F48011C3F3130343F4801301FB86
:104EC000024400FB034E840A970A44EA815447EAED
:104ED0008357A4FB076802958D0A05FB07854FEAF7
:104EE000932C04FB0C542705029D4FEA065847EA11
:104EF0001637B5EB08056EEB070C870E920E47EAE6
:104F0000811742EA8312A7FB0201B6EB0B0164EBA7
:104F100000042B0D43EA0C335E1844EB1C50DA46B8
:104F20005146E7FB0201C5F313044FEA0B3343EA92
:104F300014534FEA0432019C43EA0603A4F10C0423
:104F40000294009CCDE900B400F0D0F8A2E79623CB
:104F50000022114600F090B80EB540F233410291A4
:104F60000021CDE900110A460B4600F0BFF803B05E
:104F700000BD00F0004230F000400AD0C10D01F544
:104F80006071C0F3160042EA0151C20840071143A4
:104F9000704700200146704730B5002904DB4FF010
:104FA0000044404264EB0101002B04DB4FF000445D
:104FB000524264EB0303994208BF904230BD0000A7
:104FC00001F0004330B421F0004150EA010206D064
:104FD0000A0DA2F56072C1F31301002A02DC30BC95
:104FE00000207047440F44EAC104C100E01830BCFF
:104FF00000EBC25000F037B830B50B460146002038
:105000002022012409E021FA02F59D4205D303FA8A
:1050100002F5491B04FA02F52844151EA2F101020B
:10502000F1DC30BD202A04DB203A00FA02F1002036
:1050300070479140C2F1200320FA03F319439040D6
:105040007047202A06DBCB17203A41FA02F043EAE8
:10505000E07306E041FA02F3D040C2F12002914031
:105060000843194670470029A8BF7047401C4900F3
:1050700008BF20F00100704710B4B0FA80FC00FABD
:105080000CF050EA010404BF10BC704749B1CCF1E8
:10509000200421FA04F411FA0CF118BF0121214374
:1050A0000843A3EB0C01CB1D0106000A002BBEBF79
:1050B000002010BC704700EBC35010440029A4BF6F
:1050C00010BC7047401C490008BF20F0010010BC14
:1050D000704710B5002B08DA401C41F1000192180E
:1050E0005B411A4301D120F0010010BD2DE9F04DC4
:1050F00092469B4611B1B1FA81F202E0B0FA80F219
:1051000020329046FFF78EFF04460F4640EA0A0021
:1051100041EA0B0153465A46084303D1204639461B
:10512000BDE8F08D114653EA010015D0C8F14002E8
:10513000504600F03FF805460E4650465946424656
:10514000FFF770FF084301D0012000E00020054375
:1051500046EAE0762C4337430A984FEA4453A0EBE3
:1051600008004FEAD4240A304FF0000244EA4754C2
:105170004FEAD72502D500200146D1E701051019D5
:105180006941DDE9084500196941BDE8F04DA0E736
:10519000064C074D06E0E06840F0010394E8070084
:1051A00098471034AC42F6D3FAF7C6FF68530008AC
:1051B00088530008202A04DB203A21FA02F000215B
:1051C000704721FA02F3D040C2F120029140084317
:1051D000194670470FB4054B10B503A9044A02984D
:1051E00000F018F810BC5DF814FB00005D330008F7
:1051F000F800002002E008C8121F08C1002AFAD1F6
:1052000070477047002001E001C1121F002AFBD146
:10521000704700002DE9FF4F89B09B4604460025EA
:1052200097E0252833D10027641C4E49B846012257
:105230002378203B02FA03F0084202D00743641CA3
:10524000F6E720782E2819D114F8010F47F004074B
:105250002A280ED06FF02F022078A0F13001092902
:105260000CD808EB880102EB410100EB0108641C3B
:10527000F2E70A98641C50F8048B0A902078002802
:105280006BD0642808D0692806D0752820D05A46EB
:105290000B9990476D1C5BE00A994FF00A0901C910
:1052A0000A91002804DAC0F100004FF02D0102E05D
:1052B000390504D52B218DF82010012103E0F907D1
:1052C00004D02021F7E78A4608AE0EE00021FAE775
:1052D0000A994FF00A0901C90A91F7E74946FFF711
:1052E0008BFE01F1300106F8011D0028F6D1ADEB6F
:1052F000060000F12009780701D44FF00108C845E5
:1053000002DDA8EB090000E000208046002706E04F
:1053100008A85A46C05D0B9990476D1C7F1C5745E5
:10532000F6DB04E030205A460B9990476D1CB8F12B
:105330000001A8F10108F5DC05E016F8010B5A465A
:105340000B9990476D1CB9F10001A9F10109F4DC3A
:10535000641C207800287FF464AF0DB02846BDE8B7
:10536000F08F000009280100885300080000002089
:10537000FC000000F451000884540008FC000020E8
:10538000240C00000452000800A24A04000000009F
:1053900000000000010203040607080900000000E5
:1053A00001020304010203040607080902040608B7
:1053B00000000000000000000000000000000000ED
:1053C0008811070100000000000000000100FFEF4D
:1053D0000000000000000000000000000100AABB67
:1053E0000000000065AA0100000000ABAA02000056
:1053F0000000ACAA0300000000ADAA0400000000F9
:10540000AEAA0500000000AFAA0600000000B0AA86
:105410000700000000B1AA0800000000B2AA0900BD
:10542000000000B3AA0A00000000B4AA0B000000AC
:1054300000B5AA0C00000000B6AA0D00000000B7DD
:10544000AA0E00000000B7AA000000000000000043
:10545000000000000000000000000000000000004C
:1054600000000000E8030000000001000000000050
:10547000000000000000000000000000000000002C
:045480000000000028
:0400000508000131BD
:00000001FF
