:020000040800F2
:100000000805002069480008B9230008BB23000840
:10001000BF230008C3230008C72300080000000016
:10002000000000000000000000000000CB230008DA
:10003000CD23000800000000CF230008D1230008D2
:100040008348000883480008834800088348000864
:100050008348000883480008834800088348000854
:100060008348000883480008834800088348000844
:100070008348000883480008834800088348000834
:100080008348000883480008834800088348000824
:100090008348000883480008834800088348000814
:1000A0008348000883480008834800088348000804
:1000B000DB230008FB23000883480008834800086E
:1000C00083480008834800088348000883480008E4
:1000D00083480008834800081B2400088348000860
:1000E000D92300088348000883480008DFF80CD0B3
:1000F00004F05EFD00480047553700080805002061
:100100000CB50020019000906B48006840F48030EE
:100110006949086000BF6848006800F4003000903A
:100120000198401C0190009818B90198B0F5A06F93
:10013000F1D16148006810F4003F02D00120009026
:1001400001E0002000900098012842D15B4800683F
:1001500040F01000594908600846006820F003008C
:1001600008600846006840F0020008605248406895
:10017000514948600846406848600846406840F475
:10018000806048600846406820F47C10486008465B
:10019000406840F4E81048600846006840F080700D
:1001A000086000BF4448006810F0007FFAD0424861
:1001B000406820F00300404948600846406840F02D
:1001C0000200486000BF3C48406800F00C0008286E
:1001D000F9D10CBD10B5FFF793FF10BD10B536482F
:1001E000006840F00100344908600846406834491E
:1001F00008403149486008460068324908402E49A5
:1002000008600846006820F48020086008464068BE
:1002100020F4FE0048604FF41F008860FFF7DAFF0B
:100220004FF000602849086010BD10B50021002083
:100230000022214B5B6803F00C0121B1042906D098
:10024000082928D107E0214B214C236027E01F4BD0
:100250001F4C236023E0184B5B6803F47010164BAF
:100260005B6803F48032022303EB904022B9194B00
:100270004343174C23600DE00F4B5B6813F4003FC2
:1002800004D0144B4343124C236003E00F4B434311
:100290000F4C236003E00D4B0D4C236000BF00BFEB
:1002A000054B5B68C3F303130B4CE15C084B1B6805
:1002B000CB40074C236010BD0010024000200240DC
:1002C0000000FFF8FFFFF6FE08ED00E000127A00E4
:1002D0000000002000093D000400002031490143D6
:1002E000314A1160704770B5002100230F22C47895
:1002F0000CB32D4C246804F4E064C4F5E064210AD6
:10030000C1F10403CA40447804FA03F1847814402C
:1003100021430901254C0678A155047804F01F05F6
:100320000124AC4005786D114FF0E02606EB850501
:10033000C5F8004109E0047804F01F050124AC4031
:100340001B4D0678761145F8264070BD194A0A40C3
:100350000243154B1B1F1A60704739B1124A121D18
:1003600012680243104B1B1D1A6006E00E4A121D54
:10037000126882430C4B1B1D1A607047042808D179
:100380004FF0E021096941F004014FF0E0221161D2
:1003900007E04FF0E021096921F004014FF0E0226D
:1003A000116170470000FA050CED00E000E400E088
:1003B00080E100E080FFFF1F10B50446CA48844278
:1003C00008D10121042000F027FB0021042000F0C7
:1003D00023FB46E0C548844208D10121082000F0F3
:1003E0001BFB0021082000F017FB3AE0C0488442C4
:1003F00008D10121102000F00FFB0021102000F097
:100400000BFB2EE0BB48844208D10121202000F0E4
:1004100003FB0021202000F0FFFA22E0B6488442CE
:1004200008D10121402000F0F7FA0021402000F01F
:10043000F3FA16E0B148844208D10121802000F08F
:10044000EBFA0021802000F0E7FA0AE0AC48844291
:1004500007D10121801500F0DFFA0021A01500F07E
:10046000DBFA10BD10B50121084600F0D5FA0021D5
:10047000012000F0D1FA10BD2DE9F041024600251F
:100480000026002000230024002791F803C00CF070
:100490000F0591F803C01CF0100F03D091F802C0B3
:1004A0004CEA050591F800C0BCF1000F31D014688A
:1004B00000202BE04FF0010C0CFA00F3B1F800C063
:1004C0000CEA03069E4220D183004FF00F0C0CFA79
:1004D00003F7BC4305FA03FC4CEA040491F803C09B
:1004E000BCF1280F06D14FF0010C0CFA00FCC2F849
:1004F00014C00AE091F803C0BCF1480F05D14FF0D9
:10050000010C0CFA00FCC2F810C0401C0828D1D322
:100510001460B1F800C0BCF1FF0F34DD5468002056
:100520002EE000F1080C4FF0010808FA0CF3B1F8C6
:1005300000C00CEA03069E4221D183004FF00F0C4D
:100540000CFA03F7BC4305FA03FC4CEA040491F8E7
:1005500003C0BCF1280F05D100F1080C08FA0CF813
:10056000C2F8148091F803C0BCF1480F07D100F124
:10057000080C4FF0010808FA0CF8C2F81080401C73
:100580000828CED35460BDE8F0814FF6FF7101809A
:10059000022181700421C1707047024600209368D7
:1005A0000B4201D0012000E000207047014688681E
:1005B00080B2704702460020D3680B4201D0012070
:1005C00000E0002070470146C86880B270470161B2
:1005D0007047416170470AB1016100E041617047B5
:1005E000C16070474FF480320A4382618161826149
:1005F00082698269704702460020424B18684FF6B4
:100600008073184040EA021008433E4B1860704760
:100610003D49C8617047F0B50A4600230024002117
:10062000002500F00046B6F1004F02D1354EF169C9
:1006300001E0344E7168C0F3034583B200F4401604
:10064000B6F5401F08D121F070612E4E766826F075
:1006500070662C4F7E6012E000F48016B6F5801FA5
:1006600006D1032606FA05F4A14341F0706106E0C5
:10067000460D360103FA06F6B14341F0706122B12E
:10068000460D360103FA06F6314300F00046B6F196
:10069000004F02D11B4EF16101E01A4E7160F0BDB6
:1006A00030B500228B071C0F0F2303FA04F2154B01
:1006B00008338C1053F824309343124C08348D10B7
:1006C00044F8253023468C1053F824308C07240F2F
:1006D00000FA04F423430B4C08348D1044F8253001
:1006E00030BD0A490860704700080140000C014015
:1006F000001001400014014000180140001C01409E
:10070000002001400000014000002042DC002042A7
:10071000DD48006840F00100DB4908600846406899
:10072000DA490840D849486008460068D849084076
:10073000D54908600846006820F480200860084613
:10074000406820F4FE0048604FF41F008860704746
:10075000CD49096821F48031CB4A116011460968FE
:1007600021F480211160B0F5803F03D0B0F5802FD7
:100770000ED106E0C449096841F48031C24A1160D3
:1007800007E0C149096841F4A021BF4A116000E0B7
:1007900000BF00BF704710B50146002200230020B3
:1007A0004A11012A02D1B84C236806E0022A02D17C
:1007B000B54C236A01E0B44C636A01F01F020124C6
:1007C00094401C4201D0012000E0002010BD38B54B
:1007D000002000900024002500BF3120FFF7DBFF40
:1007E00005460098401C00900098B0F5A06F01D01D
:1007F000002DF2D03120FFF7CEFF08B1012400E038
:100800000024204638BD014600209F4A106820F091
:10081000F80040EAC100106070479E4908607047C8
:1008200002460020984B586820F47C1042EA0103ED
:100830001843954B586070479649086670470146C3
:100840000020914A506820F0030008435060704730
:100850008D48406800F00C007047014600208A4A2D
:10086000506820F0F00008435060704701460020B7
:10087000854A506820F4E0600843506070470146A4
:100880000020814A506820F4605040EAC100506066
:10089000704729B17C4A527A02437B4B5A7204E07A
:1008A000794A527A8243784B5A7270477A49086083
:1008B000704701460020744A506820F440400843C5
:1008C000506070470021754A11706F4A82F82010FD
:1008D000012802D0042808D103E001216F4A1170D9
:1008E00004E005216D4A117000E000BF00BF7047B1
:1008F0006B49086070476449096A0143624A1162A2
:100900007047674944390860704730B500210022BC
:10091000002400235C4D6D6805F00C0121B1042911
:1009200005D0082923D105E05E4D056022E05D4D2C
:1009300005601FE0544D6D6805F47012524D6D68EE
:1009400005F48034022505EB92421CB9564D5543FF
:1009500005600BE04C4D6D6815F4003F03D0524D1F
:100960005543056002E04F4D5543056002E04D4D93
:10097000056000BF00BF444D6D6805F0F001090936
:100980004A4D6B5C0568DD4045603F4D6D6805F480
:10099000E061090A454D6B5C4568DD4085603A4D74
:1009A0006D6805F46051C90A404D6B5C4568DD40D7
:1009B000C560354D6D6805F44041890B3C4D6B5C5D
:1009C000C568B5FBF3F5056130BD29B12E4A526902
:1009D00002432D4B5A6104E02B4A526982432A4B51
:1009E0005A61704729B1284A92690243264B9A619D
:1009F00004E0254A92698243234B9A61704729B1EA
:100A0000214AD2690243204BDA6104E01E4AD269CE
:100A100082431D4BDA61704729B11B4AD2680243F9
:100A2000194BDA6004E0184AD2688243164BDA6048
:100A3000704729B1144A12690243134B1A6104E04A
:100A4000114A12698243104B1A61704714494039A8
:100A5000086070470F49C86470470B49C8717047F8
:100A60000948406A40F08070074948627047014673
:100A70000020054A92680A4201D0012000E00020CF
:100A80007047014988727047001002400000FFF86B
:100A9000FFFFF6FE00004242D80042422010024012
:100AA0008004424200127A0000093D001400002038
:100AB0002400002010B50446FB48844209D10121DE
:100AC0008803FFF7A9FF00214FF48040FFF7A4FF40
:100AD00032E0F648844209D101214804FFF7A9FF1A
:100AE00000214FF40030FFF7A4FF25E0F0488442D6
:100AF00009D101218804FFF79CFF00214FF48020D9
:100B0000FFF797FF18E0EB48844209D10121C804A0
:100B1000FFF78FFF00214FF40020FFF78AFF0BE063
:100B2000E548844208D101210805FFF782FF002132
:100B30004FF48010FFF77DFF10BD2DE9F04786B020
:100B400005460E460024A24600BFA1460027B089F4
:100B500000B100BF2F462C8A4CF6FF700440F0888D
:100B600004432C82AC894EF6F3100440B0883189DE
:100B70000843718908430443AC81AC8A4FF6FF40B7
:100B80000440B0890443AC8201A8FFF7BEFEC6480A
:100B9000874202D1DDF810A001E0DDF80CA0A889A1
:100BA00010F4004F08D00AEBCA0000EB0A103168BD
:100BB0004900B0FBF1F807E00AEBCA0000EB0A10AD
:100BC00031688900B0FBF1F86420B8FBF0F0040153
:100BD0002009642101FB1089A88910F4004F08D076
:100BE000322000EBC900B0FBF1F000F00700044335
:100BF00008E0322000EB09106421B0FBF1F000F0B6
:100C00000F0004432C8106B0BDE8F0874FF4165165
:100C1000016000218180C18001810C21418100217E
:100C20008181704710B502460020108A4FF2FF0301
:100C300018400B884C8823438C882343CC8823435B
:100C40001843108210BD0021018041808180C18045
:100C5000704721B1828942F40052828104E0828986
:100C60004DF6FF731A4082817047F0B503460024A9
:100C7000002600250020A1F510676A3F00D100BFC3
:100C80001846C1F3421401F01F06012707FA06F5C2
:100C9000012C01D10C3004E0022C01D1103000E015
:100CA00014301AB107682F43076002E00768AF43AA
:100CB0000760F0BD1AB1838A0B43838202E0838A06
:100CC0008B4383827047028A4FF6F0731A40028288
:100CD000028A0A430282704782894FF2FF731A40E8
:100CE000828182890A438281704721B1828942F0E0
:100CF0000202828104E082894FF6FD731A408281EC
:100D00007047028A4FF6DF731A400282028A0A4352
:100D10000282704721B1028A42F48042028204E0DA
:100D2000028A4BF6FF731A4002827047C1F3080231
:100D30008280704701468888C0F308007047818927
:100D400041F0010181817047028BD2B20283028B94
:100D500042EA012202837047028B02F47F4202833F
:100D6000028B0A430283704721B1828A42F020023B
:100D7000828204E0828A4FF6DF731A4082827047D3
:100D800021B1828A42F01002828204E0828A4FF608
:100D9000EF731A408282704721B1828A42F00802C2
:100DA000828204E0828A4FF6F7731A40828270478B
:100DB00021B1828942F40042828103E08289C2F338
:100DC0000E028281704721B1828A42F400628282DF
:100DD00004E0828A4FF2FF731A4082827047828A4F
:100DE0004FF6FB731A408282828A0A4382827047DE
:100DF00021B1828A42F00202828204E0828A4FF6A6
:100E0000FD731A408282704702460020B1F5007FD0
:100E100000D100BF13880B4201D0012000E0002068
:100E2000704701F40072B2F5007F00D100BFCA43E1
:100E30000280704770B50246002400230025002080
:100E4000A1F510666A3E00D100BFC1F3421501F062
:100E50001F03012606FA03F3012D02D196893340C0
:100E600006E0022D02D1168A334001E0968A334013
:100E70000C12012606FA04F41688344013B10CB1A2
:100E8000012000E0002070BD10B500220023A1F574
:100E900010646A3C00D100BF0A1201249440A3B23E
:100EA000DC43048010BD00000038014000440040D5
:100EB00000480040004C00400050004010B504467F
:100EC000FE48844208D10121C014FFF7A5FD00218E
:100ED000E014FFF7A1FDC4E0B4F1804F08D1012177
:100EE0000846FFF7A6FD00210120FFF7A2FDB8E0AC
:100EF000F348844208D101210220FFF79AFD002126
:100F00000220FFF796FDACE0EE48844208D10121B3
:100F10000420FFF78EFD00210420FFF78AFDA0E0EA
:100F2000E948844208D101210820FFF782FD002111
:100F30000820FFF77EFD94E0E448844208D10121B7
:100F40001020FFF776FD00211020FFF772FD88E0EA
:100F5000DF48844208D101212020FFF76AFD0021EB
:100F60002020FFF766FD7CE0DA48844208D10121A9
:100F70004014FFF751FD00216014FFF74DFD70E0B4
:100F8000D548844209D10121C804FFF745FD00215D
:100F90004FF40020FFF740FD63E0D048844209D1C0
:100FA00001210805FFF738FD00214FF48010FFF7FD
:100FB00033FD56E0CA48844209D101214805FFF7B4
:100FC0002BFD00214FF40010FFF726FD49E0C54836
:100FD000844208D101214020FFF72BFD0021402051
:100FE000FFF727FD3DE0C048844208D10121802061
:100FF000FFF71FFD00218020FFF71BFD31E0BB48FC
:10100000844208D101218015FFF713FD0021A015AE
:10101000FFF70FFD25E0B648844209D101210804FD
:10102000FFF7FAFC00214FF48030FFF7F5FC18E0E1
:10103000B048844209D101214804FFF7EDFC0021AA
:101040004FF40030FFF7E8FC0BE0AB48844208D1D6
:1010500001218804FFF7E0FC00214FF48020FFF716
:10106000DBFC10BD00220288944B98420ED0994BB5
:1010700098420BD0B0F1804F08D0914B984205D0E8
:10108000904B984202D0904B984204D14FF68F7308
:101090001A404B881A438D4B984207D08C4B98428C
:1010A00004D04FF6FF431A40CB881A4302808B8846
:1010B00083850B880385814B98420BD0854B9842E2
:1010C00008D08B4B984205D08A4B984202D08A4B6D
:1010D000984201D10B7A038601238382704770B551
:1010E000002400220023058C4FF6FE76354005844F
:1010F000028C8388048B4FF68F752C40B51E2C40D4
:101100000D882C43751E2A400D892A434D882A4399
:101110006A4DA8420BD06F4DA84208D0744DA8422A
:1011200005D0744DA84202D0734DA84213D14FF69A
:10113000F7752A404D892A434FF6FB752A408D8862
:101140002A434FF6FF652B404FF6FF552B408D8904
:101150002B43CD892B4383800483CD8885860284ED
:1011600070BD70B5002400220023058C4FF6EF7689
:1011700035400584028C8388048B48F6FF752C402B
:101180004FF6FF452C400D884FF6FF7606EA052501
:101190002C434FF6DF752A400D8906EA05152A43D0
:1011A0004D8806EA05152A43444DA84202D0494D10
:1011B000A8421DD14FF67F752A404D894FF6FF7624
:1011C00006EA05152A434FF6BF752A408D8806EAC0
:1011D00005152A434FF6FF352B404FF2FF752B4084
:1011E0008D8906EA85052B43CD8906EA85052B43C3
:1011F00083800483CD880587028470BD70B5002488
:1012000000220023058C4FF6FF6635400584028CD2
:101210008388848B4FF68F752C404FF6FC752C40DD
:101220000D882C434FF6FF552A400D894FF6FF7667
:1012300006EA05252A434D8806EA05252A431F4D5F
:10124000A84202D0234DA8421DD14FF2FF752A407B
:101250004D894FF6FF7606EA05252A434FF6FF35FE
:101260002A408D8806EA05252A434EF6FF752B4055
:101270004DF6FF752B408D8906EA05152B43CD8968
:1012800006EA05152B4383808483CD8885870284F5
:1012900070BD70B5002200230024058C4EF6FF7649
:1012A00035400584038C8488828B48F6FF752A407C
:1012B0004FF6FF452A400D8820E00000002C014039
:1012C0000004004000080040000C004000100040F6
:1012D0000014004000340140004C01400050014027
:1012E0000054014000180040001C00400020004055
:1012F0000040014000440140004801404FF6FF76A5
:1013000006EA05252A434DF6FF752B400D8906EAAE
:1013100005352B434D8806EA05352B43FA4DA84287
:1013200002D0FA4DA84208D14BF6FF752C408D89AA
:101330004FF6FF7606EA85152C4384808283CD889C
:10134000A0F84050038470BD828B4FF2FF331A40E7
:101350008283828B4FF6FF7303EA01231A43828351
:101360007047F0B50C461546002200210026078C78
:101370004EF6FF7C07EA0C070784828B018C4FF640
:10138000FF7707EA043640F6FF473A404FF6FF770B
:1013900007EA05273A434FF6FF7707EA03373A4350
:1013A000D94FB8420ED0D94FB8420BD0B0F1804FD0
:1013B00008D0D74FB84205D0D64FB84202D0D64F4A
:1013C000B84206D14DF6FF77394046F4805739438D
:1013D00005E047F6FF57394044F48057394382838C
:1013E0000184F0BD828B4FF6F3731A408283828BA7
:1013F0000A4382837047F0B50C461546002200214F
:101400000026078C4FF6FF6C07EA0C070784828BD7
:10141000018C4FF6FF7707EA04264FF60C773A4027
:101420004FF6FF7707EA03172F433A43B64FB84208
:101430000ED0B64FB8420BD0B0F1804F08D0B44FA9
:10144000B84205D0B34FB84202D0B34FB84206D12C
:101450004FF6FF57394046F48077394305E04FF2A5
:10146000FF57394044F48077394382830184F0BDCB
:10147000028B4FF2FF331A400283028B4FF6FF7349
:1014800003EA01231A4302837047F0B50C46154660
:10149000002200210026078C4FF6EF7C07EA0C079C
:1014A0000784028B018C4FF6FF7707EA041640F69B
:1014B000FF473A404FF6FF7707EA03373A434FF6C4
:1014C000FF7707EA05273A438F4FB8420ED08F4F78
:1014D000B8420BD0B0F1804F08D08D4FB84205D044
:1014E0008C4FB84202D08C4FB84206D14FF6DF770E
:1014F000394046F01007394305E04FF65F77394031
:1015000044F01007394302830184F0BD028B4FF68B
:10151000F3731A400283028B0A4302837047F0B5CB
:101520000C46154600220021068C4FF6FE773E4001
:101530000684028B018C4FF60C7632407E1C06EA44
:1015400003162E433243704EB0420ED06F4EB0425F
:101550000BD0B0F1804F08D06D4EB04205D06D4E2B
:10156000B04202D06C4EB04206D14FF6FD7631400B
:1015700044F00106314305E04FF6F576314044F082
:101580000106314302830184F0BD70B505460C4667
:101590005D4885420ED05D4885420BD0B5F1804F45
:1015A00008D05B48854205D05A48854202D05A4847
:1015B000854200D100E000BF208850B92389A2886D
:1015C00061882846FFF7ABFFE1882846FFF79EFFBA
:1015D00025E0208804280AD12389A288618828462A
:1015E000FFF753FFE1882846FFF742FF17E0208806
:1015F00008280AD12389A28861882846FFF7FBFEC4
:10160000E1882846FFF7EEFE09E02389A288618879
:101610002846FFF7A6FEE1882846FFF795FE70BD35
:101620002DE9F04105460C4600260127608808B9DF
:10163000022600E00026A088012801D1022700E050
:1016400001272088A0B92389A28861882846FFF74E
:1016500066FFE1882846FFF759FF23893A4631465D
:101660002846FFF712FFE1882846FFF701FF13E045
:101670002389A28861882846FFF707FFE18828466A
:10168000FFF7F6FE23893A4631462846FFF747FF23
:10169000E1882846FFF73AFFBDE8F0810A884B88C9
:1016A0001A438B881A43CB881A430B891A434B89F8
:1016B0001A438B891A43A0F8442070474FF6FF71F4
:1016C000818000210180C18041800172704700212A
:1016D000018041808180C180018141818181C181FE
:1016E0007047002101804180012181800021C1805B
:1016F000018170470021018041808180C18001818A
:101700004181818170470000002C0140003401407C
:101710000004004000080040000C004021B1028895
:1017200042F00102028004E002884FF6FE731A4084
:101730000280704731B1B0F8442042F40042A0F872
:10174000442005E0B0F84420C2F30E02A0F8442083
:1017500070471AB183890B43838102E083898B43ED
:10176000838170478182704741EA0203A0F84830C4
:1017700070471AB183890B43838102E083898B43CD
:101780008381704701894FF6F872114001817047DB
:101790000A46002101894FF68F73194011430181D8
:1017A000704730B504460D4629462046FFF7F0FF46
:1017B000208940F00700208130BD2DE9F04104462A
:1017C0000D4616461F46602D06D13B460122314686
:1017D0002046FFF75AFE05E03B46012231462046EF
:1017E000FFF79DFE29462046FFF7D2FF208940F0F3
:1017F00007002081BDE8F08130B50C460021018949
:10180000C9B24FF6FF7505EA032515432543294361
:10181000018130BD2DE9F04105460E461746984638
:10182000002443463A4631462846FFF7E5FF2C8917
:101830004FF6F870044044F007044FF68F700440F0
:1018400044F070042C81BDE8F081F0B504460D46EB
:1018500016461F463B46324629462046FFF7CCFF38
:10186000208940F480402081F0BD0185828270474C
:101870000A46002101884FF68F73194011430180F9
:101880007047F0B50C4615461E4600210022002385
:101890000189028B038C4FF6F877394021434FF6CC
:1018A000FC473A4040F201173A434FF6DD773B40A0
:1018B0004FF6FF7707EA06172F433B430181028368
:1018C0000384F0BD0A460021018B4FF68F73194047
:1018D0001143018370470A460021018B48F6FF73CC
:1018E00019404FF6FF7303EA02231943018370473F
:1018F0000A460021818B4FF68F7319401143818373
:1019000070470A460021818B48F6FF7319404FF655
:10191000FF7303EA022319438183704721B10288D0
:1019200042F08002028004E002884FF67F731A4082
:101930000280704721B1828842F00402828004E074
:1019400082884FF6FB731A408280704721B18288EB
:1019500042F00802828004E082884FF6F7731A4052
:101960008280704721B1828842F00102828004E0C7
:1019700082884FF6FE731A40828070470A46002123
:10198000018B4FF6F77319401143018370470A46E4
:101990000021018B4FF2FF7319404FF6FF7303EAEA
:1019A00002231943018370470A460021818B4FF6B9
:1019B000F77319401143818370470A460021818BD8
:1019C0004FF2FF7319404FF6FF7303EA02231943E6
:1019D000818370470A460021018B4FF6FB73194043
:1019E0001143018370470A460021018B4FF6FF33F4
:1019F00019404FF6FF7303EA02231943018370472E
:101A00000A460021818B4FF6FB73194011438183F5
:101A100070470A460021818B4FF6FF3319404FF67D
:101A2000FF7303EA02231943818370470A460021AA
:101A3000018B4FF67F7319401143018370470A46AB
:101A40000021018BC1F30E014FF6FF7303EA02235D
:101A50001943018370470A460021818B4FF67F733B
:101A600019401143818370470A460021818BC1F3DD
:101A70000E014FF6FF7303EA022319438183704777
:101A80000A460021018C4FF6FD7319401143018471
:101A900070470A460021018C4FF6F7731940114335
:101AA000018470470A460021018C4FF6DF7319400C
:101AB0004FF6FF7303EA02131943018470470A4685
:101AC0000021018C4FF67F7319404FF6FF7303EA34
:101AD00002131943018470470A460021018C4FF616
:101AE000FF5319404FF6FF7303EA022319430184A1
:101AF00070470A460021018C4FF2FF7319404FF6E0
:101B0000FF7303EA02231943018470470A46002148
:101B1000018C4DF6FF7319404FF6FF7303EA023351
:101B200019430184704730B5002301248C40A3B2CF
:101B3000048C9C430484048C02FA01F5ADB22C435E
:101B4000048430BD30B5002304248C40A3B2048C3F
:101B50009C430484048C02FA01F5ADB22C43048446
:101B600030BD70B50346002000241846183001250A
:101B70008D40ACB21D8CA5431D8409B1082909D143
:101B800000EB6100056825F07005056005681543E8
:101B900005600EE00D1FC5F34E052844056825F4C9
:101BA000E045056005684FF6FF7606EA02263543F4
:101BB000056070BD21B1028842F00202028004E09B
:101BC00002884FF6FD731A400280704721B10288E7
:101BD00042F00402028004E002884FF6FB731A40D0
:101BE0000280704721B1828842F08002828004E046
:101BF00082884FF67F731A408280704702884FF6C2
:101C0000F7731A40028002880A4302807047828874
:101C10004FF68F731A40828082880A438280704711
:101C200002894FF6F8731A40028102890A43028141
:101C3000704702894FF67F731A40028102890A4376
:101C40000281704781847047818570478186704723
:101C50000187704781877047A0F84010704702885D
:101C60004FF6FF431A40028002880A430280704701
:101C70000146888E70470146088F70470146888F5D
:101C800070470146B1F8400070470146888C7047A4
:101C90000146088D704702460020138A0B4201D08E
:101CA000012000E000207047CA430282704730B52F
:101CB0000246002000230024158A05EA01039589C5
:101CC00005EA010413B10CB1012000E0002030BD91
:101CD000CA4302827047000010B50446FA488442A5
:101CE00008D101214015FEF797FE00216015FEF78F
:101CF00093FE17E0F548844208D101210015FEF754
:101D00008BFE00212015FEF787FE0BE0F048844291
:101D100008D10121C803FEF77FFE00214FF40040E7
:101D2000FEF77AFE10BD30B5024600200023506851
:101D3000E84C20400D790C6844EA052420435060AB
:101D40009068E54C2040D1E902542C434D7944EA97
:101D5000450420439060D06A20F470000C7C641E1F
:101D6000E4B2234340EA0350D06230BD0021016059
:101D7000017141718160C16001210174704721B11D
:101D8000826842F00102826003E0826822F0010270
:101D90008260704721B1826842F48072826003E001
:101DA000826822F480728260704710B50023CBB243
:101DB0001AB144681C43446002E044689C43446098
:101DC00010BD816841F00801816070470146002024
:101DD0008A6812F0080F01D0012000E0002070474F
:101DE000816841F0040181607047014600208A68E3
:101DF00012F0040F01D0012000E00020704721B153
:101E0000826842F4A002826003E0826822F4A002A9
:101E100082607047014600208A6812F4800F01D06A
:101E2000012000E00020704710B50A460021002381
:101E3000416821F46041531E41EA4331416010BDC5
:101E400021B1426842F40062426003E0426822F439
:101E5000006242607047F0B504460D460020002144
:101E6000092D11DDE068A5F10A0606EB46070726F5
:101E700006FA07F18843A5F10A0606EB460603FABF
:101E800006F10843E0600CE0206905EB45070726F2
:101E900006FA07F1884305EB450603FA06F1084305
:101EA0002061072A0FDA606B561E06EB86071F2695
:101EB00006FA07F18843561E06EB860605FA06F178
:101EC0000843606322E00D2A0FDA206BD61F06EB71
:101ED00086071F2606FA07F18843D61F06EB8606FB
:101EE00005FA06F10843206310E0E06AA2F10D064E
:101EF00006EB86071F2606FA07F18843A2F10D06B6
:101F000006EB860605FA06F10843E062F0BD21B152
:101F1000826842F48012826003E0826822F48012B8
:101F2000826070470146C86C80B2704766484C308A
:101F30000068704721B1426842F48062426003E069
:101F4000426822F480624260704721B1426842F4E4
:101F50008052426003E0426822F48052426070473F
:101F60000A460021816821F4E041114381607047F5
:101F700021B1826842F40042826003E0826822F468
:101F800000428260704721B1826842F4021282608E
:101F900003E0826822F4021282607047014600204A
:101FA0008A6812F4001F01D0012000E00020704771
:101FB000F0B504461546002000220026092911DD4F
:101FC000E068A1F10A0707EB470C072707FA0CF2B4
:101FD0009043A1F10A0707EB470703FA07F2104302
:101FE000E0600CE0206901EB410C072707FA0CF2D6
:101FF000904301EB410703FA07F210432061A06B05
:10200000C0F30156EF1C06F1010CA7EB0C0707EB20
:10201000870C1F2707FA0CF29043EF1C06F1010C06
:10202000A7EB0C0707EB870701FA07F21043A06341
:10203000F0BD10B50A4600210023816B21F4401148
:10204000531E41EA0351816310BD08B5002300937C
:102050000090009B0B440093009B1A6008BD08B5DC
:10206000024600200090009201F12800009B1844D5
:1020700000900098006880B208BD0A4600214168BF
:10208000164B1940114341607047416282627047AC
:102090000A460021416821F01F0111434160704749
:1020A00040B109490831096841F40001064A083283
:1020B000116007E004490831096821F40001024A6F
:1020C00008321160704700000024014000280140E0
:1020D000003C0140FFFEF0FFFDF7F1FFFFFD3FFF79
:1020E0000246002013680B4201D0012000E00020CE
:1020F0007047CA430260704770B502460020002353
:1021000000240B125568CEB205EA060415681D427C
:1021100002D00CB1012000E0002070BD00220A12A4
:10212000D34303607047000001684FF6FE72114010
:1021300001600021016041608160C1608C4988427A
:1021400008D18B490839496841F00F01884A083A9B
:1021500051608AE086491431884208D1844908399F
:10216000496841F0F001824A083A51607DE08049B7
:102170002831884208D17E490839496841F47061A4
:102180007B4A083A516070E079493C31884208D175
:1021900077490839496841F47041754A083A5160F5
:1021A00063E073495031884208D171490839496860
:1021B00041F470216E4A083A516056E06C4964312E
:1021C000884208D16A490839496841F47001684A6F
:1021D000083A516049E066497831884208D164493B
:1021E0000839496841F07061614A083A51603CE041
:1021F0006049884206D1011F096841F00F01021FA2
:10220000116032E05B491431884208D15949091FF5
:10221000096841F0F001574A121F116025E0554945
:102220002831884208D15349091F096841F4706177
:10223000504A121F116018E04E493C31884208D1C3
:102240004C49091F096841F470414A4A121F116044
:102250000BE048495031884207D14649091F0968B7
:1022600041F47021434A121F1160704710B50022DB
:10227000026847F6F0739A430C6A8B6823430C6933
:1022800023434C6923438C692343CC6923434C6A21
:1022900023438C6A23431A430260CB6843600B6874
:1022A00083604B68C36010BD0021016041608160A4
:1022B000C160016141618161C1610162416281620C
:1022C000704721B1026842F00102026004E0026836
:1022D0004FF6FE731A40026070471AB103680B4351
:1022E000036002E003688B430360704741607047FE
:1022F0000146486880B2704701460020002211F074
:10230000805F03D01B4B083B1A6802E0184B083B68
:102310001A680A4201D0012000E00020704710F046
:10232000805F03D01349091F086002E01049083993
:102330004860704701460020002211F0805F03D002
:102340000C4B083B1A6802E0094B083B1A680A422A
:1023500001D0012000E00020704710F0805F03D022
:102360000449091F086002E00149083948607047C4
:1023700008000240080402400E49086070470D49F9
:10238000486070470B49886070474AF6AA2009499F
:10239000086070474CF6CC4006490860704701461B
:1023A0000020044AD2680A4201D0012000E0002047
:1023B0007047000000300040704700BFFEE700BFDC
:1023C000FEE700BFFEE700BFFEE7704770477047BB
:1023D00010B500F0A5F910BD704710B501218807B0
:1023E000FFF765FC40B101218807FFF771FC304819
:1023F0000068401C2E49086010BD10B501212D4811
:10240000FFF755FC40B101212A48FFF761FC2A483B
:102410000068401C2849086010BD70B50025274C95
:1024200040F225512648FEF705FD00283FD02448FC
:10243000001D0088C5B22348007838B9AA2D31D1D3
:10244000257001201F490870A5712BE01D480078F8
:10245000012807D1657002201A490870A079284424
:10246000A0711FE01748007802280ED1E179481CBE
:10247000E071A01C4554A0792844A071E07904289B
:1024800010D103200F4908700CE00E480078032893
:1024900008D1A079A84201D1012020720020094969
:1024A0000870E07140F225510548FEF7EDFC70BD63
:1024B000D400002000040040D8000020FA000020D2
:1024C000004400402800002008B501217C20FEF7D0
:1024D00089FA01210846FEF785FA01216748FEF7CF
:1024E0009AF849F61170ADF8000014208DF8030039
:1024F00003208DF8020069466148FDF7BDFF4FF6E5
:102500003C70ADF8000014208DF8030003208DF816
:10251000020069465B48FDF7AFFF4FF6C070ADF8AB
:10252000000014208DF8030003208DF80200694696
:102530005548FDF7A1FF4FF6F070ADF800001420EC
:102540008DF8030003208DF8020069464F48FDF71F
:1025500093FF40F2FF70ADF8000014208DF80300E7
:1025600003208DF8020069464948FDF785FF1820D1
:10257000ADF8000014208DF8030003208DF8020050
:1025800069464048FDF778FF4FF40040ADF8000081
:1025900014208DF8030003208DF8020069463848A6
:1025A000FDF76AFF49F611713548FEF710F84FF64E
:1025B0003C713448FEF70BF84FF6C0713248FEF715
:1025C00006F84FF6F0713148FEF701F840F2FF715E
:1025D0002F48FDF7FCFF0C20ADF8000048208DF8D7
:1025E000030003208DF8020069462848FDF744FFE8
:1025F0004FF4C040ADF8000048208DF803000320E0
:102600008DF8020069462248FDF736FF4FF4C050AE
:10261000ADF8000010208DF8030003208DF80200B3
:1026200069461B48FDF728FF0220ADF80000102086
:102630008DF8030003208DF8020069461048FDF76D
:102640001BFF4FF4C0511248FDF7C3FF02210C4895
:10265000FDF7BFFF4FF40040ADF8000010208DF8EB
:10266000030003208DF8020069460948FDF704FFC6
:102670004FF400410648FDF7ACFF08BD00023000F2
:1026800000080140000C014000100140001401400E
:102690000018014030B5274800684FF47A72B0FB4B
:1026A000F2F1B1F1807F01D301201BE021F07F40E6
:1026B000401E4FF0E022506150170F22002806DA2A
:1026C00013011D4C00F00F052D1F635502E013018F
:1026D0001A4C235400BF00204FF0E02290610720E5
:1026E0001061002008B100BFFEE74FF0E020006954
:1026F00020F001004FF0E021086130BD01B5104924
:10270000009808604FF0E020006940F001004FF0B1
:10271000E021086100BF0A4800680028FBD108BD1D
:102720000748006820B106480068401E0449086058
:10273000704700000000002018ED00E000E400E019
:102740002C00002010B504460C2C74D2DFE804F0F5
:102750008406111B252F38424D5762744FF4807147
:10276000F748FDF734FF4FF40061F648FDF72FFFFF
:1027700073E04FF48061F248FDF729FF1021F04823
:10278000FDF725FF69E04FF48051ED48FDF71FFF8D
:102790000821ED48FDF71BFF5FE04FF48041E8485A
:1027A000FDF715FF0421E848FDF711FF55E0402132
:1027B000E448FDF70CFF2021E348FDF708FF4CE05B
:1027C0004FF48071DF48FDF702FF1021DE48FDF76E
:1027D000FEFE42E04FF48071DC48FDF7F8FE4FF456
:1027E0000051D848FDF7F3FE37E04FF48061D74839
:1027F000FDF7EDFE4021D448FDF7E9FE2DE04FF452
:102800008051D248FDF7E3FE4FF40041CD48FDF77B
:10281000DEFE22E0CE48007840F04000CC4908704F
:102820004221CB48007800F083FE4FF48041C54838
:10283000FDF7CDFE11E00FE0C548007840F08000C4
:10284000C34908704221C248007800F071FE01219E
:10285000BE48FDF7BCFE00E000BF00BF10BD70B574
:1028600005460C2D7ED2DFE805F07D06101A2530D6
:102870003B46505B66724FF48051B248FDF7A7FEAD
:102880001021B248FDF7A3FE6DE04FF48061AD4822
:10289000FDF79DFE8021AC48FDF799FE63E04FF403
:1028A0000041AA48FDF793FE4FF48071A648FDF75A
:1028B0008EFE58E04FF40061A448FDF788FE4FF407
:1028C0000071A148FDF783FE4DE04FF400719F4871
:1028D000FDF77DFE4FF480619B48FDF778FE42E0F6
:1028E0004FF400719748FDF772FE4FF480619948EC
:1028F000FDF76DFE37E080219248FDF768FE4FF44A
:1029000000619448FDF763FE2DE04FF400418C48D0
:10291000FDF75DFE4FF400518E48FDF758FE22E0B2
:102920004FF400518648FDF752FE4FF400418948AC
:10293000FDF74DFE17E04FF400618148FDF747FEBB
:102940004FF480518348FDF742FE0CE00AE04FF45B
:1029500000717B48FDF73BFE4FF480417D48FDF759
:1029600036FE00E000BF00BF7848FDF72CFE48F6B9
:1029700010210840884201DA012600E0002675484F
:10298000FDF721FE00F46C40B0F56C4F01DA012038
:1029900000E0002006436B48FDF715FE00F4B4503C
:1029A000B0F5B45F01DA012000E00020064364487E
:1029B000FDF709FE00F42240B0F5224F01DA0120B4
:1029C00000E0002006436048FDF7FDFD00F4F060E4
:1029D000B0F5F06F01DA012000E00020064308D1D5
:1029E000012404E02046FFF7ADFE601CC4B2092CB0
:1029F000F8DD70BD70B505460C4615B1012D6ED1E0
:102A00004DE00C2C48D2DFE804F047060C12181EEB
:102A1000242A2F353B414FF480514A48FDF7D9FD18
:102A20003BE04FF480614748FDF7D3FD35E04FF4BC
:102A300000414648FDF7CDFD2FE04FF400614348CB
:102A4000FDF7C7FD29E04FF400714048FDF7C1FDD7
:102A500023E04FF400713B48FDF7BBFD1DE08021F2
:102A60003848FDF7B6FD18E04FF400413448FDF753
:102A7000B0FD12E04FF400513148FDF7AAFD0CE023
:102A80004FF400612E48FDF7A4FD06E04FF40071FD
:102A90002B48FDF79EFD00E000BF00BF4EE00C2C70
:102AA00048D2DFE804F047060B10161D23292F3506
:102AB0003B4110212548FDF78CFD3CE08021224858
:102AC000FDF787FD37E04FF480711F48FDF781FD6A
:102AD00031E04FF400711C48FDF77BFD2BE02CE04A
:102AE0004FF480611848FDF774FD24E04FF48061D5
:102AF0001848FDF76EFD1EE04FF400611548FDF724
:102B000068FD18E04FF400511248FDF762FD12E035
:102B10004FF400410F48FDF75CFD0CE04FF480518D
:102B20000C48FDF756FD06E04FF480410948FDF7DB
:102B300050FD00E000BF00BF00E000BF00BF70BD5F
:102B4000001401400010014000180140000801403D
:102B500039000020000C014070B505460C4615B147
:102B6000012D6FD159E00C2C54D2DFE804F053064C
:102B70000C12181E23292F353B474FF48071CC4887
:102B8000FDF727FD47E04FF48061C948FDF721FDBF
:102B900041E04FF48051C648FDF71BFD3BE04FF488
:102BA0008041C348FDF715FD35E04021C148FDF7E0
:102BB00010FD30E04FF48071BE48FDF70AFD2AE0B9
:102BC0004FF48071BC48FDF704FD24E04FF48061B0
:102BD000B948FDF7FEFC1EE04FF48051B648FDF702
:102BE000F8FC18E0B548007800F0BF00B349087061
:102BF0004221B248007800F09BFC0CE0AF4800781E
:102C000000F07F00AD4908704221AC48007800F028
:102C10008FFC00E000BF00BF49E00C2C43D2DFE88E
:102C200004F042060C12171C21262C31373D4FF4BC
:102C30000061A048FDF7CDFC36E010219C48FDF76F
:102C4000C8FC31E032E008219D48FDF7C2FC2BE0D2
:102C500004219B48FDF7BDFC26E020219848FDF7A4
:102C6000B8FC21E010219648FDF7B3FC1CE04FF4BE
:102C700000519048FDF7ADFC16E040219048FDF76B
:102C8000A8FC11E04FF400418A48FDF7A2FC0BE0DC
:102C90004FF480418748FDF79CFC05E00121864800
:102CA000FDF797FC00E000BF00BF00E000BF00BFE1
:102CB00070BD2DE9F04180460E4614461F460025A2
:102CC000092E10D10B2C0ED131464046FFF744FFA0
:102CD00021464046FFF78EFE4FF4FA70FFF70EFDD7
:102CE0002846BDE8F08100251DE031464046FFF74B
:102CF00033FF21464046FFF77DFE9620FFF7FEFC9E
:102D0000601E704931F8100040F20461884207DD0E
:102D10002046FFF7A4FD4FF4FA70FFF7EFFC00E048
:102D200003E0681CC5B2BD42DFDB00BF2846D8E720
:102D300070B50546002629460020FFF70DFF012447
:102D400017E021460020FFF755FEC820FFF7D6FC0C
:102D5000601E5C4931F8100040F20461884206DDD3
:102D60002046FFF77CFD4FF4FA70FFF7C7FC601CAC
:102D7000C4B2092CE5DD002405E0524830F8140007
:102D80000644601CC4B2092CF7DB31464EA001F0AA
:102D900041FF70BD10B5012407E02046FFF7D2FCCB
:102DA0002046FFF75CFD601CC4B2092CF5DD0A204B
:102DB000FFF7C8FC0B20FFF7C5FC0B20FFF74FFD0A
:102DC0004FF4FA70FFF79AFC10BD70B500243A4832
:102DD000FDF7F9FB48F610210840884201DA012589
:102DE00000E000253F48FDF7EEFB00F46C40B0F535
:102DF0006C4F01DA012000E0002005432D48FDF76B
:102E0000E2FB00F4B450B0F5B45F01DA012000E059
:102E1000002005432648FDF7D6FB00F42240B0F51C
:102E2000224F01DA012000E0002005432448FDF78D
:102E3000CAFB00F4F060B0F5F06F01DA012000E0A9
:102E4000002005431C48FDF7BEFB41F2015108403C
:102E5000B0F5A85F01DC012000E000200543154823
:102E6000FDF7B1FB4EF640110840884201DA01201F
:102E700000E0002005430E48FDF7A5FB45F2105188
:102E80000840884201DA012000E0002005430C4898
:102E9000FDF799FB00F07C007C2801DA012000E0BE
:102EA0000020054301D1002400E00124204670BD2C
:102EB00000140140001001400008014039000020CA
:102EC00000180140E40000200D0A746F74616C204A
:102ED00063757272656E74206973202564200D0A13
:102EE00000000000000C014000B587B00121042063
:102EF000FDF778FD01214804FDF781FD0420ADF8C0
:102F0000180018208DF81B0003208DF81A0006A960
:102F10009A48FDF7B1FA0820ADF8180004208DF8A2
:102F20001B0006A99548FDF7A7FA4FF4E13002907F
:102F30000020ADF80C00ADF80E00ADF81000ADF8B3
:102F400014000C20ADF8120002A98D48FDF7F5FD24
:102F50004FF4C060FDF7C2F926208DF80400002070
:102F60008DF805008DF8060001208DF8070001A8F6
:102F7000FDF7B9F9012240F225518148FDF775FEB0
:102F800001217F48FDF765FE07B000BD70B504461E
:102F90000D46E1B27A48FDF7C9FE00BF78480088C7
:102FA00010F0800FFAD0204670BDF0B503460D46F4
:102FB0001646002729460A2E03D00020087028460E
:102FC000F0BD33B9302001F8010B0020087028460D
:102FD000F6E7002B03DA2D2001F8010B5B4242F2E9
:102FE00010720DE093FBF2F404B937B104F1300034
:102FF00001F8010B04FB123301270A2092FBF0F2C7
:10300000002AEFDC002008702846D9E70FB470B51D
:1030100086B006460CA801904FF400415948FDF7D0
:10302000D6FA0120FFF76AFB73E00B9800785C2862
:103030001CD10B98401C0B9000786E2809D0722888
:103040000FD10D213046FDF771FE0B98401C0B90FF
:103050000BE00A213046FDF769FE0B98401C0B90EF
:1030600003E00B98401C0B9000BF4BE00B980078DE
:10307000252840D10B98401C0B900078642818D06C
:10308000732833D1019810C801900BE021783046A5
:10309000FDF74CFE00BF40213046FDF7B5FE00288D
:1030A000F9D0641C20780028F0D10B98401C0B90BC
:1030B00020E0019820C801900A2202A92846FFF7C3
:1030C00074FF02AC0BE021783046FDF72FFE00BF05
:1030D00040213046FDF798FE0028F9D0641C207886
:1030E0000028F0D10B98401C0B9003E00B98401C7B
:1030F0000B9000BF06E00B9810F8011B0B903046B8
:10310000FDF714FE00BF40213046FDF77DFE00288C
:10311000F9D00B980078002887D14FF40041194866
:10312000FDF757FA0120FFF7E9FA06B070BC5DF829
:1031300014FB70B504464FF400411248FDF747FAFE
:103140000120FFF7DBFA00250CE014F8011B0C4806
:10315000FDF7ECFD00BF0A48008810F0800FFAD0A0
:10316000681CC5B2072DF0DB4FF400410548FDF7A0
:1031700030FA0120FFF7C2FA70BD000000080140DC
:10318000004400400018014008B5E020ADF8000000
:1031900000208DF8030069466C48FDF76DF90320A7
:1031A000ADF8000000208DF8030069466848FDF77F
:1031B00063F93F20ADF8000000208DF80300694658
:1031C0006448FDF759F908BD00B591B001210846E2
:1031D000FDF7FBFB01214802FDF704FC5E48FEF70A
:1031E000A3FF5E4806905E480790002008900B20E1
:1031F000099000200A9080200B9040000C908000E5
:103200000D9020200E9000020F900020109006A933
:103210005148FFF72BF801214F48FFF752F84F486C
:103220004C38FEF759FD0020019001208DF8080070
:103230008DF809004FF460200390002004900B20CB
:103240008DF8140001A945484C38FEF76CFD4FF489
:103250000040FDF72EFB0523012219463F484C385C
:10326000FEF7F9FD0523022206213C484C38FEF703
:10327000F2FD05230322072138484C38FEF7EBFD09
:1032800005230422082135484C38FEF7E4FD0523C8
:103290001A46092131484C38FEF7DDFD0523062288
:1032A0000A212E484C38FEF7D6FD052307220B21B4
:1032B0002A484C38FEF7CFFD052308220C21274869
:1032C0004C38FEF7C8FD052309220D2123484C3850
:1032D000FEF7C1FD05230A220E2120484C38FEF7D7
:1032E000BAFD05230B220F211C484C38FEF7B3FD15
:1032F00001211A484C38FEF74DFD012117484C3882
:10330000FEF73DFD15484C38FEF75BFD00BF134846
:103310004C38FEF75BFD0028F9D110484C38FEF719
:103320005FFD00BF0D484C38FEF75FFD0028F9D166
:1033300001210A484C38FEF762FD11B000BD10B5FE
:10334000FFF722FFFFF740FF10BD0000000801401B
:10335000000C014000100140080002404C240140D4
:10336000E4000020962001E0411EC8B20028FBD1F5
:10337000704700B540209549086080200860FFF73D
:10338000F1FF924808380068002000B100BD4020DD
:103390008E49091D0860FFF7E5FF8C480838006872
:1033A00010F0400F01D00020F0E740208749091DB0
:1033B0000860FFF7D7FF0120E8E700B580208349C8
:1033C000091D0860FFF7CEFF40208049091D0860F5
:1033D000FFF7C8FF80207D490860FFF7C3FF40204A
:1033E0007A490860FFF7BEFF00BD00B5802077492D
:1033F000091D0860FFF7B6FF40207449091D0860E9
:10340000FFF7B0FF802071490860FFF7ABFF802015
:103410006E49091D0860FFF7A5FF00BD00B58020BB
:103420006A49091D0860FFF79DFF40206749086051
:10343000FFF798FF802065490860FFF793FF802021
:103440006249091D0860FFF78DFF00BD00B58020AF
:103450005E49091D0860FFF785FF40205B49086051
:10346000FFF780FF802059490860FFF77BFF57482E
:103470000838006810F0400F05D080205349091D1E
:103480000860002000BD80205049091D086001200F
:10349000F8E700B50246082319E080204B49091DD2
:1034A0000860FFF75FFF12F0800F03D0402047490C
:1034B000086003E040204549091D08605006020EDF
:1034C000FFF750FF802041490860FFF74BFF1800CD
:1034D000A3F10101CBB2E0D180203C49091D086075
:1034E00000BD00B50823002240203849086014E0E0
:1034F0005006020E80203549091D0860FFF732FF93
:10350000802032490860FFF72DFF304808380068F6
:1035100010F0400F01D042F001021800A3F10101A8
:10352000CBB2E5D180202949091D0860104600BDB5
:1035300030B505460C46FFF71CFF08B9002030BD2A
:103540002046FFF7A6FFFFF781FF18B9FFF735FF09
:103550000020F4E72846FFF79CFFFFF777FFFFF70F
:103560002CFF0120EBE730B504460D46FFF701FFC5
:1035700008B9002030BD45F00100FFF78AFFFFF7D2
:1035800065FFFFF7AEFF2070FFF748FFFFF715FF5D
:103590000120EFE708B5C020ADF8000003208DF84A
:1035A000020014208DF80300694608481038FCF723
:1035B00063FF08BD30B505460C4640212846FFF79D
:1035C000B7FF42212046FFF7B3FF30BD100C01408A
:1035D00010B504460C2C47D2DFE804F046060B1069
:1035E000151A1F242A30353A40214D48FCF7EFFFC9
:1035F0003BE020214A48FCF7EAFF36E00821494831
:10360000FCF7E5FF31E080214548FCF7E0FF2CE0C6
:1036100020214448FCF7DBFF27E010214148FCF75C
:10362000D6FF22E04FF400713E48FCF7D0FF1CE0CB
:103630004FF480713B48FCF7CAFF16E002213A487C
:10364000FCF7C5FF11E001213748FCF7C0FF0CE093
:103650003648007840F02000344908704221334851
:103660000078FFF765FF00E000BF00BF10BD10B598
:10367000002405E0611CC8B2FFF7AAFF601CC4B2B9
:103680000B2CF7DB10BD10B54FF44E712548FCF73D
:10369000A0FFE0212248FCF79CFF03212248FCF711
:1036A00098FF2248007800F0DF002049087042218E
:1036B0001E480078FFF73CFF10BD70B500250124BF
:1036C00019E0FFF7E0FF2046FFF782FF3220FFF707
:1036D00015F84FF400511448FCF75FFF28B1601E45
:1036E000012101FA00F0054303E0601E0121814041
:1036F0008D43601CC4B20A2CE3DDFFF7B8FFFFF76F
:10370000C2FF3220FEF7FAFF4FF400510648FCF7E3
:1037100044FF08B945F48065FFF7A9FFA8B270BD62
:1037200000140140000C0140001801403900002045
:103730000021FD4A11705170002005E00022FA4975
:10374000891C0A54411CC8B20428F7DB0021F64A40
:103750009171704708B5FEF79DFFFEF7B5FEFFF7C4
:1037600019FFF2480178F2480078FFF723FFFFF7CE
:10377000BBFBFFF7E4FD00F0EBFF00F0F9FF01F009
:1037800023F801F032F801F05DF87D20FDF703F831
:1037900020B1E8A001F03EFAFDF762F94021EA48C5
:1037A000FFF7E1FE28B30020E849086017E0E7488A
:1037B0000078001D012101FA00F0E3490978084072
:1037C000E24909784900491C0841E1490978084360
:1037D000DF490870DD480068401CDC490860DB48B0
:1037E00000680428E3D3DA480278DAA1DE48FFF75C
:1037F0000DFCD74800780A2876D10120DB490870F3
:103800006EE00120DA49087061E0FFF7C3FA022395
:10381000D7480278D54801780020FFF74AFAD54901
:103820000870084600780090D1480378CF480278A5
:10383000D1A1CD48FFF7EAFBCE480078022803DA91
:103840000220D949087002E00020D74908704FF4DF
:10385000FA70FEF753FF2DE00020D44908600FE016
:10386000C3480078401ED24931F81000D149096898
:103870000844D0490860CD480068401CCB49086026
:10388000CA4800680328EBD3CA480068B0F5676FE0
:103890000AD9B7480078FEF7E2FF0020C249087055
:1038A000C5A1B148FFF7B2FB0020C2490860012062
:1038B000FEF724FFBC4800780228CDD04FF4FA7000
:1038C000FEF71CFFAA480078401CA9490870A848C8
:1038D00000780A2899DBA5480078401CA3490870A5
:1038E000A24800780A288CDB99480078052876D110
:1038F00001209E4908706EE001209D49087061E03A
:10390000FFF748FA07239A4802789848017801207F
:10391000FFF7CFF99749087008460078009094485F
:10392000037892480278A8A18F48FFF76FFB91486F
:103930000078072803DA01209B49087002E0002084
:10394000994908704FF4FA70FEF7D8FE2DE0002078
:10395000964908600FE086480078401E944931F887
:103960001000944909680844924908608F4800682B
:10397000401C8E4908608D4800680328EBD38D48B1
:103980000068B0F5676F0AD979480078FEF767FFDD
:1039900000208549087088A17348FFF737FB002095
:1039A000844908600120FEF7A9FE7F4800780128BD
:1039B000CDD04FF4FA70FEF7A1FE6D480078401CA0
:1039C0006B4908706A4800780A2899DB67480078D4
:1039D000401C66490870654800780A288CDB8548D9
:1039E000FFF7A7FBFDE3FEF7D0FC834800780A2829
:1039F00075D2DFE800F07405223D487598979695DA
:103A000042217E48FFF7AFFD7C48007810F00800A7
:103A10007A49087010D13220FEF770FE42217748B3
:103A2000FFF7A1FD7548007810F008007349087091
:103A300002D102207049087077E104217048FCF738
:103A4000ACFD88B9FFF7C1F988B96E48FFF771FB83
:103A5000FFF7A0F907230B2209210120FFF729F91D
:103A600003206549087002E00420634908705CE1A6
:103A700004216348FCF791FD20B1FFF78BF9042086
:103A80005D49087051E160480078C8B942215F483B
:103A9000FFF769FD5D48007810F004005B4908708D
:103AA0001CD00520544908700020594908600121A4
:103AB0000220FCF7A4FF01215648FDF72FFE0DE080
:103AC00004204D49087000205149086000215148E8
:103AD000FDF724FE00210220FCF791FF25E123E100
:103AE00049480078D0B94A480068B0F5FA7F16D343
:103AF00000204749086000214648FDF70FFE0021DD
:103B00000220FCF77CFF42214048FFF72CFD3F4894
:103B1000007810F004003D4908707DE093E0A0E0DB
:103B200001E1E4E0C4E09DE0FA000020390000205B
:103B3000380000205761746368446F6720526573D2
:103B400065740D0A000000003A00002030000020DB
:103B50003B00002052756E4D6F646520697320250F
:103B6000642E0D0A0000000000440040CD0000203B
:103B7000CC000020CE0000200D0A20526F772025B7
:103B8000642C20436F6C2025642C20537461727464
:103B900054696D65732025642C204261636B7761E5
:103BA00072640D0A00000000CB00002034000020E9
:103BB000E4000020B80000204D6F746F7220537431
:103BC0006F707065640D0A000D0A20526F77202512
:103BD000642C20436F6C2025642C20537461727414
:103BE00054696D65732025642C20466F727761726D
:103BF000640D0A0046000020CA0000203D0000209D
:103C0000001401409A000020450000203E000020E2
:103C1000D80000200004004011D00620F9490870A7
:103C20000020F949086001210220FCF7E8FE01218B
:103C3000F648FDF773FDF648FFF77BFA11E0042024
:103C4000F04908700DE00420EE4908700020EE49AC
:103C500008600021ED48FDF761FD00210220FCF71E
:103C6000CEFE62E0EB48007898B9E7480068B0F50E
:103C7000FA7F1CD30720E34908700021E348FDF7D1
:103C80004DFD00210220FCF7BAFE0020DE4908604D
:103C90000DE00420DB4908700020DB4908600021AA
:103CA000DA48FDF73BFD00210220FCF7A8FE3CE0CE
:103CB000D8480078B8B90821D748FCF76EFC70B135
:103CC000FFF783F890B9FFF765F807230B22092166
:103CD0000020FEF7EEFF0820CA49087006E0012028
:103CE000C849087002E00420C64908701DE0C948B0
:103CF000007890B90421C848FCF74FFC90B908211E
:103D0000C548FCF74AFC68B96420FEF7F7FCFFF7EA
:103D100041F80120BB49087004E00120B94908704E
:103D2000FFF738F801E000E000BF00BFBB48007AB1
:103D300000287DD00020B9490872B948FFF7F9F989
:103D4000B6484078142874D2DFE800F073EF730AA5
:103D500078F4EDECEBEAE9E8E7E6E5E4E3E2E1E05C
:103D6000FFF733F8F0BBAD48C078AC49897840EA3A
:103D70000120AC490860A9484179007941EA002056
:103D8000A94908600020A949086048E0A5480068E2
:103D9000A6490978C84010F0010F3BD00020A44983
:103DA000086033E0A0480068A1490978C84010F0D5
:103DB000010F26D09D480078401C9E4988709C4881
:103DC0000078401CC870FEF7E5FF0723984802689A
:103DD000521C96480168491C0120FEF76AFF95496C
:103DE000087100E026E091480078B73090490978E2
:103DF00008449049097908448E4988710846FFF7BC
:103E000098F98B480068401C894908608848006818
:103E10000B28C7D385480068401C84490860834844
:103E200000680B28B2D34FF4FA70FEF767FC04E089
:103E300050E24BE28048FFF77CF948E2FEF7C5FF0D
:103E4000F0BB7648C0787549897840EA0120754909
:103E5000086072484179007941EA0020724908609F
:103E600000207249086048E06E4800686F49097890
:103E7000C84010F0010F3BD000206D49086033E0CE
:103E8000694800686A490978C84010F0010F26D0D7
:103E900066480078401C6749887065480078401C77
:103EA000C870FEF777FF072361480268521C5F481D
:103EB0000168491C0020FEF7FCFE5E49087100E025
:103EC00034E05A480078B7305949097808445949CC
:103ED00009790844574988710846FFF72AF9544878
:103EE0000068401C52490860514800680B28C7D33D
:103EF0004E480068401C4D4908604C4800680B283B
:103F0000B2D34FF4C870FEF7F9FB12E0BCE1D9E17F
:103F1000D4E1A4E18AE13CE110E104E1B8E0ADE0E4
:103F200051E0A2E098E047E004E0BAE04248FFF741
:103F300000F9CCE1FEF72EFF4048FCF744FB48F6C1
:103F400010210840884201DA012400E000243C48A6
:103F5000FCF739FB00F46C40B0F56C4F01DA01203E
:103F600000E0002004433748FCF72DFB00F4B45078
:103F7000B0F5B45F01DA012000E0002004432648D8
:103F8000FCF721FB00F42240B0F5224F01DA0120BA
:103F900000E0002004432C48FCF715FB00F4F0601F
:103FA000B0F5F06F01DA012000E00020044302D1F7
:103FB0002648FFF7BEF88AE1FEF7ECFE174988783D
:103FC000FEF7B6FE83E1FFF778FB2149086008465B
:103FD00000782049C8701E480088000A887008468A
:103FE0008078B230C97808441A4988710846FFF7CA
:103FF000A0F80020164908601649C8708870B220E1
:10400000887164E1CA000020D8000020000400404C
:10401000A10000204500002000140140FA0000200B
:1040200046000020B4000020B00000203000002036
:104030003400002093000020A80000200008014068
:10404000000C0140001001400018014085000020D4
:10405000400000207E000020FFF715FB0120F949F9
:104060000870F948FFF765F831E1FFF700FB002021
:10407000F4490870F548FFF75CF828E1FEF78AFE7E
:104080000A210020FEF7B6FCF148FFF752F81EE1C6
:10409000FEF780FE0A20FEF7E2FBEE48FFF749F844
:1040A00015E14021EC48FFF75EFA88B3EA48007852
:1040B00000F00F00E94988700020E949086017E026
:1040C000E7480078001D012101FA00F0E249097873
:1040D0000840E34909784900491C0841DF49C9788B
:1040E0000843DE49C870DE480068401CDC490860AF
:1040F000DB4800680428E3D3D8488078AB30D74940
:10410000C9780844D54988710846FFF712F809E0D4
:10411000FFE7FF20D1498870C870A9208871084640
:10412000FFF707F8D3E04221CE48FFF71CFACD484D
:104130000278CDA1D348FEF769FFC8E04FF40051E3
:10414000D148FCF72AFA04462246D0A1CD48FEF712
:104150005DFF0421D148FCF720FA04462246D0A195
:10416000C848FEF753FF4FF48041C748FCF715FAE3
:1041700004462246CEA1C348FEF748FF0821C7489F
:10418000FCF70BFA04462246CDA1BE48FEF73EFFDF
:104190009DE0CF488078012811D1C102BA48FCF7D0
:1041A00018FA4FF48051B848FCF711FA0221C948B7
:1041B000FCF70DFAC8A1B348FEF728FF35E0C44864
:1041C0008078022813D1C102AF48FCF702FA4FF4FD
:1041D0000061AD48FCF7FBF90221BE48FCF7F7F996
:1041E00000E02DE1C5A1A748FEF710FF1DE0B8488B
:1041F000807803280CD1C102A348FCF7E8F902211A
:10420000B448FCF7E4F9C6A19E48FEF7FFFE0CE0B7
:104210004FF4C0519C48FCF7DCF90221AD48FCF793
:10422000D8F9C8A19748FEF7F1FE50E008219B4855
:10423000FCF7B3F990B1D0480078012803D0CE48FC
:10424000007809280AD1FEF7A5FD07230B220921D2
:104250000020FEF72EFD0120C849087037E0042138
:104260008E48FCF79AF970B9C348007801280AD142
:10427000FEF790FD07230B2209210120FEF719FD0F
:104280000120BF49087022E000207549086010E055
:10429000BC487349096830F8113071480268521CF3
:1042A000B9A17848FEF7B2FE6D480068401C6C4921
:1042B00008606B4800680B28EAD308E00120BD497C
:1042C000087004E00020BB49087000E000BF00BF98
:1042D000FFF72EFA5B48007858B14FF400516A4856
:1042E000FCF75BF9012804D1FEF754FDB248FEF754
:1042F00020FF00205A49086039E00020AF490860DB
:104300000EE0A0485649096830F81100AC49096828
:104310000844AB490860A9480068401CA7490860E8
:10432000A64800680328ECD3A5480068B0F5676F7D
:1043300015D94B480068401CFEF791FA48480078B0
:10434000401CA049887046480078B53088710846FE
:10435000FEF7EFFE00209B498870B4208871002092
:10436000974908603E480068401C3D4908603C4849
:1043700000680A28C1D30020904908600BE08148FA
:10438000808A8F49096808448D4908608B48006815
:10439000401C8A490860894800680328EFD37648A2
:1043A0000078032804D141F20C208749086003E01B
:1043B00042F21070844908608148006882490968A7
:1043C000884212D90B207F498870BF208871084627
:1043D000FEF7AFFE00207B498870B4208871012071
:1043E000654908700B20FEF73AFA0020744908600E
:1043F00062480078A0B108212848FCF7CEF878B9C7
:1044000004212648FCF7C9F850B96420FEF776F974
:10441000FEF7C0FC00205949087001205649087079
:104420005748007860B104211C48FCF7B6F838B151
:10443000FEF7B0FC00205249087009204E49087070
:10444000FFF7D1BAC00000207000002077000020E4
:1044500062000020690000203A0000204D0000208A
:10446000300000203D000020204932432061646478
:104470007265737365642030783432206973202547
:10448000640D0A00004400400018014020535F53AF
:10449000454E312069732025640D0A000014014047
:1044A00020535F53454E322069732025640D0A0066
:1044B00020535F53454E332069732025640D0A0055
:1044C00020535F53454E342069732025640D0A0044
:1044D000FA0000200008014020456E61626C6520F2
:1044E0004C3239382C2054435F53313D312C205409
:1044F000435F53323D30200D0A00000020456E61BD
:10450000626C65204C3239382C2054435F53313D66
:10451000302C2054435F53323D31200D0A000000FF
:1045200020456E61626C65204C3239382C20544332
:104530005F53313D312C2054435F53323D31200DC8
:104540000A00000044697361626C65204C3239389E
:1045500020616E6420416C6C20636F6E74726F6CAE
:1045600020706F727420697320736574207A65728D
:104570006F200D0A00000000CA000020C8000020C3
:10458000C9000020E40000200D0A20746865206343
:10459000757272656E74206F6620436F6C756D6EF8
:1045A0002025642069732025642F34363230412E53
:1045B0000D0A0000450000205B00002034000020B0
:1045C000B80000208C000020BC0000202DE9F0473E
:1045D00000204F4908602BE04E494D4A126831F8DF
:1045E000120000F005FA81464FF08B4100F04EF9C1
:1045F000044600F002FA07460022474B00F086F915
:10460000054600F00DFA454908606420FEF776F88B
:104610004248006800F0F1F9044622460B4640A1EA
:104620004148FEF7F3FC3A480068401C38490860EE
:10463000374800680B28CFD33CA13B48FEF7E6FC87
:10464000BDE8F08710B549F611713948FBF7BFFF97
:104650004FF63C713748FBF7BAFF4FF6C07136484A
:10466000FBF7B5FF4FF6F0713448FBF7B0FF40F2AF
:10467000FF713348FBF7ABFF4FF4FA70FEF73EF8DB
:1046800049F611712A48FBF7A4FF4FF63C712948FF
:10469000FBF79FFF4FF6C0712748FBF79AFF4FF6D5
:1046A000F0712648FBF795FF40F2FF712448FBF7B5
:1046B00090FF4FF47A70FEF721F810BD10B5214835
:1046C00000782149087040211E48FEF74CFF1F4921
:1046D00008706420FEF712F81B4800781949097821
:1046E000884213D042210020FEF722FF17490870AC
:1046F0004FF4FA70FEF702F84221FF20FEF718FF90
:10470000124908704FF4FA70FDF7F8FF10BD000071
:1047100030000020E400002000000440D000002011
:104720002D2D3E2566560000004400400D200A0055
:1047300000080140000C014000100140001401403D
:1047400000180140DD000020DC000020DE00002019
:1047500008B51C208DF8000000208DF80100012014
:104760008DF802008DF803006846FBF7BCFD08BD1C
:104770000EB501210846FCF742F94FF08040FCF7E6
:104780009DFB42F21070ADF804004720ADF8000028
:104790000020ADF80600ADF8020069464FF08040F9
:1047A000FCF760FC01218807FDF77EFA0122114623
:1047B0009007FCF7CEFF01218807FCF7AFFF00212F
:1047C0000120FCF71CF90EBD08B51D208DF8000076
:1047D00000208DF8010002208DF8020001208DF8E4
:1047E00003006846FBF77FFD08BD0EB501210220DE
:1047F000FCF705F91248FCF761FB42F21070ADF8C6
:1048000004004720ADF800000020ADF80600ADF828
:10481000020069460A48FCF725FC01210848FDF71B
:1048200043FA012211460648FCF793FF0121044890
:10483000FCF774FF00210220FCF7E1F80EBD000038
:104840000004004010B545F25550FDF795FD0620D7
:10485000FDF795FD40F20D30FDF794FDFDF795FD58
:10486000FDF798FD10BD0000064880470648004748
:10487000FEE7FEE7FEE7FEE7FEE7FEE7FEE7FEE710
:10488000FEE7FEE7DD010008ED00000830B480EA35
:10489000010202F0004530F0004221F0004015D046
:1048A000A0B1C0F3C753C2F3C754C2F31601C0F39B
:1048B0001600E41A41F4000140F400027D349142F4
:1048C00001D3641C00E04900002C02DA30BC002057
:1048D00070474FF400000023914201D3891A03432B
:1048E00040084FEA4101F7D151B1914202D14FF056
:1048F000004105E002D24FF0010101E06FF001013B
:1049000003EBC450284430BC00F0BCB82DE9FE4F86
:1049100081EA030404F0004421F0004100944FF0C8
:10492000000B23F0004350EA010402D052EA0304D2
:1049300004D10020014603B0BDE8F08FC3F30A5450
:10494000C1F30A552C44A4F2F3340194A0FB0254A1
:10495000C1F3130141F48011C3F3130343F4801333
:1049600001FB024400FB034E840A970A44EA815487
:1049700047EA8357A4FB076802958D0A05FB078564
:104980004FEA932C04FB0C542705029D4FEA06586E
:1049900047EA1637B5EB08056EEB070C870E920E4B
:1049A00047EA811742EA8312A7FB0201B6EB0B012B
:1049B00064EB00042B0D43EA0C335E1844EB1C50EF
:1049C000DA465146E7FB0201C5F313044FEA0B3305
:1049D00043EA14534FEA0432019C43EA0603A4F16C
:1049E0000C040294009CCDE900B400F08EF8A2E71C
:1049F00096230022114600F04EB800F0004230F03D
:104A000000400AD0C10D01F56071C0F3160042EA02
:104A10000151C2084007114370470020014670470A
:104A200001F0004330B421F0004150EA010206D009
:104A30000A0DA2F56072C1F31301002A02DC30BC3A
:104A400000207047440F44EAC104C100E01830BCA4
:104A500000EBC25000F016B830B50B4601460020FE
:104A60002022012409E021FA02F59D4205D303FA30
:104A700002F5491B04FA02F52844151EA2F10102B1
:104A8000F1DC30BD0029A8BF7047401C490008BFB9
:104A900020F00100704710B4B0FA80FC00FA0CF06E
:104AA00050EA010404BF10BC704749B1CCF12004A6
:104AB00021FA04F411FA0CF118BF01212143084333
:104AC000A3EB0C01CB1D0106000A002BBEBF00208A
:104AD00010BC704700EBC35010440029A4BF10BCA9
:104AE0007047401C490008BF20F0010010BC70470F
:104AF00010B5002B08DA401C41F1000192185B410F
:104B00001A4301D120F0010010BD2DE9F04D92466D
:104B10009B4611B1B1FA81F202E0B0FA80F2203284
:104B2000904600F057F804460F4640EA0A0041EA72
:104B30000B0153465A46084303D120463946BDE887
:104B4000F08D114653EA010015D0C8F140025046DD
:104B500000F04FF805460E4650465946424600F0D2
:104B600039F8084301D0012000E00020054346EA5F
:104B7000E0762C4337430A984FEA4453A0EB0800F1
:104B80004FEAD4240A304FF0000244EA47544FEA77
:104B9000D72502D500200146D1E70105101969414A
:104BA000DDE9084500196941BDE8F04DA0E70000C6
:104BB000064C074D06E0E06840F0010394E807006A
:104BC00098471034AC42F6D3FBF794FAA84D00088E
:104BD000C84D0008202A04DB203A00FA02F1002028
:104BE00070479140C2F1200320FA03F3194390402B
:104BF0007047202A04DB203A21FA02F00021704796
:104C000021FA02F3D040C2F1200291400843194634
:104C1000704700000FB4054B10B503A9044A029871
:104C200000F018F810BC5DF814FB00008D2F000890
:104C3000E000002002E008C8121F08C1002AFAD1D3
:104C400070477047002001E001C1121F002AFBD10C
:104C5000704700002DE9FF4F89B09B4604460025B0
:104C600097E0252833D10027641C4E49B84601221D
:104C70002378203B02FA03F0084202D00743641C69
:104C8000F6E720782E2819D114F8010F47F0040711
:104C90002A280ED06FF02F022078A0F130010929C8
:104CA0000CD808EB880102EB410100EB0108641C01
:104CB000F2E70A98641C50F8048B0A9020780028C8
:104CC0006BD0642808D0692806D0752820D05A46B1
:104CD0000B9990476D1C5BE00A994FF00A0901C9D6
:104CE0000A91002804DAC0F100004FF02D0102E023
:104CF000390504D52B218DF82010012103E0F90797
:104D000004D02021F7E78A4608AE0EE00021FAE73A
:104D10000A994FF00A0901C90A91F7E74946FFF7D6
:104D20009BFE01F1300106F8011D0028F6D1ADEB24
:104D3000060000F12009780701D44FF00108C845AA
:104D400002DDA8EB090000E000208046002706E015
:104D500008A85A46C05D0B9990476D1C7F1C5745AB
:104D6000F6DB04E030205A460B9990476D1CB8F1F1
:104D70000001A8F10108F5DC05E016F8010B5A4620
:104D80000B9990476D1CB9F10001A9F10109F4DC00
:104D9000641C207800287FF464AF0DB02846BDE87D
:104DA000F08F000009280100C84D00080000002015
:104DB000E4000000344C0008AC4E0008E400002081
:104DC00024040000444C000800A24A040000000033
:104DD00000000000010203040607080900000000AB
:104DE000010203040102030406070809020406087D
:104DF00000000000000000000000000000000000B3
:104E0000FFEF000000000000000000000100AABB4E
:104E10000000000065AA0100000000ABAA0200002B
:104E20000000ACAA0300000000ADAA0400000000CE
:104E3000AEAA0500000000AFAA0600000000B0AA5C
:104E40000700000000B1AA0800000000B2AA090093
:104E5000000000B3AA0A00000000B4AA0B00000082
:104E600000B5AA0C00000000B6AA0D00000000B7B3
:104E7000AA0E00000000B7000000000000000000C3
:104E8000000000000000000000000000E803000037
:104E90000000010000000000000000000000000011
:0C4EA00000000000000000000000000006
:04000005080000ED02
:00000001FF
