:020000040800F2
:10000000E804002029440008792300087B23000825
:100010007F230008832300088723000800000000D6
:100020000000000000000000000000008B2300081A
:100030008D230008000000008F2300089123000892
:100040004344000843440008434400084344000874
:100050004344000843440008434400084344000864
:100060004344000843440008434400084344000854
:100070004344000843440008434400084344000844
:100080004344000843440008434400084344000834
:100090004344000843440008434400084344000824
:1000A0004344000843440008434400084344000814
:1000B0009B230008BB230008434400084344000876
:1000C00043440008434400084344000843440008F4
:1000D0004344000843440008DB230008434400086D
:1000E000992300084344000843440008DFF80CD07B
:1000F00004F0B0FC0048004715350008E804002073
:100100000CB50020019000906B48006840F48030EE
:100110006949086000BF6848006800F4003000903A
:100120000198401C0190009818B90198B0F5A06F93
:10013000F1D16148006810F4003F02D00120009026
:1001400001E0002000900098012842D15B4800683F
:1001500040F01000594908600846006820F003008C
:1001600008600846006840F0020008605248406895
:10017000514948600846406848600846406840F475
:10018000806048600846406820F47C10486008465B
:10019000406840F4E81048600846006840F080700D
:1001A000086000BF4448006810F0007FFAD0424861
:1001B000406820F00300404948600846406840F02D
:1001C0000200486000BF3C48406800F00C0008286E
:1001D000F9D10CBD10B5FFF793FF10BD10B536482F
:1001E000006840F00100344908600846406834491E
:1001F00008403149486008460068324908402E49A5
:1002000008600846006820F48020086008464068BE
:1002100020F4FE0048604FF41F008860FFF7DAFF0B
:100220004FF000602849086010BD10B50021002083
:100230000022214B5B6803F00C0121B1042906D098
:10024000082928D107E0214B214C236027E01F4BD0
:100250001F4C236023E0184B5B6803F47010164BAF
:100260005B6803F48032022303EB904022B9194B00
:100270004343174C23600DE00F4B5B6813F4003FC2
:1002800004D0144B4343124C236003E00F4B434311
:100290000F4C236003E00D4B0D4C236000BF00BFEB
:1002A000054B5B68C3F303130B4CE15C084B1B6805
:1002B000CB40074C236010BD0010024000200240DC
:1002C0000000FFF8FFFFF6FE08ED00E000127A00E4
:1002D0000000002000093D000400002031490143D6
:1002E000314A1160704770B5002100230F22C47895
:1002F0000CB32D4C246804F4E064C4F5E064210AD6
:10030000C1F10403CA40447804FA03F1847814402C
:1003100021430901254C0678A155047804F01F05F6
:100320000124AC4005786D114FF0E02606EB850501
:10033000C5F8004109E0047804F01F050124AC4031
:100340001B4D0678761145F8264070BD194A0A40C3
:100350000243154B1B1F1A60704739B1124A121D18
:1003600012680243104B1B1D1A6006E00E4A121D54
:10037000126882430C4B1B1D1A607047042808D179
:100380004FF0E021096941F004014FF0E0221161D2
:1003900007E04FF0E021096921F004014FF0E0226D
:1003A000116170470000FA050CED00E000E400E088
:1003B00080E100E080FFFF1F10B50446CA48844278
:1003C00008D10121042000F027FB0021042000F0C7
:1003D00023FB46E0C548844208D10121082000F0F3
:1003E0001BFB0021082000F017FB3AE0C0488442C4
:1003F00008D10121102000F00FFB0021102000F097
:100400000BFB2EE0BB48844208D10121202000F0E4
:1004100003FB0021202000F0FFFA22E0B6488442CE
:1004200008D10121402000F0F7FA0021402000F01F
:10043000F3FA16E0B148844208D10121802000F08F
:10044000EBFA0021802000F0E7FA0AE0AC48844291
:1004500007D10121801500F0DFFA0021A01500F07E
:10046000DBFA10BD10B50121084600F0D5FA0021D5
:10047000012000F0D1FA10BD2DE9F041024600251F
:100480000026002000230024002791F803C00CF070
:100490000F0591F803C01CF0100F03D091F802C0B3
:1004A0004CEA050591F800C0BCF1000F31D014688A
:1004B00000202BE04FF0010C0CFA00F3B1F800C063
:1004C0000CEA03069E4220D183004FF00F0C0CFA79
:1004D00003F7BC4305FA03FC4CEA040491F803C09B
:1004E000BCF1280F06D14FF0010C0CFA00FCC2F849
:1004F00014C00AE091F803C0BCF1480F05D14FF0D9
:10050000010C0CFA00FCC2F810C0401C0828D1D322
:100510001460B1F800C0BCF1FF0F34DD5468002056
:100520002EE000F1080C4FF0010808FA0CF3B1F8C6
:1005300000C00CEA03069E4221D183004FF00F0C4D
:100540000CFA03F7BC4305FA03FC4CEA040491F8E7
:1005500003C0BCF1280F05D100F1080C08FA0CF813
:10056000C2F8148091F803C0BCF1480F07D100F124
:10057000080C4FF0010808FA0CF8C2F81080401C73
:100580000828CED35460BDE8F0814FF6FF7101809A
:10059000022181700421C1707047024600209368D7
:1005A0000B4201D0012000E000207047014688681E
:1005B00080B2704702460020D3680B4201D0012070
:1005C00000E0002070470146C86880B270470161B2
:1005D0007047416170470AB1016100E041617047B5
:1005E000C16070474FF480320A4382618161826149
:1005F00082698269704702460020424B18684FF6B4
:100600008073184040EA021008433E4B1860704760
:100610003D49C8617047F0B50A4600230024002117
:10062000002500F00046B6F1004F02D1354EF169C9
:1006300001E0344E7168C0F3034583B200F4401604
:10064000B6F5401F08D121F070612E4E766826F075
:1006500070662C4F7E6012E000F48016B6F5801FA5
:1006600006D1032606FA05F4A14341F0706106E0C5
:10067000460D360103FA06F6B14341F0706122B12E
:10068000460D360103FA06F6314300F00046B6F196
:10069000004F02D11B4EF16101E01A4E7160F0BDB6
:1006A00030B500228B071C0F0F2303FA04F2154B01
:1006B00008338C1053F824309343124C08348D10B7
:1006C00044F8253023468C1053F824308C07240F2F
:1006D00000FA04F423430B4C08348D1044F8253001
:1006E00030BD0A490860704700080140000C014015
:1006F000001001400014014000180140001C01409E
:10070000002001400000014000002042DC002042A7
:10071000DD48006840F00100DB4908600846406899
:10072000DA490840D849486008460068D849084076
:10073000D54908600846006820F480200860084613
:10074000406820F4FE0048604FF41F008860704746
:10075000CD49096821F48031CB4A116011460968FE
:1007600021F480211160B0F5803F03D0B0F5802FD7
:100770000ED106E0C449096841F48031C24A1160D3
:1007800007E0C149096841F4A021BF4A116000E0B7
:1007900000BF00BF704710B50146002200230020B3
:1007A0004A11012A02D1B84C236806E0022A02D17C
:1007B000B54C236A01E0B44C636A01F01F020124C6
:1007C00094401C4201D0012000E0002010BD38B54B
:1007D000002000900024002500BF3120FFF7DBFF40
:1007E00005460098401C00900098B0F5A06F01D01D
:1007F000002DF2D03120FFF7CEFF08B1012400E038
:100800000024204638BD014600209F4A106820F091
:10081000F80040EAC100106070479E4908607047C8
:1008200002460020984B586820F47C1042EA0103ED
:100830001843954B586070479649086670470146C3
:100840000020914A506820F0030008435060704730
:100850008D48406800F00C007047014600208A4A2D
:10086000506820F0F00008435060704701460020B7
:10087000854A506820F4E0600843506070470146A4
:100880000020814A506820F4605040EAC100506066
:10089000704729B17C4A527A02437B4B5A7204E07A
:1008A000794A527A8243784B5A7270477A49086083
:1008B000704701460020744A506820F440400843C5
:1008C000506070470021754A11706F4A82F82010FD
:1008D000012802D0042808D103E001216F4A1170D9
:1008E00004E005216D4A117000E000BF00BF7047B1
:1008F0006B49086070476449096A0143624A1162A2
:100900007047674944390860704730B500210022BC
:10091000002400235C4D6D6805F00C0121B1042911
:1009200005D0082923D105E05E4D056022E05D4D2C
:1009300005601FE0544D6D6805F47012524D6D68EE
:1009400005F48034022505EB92421CB9564D5543FF
:1009500005600BE04C4D6D6815F4003F03D0524D1F
:100960005543056002E04F4D5543056002E04D4D93
:10097000056000BF00BF444D6D6805F0F001090936
:100980004A4D6B5C0568DD4045603F4D6D6805F480
:10099000E061090A454D6B5C4568DD4085603A4D74
:1009A0006D6805F46051C90A404D6B5C4568DD40D7
:1009B000C560354D6D6805F44041890B3C4D6B5C5D
:1009C000C568B5FBF3F5056130BD29B12E4A526902
:1009D00002432D4B5A6104E02B4A526982432A4B51
:1009E0005A61704729B1284A92690243264B9A619D
:1009F00004E0254A92698243234B9A61704729B1EA
:100A0000214AD2690243204BDA6104E01E4AD269CE
:100A100082431D4BDA61704729B11B4AD2680243F9
:100A2000194BDA6004E0184AD2688243164BDA6048
:100A3000704729B1144A12690243134B1A6104E04A
:100A4000114A12698243104B1A61704714494039A8
:100A5000086070470F49C86470470B49C8717047F8
:100A60000948406A40F08070074948627047014673
:100A70000020054A92680A4201D0012000E00020CF
:100A80007047014988727047001002400000FFF86B
:100A9000FFFFF6FE00004242D80042422010024012
:100AA0008004424200127A0000093D001400002038
:100AB0002400002010B50446FB48844209D10121DE
:100AC0008803FFF7A9FF00214FF48040FFF7A4FF40
:100AD00032E0F648844209D101214804FFF7A9FF1A
:100AE00000214FF40030FFF7A4FF25E0F0488442D6
:100AF00009D101218804FFF79CFF00214FF48020D9
:100B0000FFF797FF18E0EB48844209D10121C804A0
:100B1000FFF78FFF00214FF40020FFF78AFF0BE063
:100B2000E548844208D101210805FFF782FF002132
:100B30004FF48010FFF77DFF10BD2DE9F04786B020
:100B400005460E460024A24600BFA1460027B089F4
:100B500000B100BF2F462C8A4CF6FF700440F0888D
:100B600004432C82AC894EF6F3100440B0883189DE
:100B70000843718908430443AC81AC8A4FF6FF40B7
:100B80000440B0890443AC8201A8FFF7BEFEC6480A
:100B9000874202D1DDF810A001E0DDF80CA0A889A1
:100BA00010F4004F08D00AEBCA0000EB0A103168BD
:100BB0004900B0FBF1F807E00AEBCA0000EB0A10AD
:100BC00031688900B0FBF1F86420B8FBF0F0040153
:100BD0002009642101FB1089A88910F4004F08D076
:100BE000322000EBC900B0FBF1F000F00700044335
:100BF00008E0322000EB09106421B0FBF1F000F0B6
:100C00000F0004432C8106B0BDE8F0874FF4165165
:100C1000016000218180C18001810C21418100217E
:100C20008181704710B502460020108A4FF2FF0301
:100C300018400B884C8823438C882343CC8823435B
:100C40001843108210BD0021018041808180C18045
:100C5000704721B1828942F40052828104E0828986
:100C60004DF6FF731A4082817047F0B503460024A9
:100C7000002600250020A1F510676A3F00D100BFC3
:100C80001846C1F3421401F01F06012707FA06F5C2
:100C9000012C01D10C3004E0022C01D1103000E015
:100CA00014301AB107682F43076002E00768AF43AA
:100CB0000760F0BD1AB1838A0B43838202E0838A06
:100CC0008B4383827047028A4FF6F0731A40028288
:100CD000028A0A430282704782894FF2FF731A40E8
:100CE000828182890A438281704721B1828942F0E0
:100CF0000202828104E082894FF6FD731A408281EC
:100D00007047028A4FF6DF731A400282028A0A4352
:100D10000282704721B1028A42F48042028204E0DA
:100D2000028A4BF6FF731A4002827047C1F3080231
:100D30008280704701468888C0F308007047818927
:100D400041F0010181817047028BD2B20283028B94
:100D500042EA012202837047028B02F47F4202833F
:100D6000028B0A430283704721B1828A42F020023B
:100D7000828204E0828A4FF6DF731A4082827047D3
:100D800021B1828A42F01002828204E0828A4FF608
:100D9000EF731A408282704721B1828A42F00802C2
:100DA000828204E0828A4FF6F7731A40828270478B
:100DB00021B1828942F40042828103E08289C2F338
:100DC0000E028281704721B1828A42F400628282DF
:100DD00004E0828A4FF2FF731A4082827047828A4F
:100DE0004FF6FB731A408282828A0A4382827047DE
:100DF00021B1828A42F00202828204E0828A4FF6A6
:100E0000FD731A408282704702460020B1F5007FD0
:100E100000D100BF13880B4201D0012000E0002068
:100E2000704701F40072B2F5007F00D100BFCA43E1
:100E30000280704770B50246002400230025002080
:100E4000A1F510666A3E00D100BFC1F3421501F062
:100E50001F03012606FA03F3012D02D196893340C0
:100E600006E0022D02D1168A334001E0968A334013
:100E70000C12012606FA04F41688344013B10CB1A2
:100E8000012000E0002070BD10B500220023A1F574
:100E900010646A3C00D100BF0A1201249440A3B23E
:100EA000DC43048010BD00000038014000440040D5
:100EB00000480040004C00400050004010B504467F
:100EC000FE48844208D10121C014FFF7A5FD00218E
:100ED000E014FFF7A1FDC4E0B4F1804F08D1012177
:100EE0000846FFF7A6FD00210120FFF7A2FDB8E0AC
:100EF000F348844208D101210220FFF79AFD002126
:100F00000220FFF796FDACE0EE48844208D10121B3
:100F10000420FFF78EFD00210420FFF78AFDA0E0EA
:100F2000E948844208D101210820FFF782FD002111
:100F30000820FFF77EFD94E0E448844208D10121B7
:100F40001020FFF776FD00211020FFF772FD88E0EA
:100F5000DF48844208D101212020FFF76AFD0021EB
:100F60002020FFF766FD7CE0DA48844208D10121A9
:100F70004014FFF751FD00216014FFF74DFD70E0B4
:100F8000D548844209D10121C804FFF745FD00215D
:100F90004FF40020FFF740FD63E0D048844209D1C0
:100FA00001210805FFF738FD00214FF48010FFF7FD
:100FB00033FD56E0CA48844209D101214805FFF7B4
:100FC0002BFD00214FF40010FFF726FD49E0C54836
:100FD000844208D101214020FFF72BFD0021402051
:100FE000FFF727FD3DE0C048844208D10121802061
:100FF000FFF71FFD00218020FFF71BFD31E0BB48FC
:10100000844208D101218015FFF713FD0021A015AE
:10101000FFF70FFD25E0B648844209D101210804FD
:10102000FFF7FAFC00214FF48030FFF7F5FC18E0E1
:10103000B048844209D101214804FFF7EDFC0021AA
:101040004FF40030FFF7E8FC0BE0AB48844208D1D6
:1010500001218804FFF7E0FC00214FF48020FFF716
:10106000DBFC10BD00220288944B98420ED0994BB5
:1010700098420BD0B0F1804F08D0914B984205D0E8
:10108000904B984202D0904B984204D14FF68F7308
:101090001A404B881A438D4B984207D08C4B98428C
:1010A00004D04FF6FF431A40CB881A4302808B8846
:1010B00083850B880385814B98420BD0854B9842E2
:1010C00008D08B4B984205D08A4B984202D08A4B6D
:1010D000984201D10B7A038601238382704770B551
:1010E000002400220023058C4FF6FE76354005844F
:1010F000028C8388048B4FF68F752C40B51E2C40D4
:101100000D882C43751E2A400D892A434D882A4399
:101110006A4DA8420BD06F4DA84208D0744DA8422A
:1011200005D0744DA84202D0734DA84213D14FF69A
:10113000F7752A404D892A434FF6FB752A408D8862
:101140002A434FF6FF652B404FF6FF552B408D8904
:101150002B43CD892B4383800483CD8885860284ED
:1011600070BD70B5002400220023058C4FF6EF7689
:1011700035400584028C8388048B48F6FF752C402B
:101180004FF6FF452C400D884FF6FF7606EA052501
:101190002C434FF6DF752A400D8906EA05152A43D0
:1011A0004D8806EA05152A43444DA84202D0494D10
:1011B000A8421DD14FF67F752A404D894FF6FF7624
:1011C00006EA05152A434FF6BF752A408D8806EAC0
:1011D00005152A434FF6FF352B404FF2FF752B4084
:1011E0008D8906EA85052B43CD8906EA85052B43C3
:1011F00083800483CD880587028470BD70B5002488
:1012000000220023058C4FF6FF6635400584028CD2
:101210008388848B4FF68F752C404FF6FC752C40DD
:101220000D882C434FF6FF552A400D894FF6FF7667
:1012300006EA05252A434D8806EA05252A431F4D5F
:10124000A84202D0234DA8421DD14FF2FF752A407B
:101250004D894FF6FF7606EA05252A434FF6FF35FE
:101260002A408D8806EA05252A434EF6FF752B4055
:101270004DF6FF752B408D8906EA05152B43CD8968
:1012800006EA05152B4383808483CD8885870284F5
:1012900070BD70B5002200230024058C4EF6FF7649
:1012A00035400584038C8488828B48F6FF752A407C
:1012B0004FF6FF452A400D8820E00000002C014039
:1012C0000004004000080040000C004000100040F6
:1012D0000014004000340140004C01400050014027
:1012E0000054014000180040001C00400020004055
:1012F0000040014000440140004801404FF6FF76A5
:1013000006EA05252A434DF6FF752B400D8906EAAE
:1013100005352B434D8806EA05352B43FA4DA84287
:1013200002D0FA4DA84208D14BF6FF752C408D89AA
:101330004FF6FF7606EA85152C4384808283CD889C
:10134000A0F84050038470BD828B4FF2FF331A40E7
:101350008283828B4FF6FF7303EA01231A43828351
:101360007047F0B50C461546002200210026078C78
:101370004EF6FF7C07EA0C070784828B018C4FF640
:10138000FF7707EA043640F6FF473A404FF6FF770B
:1013900007EA05273A434FF6FF7707EA03373A4350
:1013A000D94FB8420ED0D94FB8420BD0B0F1804FD0
:1013B00008D0D74FB84205D0D64FB84202D0D64F4A
:1013C000B84206D14DF6FF77394046F4805739438D
:1013D00005E047F6FF57394044F48057394382838C
:1013E0000184F0BD828B4FF6F3731A408283828BA7
:1013F0000A4382837047F0B50C461546002200214F
:101400000026078C4FF6FF6C07EA0C070784828BD7
:10141000018C4FF6FF7707EA04264FF60C773A4027
:101420004FF6FF7707EA03172F433A43B64FB84208
:101430000ED0B64FB8420BD0B0F1804F08D0B44FA9
:10144000B84205D0B34FB84202D0B34FB84206D12C
:101450004FF6FF57394046F48077394305E04FF2A5
:10146000FF57394044F48077394382830184F0BDCB
:10147000028B4FF2FF331A400283028B4FF6FF7349
:1014800003EA01231A4302837047F0B50C46154660
:10149000002200210026078C4FF6EF7C07EA0C079C
:1014A0000784028B018C4FF6FF7707EA041640F69B
:1014B000FF473A404FF6FF7707EA03373A434FF6C4
:1014C000FF7707EA05273A438F4FB8420ED08F4F78
:1014D000B8420BD0B0F1804F08D08D4FB84205D044
:1014E0008C4FB84202D08C4FB84206D14FF6DF770E
:1014F000394046F01007394305E04FF65F77394031
:1015000044F01007394302830184F0BD028B4FF68B
:10151000F3731A400283028B0A4302837047F0B5CB
:101520000C46154600220021068C4FF6FE773E4001
:101530000684028B018C4FF60C7632407E1C06EA44
:1015400003162E433243704EB0420ED06F4EB0425F
:101550000BD0B0F1804F08D06D4EB04205D06D4E2B
:10156000B04202D06C4EB04206D14FF6FD7631400B
:1015700044F00106314305E04FF6F576314044F082
:101580000106314302830184F0BD70B505460C4667
:101590005D4885420ED05D4885420BD0B5F1804F45
:1015A00008D05B48854205D05A48854202D05A4847
:1015B000854200D100E000BF208850B92389A2886D
:1015C00061882846FFF7ABFFE1882846FFF79EFFBA
:1015D00025E0208804280AD12389A288618828462A
:1015E000FFF753FFE1882846FFF742FF17E0208806
:1015F00008280AD12389A28861882846FFF7FBFEC4
:10160000E1882846FFF7EEFE09E02389A288618879
:101610002846FFF7A6FEE1882846FFF795FE70BD35
:101620002DE9F04105460C4600260127608808B9DF
:10163000022600E00026A088012801D1022700E050
:1016400001272088A0B92389A28861882846FFF74E
:1016500066FFE1882846FFF759FF23893A4631465D
:101660002846FFF712FFE1882846FFF701FF13E045
:101670002389A28861882846FFF707FFE18828466A
:10168000FFF7F6FE23893A4631462846FFF747FF23
:10169000E1882846FFF73AFFBDE8F0810A884B88C9
:1016A0001A438B881A43CB881A430B891A434B89F8
:1016B0001A438B891A43A0F8442070474FF6FF71F4
:1016C000818000210180C18041800172704700212A
:1016D000018041808180C180018141818181C181FE
:1016E0007047002101804180012181800021C1805B
:1016F000018170470021018041808180C18001818A
:101700004181818170470000002C0140003401407C
:101710000004004000080040000C004021B1028895
:1017200042F00102028004E002884FF6FE731A4084
:101730000280704731B1B0F8442042F40042A0F872
:10174000442005E0B0F84420C2F30E02A0F8442083
:1017500070471AB183890B43838102E083898B43ED
:10176000838170478182704741EA0203A0F84830C4
:1017700070471AB183890B43838102E083898B43CD
:101780008381704701894FF6F872114001817047DB
:101790000A46002101894FF68F73194011430181D8
:1017A000704730B504460D4629462046FFF7F0FF46
:1017B000208940F00700208130BD2DE9F04104462A
:1017C0000D4616461F46602D06D13B460122314686
:1017D0002046FFF75AFE05E03B46012231462046EF
:1017E000FFF79DFE29462046FFF7D2FF208940F0F3
:1017F00007002081BDE8F08130B50C460021018949
:10180000C9B24FF6FF7505EA032515432543294361
:10181000018130BD2DE9F04105460E461746984638
:10182000002443463A4631462846FFF7E5FF2C8917
:101830004FF6F870044044F007044FF68F700440F0
:1018400044F070042C81BDE8F081F0B504460D46EB
:1018500016461F463B46324629462046FFF7CCFF38
:10186000208940F480402081F0BD0185828270474C
:101870000A46002101884FF68F73194011430180F9
:101880007047F0B50C4615461E4600210022002385
:101890000189028B038C4FF6F877394021434FF6CC
:1018A000FC473A4040F201173A434FF6DD773B40A0
:1018B0004FF6FF7707EA06172F433B430181028368
:1018C0000384F0BD0A460021018B4FF68F73194047
:1018D0001143018370470A460021018B48F6FF73CC
:1018E00019404FF6FF7303EA02231943018370473F
:1018F0000A460021818B4FF68F7319401143818373
:1019000070470A460021818B48F6FF7319404FF655
:10191000FF7303EA022319438183704721B10288D0
:1019200042F08002028004E002884FF67F731A4082
:101930000280704721B1828842F00402828004E074
:1019400082884FF6FB731A408280704721B18288EB
:1019500042F00802828004E082884FF6F7731A4052
:101960008280704721B1828842F00102828004E0C7
:1019700082884FF6FE731A40828070470A46002123
:10198000018B4FF6F77319401143018370470A46E4
:101990000021018B4FF2FF7319404FF6FF7303EAEA
:1019A00002231943018370470A460021818B4FF6B9
:1019B000F77319401143818370470A460021818BD8
:1019C0004FF2FF7319404FF6FF7303EA02231943E6
:1019D000818370470A460021018B4FF6FB73194043
:1019E0001143018370470A460021018B4FF6FF33F4
:1019F00019404FF6FF7303EA02231943018370472E
:101A00000A460021818B4FF6FB73194011438183F5
:101A100070470A460021818B4FF6FF3319404FF67D
:101A2000FF7303EA02231943818370470A460021AA
:101A3000018B4FF67F7319401143018370470A46AB
:101A40000021018BC1F30E014FF6FF7303EA02235D
:101A50001943018370470A460021818B4FF67F733B
:101A600019401143818370470A460021818BC1F3DD
:101A70000E014FF6FF7303EA022319438183704777
:101A80000A460021018C4FF6FD7319401143018471
:101A900070470A460021018C4FF6F7731940114335
:101AA000018470470A460021018C4FF6DF7319400C
:101AB0004FF6FF7303EA02131943018470470A4685
:101AC0000021018C4FF67F7319404FF6FF7303EA34
:101AD00002131943018470470A460021018C4FF616
:101AE000FF5319404FF6FF7303EA022319430184A1
:101AF00070470A460021018C4FF2FF7319404FF6E0
:101B0000FF7303EA02231943018470470A46002148
:101B1000018C4DF6FF7319404FF6FF7303EA023351
:101B200019430184704730B5002301248C40A3B2CF
:101B3000048C9C430484048C02FA01F5ADB22C435E
:101B4000048430BD30B5002304248C40A3B2048C3F
:101B50009C430484048C02FA01F5ADB22C43048446
:101B600030BD70B50346002000241846183001250A
:101B70008D40ACB21D8CA5431D8409B1082909D143
:101B800000EB6100056825F07005056005681543E8
:101B900005600EE00D1FC5F34E052844056825F4C9
:101BA000E045056005684FF6FF7606EA02263543F4
:101BB000056070BD21B1028842F00202028004E09B
:101BC00002884FF6FD731A400280704721B10288E7
:101BD00042F00402028004E002884FF6FB731A40D0
:101BE0000280704721B1828842F08002828004E046
:101BF00082884FF67F731A408280704702884FF6C2
:101C0000F7731A40028002880A4302807047828874
:101C10004FF68F731A40828082880A438280704711
:101C200002894FF6F8731A40028102890A43028141
:101C3000704702894FF67F731A40028102890A4376
:101C40000281704781847047818570478186704723
:101C50000187704781877047A0F84010704702885D
:101C60004FF6FF431A40028002880A430280704701
:101C70000146888E70470146088F70470146888F5D
:101C800070470146B1F8400070470146888C7047A4
:101C90000146088D704702460020138A0B4201D08E
:101CA000012000E000207047CA430282704730B52F
:101CB0000246002000230024158A05EA01039589C5
:101CC00005EA010413B10CB1012000E0002030BD91
:101CD000CA4302827047000010B50446FA488442A5
:101CE00008D101214015FEF797FE00216015FEF78F
:101CF00093FE17E0F548844208D101210015FEF754
:101D00008BFE00212015FEF787FE0BE0F048844291
:101D100008D10121C803FEF77FFE00214FF40040E7
:101D2000FEF77AFE10BD30B5024600200023506851
:101D3000E84C20400D790C6844EA052420435060AB
:101D40009068E54C2040D1E902542C434D7944EA97
:101D5000450420439060D06A20F470000C7C641E1F
:101D6000E4B2234340EA0350D06230BD0021016059
:101D7000017141718160C16001210174704721B11D
:101D8000826842F00102826003E0826822F0010270
:101D90008260704721B1826842F48072826003E001
:101DA000826822F480728260704710B50023CBB243
:101DB0001AB144681C43446002E044689C43446098
:101DC00010BD816841F00801816070470146002024
:101DD0008A6812F0080F01D0012000E0002070474F
:101DE000816841F0040181607047014600208A68E3
:101DF00012F0040F01D0012000E00020704721B153
:101E0000826842F4A002826003E0826822F4A002A9
:101E100082607047014600208A6812F4800F01D06A
:101E2000012000E00020704710B50A460021002381
:101E3000416821F46041531E41EA4331416010BDC5
:101E400021B1426842F40062426003E0426822F439
:101E5000006242607047F0B504460D460020002144
:101E6000092D11DDE068A5F10A0606EB46070726F5
:101E700006FA07F18843A5F10A0606EB460603FABF
:101E800006F10843E0600CE0206905EB45070726F2
:101E900006FA07F1884305EB450603FA06F1084305
:101EA0002061072A0FDA606B561E06EB86071F2695
:101EB00006FA07F18843561E06EB860605FA06F178
:101EC0000843606322E00D2A0FDA206BD61F06EB71
:101ED00086071F2606FA07F18843D61F06EB8606FB
:101EE00005FA06F10843206310E0E06AA2F10D064E
:101EF00006EB86071F2606FA07F18843A2F10D06B6
:101F000006EB860605FA06F10843E062F0BD21B152
:101F1000826842F48012826003E0826822F48012B8
:101F2000826070470146C86C80B2704766484C308A
:101F30000068704721B1426842F48062426003E069
:101F4000426822F480624260704721B1426842F4E4
:101F50008052426003E0426822F48052426070473F
:101F60000A460021816821F4E041114381607047F5
:101F700021B1826842F40042826003E0826822F468
:101F800000428260704721B1826842F4021282608E
:101F900003E0826822F4021282607047014600204A
:101FA0008A6812F4001F01D0012000E00020704771
:101FB000F0B504461546002000220026092911DD4F
:101FC000E068A1F10A0707EB470C072707FA0CF2B4
:101FD0009043A1F10A0707EB470703FA07F2104302
:101FE000E0600CE0206901EB410C072707FA0CF2D6
:101FF000904301EB410703FA07F210432061A06B05
:10200000C0F30156EF1C06F1010CA7EB0C0707EB20
:10201000870C1F2707FA0CF29043EF1C06F1010C06
:10202000A7EB0C0707EB870701FA07F21043A06341
:10203000F0BD10B50A4600210023816B21F4401148
:10204000531E41EA0351816310BD08B5002300937C
:102050000090009B0B440093009B1A6008BD08B5DC
:10206000024600200090009201F12800009B1844D5
:1020700000900098006880B208BD0A4600214168BF
:10208000164B1940114341607047416282627047AC
:102090000A460021416821F01F0111434160704749
:1020A00040B109490831096841F40001064A083283
:1020B000116007E004490831096821F40001024A6F
:1020C00008321160704700000024014000280140E0
:1020D000003C0140FFFEF0FFFDF7F1FFFFFD3FFF79
:1020E0000246002013680B4201D0012000E00020CE
:1020F0007047CA430260704770B502460020002353
:1021000000240B125568CEB205EA060415681D427C
:1021100002D00CB1012000E0002070BD00220A12A4
:10212000D34303607047000001684FF6FE72114010
:1021300001600021016041608160C1608C4988427A
:1021400008D18B490839496841F00F01884A083A9B
:1021500051608AE086491431884208D1844908399F
:10216000496841F0F001824A083A51607DE08049B7
:102170002831884208D17E490839496841F47061A4
:102180007B4A083A516070E079493C31884208D175
:1021900077490839496841F47041754A083A5160F5
:1021A00063E073495031884208D171490839496860
:1021B00041F470216E4A083A516056E06C4964312E
:1021C000884208D16A490839496841F47001684A6F
:1021D000083A516049E066497831884208D164493B
:1021E0000839496841F07061614A083A51603CE041
:1021F0006049884206D1011F096841F00F01021FA2
:10220000116032E05B491431884208D15949091FF5
:10221000096841F0F001574A121F116025E0554945
:102220002831884208D15349091F096841F4706177
:10223000504A121F116018E04E493C31884208D1C3
:102240004C49091F096841F470414A4A121F116044
:102250000BE048495031884207D14649091F0968B7
:1022600041F47021434A121F1160704710B50022DB
:10227000026847F6F0739A430C6A8B6823430C6933
:1022800023434C6923438C692343CC6923434C6A21
:1022900023438C6A23431A430260CB6843600B6874
:1022A00083604B68C36010BD0021016041608160A4
:1022B000C160016141618161C1610162416281620C
:1022C000704721B1026842F00102026004E0026836
:1022D0004FF6FE731A40026070471AB103680B4351
:1022E000036002E003688B430360704741607047FE
:1022F0000146486880B2704701460020002211F074
:10230000805F03D01B4B083B1A6802E0184B083B68
:102310001A680A4201D0012000E00020704710F046
:10232000805F03D01349091F086002E01049083993
:102330004860704701460020002211F0805F03D002
:102340000C4B083B1A6802E0094B083B1A680A422A
:1023500001D0012000E00020704710F0805F03D022
:102360000449091F086002E00149083948607047C4
:102370000800024008040240704700BFFEE700BFAB
:10238000FEE700BFFEE700BFFEE7704770477047FB
:1023900010B500F093F910BD704710B50121880702
:1023A000FFF785FC40B101218807FFF791FC304819
:1023B0000068401C2E49086010BD10B501212D4851
:1023C000FFF775FC40B101212A48FFF781FC2A483C
:1023D0000068401C2849086010BD70B50025274CD6
:1023E00040F225512648FEF725FD00283FD024481D
:1023F000001D0088C5B22348007838B9AA2D31D114
:10240000257001201F490870A5712BE01D48007838
:10241000012807D1657002201A490870A079284464
:10242000A0711FE01748007802280ED1E179481CFE
:10243000E071A01C4554A0792844A071E0790428DB
:1024400010D103200F4908700CE00E4800780328D3
:1024500008D1A079A84201D10120207200200949A9
:102460000870E07140F225510548FEF70DFD70BD82
:10247000B800002000040040BC000020DE00002066
:10248000004400402800002008B501217C20FEF710
:10249000A9FA01210846FEF7A5FA01215E48FEF7D8
:1024A000BAF849F61170ADF8000014208DF8030059
:1024B00003208DF8020069465848FDF7DDFF4FF60E
:1024C0003C70ADF8000014208DF8030003208DF857
:1024D000020069465248FDF7CFFF4FF6C070ADF8D5
:1024E000000014208DF8030003208DF802006946D7
:1024F0004C48FDF7C1FF4FF6F070ADF80000142016
:102500008DF8030003208DF8020069464648FDF768
:10251000B3FF40F2FF70ADF8000014208DF8030007
:1025200003208DF8020069464048FDF7A5FF1820FA
:10253000ADF8000014208DF8030003208DF8020090
:1025400069463748FDF798FF4FF40040ADF80000AA
:1025500014208DF8030003208DF8020069462F48EF
:10256000FDF78AFF49F611712C48FEF730F84FF657
:102570003C712B48FEF72BF84FF6C0712948FEF747
:1025800026F84FF6F0712848FEF721F840F2FF7167
:102590002648FEF71CF80C20ADF8000028208DF826
:1025A000030003208DF8020069461F48FDF764FF11
:1025B0004FF4C040ADF8000048208DF80300032020
:1025C0008DF8020069461948FDF756FF4FF4C050D8
:1025D000ADF8000010208DF8030003208DF80200F4
:1025E00069461248FDF748FF0220ADF800001020B0
:1025F0008DF8030003208DF8020069460748FDF7B7
:102600003BFF4FF4C0510948FDF7E3FF02210348A7
:10261000FDF7DFFF08BD00000002300000080140A8
:10262000000C01400010014000140140001801405E
:1026300030B5274800684FF47A72B0FBF2F1B1F17F
:10264000807F01D301201BE021F07F40401E4FF02E
:10265000E022506150170F22002806DA13011D4CAA
:1026600000F00F052D1F635502E013011A4C23548F
:1026700000BF00204FF0E022906107201061002091
:1026800008B100BFFEE74FF0E020006920F0010034
:102690004FF0E021086130BD01B510490098086095
:1026A0004FF0E020006940F001004FF0E0210861A8
:1026B00000BF0A4800680028FBD108BD0748006831
:1026C00020B106480068401E0449086070470000B9
:1026D0000000002018ED00E000E400E02C000020E5
:1026E00010B504460C2C74D2DFE804F08406111BEC
:1026F000252F38424D5762744FF48071F748FDF72B
:1027000066FF4FF40061F648FDF761FF73E04FF498
:102710008061F248FDF75BFF1021F048FDF757FF9D
:1027200069E04FF48051ED48FDF751FF0821ED4875
:10273000FDF74DFF5FE04FF48041E848FDF747FFAC
:102740000421E848FDF743FF55E04021E448FDF748
:102750003EFF2021E348FDF73AFF4CE04FF4807143
:10276000DF48FDF734FF1021DE48FDF730FF42E07F
:102770004FF48071DC48FDF72AFF4FF40051D84830
:10278000FDF725FF37E04FF48061D748FDF71FFFC5
:102790004021D448FDF71BFF2DE04FF48051D24873
:1027A000FDF715FF4FF40041CD48FDF710FF22E083
:1027B000CE48007840F04000CC4908704221CB4818
:1027C000007800F0A3FD4FF48041C548FDF7FFFEFF
:1027D00011E00FE0C548007840F08000C349087060
:1027E0004221C248007800F091FD0121BE48FDF76A
:1027F000EEFE00E000BF00BF10BD70B505460C2D19
:102800007ED2DFE805F07D06101A25303B46505B8E
:1028100066724FF48051B248FDF7D9FE1021B248DC
:10282000FDF7D5FE6DE04FF48061AD48FDF7CFFEBA
:102830008021AC48FDF7CBFE63E04FF40041AA488D
:10284000FDF7C5FE4FF48071A648FDF7C0FE58E0C5
:102850004FF40061A448FDF7BAFE4FF40071A1489F
:10286000FDF7B5FE4DE04FF400719F48FDF7AFFE58
:102870004FF480619B48FDF7AAFE42E04FF40071DF
:102880009748FDF7A4FE4FF480619948FDF79FFE3D
:1028900037E080219248FDF79AFE4FF4006194489A
:1028A000FDF795FE2DE04FF400418C48FDF78FFEBB
:1028B0004FF400518E48FDF78AFE22E04FF400519C
:1028C0008648FDF784FE4FF400418948FDF77FFEFE
:1028D00017E04FF400618148FDF779FE4FF4805115
:1028E0008348FDF774FE0CE00AE04FF400717B486A
:1028F000FDF76DFE4FF480417D48FDF768FE00E076
:1029000000BF00BF7848FDF75EFE48F61021084082
:10291000884201DA012600E000267548FDF753FEE3
:1029200000F42C40B0F52C4F01DA012000E000202B
:1029300006436B48FDF747FE00F4B450B0F5B45FB2
:1029400001DA012000E0002006436448FDF73BFE69
:1029500000F42040B0F5204F01DA012000E0002013
:1029600006436048FDF72FFE00F4F060B0F5F06F0D
:1029700001DA012000E00020064308D1012404E030
:102980002046FFF7ADFE601CC4B2092CF8DD70BD17
:1029900070B505460C4615B1012D6ED14DE00C2CDD
:1029A00048D2DFE804F047060C12181E242A2F35FF
:1029B0003B414FF480514A48FDF70BFE3BE04FF49A
:1029C00080614748FDF705FE35E04FF40041464879
:1029D000FDF7FFFD2FE04FF400614348FDF7F9FDDF
:1029E00029E04FF400714048FDF7F3FD23E04FF478
:1029F00000713B48FDF7EDFD1DE080213848FDF7F3
:102A0000E8FD18E04FF400413448FDF7E2FD12E024
:102A10004FF400513148FDF7DCFD0CE04FF400614C
:102A20002E48FDF7D6FD06E04FF400712B48FDF768
:102A3000D0FD00E000BF00BF4EE00C2C48D2DFE824
:102A400004F047060B10161D23292F353B4110219A
:102A50002548FDF7BEFD3CE080212248FDF7B9FD89
:102A600037E04FF480711F48FDF7B3FD31E04FF4BC
:102A700000711C48FDF7ADFD2BE02CE04FF48061A8
:102A80001848FDF7A6FD24E04FF480611848FDF7D3
:102A9000A0FD1EE04FF400611548FDF79AFD18E017
:102AA0004FF400511248FDF794FD12E04FF400413D
:102AB0000F48FDF78EFD0CE04FF480510C48FDF7F8
:102AC00088FD06E04FF480410948FDF782FD00E0F3
:102AD00000BF00BF00E000BF00BF70BD0014014098
:102AE000001001400018014000080140390000209A
:102AF000000C014070B505460C4615B1012D6FD193
:102B000059E00C2C54D2DFE804F053060C12181EC6
:102B100023292F353B474FF480717548FDF759FD48
:102B200047E04FF480617248FDF753FD41E04FF4F8
:102B300080516F48FDF74DFD3BE04FF480416C48FC
:102B4000FDF747FD35E040216A48FDF742FD30E0E2
:102B50004FF480716748FDF73CFD2AE04FF4807127
:102B60006548FDF736FD24E04FF480616248FDF7CB
:102B700030FD1EE04FF480515F48FDF72AFD18E05C
:102B80005E48007800F0BF005C49087042215B4855
:102B9000007800F0BBFB0CE05848007800F07F00A4
:102BA0005649087042215548007800F0AFFB00E01C
:102BB00000BF00BF49E00C2C43D2DFE804F042061E
:102BC0000C12171C21262C31373D4FF40061494867
:102BD000FDF7FFFC36E010214548FDF7FAFC31E037
:102BE00032E008214648FDF7F4FC2BE0042144487C
:102BF000FDF7EFFC26E020214148FDF7EAFC21E04B
:102C000010213F48FDF7E5FC1CE04FF40051394826
:102C1000FDF7DFFC16E040213948FDF7DAFC11E052
:102C20004FF400413348FDF7D4FC0BE04FF48041F2
:102C30003048FDF7CEFC05E001212F48FDF7C9FC27
:102C400000E000BF00BF00E000BF00BF70BD2DE985
:102C5000F04106460F46144600251DE03946304631
:102C6000FFF748FF21463046FFF792FE9620FFF718
:102C700013FD601E234931F8100040F204618842C0
:102C800007DD2046FFF7B9FD4FF4FA70FFF704FDAA
:102C900000E003E0681CC5B2072DDFDB00BF28465B
:102CA000BDE8F08170B5054629460020FFF722FFF8
:102CB000012408E021460020FFF76AFEC820FFF744
:102CC000EBFC601CC4B20B2CF4DD70BD10B501240C
:102CD00007E02046FFF704FD2046FFF78EFD601C4D
:102CE000C4B20B2CF5DD4FF4FA70FFF7D5FC10BD24
:102CF000001401400010014000080140390000208C
:102D000000180140C800002000B587B00121042050
:102D1000FDF768FE01214804FDF771FE0420ADF8BF
:102D2000180018208DF81B0003208DF81A0006A942
:102D30008A48FDF7A1FB0820ADF8180004208DF8A3
:102D40001B0006A98548FDF797FB4FF4E130029080
:102D50000020ADF80C00ADF80E00ADF81000ADF895
:102D600014000C20ADF8120002A97D48FDF7E5FE25
:102D70004FF4C060FDF7B2FA26208DF80400002061
:102D80008DF805008DF8060001208DF8070001A8D8
:102D9000FDF7A9FA012240F225517148FDF765FFC0
:102DA00001216F48FDF755FF07B000BD70B504461F
:102DB0000D46E1B26A48FDF7B9FF00BF68480088D8
:102DC00010F0800FFAD0204670BDF0B503460D46D6
:102DD0001646002729460A2E03D0002008702846F0
:102DE000F0BD33B9302001F8010B002008702846EF
:102DF000F6E7002B03DA2D2001F8010B5B4242F2CB
:102E000010720DE093FBF2F404B937B104F1300015
:102E100001F8010B04FB123301270A2092FBF0F2A8
:102E2000002AEFDC002008702846D9E70FB470B5FF
:102E300086B006460CA8019073E00B9800785C28D9
:102E40001CD10B98401C0B9000786E2809D072287A
:102E50000FD10D213046FDF769FF0B98401C0B90F8
:102E60000BE00A213046FDF761FF0B98401C0B90E8
:102E700003E00B98401C0B9000BF4BE00B980078D0
:102E8000252840D10B98401C0B900078642818D05E
:102E9000732833D1019810C801900BE02178304697
:102EA000FDF744FF00BF40213046FDF7ADFF00288D
:102EB000F9D0641C20780028F0D10B98401C0B90AE
:102EC00020E0019820C801900A2202A92846FFF7B5
:102ED0007CFF02AC0BE021783046FDF727FF00BFF6
:102EE00040213046FDF790FF0028F9D0641C20787F
:102EF0000028F0D10B98401C0B9003E00B98401C6D
:102F00000B9000BF06E00B9810F8011B0B903046A9
:102F1000FDF70CFF00BF40213046FDF775FF00288C
:102F2000F9D00B980078002887D106B070BC5DF806
:102F300014FB70B5044600250CE014F8011B08488A
:102F4000FDF7F4FE00BF0648008810F0800FFAD0AD
:102F5000681CC5B2072DF0DB70BD00000008014001
:102F60000044004008B5E020ADF8000000208DF8D6
:102F7000030069466C48FDF77FFA0320ADF80000B6
:102F800000208DF8030069466848FDF775FA3F2078
:102F9000ADF8000000208DF8030069466448FDF795
:102FA0006BFA08BD00B591B001210846FDF70DFD93
:102FB00001214802FDF716FD5E48FFF7B5F85E48AF
:102FC00006905E480790002008900B200990002092
:102FD0000A9080200B9040000C9080000D902020E3
:102FE0000E9000020F900020109006A95148FFF7A4
:102FF0003DF901214F48FFF764F94F484C38FEF77F
:103000006BFE0020019001208DF808008DF809006A
:103010004FF460200390002004900B208DF81400E2
:1030200001A945484C38FEF77EFE4FF40040FDF7FD
:1030300040FC0523012219463F484C38FEF70BFFA0
:103040000523022206213C484C38FEF704FF0523E5
:103050000322072138484C38FEF7FDFE05230422E1
:10306000082135484C38FEF7F6FE05231A4609219B
:1030700031484C38FEF7EFFE052306220A212E4880
:103080004C38FEF7E8FE052307220B212A484C386E
:10309000FEF7E1FE052308220C2127484C38FEF7F5
:1030A000DAFE052309220D2123484C38FEF7D3FE12
:1030B00005230A220E2120484C38FEF7CCFE0523BA
:1030C0000B220F211C484C38FEF7C5FE01211A487F
:1030D0004C38FEF75FFE012117484C38FEF74FFED3
:1030E00015484C38FEF76DFE00BF13484C38FEF70C
:1030F0006DFE0028F9D110484C38FEF771FE00BF74
:103100000D484C38FEF771FE0028F9D101210A481C
:103110004C38FEF774FE11B000BD10B5FFF722FF6A
:10312000FFF740FF10BD000000080140000C014007
:1031300000100140080002404C240140C80000205B
:10314000962001E0411EC8B20028FBD1704700B5AF
:1031500040209549086080200860FFF7F1FF924801
:1031600008380068002000B100BD40208E49091DCC
:103170000860FFF7E5FF8C480838006810F0400F42
:1031800001D00020F0E740208749091D0860FFF7C3
:10319000D7FF0120E8E700B580208349091D0860BA
:1031A000FFF7CEFF40208049091D0860FFF7C8FFE8
:1031B00080207D490860FFF7C3FF40207A490860FE
:1031C000FFF7BEFF00BD00B580207749091D0860EC
:1031D000FFF7B6FF40207449091D0860FFF7B0FFF4
:1031E000802071490860FFF7ABFF80206E49091D00
:1031F0000860FFF7A5FF00BD00B580206A49091DE2
:103200000860FFF79DFF402067490860FFF798FFBF
:10321000802065490860FFF793FF80206249091DFF
:103220000860FFF78DFF00BD00B580205E49091DD5
:103230000860FFF785FF40205B490860FFF780FFCB
:10324000802059490860FFF77BFF5748083800681D
:1032500010F0400F05D080205349091D0860002060
:1032600000BD80205049091D08600120F8E700B525
:103270000246082319E080204B49091D0860FFF72A
:103280005FFF12F0800F03D040204749086003E041
:1032900040204549091D08605006020EFFF750FF07
:1032A000802041490860FFF74BFF1800A3F101019E
:1032B000CBB2E0D180203C49091D086000BD00B5BB
:1032C0000823002240203849086014E05006020E0E
:1032D00080203549091D0860FFF732FF8020324900
:1032E0000860FFF72DFF30480838006810F0400FE5
:1032F00001D042F001021800A3F10101CBB2E5D1E7
:1033000080202949091D0860104600BD30B50546DA
:103310000C46FFF71CFF08B9002030BD2046FFF720
:10332000A6FFFFF781FF18B9FFF735FF0020F4E78C
:103330002846FFF79CFFFFF777FFFFF72CFF0120E0
:10334000EBE730B504460D46FFF701FF08B9002052
:1033500030BD45F00100FFF78AFFFFF765FFFFF77B
:10336000AEFF2070FFF748FFFFF715FF0120EFE7E2
:1033700008B5C020ADF8000003208DF8020014202D
:103380008DF80300694608481038FDF775F808BD48
:1033900030B505460C4640212846FFF7B7FF4221CD
:1033A0002046FFF7B3FF30BD100C014010B50446B6
:1033B0000C2C47D2DFE804F046060B10151A1F2428
:1033C0002A30353A40214648FDF701F93BE02021FB
:1033D0004348FDF7FCF836E008214248FDF7F7F8CE
:1033E00031E080213E48FDF7F2F82CE020213D48F5
:1033F000FDF7EDF827E010213A48FDF7E8F822E064
:103400004FF400713748FDF7E2F81CE04FF480718B
:103410003448FDF7DCF816E002213348FDF7D7F811
:1034200011E001213048FDF7D2F80CE02F48007878
:1034300040F020002D49087042212C480078FFF709
:1034400065FF00E000BF00BF10BD10B5002405E01F
:10345000611CC8B2FFF7AAFF601CC4B20B2CF7DBDB
:1034600010BD10B54FF44E711E48FDF7B2F8E021C3
:103470001B48FDF7AEF803211B48FDF7AAF81B48CF
:10348000007800F0DF0019490870422117480078E1
:10349000FFF73CFF10BD70B50025012419E0FFF7D0
:1034A000E0FF2046FFF782FF6420FFF7F5F84FF4B6
:1034B00000510D48FDF771F828B1601E012101FA95
:1034C00000F0054303E0601E012181408D43601C34
:1034D000C4B20A2CE3DDFFF7B8FFA8B270BD00004C
:1034E00000140140000C0140001801403900002088
:1034F0000021FE4A11705170002005E00022FB49B6
:10350000891C0A54411CC8B20428F7DB0021F74A81
:1035100091717047FFF78CF8FEF7B6FFFFF728FFB1
:10352000F3480178F3480078FFF732FFFFF7ECFB30
:10353000FFF7F3FD00F0FEFE00F00CFF4021EE4827
:10354000FFF7FFFE20B30020EC49086017E0EB48CE
:103550000078001D012101FA00F0E74909780840D0
:10356000E64909784900491C0841E54909780843BA
:10357000E3490870E1480068401CE0490860DF4802
:1035800000680428E3D3DE480178DEA001F0A6FA43
:10359000DB4800780A287BD10120DF4908701FE151
:1035A0000120DE49087011E1FFF790FBDB4802784B
:1035B000D94801780020FFF74AFBD949087008462E
:1035C0000378D6480278D4480178D6A001F086FA6C
:1035D000D3480078072803DA0220DD49087002E0AA
:1035E0000020CF4908704FF4FA70FFF755F82DE02E
:1035F0000020D84908600FE0C8480078401ED6492E
:1036000031F81000D54909680844D4490860D14808
:103610000068401CCF490860CE4800680328EBD3FF
:10362000CE48006840F6A241884209D9BB480078DC
:10363000FFF7E3F80020C6490870C9A001F04EFA70
:103640000020C64908600120FFF726F8C04800782E
:103650000228CDD04FF47A70FFF71EF8AF480278F9
:10366000AD4801780120FFF7F2FAAD49087008462D
:103670000378AA480278A8480178BDA001F02EFA84
:10368000A7480078072804DA0120B149087003E050
:10369000ABE00020A24908704FF4FA70FEF7FCFF7F
:1036A0002DE00020AB4908600FE09C480078401EE8
:1036B000A94931F81000A94909680844A7490860D8
:1036C000A4480068401CA3490860A2480068032879
:1036D000EBD3A248006840F6A241884209D98F483E
:1036E0000078FFF78AF80020994908709CA001F043
:1036F000F5F90020994908600120FEF7CDFF9448B4
:1037000000780128CDD04FF47A70FEF7C5FFFFF79F
:10371000DDFA82480278804801780020FFF797FAA6
:103720007F490870084603787C4802787A48017817
:103730007CA001F0D3F97A480078072803DA022048
:103740008349087002E00020754908704FF4FA7050
:10375000FEF7A2FF2DE000207E4908600FE06F48D1
:103760000078401E7C4931F810007C490968084403
:103770007A49086077480068401C764908607548B7
:1037800000680328EBD37548006840F6A2418842E0
:1037900009D962480078FFF730F800206C490870BA
:1037A0006FA001F09BF900206C4908600120FEF732
:1037B00073FF674800780228CDD04FF47A70FEF787
:1037C0006BFF56480078401C5449087053480078F5
:1037D0000A28FFF6E9AE50480078401C4E490870B0
:1037E0004D4800780A28FFF6DBAE454800780528EA
:1037F0007AD10120484908707AE1012047490870D0
:103800006CE146480278444801780120FFF71FFA2E
:103810004349087008460378404802783E480178DA
:1038200053A001F05BF93E480078072803DA012035
:103830004749087002E00020394908704FF4FA70D7
:10384000FEF72AFF2DE00020424908600FE03348D0
:103850000078401E404931F810004049096808448A
:103860003E4908603B480068401C3A4908603948B6
:1038700000680328EBD33948006840F6A24188422B
:1038800009D926480078FEF7B8FF002030490870B3
:1038900033A001F023F90020304908600120FEF731
:1038A000FBFE2B4800780128CDD04FF47A70FEF74C
:1038B000F3FEFFF70BFA1948027817480178002049
:1038C000FFF7C5F9164908700846037813480278CF
:1038D0001148017813A001F001F911480078072878
:1038E0005EDA02201A4959E007E10000DE000020FC
:1038F00039000020380000203A000020300000206D
:103900003B00002052756E4D6F6465206973202561
:10391000642E0D0A00000000AF000020AE00002061
:10392000B0000020526F772025642C20436F6C205C
:1039300025642C20537461727454696D657320255D
:10394000642C204261636B776172640D0A00000091
:10395000AD00002034000020C8000020A00000209E
:103960004D6F746F722053746F707065640D0A0030
:10397000526F772025642C20436F6C2025642C2007
:10398000537461727454696D65732025642C2046EC
:103990006F72776172640D0A00000000087002E027
:1039A0000020FE4908704FF4FA70FEF775FE2EE015
:1039B0000020FB4908600FE0FA480078401EFA49F1
:1039C00031F81000F94909680844F8490860F448DA
:1039D0000068401CF2490860F14800680328EBD3F6
:1039E000F248006840F6A24188420AD9ED480078C2
:1039F000FEF703FF0020EE490870AFF29C0001F0D3
:103A00006DF80020E94908600120FEF745FEE8480E
:103A100000780228CCD04FF47A70FEF73DFEE148E2
:103A20000278E44801780120FFF711F9DB490870BA
:103A300008460378DB480278DE480178AFF2D00010
:103A400001F04CF8D5480078072803DA0120D8495E
:103A5000087002E00020D14908704FF4FA70FEF7B8
:103A60001BFE2EE00020CE4908600FE0CD48007814
:103A7000401ECD4931F81000CC4909680844CB49B3
:103A80000860C7480068401CC5490860C448006811
:103A90000328EBD3C548006840F6A24188420AD902
:103AA000C0480078FEF7A9FE0020C1490870AFF2B7
:103AB000501001F013F80020BC4908600120FEF707
:103AC000EBFDBB4800780128CCD04FF47A70FEF7AC
:103AD000E3FDB4480078401CB2490870B148007852
:103AE0000A28FFF68EAEB3480078401CB149087032
:103AF000B04800780A28FFF680AEAFA000F0EEFFD5
:103B0000C1E2B348007A002875D00020B04908729D
:103B1000B048FFF70EFAAE4840780F286CD2DFE8C5
:103B200000F06BFA6B086CCEF9F8F7F6F5F4F3F2E7
:103B3000F100FFF7CBF8A648C078A549897840EA9C
:103B40000120A5490860A2484179007941EA002096
:103B5000A24908600020A249086043E09E4800682E
:103B60009F490978C84010F0010F36D000208C49D9
:103B700008602EE09948006889490978C84010F02B
:103B8000010F21D096480078401C964988708448DF
:103B90000078401CC87082480268521C9048016836
:103BA000491C0120FFF753F88E4908718C480078B2
:103BB000B7307B49097808448A490979084489491A
:103BC00088710846FFF7B5F975480068401C7449CC
:103BD0000860734800680B28CCD381480068401CFB
:103BE0007F4908607E4800680B28B7D34FF4FA700D
:103BF000FEF752FDE6E1E8E1E3E1FFF767F874481C
:103C0000C0787349897840EA012073490860704898
:103C10004179007941EA002070490860002070492C
:103C2000086043E06C4800686D490978C84010F0AE
:103C3000010F36D000205A4908602EE0674800681E
:103C400057490978C84010F0010F21D06448007826
:103C5000401C6449887052480078401CC870504825
:103C60000268521C5E480168491C0020FEF7EFFF05
:103C70005C4908715A480078B730494909780844C6
:103C8000584909790844574988710846FFF751F99E
:103C900043480068401C42490860414800680B28BE
:103CA000CCD34F480068401C4D4908604C48006820
:103CB0000B28B7D34FF4C870FEF7EEFC82E1FFF794
:103CC00005F84948FCF77FFC48F610210840884277
:103CD00001DA012400E000244448FCF774FC00F4FD
:103CE0002C40B0F52C4F01DA012000E00020044305
:103CF0003F48FCF768FC00F4B450B0F5B45F0BDA51
:103D000001200AE016E1EEE0E3E099E090E027E030
:103D100085E07BE01FE09AE0002004433548FCF793
:103D200052FC00F42040B0F5204F01DA012000E001
:103D3000002004433048FCF746FC00F4F060B0F586
:103D4000F06F01DA012000E00020044302D12B488B
:103D5000FFF7EFF836E11E498878FEF7A3FF31E15F
:103D6000FFF799FB26490860084600782549C87086
:103D700023480088000A887008468078B230C978E5
:103D80000844204988710846FFF7D3F800201C49F1
:103D900008601C49C8708870B22035E0B00000206F
:103DA00034000020AE000020C8000020A000002049
:103DB000AD000020AF000020656E746572696E670B
:103DC000206E6F726D616C206D6F64650D0A00006E
:103DD000DE000020440000209C000020980000200D
:103DE000300000209100002000080140000C01403C
:103DF0000010014000140140001801408300002021
:103E0000400000207C0000208871DBE0FFF729FBE8
:103E10000120ED490870ED48FFF78BF8D2E0FFF77D
:103E200014FB0020E8490870E948FFF782F8C9E070
:103E30000A210020FEF7ACFDE648FFF77AF8C1E062
:103E40000A20FEF7DAFCE448FFF773F8BAE04021F5
:103E5000E248FFF776FA88B3E048007800F00F00F8
:103E6000DF4988700020DF49086017E0DD480078EE
:103E7000001D012101FA00F0D84909780840D9490C
:103E800009784900491C0841D549C9780843D449F3
:103E9000C870D4480068401CD2490860D148006806
:103EA0000428E3D3CE488078AB30CD49C9780844A4
:103EB000CB4988710846FFF73CF809E0FFE7FF208F
:103EC000C7498870C870A92088710846FFF731F883
:103ED00078E04221C448FFF734FAC3480178C3A010
:103EE00000F0FCFD6EE04FF40051C748FCF755FBB5
:103EF00004462146C5A000F0F1FD0421C748FCF7A7
:103F00004CFB04462146C6A000F0E8FD4FF480417A
:103F1000BD48FCF742FB04462146C5A000F0DEFD8B
:103F20000821BE48FCF739FB04462146C4A000F036
:103F3000D5FD47E0C6488078012810D1C102B248BB
:103F4000FCF747FB4FF48051AF48FCF740FB0221E0
:103F5000C048FCF73CFBC0A000F0C0FD30E0BC480E
:103F60008078022810D1C102A748FCF732FB4FF439
:103F70000061A548FCF72BFB0221B648FCF727FBA4
:103F8000BEA000F0ABFD1BE0B148807803280BD148
:103F9000C1029D48FCF71BFB0221AE48FCF717FB52
:103FA000BFA000F09BFD0BE04FF4C0519648FCF71A
:103FB00010FB0221A748FCF70CFBC2A000F08EFD0D
:103FC00000E000BF00BFFFF793FA7F48007858B1C8
:103FD0004FF400518C48FCF7E0FA012804D1FEF7B9
:103FE00075FEC548FEF7A5FF00207E49086046E043
:103FF0000020C24908600EE0C1487A49096830F8DB
:104000001100C04909680844BE490860BB480068FF
:10401000401CBA490860B94800680328ECD3B94885
:10402000006840F6A241884215D96E480068401CDD
:10403000FEF7E3FB6B480078401CB3498870694881
:104040000078B53088710846FEF773FF0020AE494E
:104050008870B42088710020AA490860A7490860C8
:1040600004E0A6480068401CA4490860A348006812
:10407000FA28F6D35B480068401C5A490860594842
:1040800000680B28B4D33CE52DE9F04700205549E2
:1040900008602AE09A49534A126831F8120000F089
:1040A00087FA81464FF08B4100F0D0F9044600F0CA
:1040B00084FA07460022954B00F008FA054600F006
:1040C0008FFA934908606420FEF7E6FA904800688A
:1040D00000F073FA044622460B468EA000F0FEFC68
:1040E00040480068401C3F4908603E4800680B2873
:1040F000D0D38AA000F0F2FCBDE8F08710B549F6F5
:1041000011715448FCF763FA4FF63C718448FCF790
:104110005EFA4FF6C0718348FCF759FA4FF6F0711A
:104120003E48FCF754FA40F2FF713748FCF74FFA6B
:104130004FF4FA70FEF7B0FA49F611714548FCF7F2
:1041400048FA4FF63C717648FCF743FA4FF6C071D7
:104150007448FCF73EFA4FF6F0713048FCF739FA34
:1041600040F2FF712848FCF734FA4FF47A70FEF7FA
:1041700093FA10BD10B56C4800786C490870402166
:104180006948FFF7DEF86A4908706420FEF784FA90
:104190006648007864490978884213D0422100209B
:1041A000FFF7B4F8624908704FF4FA70FEF774FA3A
:1041B0004221FF20FFF7AAF85D4908704FF4FA701A
:1041C000FEF76AFA10BD0000A40000206E00002077
:1041D0007500002060000020670000203A000020E9
:1041E0004B000020300000203D00002020493243D9
:1041F00020616464726573736564203078343220A2
:1042000069732025640D0A000018014020535F5394
:10421000454E312069732025640D0A0000140140C9
:1042200020535F53454E322069732025640D0A00E8
:1042300020535F53454E332069732025640D0A00D7
:1042400020535F53454E342069732025640D0A00C6
:10425000DE0000200008014020456E61626C652090
:104260004C3239382C2054435F53313D312C20548B
:10427000435F53323D30200D0A00000020456E613F
:10428000626C65204C3239382C2054435F53313DE9
:10429000302C2054435F53323D31200D0A00000082
:1042A00020456E61626C65204C3239382C205443B5
:1042B0005F53313D312C2054435F53323D31200D4B
:1042C0000A00000044697361626C65204C32393821
:1042D00020616E6420416C6C20636F6E74726F6C31
:1042E00020706F727420697320736574207A657210
:1042F0006F200D0A0000000059000020340000204B
:10430000C8000020A00000208A0000200000044017
:10431000B40000202D2D3E25665600000D200A0019
:10432000000C014000100140C1000020C00000202E
:10433000C200002008B51C208DF8000000208DF878
:10434000010001208DF802008DF803006846FBF79C
:10435000CAFF08BD0EB501210846FCF750FB4FF01F
:104360008040FCF7ABFD42F21070ADF8040047202E
:10437000ADF800000020ADF80600ADF80200694677
:104380004FF08040FCF76EFE01218807FDF78CFCA2
:10439000012211469007FDF7DCF901218807FDF79E
:1043A000BDF900210120FCF72AFB0EBD08B51D2038
:1043B0008DF8000000208DF8010002208DF8020029
:1043C00001208DF803006846FBF78DFF08BD0EB590
:1043D00001210220FCF713FB1248FCF76FFD42F2AB
:1043E0001070ADF804004720ADF800000020ADF8D3
:1043F0000600ADF8020069460A48FCF733FE0121C9
:104400000848FDF751FC012211460648FDF7A1F9C5
:1044100001210448FDF782F900210220FCF7EFFAA0
:104420000EBD0000000400400648804706480047D3
:10443000FEE7FEE7FEE7FEE7FEE7FEE7FEE7FEE754
:10444000FEE7FEE7DD010008ED00000830B480EA79
:10445000010202F0004530F0004221F0004015D08A
:10446000A0B1C0F3C753C2F3C754C2F31601C0F3DF
:104470001600E41A41F4000140F400027D34914238
:1044800001D3641C00E04900002C02DA30BC00209B
:1044900070474FF400000023914201D3891A03436F
:1044A00040084FEA4101F7D151B1914202D14FF09A
:1044B000004105E002D24FF0010101E06FF001017F
:1044C00003EBC450284430BC00F0EDB82DE9FE4F9A
:1044D00081EA030404F0004421F0004100944FF00D
:1044E000000B23F0004350EA010402D052EA030417
:1044F00004D10020014603B0BDE8F08FC3F30A5495
:10450000C1F30A552C44A4F2F3340194A0FB0254E5
:10451000C1F3130141F48011C3F3130343F4801377
:1045200001FB024400FB034E840A970A44EA8154CB
:1045300047EA8357A4FB076802958D0A05FB0785A8
:104540004FEA932C04FB0C542705029D4FEA0658B2
:1045500047EA1637B5EB08056EEB070C870E920E8F
:1045600047EA811742EA8312A7FB0201B6EB0B016F
:1045700064EB00042B0D43EA0C335E1844EB1C5033
:10458000DA465146E7FB0201C5F313044FEA0B3349
:1045900043EA14534FEA0432019C43EA0603A4F1B0
:1045A0000C040294009CCDE900B400F0BFF8A2E72F
:1045B00096230022114600F07FB800F0004230F050
:1045C00000400AD0C10D01F56071C0F3160042EA47
:1045D0000151C2084007114370470020014670474F
:1045E00001F0004330B421F0004150EA010206D04E
:1045F0000A0DA2F56072C1F31301002A02DC30BC7F
:1046000000207047440F44EAC104C100E01830BCE8
:1046100000EBC25000F047B830B50B460146002011
:104620002022012409E021FA02F59D4205D303FA74
:1046300002F5491B04FA02F52844151EA2F10102F5
:10464000F1DC30BD2DE9F05F0546002092469B4627
:1046500088460646814640241BE028464146474698
:10466000224600F018FA53465A46C01A914110D318
:1046700011461846224600F0FFF92D1A67EB010893
:104680004F4622460120002100F0F6F917EB000901
:104690004E41201EA4F10104DFDC484631462A4683
:1046A0004346BDE8F09F0029A8BF7047401C490061
:1046B00008BF20F00100704710B4B0FA80FC00FA87
:1046C0000CF050EA010404BF10BC704749B1CCF1B2
:1046D000200421FA04F411FA0CF118BF012121433E
:1046E0000843A3EB0C01CB1D0106000A002BBEBF43
:1046F000002010BC704700EBC35010440029A4BF39
:1047000010BC7047401C490008BF20F0010010BCDD
:10471000704710B5002B08DA401C41F100019218D7
:104720005B411A4301D120F0010010BD2DE9F04D8D
:1047300092469B4611B1B1FA81F202E0B0FA80F2E2
:104740002032904600F098F904460F4640EA0A00ED
:1047500041EA0B0153465A46084303D120463946E5
:10476000BDE8F08D114653EA010015D0C8F14002B2
:10477000504600F090F905460E46504659464246CE
:1047800000F07AF9084301D0012000E00020054341
:1047900046EAE0762C4337430A984FEA4453A0EBAD
:1047A00008004FEAD4240A304FF0000244EA47548C
:1047B0004FEAD72502D500200146D1E7010510199F
:1047C0006941DDE9084500196941BDE8F04DA0E700
:1047D0002DE9FE4F804681EA0300C00F0C46009091
:1047E00021F0004123F00045B8EB0200A94105D2B9
:1047F0004046214690461C460B46024623F00040A8
:10480000104304D14046214603B0BDE8F08F270D88
:10481000C7F30A00C3F30A510290401A01904028DE
:1048200066DAC3F3130040F4801B0098924620B16F
:104830000023D2EB030A63EB0B0B01985946C0F13E
:104840004002504600F018F906460D4650465946BB
:10485000019A00F030F910EB08006141002487EA6A
:10486000115284EAE7731A433BD0009A3AB3019A93
:10487000012A4FEA075210DC001B61EB02014FF0E6
:10488000004202EA0752CDE90042001C41F58011C6
:1048900032462B46FFF74AFFB6E7001B61EB0201E9
:1048A000001C41F5801300185B412018A2F5001789
:1048B00047EB030140EAD570B6196D4111E06D0870
:1048C0004FEA360645EAC0754FEA0752001B61EB16
:1048D0000201001C41F5801149084FEA300000191F
:1048E000514132462B4603B0BDE8F04FFFF711BFF0
:1048F0000098012240000023D0EB020263EBE0733A
:10490000009821464FEAE074B8EB000061EB040127
:10491000E9E783F000435BE781F0004158E72DE9C8
:10492000F04D81EA030404F0004B21F000451446E9
:104930004FF0000A23F0004150EA050220D054EA6B
:1049400001021DD0C5F30A570246C5F31303C1F394
:104950001300C1F30A5640F4801543F48013A7EB0B
:104960000608101BD64608F2FD3873EB050002D38B
:1049700008F1010801E092185B41B8F1000F03DA79
:1049800000200146BDE8F08D00204FF4801106465E
:1049900084460EE0171B73EB050705D3121B63EB70
:1049A000050306434CEA010C49084FEA300092180F
:1049B0005B4150EA0107EDD152EA030012D082EACE
:1049C000040083EA0501084303D100224FF00043AD
:1049D00008E0101BAB4102D20122002302E06FF07D
:1049E000010253101AEB06004CEB085110EB0A00C1
:1049F00041EB0B01BDE8F04DFFF78BBEC1F30A524E
:104A0000C1F3130140F2FF3341F480119A4202DAFC
:104A100000200146704740F233439A42A2F23342EB
:104A200002DC524200F037B800F026B830B5002959
:104A300004DB4FF00044404264EB0101002B04DB37
:104A40004FF00044524264EB0303994208BF904286
:104A500030BD0000064C074D06E0E06840F0010361
:104A600094E8070098471034AC42F6D3FBF742FBBA
:104A7000C0530008E0530008202A04DB203A00FA63
:104A800002F1002070479140C2F1200320FA03F3A5
:104A9000194390407047202A04DB203A21FA02F0A3
:104AA0000021704721FA02F3D040C2F12002914068
:104AB000084319467047202A06DBCB17203A41FAF3
:104AC00002F043EAE07306E041FA02F3D040C2F19B
:104AD0002002914008431946704700000FB4054B6F
:104AE00010B503A9044A029800F0C6F810BC5DF89E
:104AF00014FB0000AD2D0008C400002002E008C82F
:104B0000121F08C1002AFAD170477047002001E047
:104B100001C1121F002AFBD1704700002DE9FF5F81
:104B2000DDE90220010DDDF838B0024310D10F9805
:104B300001244CA2012808D0002100980F9BC0E955
:104B40000021C0E90243BDE8FF9F6FEA0B01F4E7D3
:104B5000A1F2FF3144F6105041430D140F98012883
:104B60000ED0A5EB0B00401C4FF000043E4EDFF8CA
:104B7000FC90B0F1000AA04605DACAF1000717E080
:104B8000CBF10000F0E7074612E0F80707D0224615
:104B9000334640464946FFF799FC804689462246FF
:104BA000334610461946FFF791FC04460E467F1027
:104BB000002FEAD1DDE90201BAF1000F42464B466F
:104BC00002DAFFF783FC01E0FFF7A9FE04460E4678
:104BD0000022274BFFF72AFF03D84FF0FF30014692
:104BE00007E00022234B20463146FFF7F1FDFFF797
:104BF00005FF102409E0002C0ADB0A220023FFF73E
:104C000021FD019B30321A55641E50EA0102F2D197
:104C1000641C019AC4F1110314440F9A012A09D0AB
:104C20000122084301D15B450FDD4FF0000205F181
:104C300001050DE0084303D1A3EB0B056D1E09E050
:104C400000204FF0110B0F9088E701DA00226D1E53
:104C5000002A83D000980F99C0E90231C0E90045CD
:104C600071E7000030000000000024400000F03F29
:104C70000000F0430000E03F2DE9FF4F95B09B4658
:104C800089460646002512E2252878D10024761CA4
:104C9000F94A2746012105943378203B01FA03F0B5
:104CA000104202D00443761CF6E730782A2811D04F
:104CB0006FF02F033078A0F13002092A16D8059A38
:104CC00044F0020402EB820203EB42021044761C21
:104CD0000590EFE759F8042B0592002A03DA5042B9
:104CE00044F40054059044F00204761C30782E28D9
:104CF00016D116F8010F44F004042A280DD06FF0E5
:104D00002F023078A0F13003092B09D807EB870375
:104D100002EB4303C718761CF3E759F8047B761CB3
:104D200030786C280FD006DC4C2817D068280DD0BE
:104D30006A2814D104E0742810D07A280FD10DE02D
:104D400044F400140AE044F4801401E044F44014F4
:104D50007278824202D1761C04F58014761C307879
:104D600066280BD013DC582877D009DC002875D0D2
:104D70004528F6D04628F4D047281AD19FE118E0FC
:104D8000632835D0642879D0652812D197E170283E
:104D900073D008DC6728F1D069286FD06E280DD059
:104DA0006F2806D1B5E073282CD0752875D07828E7
:104DB00074D05A46179990476D1C76E1C4F302509F
:104DC000022809D003280DD0D9F8001004280DD0EE
:104DD0000D6009F1040968E1D9F80010EA17C1E98A
:104DE0000052F6E7D9F800100D80F2E70D70F0E7F9
:104DF00019F8041B8DF8001000208DF80100EA4618
:104E0000012003E059F804AB4FF0FF3061074FF089
:104E1000000102D40DE008F101018846B9420FDA21
:104E20008045F8DB1AF808100029F4D108E008F1F1
:104E3000010188468142FADB1AF808100029F6D1F0
:104E400005985B46A0EB080721463846179A00F004
:104E50009EFA284400EB080507E04DE02BE10DE049
:104E60001AF8010B5A4617999047B8F10108F7D282
:104E70005B4621463846179A14E142E00A22009226
:104E8000C4F302524FF0000A022A08D059F804CBAA
:104E9000032A4FEAEC710AD00DE029E02AE009F17B
:104EA000070121F00702F2E802C1914609E00FFA7A
:104EB0008CFC4FEAEC71042A03D14FFA8CFC4FEAC8
:104EC000EC71002907DA0A460021DCF1000C61EBE5
:104ED00002012D2202E0220504D52B228DF80420A8
:104EE000012203E0E20701D02022F7E7904653E0D9
:104EF0000A2102E010220DE010214FF0000A00917B
:104F00000BE010224FF0000A44F00404082700923E
:104F100003E008224FF0000A0092C4F30252022A72
:104F200005D059F804CB0021032A08D009E009F183
:104F3000070121F00702F2E802C1914605E01FFADD
:104F40008CFC042A01D10CF0FF0C4FF00008220762
:104F500022D5702827D0009B83F0100353EA0A0360
:104F600009D15CEA010206D030228DF804208DF8C8
:104F7000050002229046009B83F0080353EA0A03CF
:104F80000AD15CEA010201D1620705D530228DF811
:104F900004204FF001087F1E582809D037A0039045
:104FA0000EA8029013E040228DF804200122E1E7D0
:104FB00037A0F4E753466046009AFFF743FB844668
:104FC0000398825C0298A0F10100029002705CEAF2
:104FD0000100EFD1029806A9A1EB000000F1200A20
:104FE000600702D524F4803400E00127574502DD34
:104FF000A7EB0A0000E0002000EB0A0100900598F2
:105000004144A0EB01000590E00306D45B46214635
:10501000179A059800F0BBF90544002706E001A89F
:105020005A46C05D179990476D1C7F1C4745F6DBBB
:10503000E0030CD55B462146179A059800F0A7F9C6
:10504000054404E030205A46179990476D1C00999A
:10505000481E00900029F5DC08E0029802995A46A3
:105060000078491C0291179990476D1CBAF1000114
:10507000AAF1010AF1DC6BE1092801003031323379
:105080003435363738396162636465660000000084
:10509000303132333435363738394142434445466E
:1050A0000000000000F060F9054406F101063078C8
:1050B00000287FF4E9AD19B02846BDE8F08F6207FB
:1050C00000D4062709F1070222F0070CFCE80223AE
:1050D000E14603F000485FEA080C02D00FF27C2C96
:1050E0000DE05FEA045C02D50FF2742C07E05FEA82
:1050F000C47C02D00FF26C2C01E0AFF2700C4FF0C8
:10510000FF3823F00043CDF850C065280CD006DCF2
:10511000452809D046281DD047283ED13EE06628C4
:1051200018D0672839D139E00021112F01DB112077
:1051300000E0781CCDE9000106A90EA8FFF7EEFCFF
:10514000DDE90F010E9A03910021009207F1010A97
:1051500004914EE04FF000400097CDE9011006A900
:105160000EA8FFF7DBFCDDE90F0203920E9B1199FD
:105170000022DDF80CA00093049219B907F1010197
:1051800000EB010AB7EB0A0004D4C0F1FF3007F1CD
:10519000010A0490AAEB0700019046E0012F00DA13
:1051A00001270021112F01DD112000E03846CDE953
:1051B000000106A90EA8FFF7B1FCDDE90F010E9A68
:1051C0000391002104910092BA4621070CD403995F
:1051D000514500DA8A46BAF1010F05DD009AAAF1BD
:1051E0000101515C302908D0B84202DA10F1040FF5
:1051F00006DA0121CDE9011017E0AAF10101E9E782
:10520000002805DC049901440491AAEB000102E0A6
:10521000411C514500DD8A460499A0EB010000F1D4
:10522000010001904FF000400290200704D4019843
:10523000504501DBCDF8048000208DF84F00029826
:105240000DF14F07B0F1004F25D02B200E900298A2
:105250004FF0020800280CDA404202902D200E90F8
:1052600007E00A210298FFF7D7F93031029007F8DA
:10527000011DB8F10001A8F10108F2DC0298002834
:10528000EFD1791E0E980870307800F0200040F0C1
:10529000450007F8020D12A8A0EB070000F107086F
:1052A0001498007800B1012000EB0A01019801EB8D
:1052B000E07105984144A0EB0100A0F101000590C8
:1052C000E00306D45B462146179A059800F05FF884
:1052D00005441498007820B15A461799904705F173
:1052E0000105E00323D55B462146179A059800F097
:1052F0004EF805441BE00498002807DBDDE90301B4
:10530000884203DD0098405C179901E0179930202E
:105310005A46904704986D1C401C04900198401E0A
:10532000019004D12E205A46179990476D1CBAF16E
:105330000001AAF1010ADEDC05E017F8010B5A466C
:10534000179990476D1CB8F10001A8F10108F4DC31
:105350005B462146179A0598A4E600002D00000040
:105360002B000000200000002DE9F041044600253C
:105370001E461746880405D406E039462020B0476B
:1053800005F10105641EF8D52846BDE8F0812DE938
:10539000F041044600251E469046C80301D530273B
:1053A00000E02027880405D506E041463846B0478E
:1053B00005F10105641EF8D52846BDE8F08100001E
:1053C000E053000800000020C8000000FC4A00086C
:1053D000A8540008C8000020200400000C4B00085E
:1053E00000A24A04000000000000000001020304C3
:1053F000060708090000000001020304010203047B
:10540000060708090204060800000000000000006A
:105410000000000000000000FFEF0000000000009E
:1054200000000000AABB0000000065AA0100000007
:1054300000ABAA0200000000ACAA0300000000AD0F
:10544000AA0400000000AEAA0500000000AFAA06F2
:1054500000000000B0AA0700000000B1AA08000088
:105460000000B2AA0900000000B3AA0A0000000070
:10547000B4AA0B00000000B500000000000000000E
:105480000000000000000000E80300000100000030
:10549000000000000000000000000000000000000C
:0854A000000000000000000004
:04000005080000ED02
:00000001FF
